{
  "contractName": "AuctionST",
  "abi": [
    {
      "inputs": [
        {
          "internalType": "address",
          "name": "_tokenAddress",
          "type": "address"
        },
        {
          "internalType": "address",
          "name": "_worldAddress",
          "type": "address"
        }
      ],
      "stateMutability": "nonpayable",
      "type": "constructor"
    },
    {
      "anonymous": false,
      "inputs": [
        {
          "indexed": false,
          "internalType": "address",
          "name": "_owner",
          "type": "address"
        },
        {
          "indexed": false,
          "internalType": "address",
          "name": "_buyer",
          "type": "address"
        },
        {
          "indexed": false,
          "internalType": "uint32",
          "name": "_id",
          "type": "uint32"
        },
        {
          "indexed": false,
          "internalType": "uint32",
          "name": "_tokenTransferred",
          "type": "uint32"
        }
      ],
      "name": "AuctionCompleted",
      "type": "event"
    },
    {
      "anonymous": false,
      "inputs": [
        {
          "indexed": true,
          "internalType": "address",
          "name": "previousOwner",
          "type": "address"
        },
        {
          "indexed": true,
          "internalType": "address",
          "name": "newOwner",
          "type": "address"
        }
      ],
      "name": "OwnershipTransferred",
      "type": "event"
    },
    {
      "inputs": [],
      "name": "isActive",
      "outputs": [
        {
          "internalType": "bool",
          "name": "",
          "type": "bool"
        }
      ],
      "stateMutability": "view",
      "type": "function"
    },
    {
      "inputs": [],
      "name": "owner",
      "outputs": [
        {
          "internalType": "address",
          "name": "",
          "type": "address"
        }
      ],
      "stateMutability": "view",
      "type": "function"
    },
    {
      "inputs": [],
      "name": "renounceOwnership",
      "outputs": [],
      "stateMutability": "nonpayable",
      "type": "function"
    },
    {
      "inputs": [],
      "name": "sign",
      "outputs": [],
      "stateMutability": "nonpayable",
      "type": "function"
    },
    {
      "inputs": [
        {
          "internalType": "uint256",
          "name": "",
          "type": "uint256"
        }
      ],
      "name": "signed",
      "outputs": [
        {
          "internalType": "address",
          "name": "",
          "type": "address"
        }
      ],
      "stateMutability": "view",
      "type": "function"
    },
    {
      "inputs": [],
      "name": "signed_count",
      "outputs": [
        {
          "internalType": "uint256",
          "name": "",
          "type": "uint256"
        }
      ],
      "stateMutability": "view",
      "type": "function"
    },
    {
      "inputs": [
        {
          "internalType": "address",
          "name": "newOwner",
          "type": "address"
        }
      ],
      "name": "transferOwnership",
      "outputs": [],
      "stateMutability": "nonpayable",
      "type": "function"
    },
    {
      "inputs": [],
      "name": "invoke",
      "outputs": [],
      "stateMutability": "nonpayable",
      "type": "function"
    },
    {
      "inputs": [
        {
          "internalType": "address",
          "name": "_buyer",
          "type": "address"
        }
      ],
      "name": "setBuyer",
      "outputs": [
        {
          "internalType": "bool",
          "name": "",
          "type": "bool"
        }
      ],
      "stateMutability": "nonpayable",
      "type": "function"
    }
  ],
  "bytecode": "0x60806040523480156200001157600080fd5b5060405162001205380380620012058339818101604052810190620000379190620001cd565b6000828282600360146101000a81548160ff02191690831515021790555081600260016101000a81548173ffffffffffffffffffffffffffffffffffffffff021916908373ffffffffffffffffffffffffffffffffffffffff16021790555080600360006101000a81548173ffffffffffffffffffffffffffffffffffffffff021916908373ffffffffffffffffffffffffffffffffffffffff1602179055506001600260006101000a81548160ff021916908315150217905550505050600062000107620001ae60201b60201c565b905080600460006101000a81548173ffffffffffffffffffffffffffffffffffffffff021916908373ffffffffffffffffffffffffffffffffffffffff1602179055508073ffffffffffffffffffffffffffffffffffffffff16600073ffffffffffffffffffffffffffffffffffffffff167f8be0079c531659141344cd1fd0a4f28419497f9722a3daafe3b4186f6b6457e060405160405180910390a35050506200025c565b600033905090565b600081519050620001c78162000242565b92915050565b60008060408385031215620001e157600080fd5b6000620001f185828601620001b6565b92505060206200020485828601620001b6565b9150509250929050565b60006200021b8262000222565b9050919050565b600073ffffffffffffffffffffffffffffffffffffffff82169050919050565b6200024d816200020e565b81146200025957600080fd5b50565b610f99806200026c6000396000f3fe608060405234801561001057600080fd5b50600436106100935760003560e01c8063735957f811610066578063735957f8146100e85780638da5cb5b14610118578063a3f09ad614610136578063cab7f52114610166578063f2fde38b1461017057610093565b806322f3e2d4146100985780632ca15122146100b65780636e57d5f6146100c0578063715018a6146100de575b600080fd5b6100a061018c565b6040516100ad9190610d5f565b60405180910390f35b6100be61019f565b005b6100c86101aa565b6040516100d59190610dba565b60405180910390f35b6100e66101b0565b005b61010260048036038101906100fd9190610bf6565b6102ed565b60405161010f9190610cbb565b60405180910390f35b61012061032c565b60405161012d9190610cbb565b60405180910390f35b610150600480360381019061014b9190610ba4565b610356565b60405161015d9190610d5f565b60405180910390f35b61016e6104e2565b005b61018a60048036038101906101859190610ba4565b610836565b005b600260009054906101000a900460ff1681565b6101a8336109e2565b565b60015481565b6101b8610b48565b73ffffffffffffffffffffffffffffffffffffffff166101d661032c565b73ffffffffffffffffffffffffffffffffffffffff161461022c576040517f08c379a000000000000000000000000000000000000000000000000000000000815260040161022390610d9a565b60405180910390fd5b600073ffffffffffffffffffffffffffffffffffffffff16600460009054906101000a900473ffffffffffffffffffffffffffffffffffffffff1673ffffffffffffffffffffffffffffffffffffffff167f8be0079c531659141344cd1fd0a4f28419497f9722a3daafe3b4186f6b6457e060405160405180910390a36000600460006101000a81548173ffffffffffffffffffffffffffffffffffffffff021916908373ffffffffffffffffffffffffffffffffffffffff160217905550565b600081815481106102fd57600080fd5b906000526020600020016000915054906101000a900473ffffffffffffffffffffffffffffffffffffffff1681565b6000600460009054906101000a900473ffffffffffffffffffffffffffffffffffffffff16905090565b6000610360610b48565b73ffffffffffffffffffffffffffffffffffffffff1661037e61032c565b73ffffffffffffffffffffffffffffffffffffffff16146103d4576040517f08c379a00000000000000000000000000000000000000000000000000000000081526004016103cb90610d9a565b60405180910390fd5b60005b6001548110156104d7578273ffffffffffffffffffffffffffffffffffffffff1660008281548110610432577f4e487b7100000000000000000000000000000000000000000000000000000000600052603260045260246000fd5b9060005260206000200160009054906101000a900473ffffffffffffffffffffffffffffffffffffffff1673ffffffffffffffffffffffffffffffffffffffff1614156104c45782600560006101000a81548173ffffffffffffffffffffffffffffffffffffffff021916908373ffffffffffffffffffffffffffffffffffffffff16021790555060019150506104dd565b80806104cf90610e2e565b9150506103d7565b50600090505b919050565b6104ea610b48565b73ffffffffffffffffffffffffffffffffffffffff1661050861032c565b73ffffffffffffffffffffffffffffffffffffffff161461055e576040517f08c379a000000000000000000000000000000000000000000000000000000000815260040161055590610d9a565b60405180910390fd5b600073ffffffffffffffffffffffffffffffffffffffff16600560009054906101000a900473ffffffffffffffffffffffffffffffffffffffff1673ffffffffffffffffffffffffffffffffffffffff1614156105ba57600080fd5b6000600260019054906101000a900473ffffffffffffffffffffffffffffffffffffffff1673ffffffffffffffffffffffffffffffffffffffff1663dd62ed3e600560009054906101000a900473ffffffffffffffffffffffffffffffffffffffff16306040518363ffffffff1660e01b815260040161063b929190610cd6565b60206040518083038186803b15801561065357600080fd5b505afa158015610667573d6000803e3d6000fd5b505050506040513d601f19601f8201168201806040525081019061068b9190610c1f565b9050600260019054906101000a900473ffffffffffffffffffffffffffffffffffffffff1673ffffffffffffffffffffffffffffffffffffffff166323b872dd600560009054906101000a900473ffffffffffffffffffffffffffffffffffffffff1630846040518463ffffffff1660e01b815260040161070e93929190610cff565b602060405180830381600087803b15801561072857600080fd5b505af115801561073c573d6000803e3d6000fd5b505050506040513d601f19601f820116820180604052508101906107609190610bcd565b50600260019054906101000a900473ffffffffffffffffffffffffffffffffffffffff1673ffffffffffffffffffffffffffffffffffffffff1663a9059cbb600560009054906101000a900473ffffffffffffffffffffffffffffffffffffffff16836040518363ffffffff1660e01b81526004016107e0929190610d36565b602060405180830381600087803b1580156107fa57600080fd5b505af115801561080e573d6000803e3d6000fd5b505050506040513d601f19601f820116820180604052508101906108329190610bcd565b5050565b61083e610b48565b73ffffffffffffffffffffffffffffffffffffffff1661085c61032c565b73ffffffffffffffffffffffffffffffffffffffff16146108b2576040517f08c379a00000000000000000000000000000000000000000000000000000000081526004016108a990610d9a565b60405180910390fd5b600073ffffffffffffffffffffffffffffffffffffffff168173ffffffffffffffffffffffffffffffffffffffff161415610922576040517f08c379a000000000000000000000000000000000000000000000000000000000815260040161091990610d7a565b60405180910390fd5b8073ffffffffffffffffffffffffffffffffffffffff16600460009054906101000a900473ffffffffffffffffffffffffffffffffffffffff1673ffffffffffffffffffffffffffffffffffffffff167f8be0079c531659141344cd1fd0a4f28419497f9722a3daafe3b4186f6b6457e060405160405180910390a380600460006101000a81548173ffffffffffffffffffffffffffffffffffffffff021916908373ffffffffffffffffffffffffffffffffffffffff16021790555050565b6000805b600154811015610aa4578273ffffffffffffffffffffffffffffffffffffffff1660008281548110610a41577f4e487b7100000000000000000000000000000000000000000000000000000000600052603260045260246000fd5b9060005260206000200160009054906101000a900473ffffffffffffffffffffffffffffffffffffffff1673ffffffffffffffffffffffffffffffffffffffff161415610a915760019150610aa4565b8080610a9c90610e2e565b9150506109e6565b5080610b44576000829080600181540180825580915050600190039060005260206000200160009091909190916101000a81548173ffffffffffffffffffffffffffffffffffffffff021916908373ffffffffffffffffffffffffffffffffffffffff16021790555060016000815480929190610b2090610e2e565b9190505550600360149054906101000a900460ff1615610b4357610b426104e2565b5b5b5050565b600033905090565b600081359050610b5f81610f1e565b92915050565b600081519050610b7481610f35565b92915050565b600081359050610b8981610f4c565b92915050565b600081519050610b9e81610f4c565b92915050565b600060208284031215610bb657600080fd5b6000610bc484828501610b50565b91505092915050565b600060208284031215610bdf57600080fd5b6000610bed84828501610b65565b91505092915050565b600060208284031215610c0857600080fd5b6000610c1684828501610b7a565b91505092915050565b600060208284031215610c3157600080fd5b6000610c3f84828501610b8f565b91505092915050565b610c5181610de6565b82525050565b610c6081610df8565b82525050565b6000610c73602683610dd5565b9150610c7e82610ea6565b604082019050919050565b6000610c96602083610dd5565b9150610ca182610ef5565b602082019050919050565b610cb581610e24565b82525050565b6000602082019050610cd06000830184610c48565b92915050565b6000604082019050610ceb6000830185610c48565b610cf86020830184610c48565b9392505050565b6000606082019050610d146000830186610c48565b610d216020830185610c48565b610d2e6040830184610cac565b949350505050565b6000604082019050610d4b6000830185610c48565b610d586020830184610cac565b9392505050565b6000602082019050610d746000830184610c57565b92915050565b60006020820190508181036000830152610d9381610c66565b9050919050565b60006020820190508181036000830152610db381610c89565b9050919050565b6000602082019050610dcf6000830184610cac565b92915050565b600082825260208201905092915050565b6000610df182610e04565b9050919050565b60008115159050919050565b600073ffffffffffffffffffffffffffffffffffffffff82169050919050565b6000819050919050565b6000610e3982610e24565b91507fffffffffffffffffffffffffffffffffffffffffffffffffffffffffffffffff821415610e6c57610e6b610e77565b5b600182019050919050565b7f4e487b7100000000000000000000000000000000000000000000000000000000600052601160045260246000fd5b7f4f776e61626c653a206e6577206f776e657220697320746865207a65726f206160008201527f6464726573730000000000000000000000000000000000000000000000000000602082015250565b7f4f776e61626c653a2063616c6c6572206973206e6f7420746865206f776e6572600082015250565b610f2781610de6565b8114610f3257600080fd5b50565b610f3e81610df8565b8114610f4957600080fd5b50565b610f5581610e24565b8114610f6057600080fd5b5056fea2646970667358221220622b59c8ce8d25ece7dbeae441eb30a953fcf8f1fa46e2e70ab131b09b7acd5564736f6c63430008030033",
  "immutableReferences": {},
  "source": "pragma solidity ^0.8.3;\r\nimport \"./SmartTreaty.sol\"; \r\nimport \"@openzeppelin/contracts/access/Ownable.sol\";\r\n\r\ncontract AuctionST is SmartTreaty, Ownable {\r\n\r\n    address buyer;\r\n    \r\n    event AuctionCompleted(address _owner, address _buyer, uint32 _id, uint32 _tokenTransferred); \r\n\r\n    constructor(address _tokenAddress, address _worldAddress) SmartTreaty(false, _tokenAddress, _worldAddress) {\r\n    }\r\n\r\n    function invoke() override public onlyOwner {\r\n\r\n        require(buyer != address(0));\r\n        uint paymentAmount = tokenContract.allowance(buyer, address(this));\r\n\r\n        // Facilitate transaction\r\n        tokenContract.transferFrom(buyer, address(this), paymentAmount);\r\n        tokenContract.transfer(buyer, paymentAmount); \r\n\r\n        // Facilitate change of ownership \r\n        // embeddedWorld.entityToOwner\r\n\r\n    }\r\n\r\n    function setBuyer(address _buyer) external onlyOwner returns(bool) { \r\n\r\n        for (uint i = 0; i < signed_count; i++)\r\n        {\r\n            if (signed[i] == _buyer) \r\n            {\r\n                buyer = _buyer; \r\n                return true; \r\n            }\r\n        }\r\n\r\n        return false;\r\n        \r\n    }\r\n\r\n    \r\n}",
  "sourcePath": "C:/Users/Kuan/Documents/GitHub/ether-empire/contracts/smart_treaties/AuctionST.sol",
  "compiler": {
    "name": "solc",
    "version": "0.8.3+commit.8d00100c.Emscripten.clang"
  },
  "schemaVersion": "3.3.4",
  "updatedAt": "2021-05-05T03:06:15.674Z",
  "devdoc": {
    "kind": "dev",
    "methods": {
      "owner()": {
        "details": "Returns the address of the current owner."
      },
      "renounceOwnership()": {
        "details": "Leaves the contract without owner. It will not be possible to call `onlyOwner` functions anymore. Can only be called by the current owner. NOTE: Renouncing ownership will leave the contract without an owner, thereby removing any functionality that is only available to the owner."
      },
      "transferOwnership(address)": {
        "details": "Transfers ownership of the contract to a new account (`newOwner`). Can only be called by the current owner."
      }
    },
    "version": 1
  },
  "userdoc": {
    "kind": "user",
    "methods": {},
    "version": 1
  }
}