{
  "contractName": "EntityTransferST",
  "abi": [
    {
      "inputs": [
        {
          "internalType": "contract EtherEmpireToken",
          "name": "_tokenAddress",
          "type": "address"
        },
        {
          "internalType": "contract EtherEmpireWorld",
          "name": "_worldAddress",
          "type": "address"
        }
      ],
      "stateMutability": "nonpayable",
      "type": "constructor"
    },
    {
      "inputs": [
        {
          "internalType": "address",
          "name": "signatory",
          "type": "address"
        }
      ],
      "name": "sign",
      "outputs": [],
      "stateMutability": "nonpayable",
      "type": "function"
    },
    {
      "inputs": [
        {
          "internalType": "uint256",
          "name": "",
          "type": "uint256"
        }
      ],
      "name": "signed",
      "outputs": [
        {
          "internalType": "address",
          "name": "",
          "type": "address"
        }
      ],
      "stateMutability": "view",
      "type": "function"
    },
    {
      "inputs": [],
      "name": "signed_count",
      "outputs": [
        {
          "internalType": "uint256",
          "name": "",
          "type": "uint256"
        }
      ],
      "stateMutability": "view",
      "type": "function"
    },
    {
      "inputs": [],
      "name": "duplicate",
      "outputs": [
        {
          "internalType": "address",
          "name": "",
          "type": "address"
        }
      ],
      "stateMutability": "nonpayable",
      "type": "function"
    },
    {
      "inputs": [
        {
          "internalType": "uint32",
          "name": "_id",
          "type": "uint32"
        },
        {
          "internalType": "address",
          "name": "_newOwner",
          "type": "address"
        }
      ],
      "name": "invoke",
      "outputs": [],
      "stateMutability": "nonpayable",
      "type": "function"
    }
  ],
  "bytecode": "0x608060405234801561001057600080fd5b506040516107cf3803806107cf833981810160405281019061003291906100e9565b818181600260006101000a81548173ffffffffffffffffffffffffffffffffffffffff021916908373ffffffffffffffffffffffffffffffffffffffff16021790555080600360006101000a81548173ffffffffffffffffffffffffffffffffffffffff021916908373ffffffffffffffffffffffffffffffffffffffff160217905550505050506101a9565b6000815190506100ce8161017b565b92915050565b6000815190506100e381610192565b92915050565b600080604083850312156100fc57600080fd5b600061010a858286016100bf565b925050602061011b858286016100d4565b9150509250929050565b60006101308261015b565b9050919050565b600061014282610125565b9050919050565b600061015482610125565b9050919050565b600073ffffffffffffffffffffffffffffffffffffffff82169050919050565b61018481610137565b811461018f57600080fd5b50565b61019b81610149565b81146101a657600080fd5b50565b610617806101b86000396000f3fe608060405234801561001057600080fd5b50600436106100575760003560e01c80631f922d061461005c5780634639ae511461007a5780636e57d5f614610096578063735957f8146100b4578063f71be837146100e4575b600080fd5b610064610100565b6040516100719190610479565b60405180910390f35b610094600480360381019061008f9190610410565b610105565b005b61009e610198565b6040516100ab9190610494565b60405180910390f35b6100ce60048036038101906100c991906103e7565b61019e565b6040516100db9190610479565b60405180910390f35b6100fe60048036038101906100f991906103be565b6101dd565b005b600090565b600360009054906101000a900473ffffffffffffffffffffffffffffffffffffffff1673ffffffffffffffffffffffffffffffffffffffff1663baf1d42583836040518363ffffffff1660e01b81526004016101629291906104af565b600060405180830381600087803b15801561017c57600080fd5b505af1158015610190573d6000803e3d6000fd5b505050505050565b60015481565b600081815481106101ae57600080fd5b906000526020600020016000915054906101000a900473ffffffffffffffffffffffffffffffffffffffff1681565b600360009054906101000a900473ffffffffffffffffffffffffffffffffffffffff1673ffffffffffffffffffffffffffffffffffffffff163373ffffffffffffffffffffffffffffffffffffffff161461023757600080fd5b6000805b6001548110156102f9578273ffffffffffffffffffffffffffffffffffffffff1660008281548110610296577f4e487b7100000000000000000000000000000000000000000000000000000000600052603260045260246000fd5b9060005260206000200160009054906101000a900473ffffffffffffffffffffffffffffffffffffffff1673ffffffffffffffffffffffffffffffffffffffff1614156102e657600191506102f9565b80806102f190610524565b91505061023b565b508061037b576000829080600181540180825580915050600190039060005260206000200160009091909190916101000a81548173ffffffffffffffffffffffffffffffffffffffff021916908373ffffffffffffffffffffffffffffffffffffffff1602179055506001600081548092919061037590610524565b91905055505b5050565b60008135905061038e8161059c565b92915050565b6000813590506103a3816105b3565b92915050565b6000813590506103b8816105ca565b92915050565b6000602082840312156103d057600080fd5b60006103de8482850161037f565b91505092915050565b6000602082840312156103f957600080fd5b600061040784828501610394565b91505092915050565b6000806040838503121561042357600080fd5b6000610431858286016103a9565b92505060206104428582860161037f565b9150509250929050565b610455816104d8565b82525050565b6104648161050a565b82525050565b61047381610514565b82525050565b600060208201905061048e600083018461044c565b92915050565b60006020820190506104a9600083018461045b565b92915050565b60006040820190506104c4600083018561046a565b6104d1602083018461044c565b9392505050565b60006104e3826104ea565b9050919050565b600073ffffffffffffffffffffffffffffffffffffffff82169050919050565b6000819050919050565b600063ffffffff82169050919050565b600061052f8261050a565b91507fffffffffffffffffffffffffffffffffffffffffffffffffffffffffffffffff8214156105625761056161056d565b5b600182019050919050565b7f4e487b7100000000000000000000000000000000000000000000000000000000600052601160045260246000fd5b6105a5816104d8565b81146105b057600080fd5b50565b6105bc8161050a565b81146105c757600080fd5b50565b6105d381610514565b81146105de57600080fd5b5056fea264697066735822122045964a189b7ac85c9f32a43e97a06f18dc4c7edd624406f0345ff699e9c6a81164736f6c63430008030033",
  "immutableReferences": {},
  "source": "pragma solidity ^0.8.3;\nimport \"../EtherEmpireWorld.sol\"; \n\ncontract EntityTransferST is SmartTreaty {\n\n    constructor(EtherEmpireToken _tokenAddress, EtherEmpireWorld _worldAddress) SmartTreaty(_tokenAddress, _worldAddress) {\n    }\n\n    // To be implemented\n    function duplicate() public override returns(address) {\n        // EntityTransferST newTreaty = new EntityTransferST(tokenContract, embeddedWorld);\n        // return address(newTreaty);\n    } \n\n    function invoke(uint32 _id, address _newOwner) public {\n        embeddedWorld.changeEntityOwner(_id, _newOwner);\n    }\n}",
  "sourcePath": "/Users/jacky/Personal-Projects/ether-empire/contracts/smart_treaties/EntityTransferST.sol",
  "compiler": {
    "name": "solc",
    "version": "0.8.3+commit.8d00100c.Emscripten.clang"
  },
  "schemaVersion": "3.3.4",
  "updatedAt": "2021-05-20T05:47:55.886Z",
  "devdoc": {
    "kind": "dev",
    "methods": {},
    "version": 1
  },
  "userdoc": {
    "kind": "user",
    "methods": {},
    "version": 1
  }
}