{
  "contractName": "EntityTransferPrimitive",
  "abi": [
    {
      "inputs": [
        {
          "internalType": "address",
          "name": "_worldAddress",
          "type": "address"
        }
      ],
      "stateMutability": "nonpayable",
      "type": "constructor"
    },
    {
      "inputs": [
        {
          "internalType": "uint32",
          "name": "_id",
          "type": "uint32"
        },
        {
          "internalType": "address",
          "name": "_newOwner",
          "type": "address"
        }
      ],
      "name": "invoke",
      "outputs": [],
      "stateMutability": "nonpayable",
      "type": "function"
    }
  ],
  "bytecode": "0x608060405234801561001057600080fd5b506040516104453803806104458339818101604052810190610032919061008d565b806000806101000a81548173ffffffffffffffffffffffffffffffffffffffff021916908373ffffffffffffffffffffffffffffffffffffffff160217905550506100ff565b600081519050610087816100e8565b92915050565b60006020828403121561009f57600080fd5b60006100ad84828501610078565b91505092915050565b60006100c1826100c8565b9050919050565b600073ffffffffffffffffffffffffffffffffffffffff82169050919050565b6100f1816100b6565b81146100fc57600080fd5b50565b6103378061010e6000396000f3fe608060405234801561001057600080fd5b506004361061002b5760003560e01c80634639ae5114610030575b600080fd5b61004a6004803603810190610045919061017d565b61004c565b005b600060603373ffffffffffffffffffffffffffffffffffffffff16848460405160240161007a92919061021f565b6040516020818303038152906040527fa7ee50fb000000000000000000000000000000000000000000000000000000007bffffffffffffffffffffffffffffffffffffffffffffffffffffffff19166020820180517bffffffffffffffffffffffffffffffffffffffffffffffffffffffff83818316178352505050506040516101049190610208565b600060405180830381855af49150503d806000811461013f576040519150601f19603f3d011682016040523d82523d6000602084013e610144565b606091505b50809250819350505050505050565b600081359050610162816102d3565b92915050565b600081359050610177816102ea565b92915050565b6000806040838503121561019057600080fd5b600061019e85828601610168565b92505060206101af85828601610153565b9150509250929050565b6101c28161025e565b82525050565b60006101d382610248565b6101dd8185610253565b93506101ed8185602086016102a0565b80840191505092915050565b61020281610290565b82525050565b600061021482846101c8565b915081905092915050565b600060408201905061023460008301856101f9565b61024160208301846101b9565b9392505050565b600081519050919050565b600081905092915050565b600061026982610270565b9050919050565b600073ffffffffffffffffffffffffffffffffffffffff82169050919050565b600063ffffffff82169050919050565b60005b838110156102be5780820151818401526020810190506102a3565b838111156102cd576000848401525b50505050565b6102dc8161025e565b81146102e757600080fd5b50565b6102f381610290565b81146102fe57600080fd5b5056fea2646970667358221220725e12b4cd5c7ab9c4a67ca4cb4948b0f234f243b9288a5f1fc7541754de8c6b64736f6c63430008030033",
  "immutableReferences": {},
  "source": "pragma solidity ^0.8.3;\r\n\r\ncontract EntityTransferPrimitive {\r\n    address worldAddress; \r\n\r\n    constructor(address _worldAddress) {\r\n        worldAddress = _worldAddress; \r\n    }\r\n    function invoke(uint32 _id, address _newOwner) public {\r\n        bool error; \r\n        bytes memory returnval; \r\n        (error, returnval) = msg.sender.delegatecall(abi.encodeWithSignature(\"changeEntityOwner(uint32, address)\", _id, _newOwner));\r\n        // if (error) revert(); \r\n    }\r\n}",
  "sourcePath": "C:/Users/Kuan/Documents/GitHub/ether-empire/contracts/smart_treaties/EntityTransferPrimitive.sol",
  "compiler": {
    "name": "solc",
    "version": "0.8.3+commit.8d00100c.Emscripten.clang"
  },
  "schemaVersion": "3.3.4",
  "updatedAt": "2021-05-07T05:33:52.593Z",
  "networkType": "ethereum",
  "devdoc": {
    "kind": "dev",
    "methods": {},
    "version": 1
  },
  "userdoc": {
    "kind": "user",
    "methods": {},
    "version": 1
  }
}