{
  "contractName": "ERC827Proxy",
  "abi": [
    {
      "inputs": [],
      "stateMutability": "nonpayable",
      "type": "constructor"
    },
    {
      "inputs": [],
      "name": "token",
      "outputs": [
        {
          "internalType": "contract IERC827",
          "name": "",
          "type": "address"
        }
      ],
      "stateMutability": "view",
      "type": "function"
    },
    {
      "inputs": [
        {
          "internalType": "address",
          "name": "_target",
          "type": "address"
        },
        {
          "internalType": "bytes",
          "name": "_data",
          "type": "bytes"
        }
      ],
      "name": "callContract",
      "outputs": [
        {
          "internalType": "bool",
          "name": "",
          "type": "bool"
        }
      ],
      "stateMutability": "payable",
      "type": "function"
    }
  ],
  "bytecode": "0x608060405234801561001057600080fd5b50336000806101000a81548173ffffffffffffffffffffffffffffffffffffffff021916908373ffffffffffffffffffffffffffffffffffffffff16021790555061092e806100606000396000f3fe6080604052600436106100295760003560e01c8063037106681461002e578063fc0c546a1461005e575b600080fd5b610048600480360381019061004391906103c9565b610089565b6040516100559190610562565b60405180910390f35b34801561006a57600080fd5b50610073610313565b604051610080919061057d565b60405180910390f35b60008060009054906101000a900473ffffffffffffffffffffffffffffffffffffffff1673ffffffffffffffffffffffffffffffffffffffff163373ffffffffffffffffffffffffffffffffffffffff161461011a576040517f08c379a000000000000000000000000000000000000000000000000000000000815260040161011190610598565b60405180910390fd5b6000808473ffffffffffffffffffffffffffffffffffffffff1634856040516101439190610530565b60006040518083038185875af1925050503d8060008114610180576040519150601f19603f3d011682016040523d82523d6000602084013e610185565b606091505b5091509150816101ca576040517f08c379a00000000000000000000000000000000000000000000000000000000081526004016101c1906105f8565b60405180910390fd5b60008060009054906101000a900473ffffffffffffffffffffffffffffffffffffffff1673ffffffffffffffffffffffffffffffffffffffff166370a08231306040518263ffffffff1660e01b81526004016102269190610547565b60206040518083038186803b15801561023e57600080fd5b505afa158015610252573d6000803e3d6000fd5b505050506040513d601f19601f82011682018060405250810190610276919061041d565b146102b6576040517f08c379a00000000000000000000000000000000000000000000000000000000081526004016102ad906105d8565b60405180910390fd5b600047146102f9576040517f08c379a00000000000000000000000000000000000000000000000000000000081526004016102f0906105b8565b60405180910390fd5b600073ffffffffffffffffffffffffffffffffffffffff16ff5b60008054906101000a900473ffffffffffffffffffffffffffffffffffffffff1681565b600061034a6103458461063d565b610618565b90508281526020810184848401111561036257600080fd5b61036d848285610701565b509392505050565b600081359050610384816108ca565b92915050565b600082601f83011261039b57600080fd5b81356103ab848260208601610337565b91505092915050565b6000815190506103c3816108e1565b92915050565b600080604083850312156103dc57600080fd5b60006103ea85828601610375565b925050602083013567ffffffffffffffff81111561040757600080fd5b6104138582860161038a565b9150509250929050565b60006020828403121561042f57600080fd5b600061043d848285016103b4565b91505092915050565b61044f81610695565b82525050565b61045e816106a7565b82525050565b600061046f8261066e565b6104798185610679565b9350610489818560208601610710565b80840191505092915050565b61049e816106dd565b82525050565b60006104b1603483610684565b91506104bc826107b4565b604082019050919050565b60006104d4602d83610684565b91506104df82610803565b604082019050919050565b60006104f7602f83610684565b915061050282610852565b604082019050919050565b600061051a601183610684565b9150610525826108a1565b602082019050919050565b600061053c8284610464565b915081905092915050565b600060208201905061055c6000830184610446565b92915050565b60006020820190506105776000830184610455565b92915050565b60006020820190506105926000830184610495565b92915050565b600060208201905081810360008301526105b1816104a4565b9050919050565b600060208201905081810360008301526105d1816104c7565b9050919050565b600060208201905081810360008301526105f1816104ea565b9050919050565b600060208201905081810360008301526106118161050d565b9050919050565b6000610622610633565b905061062e8282610743565b919050565b6000604051905090565b600067ffffffffffffffff82111561065857610657610774565b5b610661826107a3565b9050602081019050919050565b600081519050919050565b600081905092915050565b600082825260208201905092915050565b60006106a0826106b3565b9050919050565b60008115159050919050565b600073ffffffffffffffffffffffffffffffffffffffff82169050919050565b6000819050919050565b60006106e8826106ef565b9050919050565b60006106fa826106b3565b9050919050565b82818337600083830152505050565b60005b8381101561072e578082015181840152602081019050610713565b8381111561073d576000848401525b50505050565b61074c826107a3565b810181811067ffffffffffffffff8211171561076b5761076a610774565b5b80604052505050565b7f4e487b7100000000000000000000000000000000000000000000000000000000600052604160045260246000fd5b6000601f19601f8301169050919050565b7f50726f7879206f6e6c792063616e20657865637574652063616c6c732066726f60008201527f6d2074686520746f6b656e20636f6e7472616374000000000000000000000000602082015250565b7f43616e7420656e642070726f78792063616c6c2077697468206574682062616c60008201527f616e636520696e2070726f787900000000000000000000000000000000000000602082015250565b7f43616e7420656e642070726f78792063616c6c207769746820746f6b656e206260008201527f616c616e636520696e2070726f78790000000000000000000000000000000000602082015250565b7f50726f78792063616c6c206661696c6564000000000000000000000000000000600082015250565b6108d381610695565b81146108de57600080fd5b50565b6108ea816106d3565b81146108f557600080fd5b5056fea2646970667358221220e692be0a660ca2d360c3b6598ba0ac7b8a99dae01294132bb626893c18b920bb64736f6c63430008030033",
  "immutableReferences": {},
  "source": "/* solium-disable security/no-low-level-calls */\r\n\r\npragma solidity ^0.8.3;\r\n\r\nimport \"./IERC827.sol\";\r\n\r\n\r\n/**\r\n * @title ERC827Proxy\r\n *\r\n * @dev Proxy to forward contract calls from token contract to any other\r\n * contract.\r\n */\r\ncontract ERC827Proxy {\r\n\r\n  IERC827 public token;\r\n\r\n  /**\r\n   * @dev constructor\r\n   */\r\n  constructor() {\r\n    token = IERC827(msg.sender);\r\n  }\r\n\r\n  /**\r\n   * @dev Forward calls only from the token contract that created it\r\n   * @param _target address The address which you want to transfer to\r\n   * @param _data bytes The data to be executed in the call\r\n   */\r\n  function callContract(\r\n    address _target, bytes memory _data\r\n  ) public payable returns (bool) {\r\n    require(\r\n      msg.sender == address(token),\r\n      \"Proxy only can execute calls from the token contract\"\r\n    );\r\n    // solium-disable-next-line security/no-call-value, no-unused-vars\r\n    (bool success, bytes memory data) = _target.call{value:msg.value}(_data);\r\n    require(success, \"Proxy call failed\");\r\n    require(token.balanceOf(address(this)) == 0, \"Cant end proxy call with token balance in proxy\");\r\n    require(address(this).balance == 0, \"Cant end proxy call with eth balance in proxy\");\r\n\r\n    selfdestruct(payable(0));\r\n    return true;\r\n  }\r\n\r\n}",
  "sourcePath": "C:\\Users\\Kuan\\Documents\\GitHub\\ether-empire\\contracts\\libraries\\ERC827Proxy.sol",
  "compiler": {
    "name": "solc",
    "version": "0.8.3+commit.8d00100c.Emscripten.clang"
  },
  "schemaVersion": "3.3.4",
  "updatedAt": "2021-05-09T17:03:12.887Z",
  "networkType": "ethereum",
  "devdoc": {
    "details": "Proxy to forward contract calls from token contract to any other contract.",
    "kind": "dev",
    "methods": {
      "callContract(address,bytes)": {
        "details": "Forward calls only from the token contract that created it",
        "params": {
          "_data": "bytes The data to be executed in the call",
          "_target": "address The address which you want to transfer to"
        }
      },
      "constructor": {
        "details": "constructor"
      }
    },
    "title": "ERC827Proxy",
    "version": 1
  },
  "userdoc": {
    "kind": "user",
    "methods": {},
    "version": 1
  }
}