{
  "contractName": "EtherEmpireWorld",
  "abi": [
    {
      "inputs": [
        {
          "internalType": "uint64",
          "name": "_yieldMin_32x32",
          "type": "uint64"
        },
        {
          "internalType": "uint64",
          "name": "_yieldRange_32x32",
          "type": "uint64"
        },
        {
          "internalType": "uint64",
          "name": "_armyToWallTokenRatio_32x32",
          "type": "uint64"
        },
        {
          "internalType": "uint64",
          "name": "_farmOccupationBurnRate_32x32",
          "type": "uint64"
        },
        {
          "internalType": "contract EtherEmpireToken",
          "name": "_tokenContractAddress",
          "type": "address"
        },
        {
          "internalType": "uint64",
          "name": "_blocksToDivest",
          "type": "uint64"
        }
      ],
      "stateMutability": "nonpayable",
      "type": "constructor"
    },
    {
      "anonymous": false,
      "inputs": [
        {
          "indexed": false,
          "internalType": "address",
          "name": "_owner",
          "type": "address"
        },
        {
          "indexed": false,
          "internalType": "uint32",
          "name": "_id",
          "type": "uint32"
        },
        {
          "indexed": false,
          "internalType": "uint16",
          "name": "_locx",
          "type": "uint16"
        },
        {
          "indexed": false,
          "internalType": "uint16",
          "name": "_locy",
          "type": "uint16"
        }
      ],
      "name": "ArmyMoved",
      "type": "event"
    },
    {
      "anonymous": false,
      "inputs": [
        {
          "indexed": false,
          "internalType": "address",
          "name": "_owner",
          "type": "address"
        },
        {
          "indexed": false,
          "internalType": "uint32",
          "name": "_id",
          "type": "uint32"
        },
        {
          "indexed": false,
          "internalType": "uint16",
          "name": "_locx",
          "type": "uint16"
        },
        {
          "indexed": false,
          "internalType": "uint16",
          "name": "_locy",
          "type": "uint16"
        }
      ],
      "name": "ArmyRecruited",
      "type": "event"
    },
    {
      "anonymous": false,
      "inputs": [
        {
          "indexed": false,
          "internalType": "address",
          "name": "_owner",
          "type": "address"
        },
        {
          "indexed": false,
          "internalType": "uint32",
          "name": "_id",
          "type": "uint32"
        },
        {
          "indexed": false,
          "internalType": "uint16",
          "name": "_locx",
          "type": "uint16"
        },
        {
          "indexed": false,
          "internalType": "uint16",
          "name": "_locy",
          "type": "uint16"
        }
      ],
      "name": "FarmBuilt",
      "type": "event"
    },
    {
      "anonymous": false,
      "inputs": [
        {
          "indexed": false,
          "internalType": "address",
          "name": "_owner",
          "type": "address"
        },
        {
          "indexed": false,
          "internalType": "uint32",
          "name": "_id",
          "type": "uint32"
        },
        {
          "indexed": false,
          "internalType": "uint16",
          "name": "_locx",
          "type": "uint16"
        },
        {
          "indexed": false,
          "internalType": "uint16",
          "name": "_locy",
          "type": "uint16"
        },
        {
          "indexed": false,
          "internalType": "uint64",
          "name": "_completionBlock",
          "type": "uint64"
        }
      ],
      "name": "HarvestInitiated",
      "type": "event"
    },
    {
      "anonymous": false,
      "inputs": [
        {
          "indexed": true,
          "internalType": "address",
          "name": "previousOwner",
          "type": "address"
        },
        {
          "indexed": true,
          "internalType": "address",
          "name": "newOwner",
          "type": "address"
        }
      ],
      "name": "OwnershipTransferred",
      "type": "event"
    },
    {
      "anonymous": false,
      "inputs": [
        {
          "indexed": false,
          "internalType": "address",
          "name": "_owner",
          "type": "address"
        },
        {
          "indexed": false,
          "internalType": "uint32",
          "name": "_id",
          "type": "uint32"
        },
        {
          "indexed": false,
          "internalType": "uint16",
          "name": "_locx",
          "type": "uint16"
        },
        {
          "indexed": false,
          "internalType": "uint16",
          "name": "_locy",
          "type": "uint16"
        }
      ],
      "name": "WallBuilt",
      "type": "event"
    },
    {
      "inputs": [
        {
          "internalType": "uint32",
          "name": "",
          "type": "uint32"
        }
      ],
      "name": "allEntities",
      "outputs": [
        {
          "internalType": "uint32",
          "name": "id",
          "type": "uint32"
        },
        {
          "internalType": "enum EtherEmpireTypes.EntityType",
          "name": "entityType",
          "type": "uint8"
        },
        {
          "internalType": "uint64",
          "name": "qualifier1_32x32",
          "type": "uint64"
        },
        {
          "internalType": "uint64",
          "name": "qualifier2_32x32",
          "type": "uint64"
        },
        {
          "internalType": "uint16",
          "name": "locx",
          "type": "uint16"
        },
        {
          "internalType": "uint16",
          "name": "locy",
          "type": "uint16"
        }
      ],
      "stateMutability": "view",
      "type": "function",
      "constant": true
    },
    {
      "inputs": [],
      "name": "armyToWallTokenRatio_32x32",
      "outputs": [
        {
          "internalType": "uint64",
          "name": "",
          "type": "uint64"
        }
      ],
      "stateMutability": "view",
      "type": "function",
      "constant": true
    },
    {
      "inputs": [],
      "name": "blocksToDivest",
      "outputs": [
        {
          "internalType": "uint64",
          "name": "",
          "type": "uint64"
        }
      ],
      "stateMutability": "view",
      "type": "function",
      "constant": true
    },
    {
      "inputs": [],
      "name": "farmOccupationBurnRate_32x32",
      "outputs": [
        {
          "internalType": "uint64",
          "name": "",
          "type": "uint64"
        }
      ],
      "stateMutability": "view",
      "type": "function",
      "constant": true
    },
    {
      "inputs": [],
      "name": "globalLandValue_32x32",
      "outputs": [
        {
          "internalType": "uint64",
          "name": "",
          "type": "uint64"
        }
      ],
      "stateMutability": "view",
      "type": "function",
      "constant": true
    },
    {
      "inputs": [
        {
          "internalType": "uint64",
          "name": "",
          "type": "uint64"
        }
      ],
      "name": "landValueAddedAtBlock_32x32",
      "outputs": [
        {
          "internalType": "int64",
          "name": "",
          "type": "int64"
        }
      ],
      "stateMutability": "view",
      "type": "function",
      "constant": true
    },
    {
      "inputs": [],
      "name": "map_height",
      "outputs": [
        {
          "internalType": "uint16",
          "name": "",
          "type": "uint16"
        }
      ],
      "stateMutability": "view",
      "type": "function",
      "constant": true
    },
    {
      "inputs": [],
      "name": "map_width",
      "outputs": [
        {
          "internalType": "uint16",
          "name": "",
          "type": "uint16"
        }
      ],
      "stateMutability": "view",
      "type": "function",
      "constant": true
    },
    {
      "inputs": [],
      "name": "owner",
      "outputs": [
        {
          "internalType": "address",
          "name": "",
          "type": "address"
        }
      ],
      "stateMutability": "view",
      "type": "function",
      "constant": true
    },
    {
      "inputs": [],
      "name": "renounceOwnership",
      "outputs": [],
      "stateMutability": "nonpayable",
      "type": "function"
    },
    {
      "inputs": [
        {
          "internalType": "address",
          "name": "newOwner",
          "type": "address"
        }
      ],
      "name": "transferOwnership",
      "outputs": [],
      "stateMutability": "nonpayable",
      "type": "function"
    },
    {
      "inputs": [],
      "name": "yieldMin_32x32",
      "outputs": [
        {
          "internalType": "uint64",
          "name": "",
          "type": "uint64"
        }
      ],
      "stateMutability": "view",
      "type": "function",
      "constant": true
    },
    {
      "inputs": [],
      "name": "yieldRange_32x32",
      "outputs": [
        {
          "internalType": "uint64",
          "name": "",
          "type": "uint64"
        }
      ],
      "stateMutability": "view",
      "type": "function",
      "constant": true
    },
    {
      "inputs": [
        {
          "internalType": "uint16",
          "name": "_locx",
          "type": "uint16"
        },
        {
          "internalType": "uint16",
          "name": "_locy",
          "type": "uint16"
        },
        {
          "internalType": "uint8",
          "name": "layer",
          "type": "uint8"
        }
      ],
      "name": "_idAtXY",
      "outputs": [
        {
          "internalType": "uint32",
          "name": "",
          "type": "uint32"
        }
      ],
      "stateMutability": "view",
      "type": "function",
      "constant": true
    },
    {
      "inputs": [
        {
          "internalType": "uint16",
          "name": "_width",
          "type": "uint16"
        },
        {
          "internalType": "uint16",
          "name": "_height",
          "type": "uint16"
        },
        {
          "internalType": "uint256",
          "name": "_seed",
          "type": "uint256"
        }
      ],
      "name": "populateLand",
      "outputs": [],
      "stateMutability": "nonpayable",
      "type": "function"
    },
    {
      "inputs": [
        {
          "internalType": "uint16",
          "name": "_locx",
          "type": "uint16"
        },
        {
          "internalType": "uint16",
          "name": "_locy",
          "type": "uint16"
        }
      ],
      "name": "yieldValue",
      "outputs": [
        {
          "internalType": "uint64",
          "name": "",
          "type": "uint64"
        }
      ],
      "stateMutability": "view",
      "type": "function",
      "constant": true
    },
    {
      "inputs": [
        {
          "internalType": "uint16",
          "name": "_locx",
          "type": "uint16"
        },
        {
          "internalType": "uint16",
          "name": "_locy",
          "type": "uint16"
        },
        {
          "internalType": "uint32",
          "name": "tokenStaked",
          "type": "uint32"
        }
      ],
      "name": "buildFarm",
      "outputs": [
        {
          "internalType": "uint32",
          "name": "",
          "type": "uint32"
        }
      ],
      "stateMutability": "nonpayable",
      "type": "function"
    },
    {
      "inputs": [
        {
          "internalType": "uint16",
          "name": "_locx",
          "type": "uint16"
        },
        {
          "internalType": "uint16",
          "name": "_locy",
          "type": "uint16"
        },
        {
          "internalType": "uint32",
          "name": "tokenSpent",
          "type": "uint32"
        }
      ],
      "name": "buildWall",
      "outputs": [
        {
          "internalType": "uint32",
          "name": "",
          "type": "uint32"
        }
      ],
      "stateMutability": "nonpayable",
      "type": "function"
    },
    {
      "inputs": [
        {
          "internalType": "uint16",
          "name": "_locx",
          "type": "uint16"
        },
        {
          "internalType": "uint16",
          "name": "_locy",
          "type": "uint16"
        },
        {
          "internalType": "uint32",
          "name": "tokenSpent",
          "type": "uint32"
        }
      ],
      "name": "buildArmy",
      "outputs": [
        {
          "internalType": "uint32",
          "name": "",
          "type": "uint32"
        }
      ],
      "stateMutability": "nonpayable",
      "type": "function"
    },
    {
      "inputs": [
        {
          "internalType": "uint16",
          "name": "_locx",
          "type": "uint16"
        },
        {
          "internalType": "uint16",
          "name": "_locy",
          "type": "uint16"
        }
      ],
      "name": "harvestFarm",
      "outputs": [
        {
          "internalType": "bool",
          "name": "",
          "type": "bool"
        }
      ],
      "stateMutability": "nonpayable",
      "type": "function"
    },
    {
      "inputs": [
        {
          "internalType": "uint32",
          "name": "_id",
          "type": "uint32"
        },
        {
          "internalType": "address",
          "name": "_newOwner",
          "type": "address"
        }
      ],
      "name": "changeEntityOwner",
      "outputs": [],
      "stateMutability": "nonpayable",
      "type": "function"
    },
    {
      "inputs": [
        {
          "internalType": "uint32",
          "name": "_id",
          "type": "uint32"
        }
      ],
      "name": "getEntityOwner",
      "outputs": [
        {
          "internalType": "address",
          "name": "",
          "type": "address"
        }
      ],
      "stateMutability": "view",
      "type": "function",
      "constant": true
    },
    {
      "inputs": [
        {
          "internalType": "uint32",
          "name": "_self",
          "type": "uint32"
        },
        {
          "internalType": "uint32",
          "name": "_other",
          "type": "uint32"
        }
      ],
      "name": "armyAttack",
      "outputs": [
        {
          "internalType": "bool",
          "name": "",
          "type": "bool"
        }
      ],
      "stateMutability": "nonpayable",
      "type": "function"
    },
    {
      "inputs": [
        {
          "internalType": "uint32",
          "name": "_id",
          "type": "uint32"
        },
        {
          "internalType": "uint16",
          "name": "_locx",
          "type": "uint16"
        },
        {
          "internalType": "uint16",
          "name": "_locy",
          "type": "uint16"
        }
      ],
      "name": "armyMove",
      "outputs": [
        {
          "internalType": "bool",
          "name": "",
          "type": "bool"
        }
      ],
      "stateMutability": "nonpayable",
      "type": "function"
    }
  ],
  "bytecode": "0x60806040523480156200001157600080fd5b506040516200597b3803806200597b833981810160405281019062000037919062000282565b6000620000496200024c60201b60201c565b9050806000806101000a81548173ffffffffffffffffffffffffffffffffffffffff021916908373ffffffffffffffffffffffffffffffffffffffff1602179055508073ffffffffffffffffffffffffffffffffffffffff16600073ffffffffffffffffffffffffffffffffffffffff167f8be0079c531659141344cd1fd0a4f28419497f9722a3daafe3b4186f6b6457e060405160405180910390a35085600760006101000a81548167ffffffffffffffff021916908367ffffffffffffffff16021790555084600760086101000a81548167ffffffffffffffff021916908367ffffffffffffffff16021790555083600760106101000a81548167ffffffffffffffff021916908367ffffffffffffffff16021790555082600760186101000a81548167ffffffffffffffff021916908367ffffffffffffffff1602179055506000600860006101000a81548167ffffffffffffffff021916908367ffffffffffffffff1602179055506000600260046101000a81548163ffffffff021916908363ffffffff16021790555081600260086101000a81548173ffffffffffffffffffffffffffffffffffffffff021916908373ffffffffffffffffffffffffffffffffffffffff160217905550806008806101000a81548167ffffffffffffffff021916908367ffffffffffffffff160217905550505050505050620003a8565b600033905090565b600081519050620002658162000374565b92915050565b6000815190506200027c816200038e565b92915050565b60008060008060008060c087890312156200029c57600080fd5b6000620002ac89828a016200026b565b9650506020620002bf89828a016200026b565b9550506040620002d289828a016200026b565b9450506060620002e589828a016200026b565b9350506080620002f889828a0162000254565b92505060a06200030b89828a016200026b565b9150509295509295509295565b6000620003258262000340565b9050919050565b6000620003398262000318565b9050919050565b600073ffffffffffffffffffffffffffffffffffffffff82169050919050565b600067ffffffffffffffff82169050919050565b6200037f816200032c565b81146200038b57600080fd5b50565b620003998162000360565b8114620003a557600080fd5b50565b6155c380620003b86000396000f3fe608060405234801561001057600080fd5b50600436106101585760003560e01c80638da5cb5b116100c3578063dacd27dc1161007c578063dacd27dc1461041a578063e21f34df14610438578063f02cae6114610456578063f2fde38b14610474578063f3e716bb14610490578063f77ddaa8146104c057610158565b80638da5cb5b1461031b578063a13822b214610339578063ac479a8a14610369578063b46306c91461039e578063baf1d425146103ce578063d5bda1a5146103ea57610158565b8063715018a611610115578063715018a61461024557806371e08fad1461024f57806375f189f91461027f578063762992581461029d57806384937d88146102cd5780638776e527146102eb57610158565b806315b7d2271461015d5780632b2a33f11461017b5780633320c24c146101ab5780634b544fba146101db5780635205e5fb146101f757806354ef495214610227575b600080fd5b6101656104de565b6040516101729190614647565b60405180910390f35b61019560048036038101906101909190613e4e565b6104f2565b6040516101a29190614662565b60405180910390f35b6101c560048036038101906101c09190613fdc565b610b64565b6040516101d2919061444c565b60405180910390f35b6101f560048036038101906101f09190613dff565b610b84565b005b610211600480360381019061020c9190613dc3565b61102f565b60405161021e91906147d7565b60405180910390f35b61022f6113eb565b60405161023c91906147d7565b60405180910390f35b61024d611405565b005b61026960048036038101906102649190613e4e565b61153f565b6040516102769190614662565b60405180910390f35b610287611d2a565b60405161029491906147d7565b60405180910390f35b6102b760048036038101906102b29190613f51565b611d44565b6040516102c49190614431565b60405180910390f35b6102d5611e3b565b6040516102e291906147d7565b60405180910390f35b61030560048036038101906103009190613fa0565b611e55565b6040516103129190614431565b60405180910390f35b610323611f17565b604051610330919061431e565b60405180910390f35b610353600480360381019061034e9190613dc3565b611f40565b6040516103609190614431565b60405180910390f35b610383600480360381019061037e9190613eec565b612473565b604051610395969594939291906146b4565b60405180910390f35b6103b860048036038101906103b39190613eec565b612510565b6040516103c5919061431e565b60405180910390f35b6103e860048036038101906103e39190613f15565b612559565b005b61040460048036038101906103ff9190613e4e565b612702565b6040516104119190614662565b60405180910390f35b610422612c23565b60405161042f91906147d7565b60405180910390f35b610440612c3d565b60405161044d91906147d7565b60405180910390f35b61045e612c55565b60405161046b9190614647565b60405180910390f35b61048e60048036038101906104899190613d71565b612c67565b005b6104aa60048036038101906104a59190613e9d565b612e10565b6040516104b79190614662565b60405180910390f35b6104c8612e88565b6040516104d591906147d7565b60405180910390f35b600260009054906101000a900461ffff1681565b60008383600160006004811115610532577f4e487b7100000000000000000000000000000000000000000000000000000000600052602160045260246000fd5b6001600060028054906101000a900461ffff16600260009054906101000a900461ffff168560ff166105649190614d4a565b61056e9190614d4a565b600260009054906101000a900461ffff168661058a9190614d4a565b876105959190614803565b61059f9190614803565b61ffff1663ffffffff16815260200190815260200160002060000160049054906101000a900460ff166004811115610600577f4e487b7100000000000000000000000000000000000000000000000000000000600052602160045260246000fd5b14610640576040517f08c379a0000000000000000000000000000000000000000000000000000000008152600401610637906145e7565b60405180910390fd5b6000600260009054906101000a900461ffff1660028054906101000a900461ffff1661066c9190614d4a565b600260009054906101000a900461ffff16886106889190614d4a565b896106939190614803565b61069d9190614803565b61ffff1690506000439050600260089054906101000a900473ffffffffffffffffffffffffffffffffffffffff1673ffffffffffffffffffffffffffffffffffffffff166323b872dd33308a6040518463ffffffff1660e01b815260040161070793929190614339565b602060405180830381600087803b15801561072157600080fd5b505af1158015610735573d6000803e3d6000fd5b505050506040513d601f19601f820116820180604052508101906107599190613d9a565b50600061078660208963ffffffff1667ffffffffffffffff16901b67ffffffffffffffff16602080612ea2565b905060006001600061079a8d8d6000612e10565b63ffffffff1663ffffffff168152602001908152602001600020600001600d9054906101000a900467ffffffffffffffff1690506107f28267ffffffffffffffff168267ffffffffffffffff16602080602080612f4f565b91506040518060c001604052808563ffffffff168152602001600480811115610844577f4e487b7100000000000000000000000000000000000000000000000000000000600052602160045260246000fd5b81526020018467ffffffffffffffff1681526020018367ffffffffffffffff1681526020018c61ffff1681526020018b61ffff16815250600160008663ffffffff1663ffffffff16815260200190815260200160002060008201518160000160006101000a81548163ffffffff021916908363ffffffff16021790555060208201518160000160046101000a81548160ff02191690836004811115610912577f4e487b7100000000000000000000000000000000000000000000000000000000600052602160045260246000fd5b021790555060408201518160000160056101000a81548167ffffffffffffffff021916908367ffffffffffffffff160217905550606082015181600001600d6101000a81548167ffffffffffffffff021916908367ffffffffffffffff16021790555060808201518160000160156101000a81548161ffff021916908361ffff16021790555060a08201518160000160176101000a81548161ffff021916908361ffff160217905550905050610a07600560008567ffffffffffffffff1667ffffffffffffffff16815260200190815260200160002060009054906101000a900460070b60070b8360070b602080602061317f565b600560008567ffffffffffffffff1667ffffffffffffffff16815260200190815260200160002060006101000a81548167ffffffffffffffff021916908360070b67ffffffffffffffff160217905550610a90600860009054906101000a900467ffffffffffffffff1667ffffffffffffffff168367ffffffffffffffff1660208060206132e7565b600860006101000a81548167ffffffffffffffff021916908367ffffffffffffffff16021790555033600360008663ffffffff1663ffffffff16815260200190815260200160002060006101000a81548173ffffffffffffffffffffffffffffffffffffffff021916908373ffffffffffffffffffffffffffffffffffffffff1602179055507f55976d8e78c6bf477a2ce62d3c1ecdb4a7d8c4415ed039624f32664add77c06433858d8d604051610b4b9493929190614370565b60405180910390a1839750505050505050509392505050565b60056020528060005260406000206000915054906101000a900460070b81565b610b8c613314565b73ffffffffffffffffffffffffffffffffffffffff16610baa611f17565b73ffffffffffffffffffffffffffffffffffffffff1614610c00576040517f08c379a0000000000000000000000000000000000000000000000000000000008152600401610bf790614587565b60405180910390fd5b60006004811115610c3a577f4e487b7100000000000000000000000000000000000000000000000000000000600052602160045260246000fd5b600160008063ffffffff16815260200190815260200160002060000160049054906101000a900460ff166004811115610c9c577f4e487b7100000000000000000000000000000000000000000000000000000000600052602160045260246000fd5b14610cdc576040517f08c379a0000000000000000000000000000000000000000000000000000000008152600401610cd390614627565b60405180910390fd5b82600260006101000a81548161ffff021916908361ffff160217905550816002806101000a81548161ffff021916908361ffff1602179055506000805b8461ffff168161ffff1610156110285760005b8461ffff168161ffff161015611014576000600260009054906101000a900461ffff1683610d5a9190614d4a565b82610d659190614803565b61ffff16905060006040518060c001604052808363ffffffff16815260200160016004811115610dbe577f4e487b7100000000000000000000000000000000000000000000000000000000600052602160045260246000fd5b8152602001600067ffffffffffffffff168152602001610e39600760009054906101000a900467ffffffffffffffff1667ffffffffffffffff16610e2f8a8a80610e079061504c565b9b50600760089054906101000a900467ffffffffffffffff1667ffffffffffffffff1661331c565b60208060206132e7565b67ffffffffffffffff1681526020018461ffff1681526020018561ffff16815250905080600160008463ffffffff1663ffffffff16815260200190815260200160002060008201518160000160006101000a81548163ffffffff021916908363ffffffff16021790555060208201518160000160046101000a81548160ff02191690836004811115610ef4577f4e487b7100000000000000000000000000000000000000000000000000000000600052602160045260246000fd5b021790555060408201518160000160056101000a81548167ffffffffffffffff021916908367ffffffffffffffff160217905550606082015181600001600d6101000a81548167ffffffffffffffff021916908367ffffffffffffffff16021790555060808201518160000160156101000a81548161ffff021916908361ffff16021790555060a08201518160000160176101000a81548161ffff021916908361ffff1602179055509050506000600360008463ffffffff1663ffffffff16815260200190815260200160002060006101000a81548173ffffffffffffffffffffffffffffffffffffffff021916908373ffffffffffffffffffffffffffffffffffffffff1602179055505050808061100c90615021565b915050610d2c565b50808061102090615021565b915050610d19565b5050505050565b600080600260009054906101000a900461ffff1660028054906101000a900461ffff1661105c9190614d4a565b600260009054906101000a900461ffff16846110789190614d4a565b856110839190614803565b61108d9190614803565b61ffff1690506000600160008363ffffffff1663ffffffff16815260200190815260200160002090506004808111156110ef577f4e487b7100000000000000000000000000000000000000000000000000000000600052602160045260246000fd5b8160000160049054906101000a900460ff166004811115611139577f4e487b7100000000000000000000000000000000000000000000000000000000600052602160045260246000fd5b14611179576040517f08c379a000000000000000000000000000000000000000000000000000000000815260040161117090614547565b60405180910390fd5b6000600860009054906101000a900467ffffffffffffffff169050600043905060008080600660008863ffffffff1663ffffffff16815260200190815260200160002060009054906101000a900467ffffffffffffffff1667ffffffffffffffff161461124457600160088054906101000a900467ffffffffffffffff16600660008963ffffffff1663ffffffff16815260200190815260200160002060009054906101000a900467ffffffffffffffff166112359190614ea8565b61123f9190614ea8565b611246565b825b905060008390505b600160008863ffffffff1663ffffffff16815260200190815260200160002060000160059054906101000a900467ffffffffffffffff1667ffffffffffffffff168167ffffffffffffffff1611156113db578167ffffffffffffffff168167ffffffffffffffff1611611352576113446112fa87600001600d9054906101000a900467ffffffffffffffff1667ffffffffffffffff168767ffffffffffffffff1660208060208061335e565b600460008467ffffffffffffffff1667ffffffffffffffff16815260200190815260200160002060009054906101000a900463ffffffff1663ffffffff1660206000602080612f4f565b8361134f91906148cb565b92505b6113c68560070b600560008467ffffffffffffffff1667ffffffffffffffff16815260200190815260200160002060009054906101000a900460070b7fffffffffffffffffffffffffffffffffffffffffffffffffffffffffffffffff6113b99190614c63565b60070b602080602061317f565b945080806113d390614ff7565b91505061124e565b5081965050505050505092915050565b600760109054906101000a900467ffffffffffffffff1681565b61140d613314565b73ffffffffffffffffffffffffffffffffffffffff1661142b611f17565b73ffffffffffffffffffffffffffffffffffffffff1614611481576040517f08c379a000000000000000000000000000000000000000000000000000000000815260040161147890614587565b60405180910390fd5b600073ffffffffffffffffffffffffffffffffffffffff1660008054906101000a900473ffffffffffffffffffffffffffffffffffffffff1673ffffffffffffffffffffffffffffffffffffffff167f8be0079c531659141344cd1fd0a4f28419497f9722a3daafe3b4186f6b6457e060405160405180910390a360008060006101000a81548173ffffffffffffffffffffffffffffffffffffffff021916908373ffffffffffffffffffffffffffffffffffffffff160217905550565b6000806001600060028054906101000a900461ffff16600260009054906101000a900461ffff1660016115729190614d4a565b61157c9190614d4a565b600260009054906101000a900461ffff16876115989190614d4a565b886115a39190614803565b6115ad9190614803565b61ffff1663ffffffff1681526020019081526020016000206040518060c00160405290816000820160009054906101000a900463ffffffff1663ffffffff1663ffffffff1681526020016000820160049054906101000a900460ff166004811115611641577f4e487b7100000000000000000000000000000000000000000000000000000000600052602160045260246000fd5b6004811115611679577f4e487b7100000000000000000000000000000000000000000000000000000000600052602160045260246000fd5b81526020016000820160059054906101000a900467ffffffffffffffff1667ffffffffffffffff1667ffffffffffffffff16815260200160008201600d9054906101000a900467ffffffffffffffff1667ffffffffffffffff1667ffffffffffffffff1681526020016000820160159054906101000a900461ffff1661ffff1661ffff1681526020016000820160179054906101000a900461ffff1661ffff1661ffff1681525050905060048081111561175c577f4e487b7100000000000000000000000000000000000000000000000000000000600052602160045260246000fd5b81602001516004811115611799577f4e487b7100000000000000000000000000000000000000000000000000000000600052602160045260246000fd5b146117d9576040517f08c379a00000000000000000000000000000000000000000000000000000000081526004016117d090614507565b60405180910390fd5b3373ffffffffffffffffffffffffffffffffffffffff1660036000836000015163ffffffff1663ffffffff16815260200190815260200160002060009054906101000a900473ffffffffffffffffffffffffffffffffffffffff1673ffffffffffffffffffffffffffffffffffffffff161461188a576040517f08c379a000000000000000000000000000000000000000000000000000000000815260040161188190614567565b60405180910390fd5b600060028054906101000a900461ffff16600260009054906101000a900461ffff1660026118b89190614d4a565b6118c29190614d4a565b61ffff16600260049054906101000a900463ffffffff166118e39190614891565b90506000439050600260089054906101000a900473ffffffffffffffffffffffffffffffffffffffff1673ffffffffffffffffffffffffffffffffffffffff166323b872dd3330886040518463ffffffff1660e01b815260040161194993929190614339565b602060405180830381600087803b15801561196357600080fd5b505af1158015611977573d6000803e3d6000fd5b505050506040513d601f19601f8201168201806040525081019061199b9190613d9a565b5060006119ec60208763ffffffff1667ffffffffffffffff16901b67ffffffffffffffff16600760109054906101000a900467ffffffffffffffff1667ffffffffffffffff1660208060208061335e565b90506040518060c001604052808463ffffffff16815260200160036004811115611a3f577f4e487b7100000000000000000000000000000000000000000000000000000000600052602160045260246000fd5b81526020018367ffffffffffffffff1681526020018267ffffffffffffffff1681526020018961ffff1681526020018861ffff16815250600160008563ffffffff1663ffffffff16815260200190815260200160002060008201518160000160006101000a81548163ffffffff021916908363ffffffff16021790555060208201518160000160046101000a81548160ff02191690836004811115611b0d577f4e487b7100000000000000000000000000000000000000000000000000000000600052602160045260246000fd5b021790555060408201518160000160056101000a81548167ffffffffffffffff021916908367ffffffffffffffff160217905550606082015181600001600d6101000a81548167ffffffffffffffff021916908367ffffffffffffffff16021790555060808201518160000160156101000a81548161ffff021916908361ffff16021790555060a08201518160000160176101000a81548161ffff021916908361ffff16021790555090505085600460008467ffffffffffffffff1667ffffffffffffffff16815260200190815260200160002060009054906101000a900463ffffffff16611bfc9190614891565b600460008467ffffffffffffffff1667ffffffffffffffff16815260200190815260200160002060006101000a81548163ffffffff021916908363ffffffff16021790555033600360008563ffffffff1663ffffffff16815260200190815260200160002060006101000a81548173ffffffffffffffffffffffffffffffffffffffff021916908373ffffffffffffffffffffffffffffffffffffffff1602179055506001600260048282829054906101000a900463ffffffff16611cc19190614891565b92506101000a81548163ffffffff021916908363ffffffff1602179055507ff6d687f7b1506dd0afa44fe5ca3ba6e87c4943689d87cba8eabacf9debe4ca2433848a8a604051611d149493929190614370565b60405180910390a1829450505050509392505050565b600760089054906101000a900467ffffffffffffffff1681565b60008333611d5282826134dc565b600073__EtherEmpireCombat_____________________631524961188888860016003600a6040518763ffffffff1660e01b8152600401611d9896959493929190614715565b60206040518083038186803b158015611db057600080fd5b505af4158015611dc4573d6000803e3d6000fd5b505050506040513d601f19601f82011682018060405250810190611de89190613d9a565b90508015611e2e577fc9c7219e12f0b5ddc828e2e1479d53e8e5416665400152bd5fe1c021efbb322033888888604051611e259493929190614370565b60405180910390a15b8093505050509392505050565b600760009054906101000a900467ffffffffffffffff1681565b60008233611e6382826134dc565b73__EtherEmpireCombat_____________________636d030c518686600160036009600760189054906101000a900467ffffffffffffffff166040518763ffffffff1660e01b8152600401611ebd96959493929190614776565b60206040518083038186803b158015611ed557600080fd5b505af4158015611ee9573d6000803e3d6000fd5b505050506040513d601f19601f82011682018060405250810190611f0d9190613d9a565b9250505092915050565b60008060009054906101000a900473ffffffffffffffffffffffffffffffffffffffff16905090565b60008060028054906101000a900461ffff16600260009054906101000a900461ffff16611f6d9190614d4a565b600260009054906101000a900461ffff1684611f899190614d4a565b85611f949190614803565b611f9e9190614803565b61ffff169050611fae81336134dc565b6000600160008363ffffffff1663ffffffff168152602001908152602001600020600001600d9054906101000a900467ffffffffffffffff169050600060016000611ffb88886000612e10565b63ffffffff1663ffffffff168152602001908152602001600020600001600d9054906101000a900467ffffffffffffffff16905060004390506000600660008663ffffffff1663ffffffff16815260200190815260200160002060009054906101000a900467ffffffffffffffff1667ffffffffffffffff1614156122a05760088054906101000a900467ffffffffffffffff168161209a91906148cb565b600660008663ffffffff1663ffffffff16815260200190815260200160002060006101000a81548167ffffffffffffffff021916908367ffffffffffffffff160217905550612153600560008367ffffffffffffffff1667ffffffffffffffff16815260200190815260200160002060009054906101000a900460070b60070b847fffffffffffffffffffffffffffffffffffffffffffffffffffffffffffffffff6121469190614c63565b60070b602080602061317f565b600560008367ffffffffffffffff1667ffffffffffffffff16815260200190815260200160002060006101000a81548167ffffffffffffffff021916908360070b67ffffffffffffffff1602179055506121f9600860009054906101000a900467ffffffffffffffff1660070b847fffffffffffffffffffffffffffffffffffffffffffffffffffffffffffffffff6121ec9190614c63565b60070b602080602061317f565b600860006101000a81548167ffffffffffffffff021916908367ffffffffffffffff1602179055507f9f7fcb213b8386bddd453ea273fa6bd97515bffdaec3a593bd6ebfbc92d2fbb833858989600660008a63ffffffff1663ffffffff16815260200190815260200160002060009054906101000a900467ffffffffffffffff1660405161228b9594939291906143b5565b60405180910390a1600094505050505061246d565b4367ffffffffffffffff16600660008663ffffffff1663ffffffff16815260200190815260200160002060009054906101000a900467ffffffffffffffff1667ffffffffffffffff1611156122fc57600094505050505061246d565b6123208367ffffffffffffffff168367ffffffffffffffff1660208060208061335e565b9250600061232e888861102f565b6123528567ffffffffffffffff168667ffffffffffffffff16602080602080612f4f565b61235c91906148cb565b9050600260089054906101000a900473ffffffffffffffffffffffffffffffffffffffff1673ffffffffffffffffffffffffffffffffffffffff1663a9059cbb33836040518363ffffffff1660e01b81526004016123bb929190614408565b602060405180830381600087803b1580156123d557600080fd5b505af11580156123e9573d6000803e3d6000fd5b505050506040513d601f19601f8201168201806040525081019061240d9190613d9a565b506000600660008763ffffffff1663ffffffff16815260200190815260200160002060006101000a81548167ffffffffffffffff021916908367ffffffffffffffff16021790555061246385336001600361358d565b6001955050505050505b92915050565b60016020528060005260406000206000915090508060000160009054906101000a900463ffffffff16908060000160049054906101000a900460ff16908060000160059054906101000a900467ffffffffffffffff169080600001600d9054906101000a900467ffffffffffffffff16908060000160159054906101000a900461ffff16908060000160179054906101000a900461ffff16905086565b6000600360008363ffffffff1663ffffffff16815260200190815260200160002060009054906101000a900473ffffffffffffffffffffffffffffffffffffffff169050919050565b600360008363ffffffff1663ffffffff16815260200190815260200160002060009054906101000a900473ffffffffffffffffffffffffffffffffffffffff1673ffffffffffffffffffffffffffffffffffffffff163373ffffffffffffffffffffffffffffffffffffffff1614806126975750600c6000600360008563ffffffff1663ffffffff16815260200190815260200160002060009054906101000a900473ffffffffffffffffffffffffffffffffffffffff1673ffffffffffffffffffffffffffffffffffffffff1673ffffffffffffffffffffffffffffffffffffffff16815260200190815260200160002060003373ffffffffffffffffffffffffffffffffffffffff1673ffffffffffffffffffffffffffffffffffffffff16815260200190815260200160002060009054906101000a900460ff165b6126a057600080fd5b80600360008463ffffffff1663ffffffff16815260200190815260200160002060006101000a81548173ffffffffffffffffffffffffffffffffffffffff021916908373ffffffffffffffffffffffffffffffffffffffff1602179055505050565b60008383600160006004811115612742577f4e487b7100000000000000000000000000000000000000000000000000000000600052602160045260246000fd5b6001600060028054906101000a900461ffff16600260009054906101000a900461ffff168560ff166127749190614d4a565b61277e9190614d4a565b600260009054906101000a900461ffff168661279a9190614d4a565b876127a59190614803565b6127af9190614803565b61ffff1663ffffffff16815260200190815260200160002060000160049054906101000a900460ff166004811115612810577f4e487b7100000000000000000000000000000000000000000000000000000000600052602160045260246000fd5b14612850576040517f08c379a0000000000000000000000000000000000000000000000000000000008152600401612847906145e7565b60405180910390fd5b6000600260009054906101000a900461ffff1660028054906101000a900461ffff1661287c9190614d4a565b600260009054906101000a900461ffff16886128989190614d4a565b896128a39190614803565b6128ad9190614803565b61ffff1690506000439050600260089054906101000a900473ffffffffffffffffffffffffffffffffffffffff1673ffffffffffffffffffffffffffffffffffffffff166323b872dd33308a6040518463ffffffff1660e01b815260040161291793929190614339565b602060405180830381600087803b15801561293157600080fd5b505af1158015612945573d6000803e3d6000fd5b505050506040513d601f19601f820116820180604052508101906129699190613d9a565b50600060208863ffffffff1667ffffffffffffffff16901b90506040518060c001604052808463ffffffff168152602001600260048111156129d4577f4e487b7100000000000000000000000000000000000000000000000000000000600052602160045260246000fd5b81526020018367ffffffffffffffff1681526020018267ffffffffffffffff1681526020018b61ffff1681526020018a61ffff16815250600160008563ffffffff1663ffffffff16815260200190815260200160002060008201518160000160006101000a81548163ffffffff021916908363ffffffff16021790555060208201518160000160046101000a81548160ff02191690836004811115612aa2577f4e487b7100000000000000000000000000000000000000000000000000000000600052602160045260246000fd5b021790555060408201518160000160056101000a81548167ffffffffffffffff021916908367ffffffffffffffff160217905550606082015181600001600d6101000a81548167ffffffffffffffff021916908367ffffffffffffffff16021790555060808201518160000160156101000a81548161ffff021916908361ffff16021790555060a08201518160000160176101000a81548161ffff021916908361ffff16021790555090505087600460008467ffffffffffffffff1667ffffffffffffffff16815260200190815260200160002060009054906101000a900463ffffffff16612b919190614891565b600460008467ffffffffffffffff1667ffffffffffffffff16815260200190815260200160002060006101000a81548163ffffffff021916908363ffffffff1602179055507feccb62409f7c15694f95b0febf07fe47b3ee14bbb921e7d80032cad5d7e9e16a33848c8c604051612c0b9493929190614370565b60405180910390a18296505050505050509392505050565b600860009054906101000a900467ffffffffffffffff1681565b60088054906101000a900467ffffffffffffffff1681565b60028054906101000a900461ffff1681565b612c6f613314565b73ffffffffffffffffffffffffffffffffffffffff16612c8d611f17565b73ffffffffffffffffffffffffffffffffffffffff1614612ce3576040517f08c379a0000000000000000000000000000000000000000000000000000000008152600401612cda90614587565b60405180910390fd5b600073ffffffffffffffffffffffffffffffffffffffff168173ffffffffffffffffffffffffffffffffffffffff161415612d53576040517f08c379a0000000000000000000000000000000000000000000000000000000008152600401612d4a906144a7565b60405180910390fd5b8073ffffffffffffffffffffffffffffffffffffffff1660008054906101000a900473ffffffffffffffffffffffffffffffffffffffff1673ffffffffffffffffffffffffffffffffffffffff167f8be0079c531659141344cd1fd0a4f28419497f9722a3daafe3b4186f6b6457e060405160405180910390a3806000806101000a81548173ffffffffffffffffffffffffffffffffffffffff021916908373ffffffffffffffffffffffffffffffffffffffff16021790555050565b60008160ff1660028054906101000a900461ffff16600260009054906101000a900461ffff16612e409190614d4a565b612e4a9190614d4a565b600260009054906101000a900461ffff1684612e669190614d4a565b85612e719190614803565b612e7b9190614803565b61ffff1690509392505050565b600760189054906101000a900467ffffffffffffffff1681565b600080612eae85613827565b60ff612eba9190614edc565b60ff16905060028482612ecd919061483b565b612ed7919061509f565b81612ee29190614e74565b905060008360028684612ef5919061483b565b612eff9190614940565b612f099190614de0565b905060008112612f2b5780612f208388901b613980565b901c92505050612f48565b80612f35906150d0565b612f418388901b613980565b901b925050505b9392505050565b600080871480612f5f5750600086145b15612f6d5760009050613175565b60008588901c905060008682901b89612f869190614e74565b905060008689901c905060008782901b8a612fa19190614e74565b905060008285612fb19190614d86565b905060008285612fc19190614d86565b905060008387612fd19190614d86565b905060008686612fe19190614d86565b905060018b6002612ff29190614a2e565b612ffc9190614e74565b84111561303e576040517f08c379a0000000000000000000000000000000000000000000000000000000008152600401613035906145c7565b60405180910390fd5b60008a85901b90508c8e613052919061483b565b8b106130b6578c8e8c6130659190614e74565b61306f9190614e74565b84901b8e8c61307e9190614e74565b83901b8e8d61308d9190614e74565b85901b61309a919061483b565b6130a4919061483b565b816130af919061483b565b9050613168565b8a8d8f6130c3919061483b565b6130cd9190614e74565b84901c816130db919061483b565b90508d8b10613105578d8b6130f09190614e74565b82901b816130fe919061483b565b9050613122565b8a8e6131119190614e74565b82901c8161311f919061483b565b90505b8c8b1061314a578c8b6131359190614e74565b83901b81613143919061483b565b9050613167565b8a8d6131569190614e74565b83901c81613164919061483b565b90505b5b8099505050505050505050505b9695505050505050565b60008061318b87613b4c565b9050600061319887613b4c565b9050600088121580156131ac575060008712155b156131da576131d1826131c0838989613b6e565b86896131cc919061483b565b613bfc565b925050506132de565b600088121580156131ec575060008713155b80613205575060008813158015613204575060008712155b5b1561328e5780821061323a5761323182613220838989613b6e565b868961322c919061483b565b613c6d565b925050506132de565b61325a81613249848989613b6e565b8689613255919061483b565b613c6d565b7fffffffffffffffffffffffffffffffffffffffffffffffffffffffffffffffff6132859190614b4c565b925050506132de565b6132ae8261329d838989613b6e565b86896132a9919061483b565b613bfc565b7fffffffffffffffffffffffffffffffffffffffffffffffffffffffffffffffff6132d99190614b4c565b925050505b95945050505050565b6000613309866132f8878787613b6e565b8487613304919061483b565b613bfc565b905095945050505050565b600033905090565b60008184846040516020016133329291906142f2565b6040516020818303038152906040528051906020012060001c613355919061509f565b90509392505050565b60008086116133a2576040517f08c379a0000000000000000000000000000000000000000000000000000000008152600401613399906144e7565b60405180910390fd5b60006133ad88613827565b60ff6133b99190614edc565b60ff169050600087828a901b6133cf91906149aa565b9050600082886133df919061483b565b87866133eb919061483b565b6133f59190614de0565b90506000811215613417578061340a906150d0565b82901c93505050506134d2565b600082828385901b925082901c14613464576040517f08c379a000000000000000000000000000000000000000000000000000000000815260040161345b906145a7565b60405180910390fd5b60018688613472919061483b565b600261347e9190614a2e565b6134889190614e74565b8111156134ca576040517f08c379a00000000000000000000000000000000000000000000000000000000081526004016134c1906145a7565b60405180910390fd5b809450505050505b9695505050505050565b8073ffffffffffffffffffffffffffffffffffffffff16600360008463ffffffff1663ffffffff16815260200190815260200160002060009054906101000a900473ffffffffffffffffffffffffffffffffffffffff1673ffffffffffffffffffffffffffffffffffffffff1614613589576040517f08c379a000000000000000000000000000000000000000000000000000000000815260040161358090614607565b60405180910390fd5b5050565b60008260008663ffffffff1663ffffffff16815260200190815260200160002060000160006101000a81548163ffffffff021916908363ffffffff16021790555060008260008663ffffffff1663ffffffff16815260200190815260200160002060000160046101000a81548160ff02191690836004811115613639577f4e487b7100000000000000000000000000000000000000000000000000000000600052602160045260246000fd5b021790555060008260008663ffffffff1663ffffffff16815260200190815260200160002060000160056101000a81548167ffffffffffffffff021916908367ffffffffffffffff16021790555060008260008663ffffffff1663ffffffff168152602001908152602001600020600001600d6101000a81548167ffffffffffffffff021916908367ffffffffffffffff16021790555060008260008663ffffffff1663ffffffff16815260200190815260200160002060000160156101000a81548161ffff021916908361ffff16021790555060008260008663ffffffff1663ffffffff16815260200190815260200160002060000160176101000a81548161ffff021916908361ffff1602179055507f2bb23083392c38dde5df982d5b95489a0b96017d9e113d5a264c15869b164110848260008763ffffffff1663ffffffff16815260200190815260200160002060009054906101000a900473ffffffffffffffffffffffffffffffffffffffff16856040516137bb9392919061467d565b60405180910390a160008160008663ffffffff1663ffffffff16815260200190815260200160002060006101000a81548173ffffffffffffffffffffffffffffffffffffffff021916908373ffffffffffffffffffffffffffffffffffffffff16021790555050505050565b600080821161386b576040517f08c379a000000000000000000000000000000000000000000000000000000000815260040161386290614487565b60405180910390fd5b700100000000000000000000000000000000821061389a57608082901c91506080816138979190614909565b90505b6801000000000000000082106138c157604082901c91506040816138be9190614909565b90505b64010000000082106138e457602082901c91506020816138e19190614909565b90505b62010000821061390557601082901c91506010816139029190614909565b90505b610100821061392557600882901c91506008816139229190614909565b90505b6010821061394457600482901c91506004816139419190614909565b90505b6004821061396357600282901c91506002816139609190614909565b90505b6002821061397b576001816139789190614909565b90505b919050565b6000808214156139935760009050613b47565b600082905060006001905070010000000000000000000000000000000082106139c557608082901c9150604081901b90505b6801000000000000000082106139e457604082901c9150602081901b90505b64010000000082106139ff57602082901c9150601081901b90505b620100008210613a1857601082901c9150600881901b90505b6101008210613a3057600882901c9150600481901b90505b60108210613a4757600482901c9150600281901b90505b60088210613a5757600181901b90505b60018185613a6591906149aa565b82613a70919061483b565b901c905060018185613a8291906149aa565b82613a8d919061483b565b901c905060018185613a9f91906149aa565b82613aaa919061483b565b901c905060018185613abc91906149aa565b82613ac7919061483b565b901c905060018185613ad991906149aa565b82613ae4919061483b565b901c905060018185613af691906149aa565b82613b01919061483b565b901c905060018185613b1391906149aa565b82613b1e919061483b565b901c905060008185613b3091906149aa565b9050808210613b3f5780613b41565b815b93505050505b919050565b600080821215613b655781613b60906150d0565b613b67565b815b9050919050565b6000828211613b8d578183613b839190614e74565b84901c9050613bf5565b6000848484613b9c9190614e74565b8585613ba89190614e74565b87901b925082901c14613bf0576040517f08c379a0000000000000000000000000000000000000000000000000000000008152600401613be790614527565b60405180910390fd5b809150505b9392505050565b600083826002613c0c9190614a2e565b8486613c18919061483b565b925082613c25919061509f565b1015613c66576040517f08c379a0000000000000000000000000000000000000000000000000000000008152600401613c5d906144c7565b60405180910390fd5b9392505050565b600083826002613c7d9190614a2e565b8486613c899190614e74565b925082613c96919061509f565b1115613cd7576040517f08c379a0000000000000000000000000000000000000000000000000000000008152600401613cce90614467565b60405180910390fd5b9392505050565b600081359050613ced816154ec565b92915050565b600081519050613d0281615503565b92915050565b600081359050613d178161551a565b92915050565b600081359050613d2c81615531565b92915050565b600081359050613d4181615548565b92915050565b600081359050613d568161555f565b92915050565b600081359050613d6b81615576565b92915050565b600060208284031215613d8357600080fd5b6000613d9184828501613cde565b91505092915050565b600060208284031215613dac57600080fd5b6000613dba84828501613cf3565b91505092915050565b60008060408385031215613dd657600080fd5b6000613de485828601613d08565b9250506020613df585828601613d08565b9150509250929050565b600080600060608486031215613e1457600080fd5b6000613e2286828701613d08565b9350506020613e3386828701613d08565b9250506040613e4486828701613d1d565b9150509250925092565b600080600060608486031215613e6357600080fd5b6000613e7186828701613d08565b9350506020613e8286828701613d08565b9250506040613e9386828701613d32565b9150509250925092565b600080600060608486031215613eb257600080fd5b6000613ec086828701613d08565b9350506020613ed186828701613d08565b9250506040613ee286828701613d5c565b9150509250925092565b600060208284031215613efe57600080fd5b6000613f0c84828501613d32565b91505092915050565b60008060408385031215613f2857600080fd5b6000613f3685828601613d32565b9250506020613f4785828601613cde565b9150509250929050565b600080600060608486031215613f6657600080fd5b6000613f7486828701613d32565b9350506020613f8586828701613d08565b9250506040613f9686828701613d08565b9150509250925092565b60008060408385031215613fb357600080fd5b6000613fc185828601613d32565b9250506020613fd285828601613d32565b9150509250929050565b600060208284031215613fee57600080fd5b6000613ffc84828501613d47565b91505092915050565b61400e81614f10565b82525050565b61401d81614f22565b82525050565b61402c81614fc1565b82525050565b61403b81614f4b565b82525050565b8082525050565b8082525050565b8082525050565b60006140636015836147f2565b915061406e826151b3565b602082019050919050565b60006140866021836147f2565b9150614091826151dc565b604082019050919050565b60006140a96026836147f2565b91506140b48261522b565b604082019050919050565b60006140cc601a836147f2565b91506140d78261527a565b602082019050919050565b60006140ef6023836147f2565b91506140fa826152a3565b604082019050919050565b60006141126016836147f2565b915061411d826152f2565b602082019050919050565b6000614135601c836147f2565b91506141408261531b565b602082019050919050565b60006141586012836147f2565b915061416382615344565b602082019050919050565b600061417b601b836147f2565b91506141868261536d565b602082019050919050565b600061419e6020836147f2565b91506141a982615396565b602082019050919050565b60006141c1601c836147f2565b91506141cc826153bf565b602082019050919050565b60006141e46021836147f2565b91506141ef826153e8565b604082019050919050565b6000614207601f836147f2565b915061421282615437565b602082019050919050565b600061422a6039836147f2565b915061423582615460565b604082019050919050565b600061424d600f836147f2565b9150614258826154af565b602082019050919050565b61426c81614f58565b82525050565b61427b81614f58565b82525050565b61429261428d82614f86565b615095565b82525050565b6142a181614fd3565b82525050565b6142b081614f90565b82525050565b6142bf81614f90565b82525050565b6142ce81614fe5565b82525050565b6142dd81614fa0565b82525050565b6142ec81614fa0565b82525050565b60006142fe8285614281565b60208201915061430e8284614281565b6020820191508190509392505050565b60006020820190506143336000830184614005565b92915050565b600060608201905061434e6000830186614005565b61435b6020830185614005565b6143686040830184614298565b949350505050565b60006080820190506143856000830187614005565b61439260208301866142a7565b61439f6040830185614263565b6143ac6060830184614263565b95945050505050565b600060a0820190506143ca6000830188614005565b6143d760208301876142a7565b6143e46040830186614263565b6143f16060830185614263565b6143fe60808301846142d4565b9695505050505050565b600060408201905061441d6000830185614005565b61442a60208301846142c5565b9392505050565b60006020820190506144466000830184614014565b92915050565b60006020820190506144616000830184614032565b92915050565b6000602082019050818103600083015261448081614056565b9050919050565b600060208201905081810360008301526144a081614079565b9050919050565b600060208201905081810360008301526144c08161409c565b9050919050565b600060208201905081810360008301526144e0816140bf565b9050919050565b60006020820190508181036000830152614500816140e2565b9050919050565b6000602082019050818103600083015261452081614105565b9050919050565b6000602082019050818103600083015261454081614128565b9050919050565b600060208201905081810360008301526145608161414b565b9050919050565b600060208201905081810360008301526145808161416e565b9050919050565b600060208201905081810360008301526145a081614191565b9050919050565b600060208201905081810360008301526145c0816141b4565b9050919050565b600060208201905081810360008301526145e0816141d7565b9050919050565b60006020820190508181036000830152614600816141fa565b9050919050565b600060208201905081810360008301526146208161421d565b9050919050565b6000602082019050818103600083015261464081614240565b9050919050565b600060208201905061465c6000830184614263565b92915050565b600060208201905061467760008301846142a7565b92915050565b600060608201905061469260008301866142a7565b61469f6020830185614005565b6146ac6040830184614005565b949350505050565b600060c0820190506146c960008301896142a7565b6146d66020830188614023565b6146e360408301876142d4565b6146f060608301866142d4565b6146fd6080830185614263565b61470a60a0830184614263565b979650505050505050565b600060c08201905061472a60008301896142b6565b6147376020830188614272565b6147446040830187614272565b614751606083018661404f565b61475e6080830185614048565b61476b60a0830184614041565b979650505050505050565b600060c08201905061478b60008301896142b6565b61479860208301886142b6565b6147a5604083018761404f565b6147b26060830186614048565b6147bf6080830185614041565b6147cc60a08301846142e3565b979650505050505050565b60006020820190506147ec60008301846142d4565b92915050565b600082825260208201905092915050565b600061480e82614f58565b915061481983614f58565b92508261ffff038211156148305761482f615119565b5b828201905092915050565b600061484682614f86565b915061485183614f86565b9250827fffffffffffffffffffffffffffffffffffffffffffffffffffffffffffffffff0382111561488657614885615119565b5b828201905092915050565b600061489c82614f90565b91506148a783614f90565b92508263ffffffff038211156148c0576148bf615119565b5b828201905092915050565b60006148d682614fa0565b91506148e183614fa0565b92508267ffffffffffffffff038211156148fe576148fd615119565b5b828201905092915050565b600061491482614fb4565b915061491f83614fb4565b92508260ff0382111561493557614934615119565b5b828201905092915050565b600061494b82614f41565b915061495683614f41565b92508261496657614965615148565b5b600160000383147f80000000000000000000000000000000000000000000000000000000000000008314161561499f5761499e615119565b5b828205905092915050565b60006149b582614f86565b91506149c083614f86565b9250826149d0576149cf615148565b5b828204905092915050565b6000808291508390505b6001851115614a2557808604811115614a0157614a00615119565b5b6001851615614a105780820291505b8081029050614a1e856151a6565b94506149e5565b94509492505050565b6000614a3982614f86565b9150614a4483614f86565b9250614a717fffffffffffffffffffffffffffffffffffffffffffffffffffffffffffffffff8484614a79565b905092915050565b600082614a895760019050614b45565b81614a975760009050614b45565b8160018114614aad5760028114614ab757614ae6565b6001915050614b45565b60ff841115614ac957614ac8615119565b5b8360020a915084821115614ae057614adf615119565b5b50614b45565b5060208310610133831016604e8410600b8410161715614b1b5782820a905083811115614b1657614b15615119565b5b614b45565b614b2884848460016149db565b92509050818404811115614b3f57614b3e615119565b5b81810290505b9392505050565b6000614b5782614f41565b9150614b6283614f41565b9250827f7fffffffffffffffffffffffffffffffffffffffffffffffffffffffffffffff0482116000841360008413161615614ba157614ba0615119565b5b817f80000000000000000000000000000000000000000000000000000000000000000583126000841260008413161615614bde57614bdd615119565b5b827f80000000000000000000000000000000000000000000000000000000000000000582126000841360008412161615614c1b57614c1a615119565b5b827f7fffffffffffffffffffffffffffffffffffffffffffffffffffffffffffffff0582126000841260008412161615614c5857614c57615119565b5b828202905092915050565b6000614c6e82614f4b565b9150614c7983614f4b565b925082677fffffffffffffff0482116000841360008413161615614ca057614c9f615119565b5b817fffffffffffffffffffffffffffffffffffffffffffffffff80000000000000000583126000841260008413161615614cdd57614cdc615119565b5b827fffffffffffffffffffffffffffffffffffffffffffffffff80000000000000000582126000841360008412161615614d1a57614d19615119565b5b82677fffffffffffffff0582126000841260008412161615614d3f57614d3e615119565b5b828202905092915050565b6000614d5582614f58565b9150614d6083614f58565b92508161ffff0483118215151615614d7b57614d7a615119565b5b828202905092915050565b6000614d9182614f86565b9150614d9c83614f86565b9250817fffffffffffffffffffffffffffffffffffffffffffffffffffffffffffffffff0483118215151615614dd557614dd4615119565b5b828202905092915050565b6000614deb82614f41565b9150614df683614f41565b9250827f800000000000000000000000000000000000000000000000000000000000000001821260008412151615614e3157614e30615119565b5b827f7fffffffffffffffffffffffffffffffffffffffffffffffffffffffffffffff018213600084121615614e6957614e68615119565b5b828203905092915050565b6000614e7f82614f86565b9150614e8a83614f86565b925082821015614e9d57614e9c615119565b5b828203905092915050565b6000614eb382614fa0565b9150614ebe83614fa0565b925082821015614ed157614ed0615119565b5b828203905092915050565b6000614ee782614fb4565b9150614ef283614fb4565b925082821015614f0557614f04615119565b5b828203905092915050565b6000614f1b82614f66565b9050919050565b60008115159050919050565b6000819050614f3c826154d8565b919050565b6000819050919050565b60008160070b9050919050565b600061ffff82169050919050565b600073ffffffffffffffffffffffffffffffffffffffff82169050919050565b6000819050919050565b600063ffffffff82169050919050565b600067ffffffffffffffff82169050919050565b600060ff82169050919050565b6000614fcc82614f2e565b9050919050565b6000614fde82614f90565b9050919050565b6000614ff082614fa0565b9050919050565b600061500282614fa0565b9150600082141561501657615015615119565b5b600182039050919050565b600061502c82614f58565b915061ffff82141561504157615040615119565b5b600182019050919050565b600061505782614f86565b91507fffffffffffffffffffffffffffffffffffffffffffffffffffffffffffffffff82141561508a57615089615119565b5b600182019050919050565b6000819050919050565b60006150aa82614f86565b91506150b583614f86565b9250826150c5576150c4615148565b5b828206905092915050565b60006150db82614f41565b91507f800000000000000000000000000000000000000000000000000000000000000082141561510e5761510d615119565b5b816000039050919050565b7f4e487b7100000000000000000000000000000000000000000000000000000000600052601160045260246000fd5b7f4e487b7100000000000000000000000000000000000000000000000000000000600052601260045260246000fd5b7f4e487b7100000000000000000000000000000000000000000000000000000000600052602160045260246000fd5b60008160011c9050919050565b7f64732d6d6174682d7375622d756e646572666c6f770000000000000000000000600082015250565b7f4269744d6174683a3a6d6f73745369676e69666963616e744269743a207a657260008201527f6f00000000000000000000000000000000000000000000000000000000000000602082015250565b7f4f776e61626c653a206e6577206f776e657220697320746865207a65726f206160008201527f6464726573730000000000000000000000000000000000000000000000000000602082015250565b7f64732d6d6174682d6164642d6f766572666c6f77646673667766000000000000600082015250565b7f4669786564506f696e743a3a64697675713a206469766973696f6e206279207a60008201527f65726f0000000000000000000000000000000000000000000000000000000000602082015250565b7f4d757374206265206275696c74206f6e206661726d2100000000000000000000600082015250565b7f4669786564506f696e743a3a656e636f64653a206f766572666c6f7700000000600082015250565b7f4e6f206661726d206275696c7420686572650000000000000000000000000000600082015250565b7f4d757374206265206275696c74206f6e20796f7572206661726d210000000000600082015250565b7f4f776e61626c653a2063616c6c6572206973206e6f7420746865206f776e6572600082015250565b7f4669786564506f696e743a3a6469766964653a206f766572666c6f7700000000600082015250565b7f4669786564506f696e743a3a6d756c75713a207570706572206f766572666c6f60008201527f7700000000000000000000000000000000000000000000000000000000000000602082015250565b7f54686973206e6565647320746f20626520616e20656d707479206c616e642100600082015250565b7f596f75206d6179206f6e6c792063616c6c20746869732066756e6374696f6e2060008201527f6f6e20616e20656e74697479207468617420796f75206f776e00000000000000602082015250565b7f4e6f6e2d656d70747920776f726c640000000000000000000000000000000000600082015250565b600581106154e9576154e8615177565b5b50565b6154f581614f10565b811461550057600080fd5b50565b61550c81614f22565b811461551757600080fd5b50565b61552381614f58565b811461552e57600080fd5b50565b61553a81614f86565b811461554557600080fd5b50565b61555181614f90565b811461555c57600080fd5b50565b61556881614fa0565b811461557357600080fd5b50565b61557f81614fb4565b811461558a57600080fd5b5056fea2646970667358221220d59a499c1d5d6b39138a698a86eeef471d3d466505e9be5ae902c9f415ce63ff64736f6c63430008030033",
  "immutableReferences": {},
  "source": "// SPDX-License-Identifier: Unlicensed\r\npragma solidity ^0.8.3;\r\nimport \"@openzeppelin/contracts/access/Ownable.sol\";\r\nimport \"./libraries/FixedPoint.sol\"; \r\nimport \"./EtherEmpireTypes.sol\"; \r\nimport \"./EtherEmpireStorage.sol\"; \r\nimport \"./EtherEmpireDiplomacy.sol\"; \r\nimport \"./EtherEmpireCombat.sol\"; \r\nimport \"./smart_treaties/SmartTreaty.sol\";\r\n\r\n// Handles entity creation and core features\r\ncontract EtherEmpireWorld is Ownable, EtherEmpireStorage {\r\n\r\n    event FarmBuilt(address _owner, uint32 _id, uint16 _locx, uint16 _locy);\r\n    event WallBuilt(address _owner, uint32 _id, uint16 _locx, uint16 _locy);\r\n    event ArmyRecruited(address _owner, uint32 _id, uint16 _locx, uint16 _locy);\r\n    event ArmyMoved(address _owner, uint32 _id, uint16 _locx, uint16 _locy);\r\n    event HarvestInitiated(address _owner, uint32 _id, uint16 _locx, uint16 _locy, uint64 _completionBlock);\r\n\r\n    // , UniswapV2Pair _lpContractAddress\r\n    constructor(uint64 _yieldMin_32x32, uint64 _yieldRange_32x32, uint64 _armyToWallTokenRatio_32x32, uint64 _farmOccupationBurnRate_32x32, EtherEmpireToken _tokenContractAddress, uint64 _blocksToDivest) {\r\n        yieldMin_32x32 = _yieldMin_32x32;\r\n        yieldRange_32x32 = _yieldRange_32x32; \r\n        armyToWallTokenRatio_32x32 = _armyToWallTokenRatio_32x32;\r\n        farmOccupationBurnRate_32x32 = _farmOccupationBurnRate_32x32;\r\n        globalLandValue_32x32 = 0;\r\n        spawnedEntitiesCount = 0;\r\n        tokenContract = _tokenContractAddress;\r\n        blocksToDivest = _blocksToDivest;\r\n        // lpContract = _lpContractAddress; \r\n    }\r\n\r\n    modifier onlyOwnerOf(uint32 _id, address _owner) {\r\n        requireIsOwner(_id, _owner); \r\n        _;\r\n    }\r\n\r\n    modifier emptyAtLayer(uint16 _locx, uint16 _locy, uint8 layer) {\r\n        require(allEntities[_locx  + _locy * map_width + layer * map_width * map_height].entityType == EtherEmpireTypes.EntityType.EMPTY, \"This needs to be an empty land!\");\r\n        _; \r\n    }\r\n\r\n    function _idAtXY(uint16 _locx, uint16 _locy, uint8 layer) public view returns(uint32) {\r\n        return _locx + _locy * map_width + map_width * map_height * layer;\r\n    }\r\n\r\n    function requireIsOwner(uint32 _id, address _owner) internal view {\r\n        require(entityToOwner[_id] == _owner, \"You may only call this function on an entity that you own\");    \r\n    }\r\n\r\n    function _randMod(uint _seed, uint _nonce, uint _mod) internal pure returns(uint) {\r\n        return uint(keccak256(abi.encodePacked(_seed, _nonce))) % _mod; \r\n    }\r\n\r\n    // This function can only be called by whoever deployed the contract \r\n    function populateLand(uint16 _width, uint16 _height, uint _seed) onlyOwner public {\r\n        require(allEntities[0].entityType == EtherEmpireTypes.EntityType.EMPTY, \"Non-empty world\");\r\n\r\n        map_width = _width;\r\n        map_height = _height; \r\n\r\n        // Declare a local nonce so that the same seed will generate the same map \r\n        uint nonce = 0;\r\n\r\n        for (uint16 y = 0; y < _width; y++) {\r\n            for (uint16 x = 0; x < _height; x++) {\r\n                uint32 index = x + y * map_width;\r\n                // Currently only generates arable lands \r\n                EtherEmpireTypes.Entity memory newLand = EtherEmpireTypes.Entity(uint32(index), EtherEmpireTypes.EntityType.TILE, 0, uint64(FixedPoint.add(yieldMin_32x32, _randMod(_seed, nonce++, yieldRange_32x32), 32, 32, 32)), x, y);\r\n                allEntities[index] = newLand; \r\n                entityToOwner[index] = address(0); // wilderness\r\n\r\n            }\r\n        }\r\n    }\r\n\r\n    // Returns total farm yield at current block number, in the UQ144x112 format. Assumes supply of tokens do not exceed 2**144 - 1 \r\n    function yieldValue(uint16 _locx, uint16 _locy) view public returns(uint64) {\r\n        uint32 index = _locx + _locy * map_width + map_height * map_width; \r\n        EtherEmpireTypes.Entity storage thisFarm = allEntities[index];\r\n        require(thisFarm.entityType == EtherEmpireTypes.EntityType.FARM, \"No farm built here\");        \r\n        uint64 landValueAtBlock_32x32 = globalLandValue_32x32; \r\n        uint64 blockNumber = uint64(block.number);\r\n        uint64 cumulativeYield_32x32 = 0; \r\n        uint64 lastHarvestable = harvestTimer[index] == 0? blockNumber : (harvestTimer[index] - blocksToDivest - 1);\r\n        for (uint64 i = blockNumber; i > allEntities[index].qualifier1_32x32; i--) {\r\n            if (i <= lastHarvestable)\r\n            {\r\n                cumulativeYield_32x32 += uint64(FixedPoint.multiply((FixedPoint.divide(thisFarm.qualifier2_32x32, landValueAtBlock_32x32, 32, 32, 32, 32)),\r\n                                                         tokensBurntAtBlock[i],\r\n                                                         32, 0, 32, 32));\r\n            }\r\n            \r\n            landValueAtBlock_32x32 = uint64(uint(FixedPoint.addSigned(int64(landValueAtBlock_32x32), -1 * int64(landValueAddedAtBlock_32x32[i]), 32, 32, 32))); \r\n        }\r\n        return cumulativeYield_32x32;\r\n    }\r\n\r\n    // Requires implementation of ERC20 \r\n    function buildFarm(uint16 _locx, uint16 _locy, uint32 tokenStaked) public emptyAtLayer(_locx, _locy, 1) returns(uint32) {\r\n        uint32 index = _locx + _locy * map_width + map_height * map_width;\r\n        uint64 blockNumber = uint64(block.number);\r\n        tokenContract.transferFrom(msg.sender, address(this), tokenStaked); \r\n        uint64 landValue_32x32 = uint64(FixedPoint.sqrt(uint64(tokenStaked) << 32, 32, 32)); // Added precision\r\n        uint64 modifier_32x32 = allEntities[_idAtXY(_locx, _locy, 0)].qualifier2_32x32;\r\n        landValue_32x32 = uint64(FixedPoint.multiply(landValue_32x32, modifier_32x32, 32, 32, 32, 32)); // Include land modifier\r\n        allEntities[index] = EtherEmpireTypes.Entity(index, EtherEmpireTypes.EntityType.FARM, blockNumber, landValue_32x32, _locx, _locy);\r\n        landValueAddedAtBlock_32x32[blockNumber] = int64(FixedPoint.addSigned(landValueAddedAtBlock_32x32[blockNumber], int64(landValue_32x32), 32, 32, 32));\r\n        globalLandValue_32x32 = uint64(FixedPoint.add(globalLandValue_32x32, landValue_32x32, 32, 32, 32)); \r\n        entityToOwner[index] = msg.sender;\r\n        emit FarmBuilt(msg.sender, index, _locx, _locy);\r\n        return index;\r\n    }\r\n\r\n    // Requires implementation of ERC20 \r\n    function buildWall(uint16 _locx, uint16 _locy, uint32 tokenSpent) public emptyAtLayer(_locx, _locy, 1) returns(uint32) {\r\n        uint32 index = _locx + _locy * map_width + map_height * map_width;\r\n        uint64 blockNumber = uint64(block.number);\r\n        tokenContract.transferFrom(msg.sender, address(this), tokenSpent); \r\n\r\n        uint64 wallFortification_32x32 = uint64(tokenSpent) << 32;\r\n        allEntities[index] = EtherEmpireTypes.Entity(index, EtherEmpireTypes.EntityType.WALL, blockNumber, wallFortification_32x32, _locx, _locy);\r\n        tokensBurntAtBlock[blockNumber] = tokensBurntAtBlock[blockNumber] + tokenSpent;\r\n        emit WallBuilt(msg.sender, index, _locx, _locy);\r\n        return index;\r\n    }\r\n\r\n    // Requires implementation of ERC20 \r\n    function buildArmy(uint16 _locx, uint16 _locy, uint32 tokenSpent) public returns(uint32) {\r\n        EtherEmpireTypes.Entity memory l2 = allEntities[_locx  + _locy * map_width + 1 * map_width * map_height];\r\n        require(l2.entityType == EtherEmpireTypes.EntityType.FARM, \"Must be built on farm!\");\r\n        require(entityToOwner[l2.id] == msg.sender, \"Must be built on your farm!\"); \r\n        uint32 index = spawnedEntitiesCount + 2 * map_width * map_height;\r\n        uint64 blockNumber = uint64(block.number);\r\n        tokenContract.transferFrom(msg.sender, address(this), tokenSpent); \r\n\r\n        uint64 armySize_32x32 = uint64(FixedPoint.divide(uint64(tokenSpent) << 32, armyToWallTokenRatio_32x32, 32, 32, 32, 32)); \r\n        allEntities[index] = EtherEmpireTypes.Entity(index, EtherEmpireTypes.EntityType.ARMY, blockNumber, armySize_32x32, _locx, _locy);\r\n        tokensBurntAtBlock[blockNumber] = tokensBurntAtBlock[blockNumber] + tokenSpent;\r\n        entityToOwner[index] = msg.sender;\r\n        spawnedEntitiesCount += 1; \r\n        emit ArmyRecruited(msg.sender, index, _locx, _locy);\r\n        return index;\r\n    }\r\n\r\n    function harvestFarm(uint16 _locx, uint16 _locy) public returns(bool) {\r\n        uint32 index = _locx + _locy * map_width + map_width * map_height;\r\n        requireIsOwner(index, msg.sender);\r\n        uint64 landValue_32x32 = allEntities[index].qualifier2_32x32;\r\n        uint64 modifier_32x32 = allEntities[_idAtXY(_locx, _locy, 0)].qualifier2_32x32;\r\n        uint64 blockNumber = uint64(block.number);\r\n        if (harvestTimer[index] == 0) {\r\n            harvestTimer[index] = blockNumber + blocksToDivest;\r\n            landValueAddedAtBlock_32x32[blockNumber] = int64(FixedPoint.addSigned(landValueAddedAtBlock_32x32[blockNumber], -1 * int64(landValue_32x32), 32, 32, 32));\r\n            globalLandValue_32x32 = uint64(uint(FixedPoint.addSigned(int64(globalLandValue_32x32), -1 * int64(landValue_32x32), 32, 32, 32)));\r\n            emit HarvestInitiated(msg.sender, index, _locx, _locy, harvestTimer[index]);\r\n            return false; \r\n        } else if (harvestTimer[index] > uint64(block.number)) {\r\n            return false;\r\n        }\r\n        landValue_32x32 = uint64(FixedPoint.divide(landValue_32x32, modifier_32x32, 32, 32, 32, 32)); // Factor out land modifier\r\n        uint64 redeemable = uint64(FixedPoint.multiply(landValue_32x32, landValue_32x32, 32, 32, 32, 32)) + yieldValue(_locx, _locy); \r\n        tokenContract.transfer(msg.sender, redeemable);\r\n        harvestTimer[index] = 0; \r\n        EtherEmpireCombat.destroy(index, msg.sender, allEntities, entityToOwner);\r\n        return true;\r\n    }\r\n\r\n\r\n    function changeEntityOwner(uint32 _id, address _newOwner) public {\r\n        require(msg.sender == entityToOwner[_id] || authorizedTreaty[entityToOwner[_id]][msg.sender]);\r\n        entityToOwner[_id] = _newOwner;\r\n    }\r\n\r\n    function getEntityOwner(uint32 _id) view external returns(address) {\r\n        return entityToOwner[_id];\r\n    }\r\n\r\n    // // To be implemented\r\n    // function createTreaty(address ref) external {\r\n    //     address newTreaty = SmartTreaty(ref).duplicate();\r\n    //     authorizedTreaty[msg.sender][newTreaty] = true;\r\n    //     SmartTreaty(newTreaty).sign(msg.sender);\r\n    // }\r\n\r\n    // function signTreaty(address ref) external {\r\n    //     authorizedTreaty[msg.sender][ref] = true;\r\n    //     SmartTreaty(ref).sign(msg.sender);\r\n    // }\r\n\r\n    // Relay external calls to specific libraries \r\n\r\n    function armyAttack(uint32 _self, uint32 _other) external onlyOwnerOf(_self, msg.sender) returns(bool) {\r\n        return EtherEmpireCombat.armyAttack(_self, _other, allEntities, entityToOwner, nonAggression, farmOccupationBurnRate_32x32);\r\n    }\r\n\r\n    function armyMove(uint32 _id, uint16 _locx, uint16 _locy) external onlyOwnerOf(_id, msg.sender) returns(bool) {\r\n        bool successfulMovement = EtherEmpireCombat.armyMove(_id, _locx, _locy, allEntities, entityToOwner, access);\r\n        if (successfulMovement) emit ArmyMoved(msg.sender, _id, _locx, _locy);\r\n        return successfulMovement;\r\n    }\r\n}\r\n",
  "sourcePath": "C:\\Users\\Kuan\\Documents\\GitHub\\ether-empire\\contracts\\EtherEmpireWorld.sol",
  "compiler": {
    "name": "solc",
    "version": "0.8.3+commit.8d00100c.Emscripten.clang"
  },
  "schemaVersion": "3.3.4",
  "updatedAt": "2021-05-13T17:06:17.501Z",
  "networkType": "ethereum",
  "devdoc": {
    "kind": "dev",
    "methods": {
      "owner()": {
        "details": "Returns the address of the current owner."
      },
      "renounceOwnership()": {
        "details": "Leaves the contract without owner. It will not be possible to call `onlyOwner` functions anymore. Can only be called by the current owner. NOTE: Renouncing ownership will leave the contract without an owner, thereby removing any functionality that is only available to the owner."
      },
      "transferOwnership(address)": {
        "details": "Transfers ownership of the contract to a new account (`newOwner`). Can only be called by the current owner."
      }
    },
    "version": 1
  },
  "userdoc": {
    "kind": "user",
    "methods": {},
    "version": 1
  }
}