{
  "contractName": "EtherEmpireWorld",
  "abi": [
    {
      "inputs": [
        {
          "internalType": "uint64",
          "name": "_yieldMin_32x32",
          "type": "uint64"
        },
        {
          "internalType": "uint64",
          "name": "_yieldRange_32x32",
          "type": "uint64"
        },
        {
          "internalType": "uint64",
          "name": "_armyToWallTokenRatio_32x32",
          "type": "uint64"
        },
        {
          "internalType": "uint64",
          "name": "_farmOccupationBurnRate_32x32",
          "type": "uint64"
        },
        {
          "internalType": "contract EtherEmpireToken",
          "name": "_tokenContractAddress",
          "type": "address"
        },
        {
          "internalType": "uint64",
          "name": "_blocksToDivest",
          "type": "uint64"
        }
      ],
      "stateMutability": "nonpayable",
      "type": "constructor"
    },
    {
      "anonymous": false,
      "inputs": [
        {
          "indexed": false,
          "internalType": "address",
          "name": "_owner",
          "type": "address"
        },
        {
          "indexed": false,
          "internalType": "uint32",
          "name": "_id",
          "type": "uint32"
        },
        {
          "indexed": false,
          "internalType": "uint16",
          "name": "_locx",
          "type": "uint16"
        },
        {
          "indexed": false,
          "internalType": "uint16",
          "name": "_locy",
          "type": "uint16"
        }
      ],
      "name": "ArmyMoved",
      "type": "event"
    },
    {
      "anonymous": false,
      "inputs": [
        {
          "indexed": false,
          "internalType": "address",
          "name": "_owner",
          "type": "address"
        },
        {
          "indexed": false,
          "internalType": "uint32",
          "name": "_id",
          "type": "uint32"
        },
        {
          "indexed": false,
          "internalType": "uint16",
          "name": "_locx",
          "type": "uint16"
        },
        {
          "indexed": false,
          "internalType": "uint16",
          "name": "_locy",
          "type": "uint16"
        }
      ],
      "name": "ArmyRecruited",
      "type": "event"
    },
    {
      "anonymous": false,
      "inputs": [
        {
          "indexed": false,
          "internalType": "address",
          "name": "_owner",
          "type": "address"
        },
        {
          "indexed": false,
          "internalType": "uint32",
          "name": "_id",
          "type": "uint32"
        },
        {
          "indexed": false,
          "internalType": "uint16",
          "name": "_locx",
          "type": "uint16"
        },
        {
          "indexed": false,
          "internalType": "uint16",
          "name": "_locy",
          "type": "uint16"
        }
      ],
      "name": "FarmBuilt",
      "type": "event"
    },
    {
      "anonymous": false,
      "inputs": [
        {
          "indexed": false,
          "internalType": "address",
          "name": "_owner",
          "type": "address"
        },
        {
          "indexed": false,
          "internalType": "uint32",
          "name": "_id",
          "type": "uint32"
        },
        {
          "indexed": false,
          "internalType": "uint16",
          "name": "_locx",
          "type": "uint16"
        },
        {
          "indexed": false,
          "internalType": "uint16",
          "name": "_locy",
          "type": "uint16"
        },
        {
          "indexed": false,
          "internalType": "uint64",
          "name": "_completionBlock",
          "type": "uint64"
        }
      ],
      "name": "HarvestInitiated",
      "type": "event"
    },
    {
      "anonymous": false,
      "inputs": [
        {
          "indexed": true,
          "internalType": "address",
          "name": "previousOwner",
          "type": "address"
        },
        {
          "indexed": true,
          "internalType": "address",
          "name": "newOwner",
          "type": "address"
        }
      ],
      "name": "OwnershipTransferred",
      "type": "event"
    },
    {
      "anonymous": false,
      "inputs": [
        {
          "indexed": false,
          "internalType": "address",
          "name": "_owner",
          "type": "address"
        },
        {
          "indexed": false,
          "internalType": "uint32",
          "name": "_id",
          "type": "uint32"
        },
        {
          "indexed": false,
          "internalType": "uint16",
          "name": "_locx",
          "type": "uint16"
        },
        {
          "indexed": false,
          "internalType": "uint16",
          "name": "_locy",
          "type": "uint16"
        }
      ],
      "name": "WallBuilt",
      "type": "event"
    },
    {
      "inputs": [
        {
          "internalType": "uint32",
          "name": "",
          "type": "uint32"
        }
      ],
      "name": "allEntities",
      "outputs": [
        {
          "internalType": "uint32",
          "name": "id",
          "type": "uint32"
        },
        {
          "internalType": "enum EtherEmpireTypes.EntityType",
          "name": "entityType",
          "type": "uint8"
        },
        {
          "internalType": "uint64",
          "name": "qualifier1_32x32",
          "type": "uint64"
        },
        {
          "internalType": "uint64",
          "name": "qualifier2_32x32",
          "type": "uint64"
        },
        {
          "internalType": "uint16",
          "name": "locx",
          "type": "uint16"
        },
        {
          "internalType": "uint16",
          "name": "locy",
          "type": "uint16"
        }
      ],
      "stateMutability": "view",
      "type": "function"
    },
    {
      "inputs": [],
      "name": "armyToWallTokenRatio_32x32",
      "outputs": [
        {
          "internalType": "uint64",
          "name": "",
          "type": "uint64"
        }
      ],
      "stateMutability": "view",
      "type": "function"
    },
    {
      "inputs": [],
      "name": "blocksToDivest",
      "outputs": [
        {
          "internalType": "uint64",
          "name": "",
          "type": "uint64"
        }
      ],
      "stateMutability": "view",
      "type": "function"
    },
    {
      "inputs": [],
      "name": "farmOccupationBurnRate_32x32",
      "outputs": [
        {
          "internalType": "uint64",
          "name": "",
          "type": "uint64"
        }
      ],
      "stateMutability": "view",
      "type": "function"
    },
    {
      "inputs": [],
      "name": "globalLandValue_32x32",
      "outputs": [
        {
          "internalType": "uint64",
          "name": "",
          "type": "uint64"
        }
      ],
      "stateMutability": "view",
      "type": "function"
    },
    {
      "inputs": [],
      "name": "map_height",
      "outputs": [
        {
          "internalType": "uint16",
          "name": "",
          "type": "uint16"
        }
      ],
      "stateMutability": "view",
      "type": "function"
    },
    {
      "inputs": [],
      "name": "map_width",
      "outputs": [
        {
          "internalType": "uint16",
          "name": "",
          "type": "uint16"
        }
      ],
      "stateMutability": "view",
      "type": "function"
    },
    {
      "inputs": [],
      "name": "owner",
      "outputs": [
        {
          "internalType": "address",
          "name": "",
          "type": "address"
        }
      ],
      "stateMutability": "view",
      "type": "function"
    },
    {
      "inputs": [],
      "name": "renounceOwnership",
      "outputs": [],
      "stateMutability": "nonpayable",
      "type": "function"
    },
    {
      "inputs": [],
      "name": "spawnedEntitiesCount",
      "outputs": [
        {
          "internalType": "uint32",
          "name": "",
          "type": "uint32"
        }
      ],
      "stateMutability": "view",
      "type": "function"
    },
    {
      "inputs": [
        {
          "internalType": "address",
          "name": "newOwner",
          "type": "address"
        }
      ],
      "name": "transferOwnership",
      "outputs": [],
      "stateMutability": "nonpayable",
      "type": "function"
    },
    {
      "inputs": [],
      "name": "yieldMin_32x32",
      "outputs": [
        {
          "internalType": "uint64",
          "name": "",
          "type": "uint64"
        }
      ],
      "stateMutability": "view",
      "type": "function"
    },
    {
      "inputs": [],
      "name": "yieldRange_32x32",
      "outputs": [
        {
          "internalType": "uint64",
          "name": "",
          "type": "uint64"
        }
      ],
      "stateMutability": "view",
      "type": "function"
    },
    {
      "inputs": [
        {
          "internalType": "uint16",
          "name": "_locx",
          "type": "uint16"
        },
        {
          "internalType": "uint16",
          "name": "_locy",
          "type": "uint16"
        },
        {
          "internalType": "uint8",
          "name": "layer",
          "type": "uint8"
        }
      ],
      "name": "_idAtXY",
      "outputs": [
        {
          "internalType": "uint32",
          "name": "",
          "type": "uint32"
        }
      ],
      "stateMutability": "view",
      "type": "function"
    },
    {
      "inputs": [
        {
          "internalType": "uint16",
          "name": "_width",
          "type": "uint16"
        },
        {
          "internalType": "uint16",
          "name": "_height",
          "type": "uint16"
        },
        {
          "internalType": "uint256",
          "name": "_seed",
          "type": "uint256"
        }
      ],
      "name": "populateLand",
      "outputs": [],
      "stateMutability": "nonpayable",
      "type": "function"
    },
    {
      "inputs": [
        {
          "internalType": "uint16",
          "name": "_locx",
          "type": "uint16"
        },
        {
          "internalType": "uint16",
          "name": "_locy",
          "type": "uint16"
        }
      ],
      "name": "yieldValue",
      "outputs": [
        {
          "internalType": "uint64",
          "name": "",
          "type": "uint64"
        }
      ],
      "stateMutability": "view",
      "type": "function"
    },
    {
      "inputs": [
        {
          "internalType": "uint16",
          "name": "_locx",
          "type": "uint16"
        },
        {
          "internalType": "uint16",
          "name": "_locy",
          "type": "uint16"
        },
        {
          "internalType": "uint32",
          "name": "tokenStaked",
          "type": "uint32"
        }
      ],
      "name": "buildFarm",
      "outputs": [
        {
          "internalType": "uint32",
          "name": "",
          "type": "uint32"
        }
      ],
      "stateMutability": "nonpayable",
      "type": "function"
    },
    {
      "inputs": [
        {
          "internalType": "uint16",
          "name": "_locx",
          "type": "uint16"
        },
        {
          "internalType": "uint16",
          "name": "_locy",
          "type": "uint16"
        },
        {
          "internalType": "uint32",
          "name": "tokenSpent",
          "type": "uint32"
        }
      ],
      "name": "buildWall",
      "outputs": [
        {
          "internalType": "uint32",
          "name": "",
          "type": "uint32"
        }
      ],
      "stateMutability": "nonpayable",
      "type": "function"
    },
    {
      "inputs": [
        {
          "internalType": "uint16",
          "name": "_locx",
          "type": "uint16"
        },
        {
          "internalType": "uint16",
          "name": "_locy",
          "type": "uint16"
        },
        {
          "internalType": "uint32",
          "name": "tokenSpent",
          "type": "uint32"
        }
      ],
      "name": "buildArmy",
      "outputs": [
        {
          "internalType": "uint32",
          "name": "",
          "type": "uint32"
        }
      ],
      "stateMutability": "nonpayable",
      "type": "function"
    },
    {
      "inputs": [
        {
          "internalType": "uint16",
          "name": "_locx",
          "type": "uint16"
        },
        {
          "internalType": "uint16",
          "name": "_locy",
          "type": "uint16"
        }
      ],
      "name": "harvestFarm",
      "outputs": [
        {
          "internalType": "bool",
          "name": "",
          "type": "bool"
        }
      ],
      "stateMutability": "nonpayable",
      "type": "function"
    },
    {
      "inputs": [
        {
          "internalType": "uint32",
          "name": "_id",
          "type": "uint32"
        },
        {
          "internalType": "address",
          "name": "_newOwner",
          "type": "address"
        }
      ],
      "name": "changeEntityOwner",
      "outputs": [],
      "stateMutability": "nonpayable",
      "type": "function"
    },
    {
      "inputs": [
        {
          "internalType": "uint32",
          "name": "_id",
          "type": "uint32"
        }
      ],
      "name": "getEntityOwner",
      "outputs": [
        {
          "internalType": "address",
          "name": "",
          "type": "address"
        }
      ],
      "stateMutability": "view",
      "type": "function"
    },
    {
      "inputs": [
        {
          "internalType": "uint32",
          "name": "_self",
          "type": "uint32"
        },
        {
          "internalType": "uint32",
          "name": "_other",
          "type": "uint32"
        }
      ],
      "name": "armyAttack",
      "outputs": [
        {
          "internalType": "bool",
          "name": "",
          "type": "bool"
        }
      ],
      "stateMutability": "nonpayable",
      "type": "function"
    },
    {
      "inputs": [
        {
          "internalType": "uint32",
          "name": "_id",
          "type": "uint32"
        },
        {
          "internalType": "uint16",
          "name": "_locx",
          "type": "uint16"
        },
        {
          "internalType": "uint16",
          "name": "_locy",
          "type": "uint16"
        }
      ],
      "name": "armyMove",
      "outputs": [
        {
          "internalType": "bool",
          "name": "",
          "type": "bool"
        }
      ],
      "stateMutability": "nonpayable",
      "type": "function"
    }
  ],
  "bytecode": "0x60806040523480156200001157600080fd5b50604051620058e0380380620058e0833981810160405281019062000037919062000282565b6000620000496200024c60201b60201c565b9050806000806101000a81548173ffffffffffffffffffffffffffffffffffffffff021916908373ffffffffffffffffffffffffffffffffffffffff1602179055508073ffffffffffffffffffffffffffffffffffffffff16600073ffffffffffffffffffffffffffffffffffffffff167f8be0079c531659141344cd1fd0a4f28419497f9722a3daafe3b4186f6b6457e060405160405180910390a35085600760006101000a81548167ffffffffffffffff021916908367ffffffffffffffff16021790555084600760086101000a81548167ffffffffffffffff021916908367ffffffffffffffff16021790555083600760106101000a81548167ffffffffffffffff021916908367ffffffffffffffff16021790555082600760186101000a81548167ffffffffffffffff021916908367ffffffffffffffff1602179055506000600860006101000a81548167ffffffffffffffff021916908367ffffffffffffffff1602179055506000600260046101000a81548163ffffffff021916908363ffffffff16021790555081600260086101000a81548173ffffffffffffffffffffffffffffffffffffffff021916908373ffffffffffffffffffffffffffffffffffffffff160217905550806008806101000a81548167ffffffffffffffff021916908367ffffffffffffffff160217905550505050505050620003a8565b600033905090565b600081519050620002658162000374565b92915050565b6000815190506200027c816200038e565b92915050565b60008060008060008060c087890312156200029c57600080fd5b6000620002ac89828a016200026b565b9650506020620002bf89828a016200026b565b9550506040620002d289828a016200026b565b9450506060620002e589828a016200026b565b9350506080620002f889828a0162000254565b92505060a06200030b89828a016200026b565b9150509295509295509295565b6000620003258262000340565b9050919050565b6000620003398262000318565b9050919050565b600073ffffffffffffffffffffffffffffffffffffffff82169050919050565b600067ffffffffffffffff82169050919050565b6200037f816200032c565b81146200038b57600080fd5b50565b620003998162000360565b8114620003a557600080fd5b50565b61552880620003b86000396000f3fe608060405234801561001057600080fd5b50600436106101585760003560e01c80638da5cb5b116100c3578063dacd27dc1161007c578063dacd27dc14610408578063e21f34df14610426578063f02cae6114610444578063f2fde38b14610462578063f3e716bb1461047e578063f77ddaa8146104ae57610158565b80638da5cb5b14610309578063a13822b214610327578063ac479a8a14610357578063b46306c91461038c578063baf1d425146103bc578063d5bda1a5146103d857610158565b8063715018a611610115578063715018a61461023357806371e08fad1461023d57806375f189f91461026d578063762992581461028b57806384937d88146102bb5780638776e527146102d957610158565b806315b7d2271461015d57806321ce39371461017b5780632b2a33f1146101995780634b544fba146101c95780635205e5fb146101e557806354ef495214610215575b600080fd5b6101656104cc565b60405161017291906145c3565b60405180910390f35b6101836104e0565b60405161019091906145de565b60405180910390f35b6101b360048036038101906101ae9190613e1d565b6104f6565b6040516101c091906145de565b60405180910390f35b6101e360048036038101906101de9190613dce565b610b68565b005b6101ff60048036038101906101fa9190613d92565b611013565b60405161020c9190614753565b60405180910390f35b61021d6113cf565b60405161022a9190614753565b60405180910390f35b61023b6113e9565b005b61025760048036038101906102529190613e1d565b611523565b60405161026491906145de565b60405180910390f35b610275611d0e565b6040516102829190614753565b60405180910390f35b6102a560048036038101906102a09190613f20565b611d28565b6040516102b291906143c8565b60405180910390f35b6102c3611e1f565b6040516102d09190614753565b60405180910390f35b6102f360048036038101906102ee9190613f6f565b611e39565b60405161030091906143c8565b60405180910390f35b610311611efb565b60405161031e91906142b5565b60405180910390f35b610341600480360381019061033c9190613d92565b611f24565b60405161034e91906143c8565b60405180910390f35b610371600480360381019061036c9190613ebb565b612457565b60405161038396959493929190614630565b60405180910390f35b6103a660048036038101906103a19190613ebb565b6124f4565b6040516103b391906142b5565b60405180910390f35b6103d660048036038101906103d19190613ee4565b61253d565b005b6103f260048036038101906103ed9190613e1d565b6126e6565b6040516103ff91906145de565b60405180910390f35b610410612c07565b60405161041d9190614753565b60405180910390f35b61042e612c21565b60405161043b9190614753565b60405180910390f35b61044c612c39565b60405161045991906145c3565b60405180910390f35b61047c60048036038101906104779190613d40565b612c4b565b005b61049860048036038101906104939190613e6c565b612df4565b6040516104a591906145de565b60405180910390f35b6104b6612e6c565b6040516104c39190614753565b60405180910390f35b600260009054906101000a900461ffff1681565b600260049054906101000a900463ffffffff1681565b60008383600160006004811115610536577f4e487b7100000000000000000000000000000000000000000000000000000000600052602160045260246000fd5b6001600060028054906101000a900461ffff16600260009054906101000a900461ffff168560ff166105689190614cc6565b6105729190614cc6565b600260009054906101000a900461ffff168661058e9190614cc6565b87610599919061477f565b6105a3919061477f565b61ffff1663ffffffff16815260200190815260200160002060000160049054906101000a900460ff166004811115610604577f4e487b7100000000000000000000000000000000000000000000000000000000600052602160045260246000fd5b14610644576040517f08c379a000000000000000000000000000000000000000000000000000000000815260040161063b90614563565b60405180910390fd5b6000600260009054906101000a900461ffff1660028054906101000a900461ffff166106709190614cc6565b600260009054906101000a900461ffff168861068c9190614cc6565b89610697919061477f565b6106a1919061477f565b61ffff1690506000439050600260089054906101000a900473ffffffffffffffffffffffffffffffffffffffff1673ffffffffffffffffffffffffffffffffffffffff166323b872dd33308a6040518463ffffffff1660e01b815260040161070b939291906142d0565b602060405180830381600087803b15801561072557600080fd5b505af1158015610739573d6000803e3d6000fd5b505050506040513d601f19601f8201168201806040525081019061075d9190613d69565b50600061078a60208963ffffffff1667ffffffffffffffff16901b67ffffffffffffffff16602080612e86565b905060006001600061079e8d8d6000612df4565b63ffffffff1663ffffffff168152602001908152602001600020600001600d9054906101000a900467ffffffffffffffff1690506107f68267ffffffffffffffff168267ffffffffffffffff16602080602080612f33565b91506040518060c001604052808563ffffffff168152602001600480811115610848577f4e487b7100000000000000000000000000000000000000000000000000000000600052602160045260246000fd5b81526020018467ffffffffffffffff1681526020018367ffffffffffffffff1681526020018c61ffff1681526020018b61ffff16815250600160008663ffffffff1663ffffffff16815260200190815260200160002060008201518160000160006101000a81548163ffffffff021916908363ffffffff16021790555060208201518160000160046101000a81548160ff02191690836004811115610916577f4e487b7100000000000000000000000000000000000000000000000000000000600052602160045260246000fd5b021790555060408201518160000160056101000a81548167ffffffffffffffff021916908367ffffffffffffffff160217905550606082015181600001600d6101000a81548167ffffffffffffffff021916908367ffffffffffffffff16021790555060808201518160000160156101000a81548161ffff021916908361ffff16021790555060a08201518160000160176101000a81548161ffff021916908361ffff160217905550905050610a0b600560008567ffffffffffffffff1667ffffffffffffffff16815260200190815260200160002060009054906101000a900460070b60070b8360070b6020806020613163565b600560008567ffffffffffffffff1667ffffffffffffffff16815260200190815260200160002060006101000a81548167ffffffffffffffff021916908360070b67ffffffffffffffff160217905550610a94600860009054906101000a900467ffffffffffffffff1667ffffffffffffffff168367ffffffffffffffff1660208060206132cb565b600860006101000a81548167ffffffffffffffff021916908367ffffffffffffffff16021790555033600360008663ffffffff1663ffffffff16815260200190815260200160002060006101000a81548173ffffffffffffffffffffffffffffffffffffffff021916908373ffffffffffffffffffffffffffffffffffffffff1602179055507f55976d8e78c6bf477a2ce62d3c1ecdb4a7d8c4415ed039624f32664add77c06433858d8d604051610b4f9493929190614307565b60405180910390a1839750505050505050509392505050565b610b706132f8565b73ffffffffffffffffffffffffffffffffffffffff16610b8e611efb565b73ffffffffffffffffffffffffffffffffffffffff1614610be4576040517f08c379a0000000000000000000000000000000000000000000000000000000008152600401610bdb90614503565b60405180910390fd5b60006004811115610c1e577f4e487b7100000000000000000000000000000000000000000000000000000000600052602160045260246000fd5b600160008063ffffffff16815260200190815260200160002060000160049054906101000a900460ff166004811115610c80577f4e487b7100000000000000000000000000000000000000000000000000000000600052602160045260246000fd5b14610cc0576040517f08c379a0000000000000000000000000000000000000000000000000000000008152600401610cb7906145a3565b60405180910390fd5b82600260006101000a81548161ffff021916908361ffff160217905550816002806101000a81548161ffff021916908361ffff1602179055506000805b8461ffff168161ffff16101561100c5760005b8461ffff168161ffff161015610ff8576000600260009054906101000a900461ffff1683610d3e9190614cc6565b82610d49919061477f565b61ffff16905060006040518060c001604052808363ffffffff16815260200160016004811115610da2577f4e487b7100000000000000000000000000000000000000000000000000000000600052602160045260246000fd5b8152602001600067ffffffffffffffff168152602001610e1d600760009054906101000a900467ffffffffffffffff1667ffffffffffffffff16610e138a8a80610deb90614fc8565b9b50600760089054906101000a900467ffffffffffffffff1667ffffffffffffffff16613300565b60208060206132cb565b67ffffffffffffffff1681526020018461ffff1681526020018561ffff16815250905080600160008463ffffffff1663ffffffff16815260200190815260200160002060008201518160000160006101000a81548163ffffffff021916908363ffffffff16021790555060208201518160000160046101000a81548160ff02191690836004811115610ed8577f4e487b7100000000000000000000000000000000000000000000000000000000600052602160045260246000fd5b021790555060408201518160000160056101000a81548167ffffffffffffffff021916908367ffffffffffffffff160217905550606082015181600001600d6101000a81548167ffffffffffffffff021916908367ffffffffffffffff16021790555060808201518160000160156101000a81548161ffff021916908361ffff16021790555060a08201518160000160176101000a81548161ffff021916908361ffff1602179055509050506000600360008463ffffffff1663ffffffff16815260200190815260200160002060006101000a81548173ffffffffffffffffffffffffffffffffffffffff021916908373ffffffffffffffffffffffffffffffffffffffff16021790555050508080610ff090614f9d565b915050610d10565b50808061100490614f9d565b915050610cfd565b5050505050565b600080600260009054906101000a900461ffff1660028054906101000a900461ffff166110409190614cc6565b600260009054906101000a900461ffff168461105c9190614cc6565b85611067919061477f565b611071919061477f565b61ffff1690506000600160008363ffffffff1663ffffffff16815260200190815260200160002090506004808111156110d3577f4e487b7100000000000000000000000000000000000000000000000000000000600052602160045260246000fd5b8160000160049054906101000a900460ff16600481111561111d577f4e487b7100000000000000000000000000000000000000000000000000000000600052602160045260246000fd5b1461115d576040517f08c379a0000000000000000000000000000000000000000000000000000000008152600401611154906144c3565b60405180910390fd5b6000600860009054906101000a900467ffffffffffffffff169050600043905060008080600660008863ffffffff1663ffffffff16815260200190815260200160002060009054906101000a900467ffffffffffffffff1667ffffffffffffffff161461122857600160088054906101000a900467ffffffffffffffff16600660008963ffffffff1663ffffffff16815260200190815260200160002060009054906101000a900467ffffffffffffffff166112199190614e24565b6112239190614e24565b61122a565b825b905060008390505b600160008863ffffffff1663ffffffff16815260200190815260200160002060000160059054906101000a900467ffffffffffffffff1667ffffffffffffffff168167ffffffffffffffff1611156113bf578167ffffffffffffffff168167ffffffffffffffff1611611336576113286112de87600001600d9054906101000a900467ffffffffffffffff1667ffffffffffffffff168767ffffffffffffffff16602080602080613342565b600460008467ffffffffffffffff1667ffffffffffffffff16815260200190815260200160002060009054906101000a900463ffffffff1663ffffffff1660206000602080612f33565b836113339190614847565b92505b6113aa8560070b600560008467ffffffffffffffff1667ffffffffffffffff16815260200190815260200160002060009054906101000a900460070b7fffffffffffffffffffffffffffffffffffffffffffffffffffffffffffffffff61139d9190614bdf565b60070b6020806020613163565b945080806113b790614f73565b915050611232565b5081965050505050505092915050565b600760109054906101000a900467ffffffffffffffff1681565b6113f16132f8565b73ffffffffffffffffffffffffffffffffffffffff1661140f611efb565b73ffffffffffffffffffffffffffffffffffffffff1614611465576040517f08c379a000000000000000000000000000000000000000000000000000000000815260040161145c90614503565b60405180910390fd5b600073ffffffffffffffffffffffffffffffffffffffff1660008054906101000a900473ffffffffffffffffffffffffffffffffffffffff1673ffffffffffffffffffffffffffffffffffffffff167f8be0079c531659141344cd1fd0a4f28419497f9722a3daafe3b4186f6b6457e060405160405180910390a360008060006101000a81548173ffffffffffffffffffffffffffffffffffffffff021916908373ffffffffffffffffffffffffffffffffffffffff160217905550565b6000806001600060028054906101000a900461ffff16600260009054906101000a900461ffff1660016115569190614cc6565b6115609190614cc6565b600260009054906101000a900461ffff168761157c9190614cc6565b88611587919061477f565b611591919061477f565b61ffff1663ffffffff1681526020019081526020016000206040518060c00160405290816000820160009054906101000a900463ffffffff1663ffffffff1663ffffffff1681526020016000820160049054906101000a900460ff166004811115611625577f4e487b7100000000000000000000000000000000000000000000000000000000600052602160045260246000fd5b600481111561165d577f4e487b7100000000000000000000000000000000000000000000000000000000600052602160045260246000fd5b81526020016000820160059054906101000a900467ffffffffffffffff1667ffffffffffffffff1667ffffffffffffffff16815260200160008201600d9054906101000a900467ffffffffffffffff1667ffffffffffffffff1667ffffffffffffffff1681526020016000820160159054906101000a900461ffff1661ffff1661ffff1681526020016000820160179054906101000a900461ffff1661ffff1661ffff16815250509050600480811115611740577f4e487b7100000000000000000000000000000000000000000000000000000000600052602160045260246000fd5b8160200151600481111561177d577f4e487b7100000000000000000000000000000000000000000000000000000000600052602160045260246000fd5b146117bd576040517f08c379a00000000000000000000000000000000000000000000000000000000081526004016117b490614483565b60405180910390fd5b3373ffffffffffffffffffffffffffffffffffffffff1660036000836000015163ffffffff1663ffffffff16815260200190815260200160002060009054906101000a900473ffffffffffffffffffffffffffffffffffffffff1673ffffffffffffffffffffffffffffffffffffffff161461186e576040517f08c379a0000000000000000000000000000000000000000000000000000000008152600401611865906144e3565b60405180910390fd5b600060028054906101000a900461ffff16600260009054906101000a900461ffff16600261189c9190614cc6565b6118a69190614cc6565b61ffff16600260049054906101000a900463ffffffff166118c7919061480d565b90506000439050600260089054906101000a900473ffffffffffffffffffffffffffffffffffffffff1673ffffffffffffffffffffffffffffffffffffffff166323b872dd3330886040518463ffffffff1660e01b815260040161192d939291906142d0565b602060405180830381600087803b15801561194757600080fd5b505af115801561195b573d6000803e3d6000fd5b505050506040513d601f19601f8201168201806040525081019061197f9190613d69565b5060006119d060208763ffffffff1667ffffffffffffffff16901b67ffffffffffffffff16600760109054906101000a900467ffffffffffffffff1667ffffffffffffffff16602080602080613342565b90506040518060c001604052808463ffffffff16815260200160036004811115611a23577f4e487b7100000000000000000000000000000000000000000000000000000000600052602160045260246000fd5b81526020018367ffffffffffffffff1681526020018267ffffffffffffffff1681526020018961ffff1681526020018861ffff16815250600160008563ffffffff1663ffffffff16815260200190815260200160002060008201518160000160006101000a81548163ffffffff021916908363ffffffff16021790555060208201518160000160046101000a81548160ff02191690836004811115611af1577f4e487b7100000000000000000000000000000000000000000000000000000000600052602160045260246000fd5b021790555060408201518160000160056101000a81548167ffffffffffffffff021916908367ffffffffffffffff160217905550606082015181600001600d6101000a81548167ffffffffffffffff021916908367ffffffffffffffff16021790555060808201518160000160156101000a81548161ffff021916908361ffff16021790555060a08201518160000160176101000a81548161ffff021916908361ffff16021790555090505085600460008467ffffffffffffffff1667ffffffffffffffff16815260200190815260200160002060009054906101000a900463ffffffff16611be0919061480d565b600460008467ffffffffffffffff1667ffffffffffffffff16815260200190815260200160002060006101000a81548163ffffffff021916908363ffffffff16021790555033600360008563ffffffff1663ffffffff16815260200190815260200160002060006101000a81548173ffffffffffffffffffffffffffffffffffffffff021916908373ffffffffffffffffffffffffffffffffffffffff1602179055506001600260048282829054906101000a900463ffffffff16611ca5919061480d565b92506101000a81548163ffffffff021916908363ffffffff1602179055507ff6d687f7b1506dd0afa44fe5ca3ba6e87c4943689d87cba8eabacf9debe4ca2433848a8a604051611cf89493929190614307565b60405180910390a1829450505050509392505050565b600760089054906101000a900467ffffffffffffffff1681565b60008333611d3682826134c0565b600073__EtherEmpireCombat_____________________631524961188888860016003600a6040518763ffffffff1660e01b8152600401611d7c96959493929190614691565b60206040518083038186803b158015611d9457600080fd5b505af4158015611da8573d6000803e3d6000fd5b505050506040513d601f19601f82011682018060405250810190611dcc9190613d69565b90508015611e12577fc9c7219e12f0b5ddc828e2e1479d53e8e5416665400152bd5fe1c021efbb322033888888604051611e099493929190614307565b60405180910390a15b8093505050509392505050565b600760009054906101000a900467ffffffffffffffff1681565b60008233611e4782826134c0565b73__EtherEmpireCombat_____________________636d030c518686600160036009600760189054906101000a900467ffffffffffffffff166040518763ffffffff1660e01b8152600401611ea1969594939291906146f2565b60206040518083038186803b158015611eb957600080fd5b505af4158015611ecd573d6000803e3d6000fd5b505050506040513d601f19601f82011682018060405250810190611ef19190613d69565b9250505092915050565b60008060009054906101000a900473ffffffffffffffffffffffffffffffffffffffff16905090565b60008060028054906101000a900461ffff16600260009054906101000a900461ffff16611f519190614cc6565b600260009054906101000a900461ffff1684611f6d9190614cc6565b85611f78919061477f565b611f82919061477f565b61ffff169050611f9281336134c0565b6000600160008363ffffffff1663ffffffff168152602001908152602001600020600001600d9054906101000a900467ffffffffffffffff169050600060016000611fdf88886000612df4565b63ffffffff1663ffffffff168152602001908152602001600020600001600d9054906101000a900467ffffffffffffffff16905060004390506000600660008663ffffffff1663ffffffff16815260200190815260200160002060009054906101000a900467ffffffffffffffff1667ffffffffffffffff1614156122845760088054906101000a900467ffffffffffffffff168161207e9190614847565b600660008663ffffffff1663ffffffff16815260200190815260200160002060006101000a81548167ffffffffffffffff021916908367ffffffffffffffff160217905550612137600560008367ffffffffffffffff1667ffffffffffffffff16815260200190815260200160002060009054906101000a900460070b60070b847fffffffffffffffffffffffffffffffffffffffffffffffffffffffffffffffff61212a9190614bdf565b60070b6020806020613163565b600560008367ffffffffffffffff1667ffffffffffffffff16815260200190815260200160002060006101000a81548167ffffffffffffffff021916908360070b67ffffffffffffffff1602179055506121dd600860009054906101000a900467ffffffffffffffff1660070b847fffffffffffffffffffffffffffffffffffffffffffffffffffffffffffffffff6121d09190614bdf565b60070b6020806020613163565b600860006101000a81548167ffffffffffffffff021916908367ffffffffffffffff1602179055507f9f7fcb213b8386bddd453ea273fa6bd97515bffdaec3a593bd6ebfbc92d2fbb833858989600660008a63ffffffff1663ffffffff16815260200190815260200160002060009054906101000a900467ffffffffffffffff1660405161226f95949392919061434c565b60405180910390a16000945050505050612451565b4367ffffffffffffffff16600660008663ffffffff1663ffffffff16815260200190815260200160002060009054906101000a900467ffffffffffffffff1667ffffffffffffffff1611156122e0576000945050505050612451565b6123048367ffffffffffffffff168367ffffffffffffffff16602080602080613342565b925060006123128888611013565b6123368567ffffffffffffffff168667ffffffffffffffff16602080602080612f33565b6123409190614847565b9050600260089054906101000a900473ffffffffffffffffffffffffffffffffffffffff1673ffffffffffffffffffffffffffffffffffffffff1663a9059cbb33836040518363ffffffff1660e01b815260040161239f92919061439f565b602060405180830381600087803b1580156123b957600080fd5b505af11580156123cd573d6000803e3d6000fd5b505050506040513d601f19601f820116820180604052508101906123f19190613d69565b506000600660008763ffffffff1663ffffffff16815260200190815260200160002060006101000a81548167ffffffffffffffff021916908367ffffffffffffffff160217905550612447853360016003613571565b6001955050505050505b92915050565b60016020528060005260406000206000915090508060000160009054906101000a900463ffffffff16908060000160049054906101000a900460ff16908060000160059054906101000a900467ffffffffffffffff169080600001600d9054906101000a900467ffffffffffffffff16908060000160159054906101000a900461ffff16908060000160179054906101000a900461ffff16905086565b6000600360008363ffffffff1663ffffffff16815260200190815260200160002060009054906101000a900473ffffffffffffffffffffffffffffffffffffffff169050919050565b600360008363ffffffff1663ffffffff16815260200190815260200160002060009054906101000a900473ffffffffffffffffffffffffffffffffffffffff1673ffffffffffffffffffffffffffffffffffffffff163373ffffffffffffffffffffffffffffffffffffffff16148061267b5750600c6000600360008563ffffffff1663ffffffff16815260200190815260200160002060009054906101000a900473ffffffffffffffffffffffffffffffffffffffff1673ffffffffffffffffffffffffffffffffffffffff1673ffffffffffffffffffffffffffffffffffffffff16815260200190815260200160002060003373ffffffffffffffffffffffffffffffffffffffff1673ffffffffffffffffffffffffffffffffffffffff16815260200190815260200160002060009054906101000a900460ff165b61268457600080fd5b80600360008463ffffffff1663ffffffff16815260200190815260200160002060006101000a81548173ffffffffffffffffffffffffffffffffffffffff021916908373ffffffffffffffffffffffffffffffffffffffff1602179055505050565b60008383600160006004811115612726577f4e487b7100000000000000000000000000000000000000000000000000000000600052602160045260246000fd5b6001600060028054906101000a900461ffff16600260009054906101000a900461ffff168560ff166127589190614cc6565b6127629190614cc6565b600260009054906101000a900461ffff168661277e9190614cc6565b87612789919061477f565b612793919061477f565b61ffff1663ffffffff16815260200190815260200160002060000160049054906101000a900460ff1660048111156127f4577f4e487b7100000000000000000000000000000000000000000000000000000000600052602160045260246000fd5b14612834576040517f08c379a000000000000000000000000000000000000000000000000000000000815260040161282b90614563565b60405180910390fd5b6000600260009054906101000a900461ffff1660028054906101000a900461ffff166128609190614cc6565b600260009054906101000a900461ffff168861287c9190614cc6565b89612887919061477f565b612891919061477f565b61ffff1690506000439050600260089054906101000a900473ffffffffffffffffffffffffffffffffffffffff1673ffffffffffffffffffffffffffffffffffffffff166323b872dd33308a6040518463ffffffff1660e01b81526004016128fb939291906142d0565b602060405180830381600087803b15801561291557600080fd5b505af1158015612929573d6000803e3d6000fd5b505050506040513d601f19601f8201168201806040525081019061294d9190613d69565b50600060208863ffffffff1667ffffffffffffffff16901b90506040518060c001604052808463ffffffff168152602001600260048111156129b8577f4e487b7100000000000000000000000000000000000000000000000000000000600052602160045260246000fd5b81526020018367ffffffffffffffff1681526020018267ffffffffffffffff1681526020018b61ffff1681526020018a61ffff16815250600160008563ffffffff1663ffffffff16815260200190815260200160002060008201518160000160006101000a81548163ffffffff021916908363ffffffff16021790555060208201518160000160046101000a81548160ff02191690836004811115612a86577f4e487b7100000000000000000000000000000000000000000000000000000000600052602160045260246000fd5b021790555060408201518160000160056101000a81548167ffffffffffffffff021916908367ffffffffffffffff160217905550606082015181600001600d6101000a81548167ffffffffffffffff021916908367ffffffffffffffff16021790555060808201518160000160156101000a81548161ffff021916908361ffff16021790555060a08201518160000160176101000a81548161ffff021916908361ffff16021790555090505087600460008467ffffffffffffffff1667ffffffffffffffff16815260200190815260200160002060009054906101000a900463ffffffff16612b75919061480d565b600460008467ffffffffffffffff1667ffffffffffffffff16815260200190815260200160002060006101000a81548163ffffffff021916908363ffffffff1602179055507feccb62409f7c15694f95b0febf07fe47b3ee14bbb921e7d80032cad5d7e9e16a33848c8c604051612bef9493929190614307565b60405180910390a18296505050505050509392505050565b600860009054906101000a900467ffffffffffffffff1681565b60088054906101000a900467ffffffffffffffff1681565b60028054906101000a900461ffff1681565b612c536132f8565b73ffffffffffffffffffffffffffffffffffffffff16612c71611efb565b73ffffffffffffffffffffffffffffffffffffffff1614612cc7576040517f08c379a0000000000000000000000000000000000000000000000000000000008152600401612cbe90614503565b60405180910390fd5b600073ffffffffffffffffffffffffffffffffffffffff168173ffffffffffffffffffffffffffffffffffffffff161415612d37576040517f08c379a0000000000000000000000000000000000000000000000000000000008152600401612d2e90614423565b60405180910390fd5b8073ffffffffffffffffffffffffffffffffffffffff1660008054906101000a900473ffffffffffffffffffffffffffffffffffffffff1673ffffffffffffffffffffffffffffffffffffffff167f8be0079c531659141344cd1fd0a4f28419497f9722a3daafe3b4186f6b6457e060405160405180910390a3806000806101000a81548173ffffffffffffffffffffffffffffffffffffffff021916908373ffffffffffffffffffffffffffffffffffffffff16021790555050565b60008160ff1660028054906101000a900461ffff16600260009054906101000a900461ffff16612e249190614cc6565b612e2e9190614cc6565b600260009054906101000a900461ffff1684612e4a9190614cc6565b85612e55919061477f565b612e5f919061477f565b61ffff1690509392505050565b600760189054906101000a900467ffffffffffffffff1681565b600080612e928561380b565b60ff612e9e9190614e58565b60ff16905060028482612eb191906147b7565b612ebb919061501b565b81612ec69190614df0565b905060008360028684612ed991906147b7565b612ee391906148bc565b612eed9190614d5c565b905060008112612f0f5780612f048388901b613964565b901c92505050612f2c565b80612f199061504c565b612f258388901b613964565b901b925050505b9392505050565b600080871480612f435750600086145b15612f515760009050613159565b60008588901c905060008682901b89612f6a9190614df0565b905060008689901c905060008782901b8a612f859190614df0565b905060008285612f959190614d02565b905060008285612fa59190614d02565b905060008387612fb59190614d02565b905060008686612fc59190614d02565b905060018b6002612fd691906149aa565b612fe09190614df0565b841115613022576040517f08c379a000000000000000000000000000000000000000000000000000000000815260040161301990614543565b60405180910390fd5b60008a85901b90508c8e61303691906147b7565b8b1061309a578c8e8c6130499190614df0565b6130539190614df0565b84901b8e8c6130629190614df0565b83901b8e8d6130719190614df0565b85901b61307e91906147b7565b61308891906147b7565b8161309391906147b7565b905061314c565b8a8d8f6130a791906147b7565b6130b19190614df0565b84901c816130bf91906147b7565b90508d8b106130e9578d8b6130d49190614df0565b82901b816130e291906147b7565b9050613106565b8a8e6130f59190614df0565b82901c8161310391906147b7565b90505b8c8b1061312e578c8b6131199190614df0565b83901b8161312791906147b7565b905061314b565b8a8d61313a9190614df0565b83901c8161314891906147b7565b90505b5b8099505050505050505050505b9695505050505050565b60008061316f87613b30565b9050600061317c87613b30565b905060008812158015613190575060008712155b156131be576131b5826131a4838989613b52565b86896131b091906147b7565b613be0565b925050506132c2565b600088121580156131d0575060008713155b806131e95750600088131580156131e8575060008712155b5b156132725780821061321e5761321582613204838989613b52565b868961321091906147b7565b613c51565b925050506132c2565b61323e8161322d848989613b52565b868961323991906147b7565b613c51565b7fffffffffffffffffffffffffffffffffffffffffffffffffffffffffffffffff6132699190614ac8565b925050506132c2565b61329282613281838989613b52565b868961328d91906147b7565b613be0565b7fffffffffffffffffffffffffffffffffffffffffffffffffffffffffffffffff6132bd9190614ac8565b925050505b95945050505050565b60006132ed866132dc878787613b52565b84876132e891906147b7565b613be0565b905095945050505050565b600033905090565b6000818484604051602001613316929190614289565b6040516020818303038152906040528051906020012060001c613339919061501b565b90509392505050565b6000808611613386576040517f08c379a000000000000000000000000000000000000000000000000000000000815260040161337d90614463565b60405180910390fd5b60006133918861380b565b60ff61339d9190614e58565b60ff169050600087828a901b6133b39190614926565b9050600082886133c391906147b7565b87866133cf91906147b7565b6133d99190614d5c565b905060008112156133fb57806133ee9061504c565b82901c93505050506134b6565b600082828385901b925082901c14613448576040517f08c379a000000000000000000000000000000000000000000000000000000000815260040161343f90614523565b60405180910390fd5b6001868861345691906147b7565b600261346291906149aa565b61346c9190614df0565b8111156134ae576040517f08c379a00000000000000000000000000000000000000000000000000000000081526004016134a590614523565b60405180910390fd5b809450505050505b9695505050505050565b8073ffffffffffffffffffffffffffffffffffffffff16600360008463ffffffff1663ffffffff16815260200190815260200160002060009054906101000a900473ffffffffffffffffffffffffffffffffffffffff1673ffffffffffffffffffffffffffffffffffffffff161461356d576040517f08c379a000000000000000000000000000000000000000000000000000000000815260040161356490614583565b60405180910390fd5b5050565b60008260008663ffffffff1663ffffffff16815260200190815260200160002060000160006101000a81548163ffffffff021916908363ffffffff16021790555060008260008663ffffffff1663ffffffff16815260200190815260200160002060000160046101000a81548160ff0219169083600481111561361d577f4e487b7100000000000000000000000000000000000000000000000000000000600052602160045260246000fd5b021790555060008260008663ffffffff1663ffffffff16815260200190815260200160002060000160056101000a81548167ffffffffffffffff021916908367ffffffffffffffff16021790555060008260008663ffffffff1663ffffffff168152602001908152602001600020600001600d6101000a81548167ffffffffffffffff021916908367ffffffffffffffff16021790555060008260008663ffffffff1663ffffffff16815260200190815260200160002060000160156101000a81548161ffff021916908361ffff16021790555060008260008663ffffffff1663ffffffff16815260200190815260200160002060000160176101000a81548161ffff021916908361ffff1602179055507f2bb23083392c38dde5df982d5b95489a0b96017d9e113d5a264c15869b164110848260008763ffffffff1663ffffffff16815260200190815260200160002060009054906101000a900473ffffffffffffffffffffffffffffffffffffffff168560405161379f939291906145f9565b60405180910390a160008160008663ffffffff1663ffffffff16815260200190815260200160002060006101000a81548173ffffffffffffffffffffffffffffffffffffffff021916908373ffffffffffffffffffffffffffffffffffffffff16021790555050505050565b600080821161384f576040517f08c379a000000000000000000000000000000000000000000000000000000000815260040161384690614403565b60405180910390fd5b700100000000000000000000000000000000821061387e57608082901c915060808161387b9190614885565b90505b6801000000000000000082106138a557604082901c91506040816138a29190614885565b90505b64010000000082106138c857602082901c91506020816138c59190614885565b90505b6201000082106138e957601082901c91506010816138e69190614885565b90505b610100821061390957600882901c91506008816139069190614885565b90505b6010821061392857600482901c91506004816139259190614885565b90505b6004821061394757600282901c91506002816139449190614885565b90505b6002821061395f5760018161395c9190614885565b90505b919050565b6000808214156139775760009050613b2b565b600082905060006001905070010000000000000000000000000000000082106139a957608082901c9150604081901b90505b6801000000000000000082106139c857604082901c9150602081901b90505b64010000000082106139e357602082901c9150601081901b90505b6201000082106139fc57601082901c9150600881901b90505b6101008210613a1457600882901c9150600481901b90505b60108210613a2b57600482901c9150600281901b90505b60088210613a3b57600181901b90505b60018185613a499190614926565b82613a5491906147b7565b901c905060018185613a669190614926565b82613a7191906147b7565b901c905060018185613a839190614926565b82613a8e91906147b7565b901c905060018185613aa09190614926565b82613aab91906147b7565b901c905060018185613abd9190614926565b82613ac891906147b7565b901c905060018185613ada9190614926565b82613ae591906147b7565b901c905060018185613af79190614926565b82613b0291906147b7565b901c905060008185613b149190614926565b9050808210613b235780613b25565b815b93505050505b919050565b600080821215613b495781613b449061504c565b613b4b565b815b9050919050565b6000828211613b71578183613b679190614df0565b84901c9050613bd9565b6000848484613b809190614df0565b8585613b8c9190614df0565b87901b925082901c14613bd4576040517f08c379a0000000000000000000000000000000000000000000000000000000008152600401613bcb906144a3565b60405180910390fd5b809150505b9392505050565b600083826002613bf091906149aa565b8486613bfc91906147b7565b925082613c09919061501b565b1015613c4a576040517f08c379a0000000000000000000000000000000000000000000000000000000008152600401613c4190614443565b60405180910390fd5b9392505050565b600083826002613c6191906149aa565b8486613c6d9190614df0565b925082613c7a919061501b565b1115613cbb576040517f08c379a0000000000000000000000000000000000000000000000000000000008152600401613cb2906143e3565b60405180910390fd5b9392505050565b600081359050613cd181615468565b92915050565b600081519050613ce68161547f565b92915050565b600081359050613cfb81615496565b92915050565b600081359050613d10816154ad565b92915050565b600081359050613d25816154c4565b92915050565b600081359050613d3a816154db565b92915050565b600060208284031215613d5257600080fd5b6000613d6084828501613cc2565b91505092915050565b600060208284031215613d7b57600080fd5b6000613d8984828501613cd7565b91505092915050565b60008060408385031215613da557600080fd5b6000613db385828601613cec565b9250506020613dc485828601613cec565b9150509250929050565b600080600060608486031215613de357600080fd5b6000613df186828701613cec565b9350506020613e0286828701613cec565b9250506040613e1386828701613d01565b9150509250925092565b600080600060608486031215613e3257600080fd5b6000613e4086828701613cec565b9350506020613e5186828701613cec565b9250506040613e6286828701613d16565b9150509250925092565b600080600060608486031215613e8157600080fd5b6000613e8f86828701613cec565b9350506020613ea086828701613cec565b9250506040613eb186828701613d2b565b9150509250925092565b600060208284031215613ecd57600080fd5b6000613edb84828501613d16565b91505092915050565b60008060408385031215613ef757600080fd5b6000613f0585828601613d16565b9250506020613f1685828601613cc2565b9150509250929050565b600080600060608486031215613f3557600080fd5b6000613f4386828701613d16565b9350506020613f5486828701613cec565b9250506040613f6586828701613cec565b9150509250925092565b60008060408385031215613f8257600080fd5b6000613f9085828601613d16565b9250506020613fa185828601613d16565b9150509250929050565b613fb481614e8c565b82525050565b613fc381614e9e565b82525050565b613fd281614f3d565b82525050565b8082525050565b8082525050565b8082525050565b6000613ffa60158361476e565b91506140058261512f565b602082019050919050565b600061401d60218361476e565b915061402882615158565b604082019050919050565b600061404060268361476e565b915061404b826151a7565b604082019050919050565b6000614063601a8361476e565b915061406e826151f6565b602082019050919050565b600061408660238361476e565b91506140918261521f565b604082019050919050565b60006140a960168361476e565b91506140b48261526e565b602082019050919050565b60006140cc601c8361476e565b91506140d782615297565b602082019050919050565b60006140ef60128361476e565b91506140fa826152c0565b602082019050919050565b6000614112601b8361476e565b915061411d826152e9565b602082019050919050565b600061413560208361476e565b915061414082615312565b602082019050919050565b6000614158601c8361476e565b91506141638261533b565b602082019050919050565b600061417b60218361476e565b915061418682615364565b604082019050919050565b600061419e601f8361476e565b91506141a9826153b3565b602082019050919050565b60006141c160398361476e565b91506141cc826153dc565b604082019050919050565b60006141e4600f8361476e565b91506141ef8261542b565b602082019050919050565b61420381614ed4565b82525050565b61421281614ed4565b82525050565b61422961422482614f02565b615011565b82525050565b61423881614f4f565b82525050565b61424781614f0c565b82525050565b61425681614f0c565b82525050565b61426581614f61565b82525050565b61427481614f1c565b82525050565b61428381614f1c565b82525050565b60006142958285614218565b6020820191506142a58284614218565b6020820191508190509392505050565b60006020820190506142ca6000830184613fab565b92915050565b60006060820190506142e56000830186613fab565b6142f26020830185613fab565b6142ff604083018461422f565b949350505050565b600060808201905061431c6000830187613fab565b614329602083018661423e565b61433660408301856141fa565b61434360608301846141fa565b95945050505050565b600060a0820190506143616000830188613fab565b61436e602083018761423e565b61437b60408301866141fa565b61438860608301856141fa565b614395608083018461426b565b9695505050505050565b60006040820190506143b46000830185613fab565b6143c1602083018461425c565b9392505050565b60006020820190506143dd6000830184613fba565b92915050565b600060208201905081810360008301526143fc81613fed565b9050919050565b6000602082019050818103600083015261441c81614010565b9050919050565b6000602082019050818103600083015261443c81614033565b9050919050565b6000602082019050818103600083015261445c81614056565b9050919050565b6000602082019050818103600083015261447c81614079565b9050919050565b6000602082019050818103600083015261449c8161409c565b9050919050565b600060208201905081810360008301526144bc816140bf565b9050919050565b600060208201905081810360008301526144dc816140e2565b9050919050565b600060208201905081810360008301526144fc81614105565b9050919050565b6000602082019050818103600083015261451c81614128565b9050919050565b6000602082019050818103600083015261453c8161414b565b9050919050565b6000602082019050818103600083015261455c8161416e565b9050919050565b6000602082019050818103600083015261457c81614191565b9050919050565b6000602082019050818103600083015261459c816141b4565b9050919050565b600060208201905081810360008301526145bc816141d7565b9050919050565b60006020820190506145d860008301846141fa565b92915050565b60006020820190506145f3600083018461423e565b92915050565b600060608201905061460e600083018661423e565b61461b6020830185613fab565b6146286040830184613fab565b949350505050565b600060c082019050614645600083018961423e565b6146526020830188613fc9565b61465f604083018761426b565b61466c606083018661426b565b61467960808301856141fa565b61468660a08301846141fa565b979650505050505050565b600060c0820190506146a6600083018961424d565b6146b36020830188614209565b6146c06040830187614209565b6146cd6060830186613fe6565b6146da6080830185613fdf565b6146e760a0830184613fd8565b979650505050505050565b600060c082019050614707600083018961424d565b614714602083018861424d565b6147216040830187613fe6565b61472e6060830186613fdf565b61473b6080830185613fd8565b61474860a083018461427a565b979650505050505050565b6000602082019050614768600083018461426b565b92915050565b600082825260208201905092915050565b600061478a82614ed4565b915061479583614ed4565b92508261ffff038211156147ac576147ab615095565b5b828201905092915050565b60006147c282614f02565b91506147cd83614f02565b9250827fffffffffffffffffffffffffffffffffffffffffffffffffffffffffffffffff0382111561480257614801615095565b5b828201905092915050565b600061481882614f0c565b915061482383614f0c565b92508263ffffffff0382111561483c5761483b615095565b5b828201905092915050565b600061485282614f1c565b915061485d83614f1c565b92508267ffffffffffffffff0382111561487a57614879615095565b5b828201905092915050565b600061489082614f30565b915061489b83614f30565b92508260ff038211156148b1576148b0615095565b5b828201905092915050565b60006148c782614ebd565b91506148d283614ebd565b9250826148e2576148e16150c4565b5b600160000383147f80000000000000000000000000000000000000000000000000000000000000008314161561491b5761491a615095565b5b828205905092915050565b600061493182614f02565b915061493c83614f02565b92508261494c5761494b6150c4565b5b828204905092915050565b6000808291508390505b60018511156149a15780860481111561497d5761497c615095565b5b600185161561498c5780820291505b808102905061499a85615122565b9450614961565b94509492505050565b60006149b582614f02565b91506149c083614f02565b92506149ed7fffffffffffffffffffffffffffffffffffffffffffffffffffffffffffffffff84846149f5565b905092915050565b600082614a055760019050614ac1565b81614a135760009050614ac1565b8160018114614a295760028114614a3357614a62565b6001915050614ac1565b60ff841115614a4557614a44615095565b5b8360020a915084821115614a5c57614a5b615095565b5b50614ac1565b5060208310610133831016604e8410600b8410161715614a975782820a905083811115614a9257614a91615095565b5b614ac1565b614aa48484846001614957565b92509050818404811115614abb57614aba615095565b5b81810290505b9392505050565b6000614ad382614ebd565b9150614ade83614ebd565b9250827f7fffffffffffffffffffffffffffffffffffffffffffffffffffffffffffffff0482116000841360008413161615614b1d57614b1c615095565b5b817f80000000000000000000000000000000000000000000000000000000000000000583126000841260008413161615614b5a57614b59615095565b5b827f80000000000000000000000000000000000000000000000000000000000000000582126000841360008412161615614b9757614b96615095565b5b827f7fffffffffffffffffffffffffffffffffffffffffffffffffffffffffffffff0582126000841260008412161615614bd457614bd3615095565b5b828202905092915050565b6000614bea82614ec7565b9150614bf583614ec7565b925082677fffffffffffffff0482116000841360008413161615614c1c57614c1b615095565b5b817fffffffffffffffffffffffffffffffffffffffffffffffff80000000000000000583126000841260008413161615614c5957614c58615095565b5b827fffffffffffffffffffffffffffffffffffffffffffffffff80000000000000000582126000841360008412161615614c9657614c95615095565b5b82677fffffffffffffff0582126000841260008412161615614cbb57614cba615095565b5b828202905092915050565b6000614cd182614ed4565b9150614cdc83614ed4565b92508161ffff0483118215151615614cf757614cf6615095565b5b828202905092915050565b6000614d0d82614f02565b9150614d1883614f02565b9250817fffffffffffffffffffffffffffffffffffffffffffffffffffffffffffffffff0483118215151615614d5157614d50615095565b5b828202905092915050565b6000614d6782614ebd565b9150614d7283614ebd565b9250827f800000000000000000000000000000000000000000000000000000000000000001821260008412151615614dad57614dac615095565b5b827f7fffffffffffffffffffffffffffffffffffffffffffffffffffffffffffffff018213600084121615614de557614de4615095565b5b828203905092915050565b6000614dfb82614f02565b9150614e0683614f02565b925082821015614e1957614e18615095565b5b828203905092915050565b6000614e2f82614f1c565b9150614e3a83614f1c565b925082821015614e4d57614e4c615095565b5b828203905092915050565b6000614e6382614f30565b9150614e6e83614f30565b925082821015614e8157614e80615095565b5b828203905092915050565b6000614e9782614ee2565b9050919050565b60008115159050919050565b6000819050614eb882615454565b919050565b6000819050919050565b60008160070b9050919050565b600061ffff82169050919050565b600073ffffffffffffffffffffffffffffffffffffffff82169050919050565b6000819050919050565b600063ffffffff82169050919050565b600067ffffffffffffffff82169050919050565b600060ff82169050919050565b6000614f4882614eaa565b9050919050565b6000614f5a82614f0c565b9050919050565b6000614f6c82614f1c565b9050919050565b6000614f7e82614f1c565b91506000821415614f9257614f91615095565b5b600182039050919050565b6000614fa882614ed4565b915061ffff821415614fbd57614fbc615095565b5b600182019050919050565b6000614fd382614f02565b91507fffffffffffffffffffffffffffffffffffffffffffffffffffffffffffffffff82141561500657615005615095565b5b600182019050919050565b6000819050919050565b600061502682614f02565b915061503183614f02565b925082615041576150406150c4565b5b828206905092915050565b600061505782614ebd565b91507f800000000000000000000000000000000000000000000000000000000000000082141561508a57615089615095565b5b816000039050919050565b7f4e487b7100000000000000000000000000000000000000000000000000000000600052601160045260246000fd5b7f4e487b7100000000000000000000000000000000000000000000000000000000600052601260045260246000fd5b7f4e487b7100000000000000000000000000000000000000000000000000000000600052602160045260246000fd5b60008160011c9050919050565b7f64732d6d6174682d7375622d756e646572666c6f770000000000000000000000600082015250565b7f4269744d6174683a3a6d6f73745369676e69666963616e744269743a207a657260008201527f6f00000000000000000000000000000000000000000000000000000000000000602082015250565b7f4f776e61626c653a206e6577206f776e657220697320746865207a65726f206160008201527f6464726573730000000000000000000000000000000000000000000000000000602082015250565b7f64732d6d6174682d6164642d6f766572666c6f77646673667766000000000000600082015250565b7f4669786564506f696e743a3a64697675713a206469766973696f6e206279207a60008201527f65726f0000000000000000000000000000000000000000000000000000000000602082015250565b7f4d757374206265206275696c74206f6e206661726d2100000000000000000000600082015250565b7f4669786564506f696e743a3a656e636f64653a206f766572666c6f7700000000600082015250565b7f4e6f206661726d206275696c7420686572650000000000000000000000000000600082015250565b7f4d757374206265206275696c74206f6e20796f7572206661726d210000000000600082015250565b7f4f776e61626c653a2063616c6c6572206973206e6f7420746865206f776e6572600082015250565b7f4669786564506f696e743a3a6469766964653a206f766572666c6f7700000000600082015250565b7f4669786564506f696e743a3a6d756c75713a207570706572206f766572666c6f60008201527f7700000000000000000000000000000000000000000000000000000000000000602082015250565b7f54686973206e6565647320746f20626520616e20656d707479206c616e642100600082015250565b7f596f75206d6179206f6e6c792063616c6c20746869732066756e6374696f6e2060008201527f6f6e20616e20656e74697479207468617420796f75206f776e00000000000000602082015250565b7f4e6f6e2d656d70747920776f726c640000000000000000000000000000000000600082015250565b60058110615465576154646150f3565b5b50565b61547181614e8c565b811461547c57600080fd5b50565b61548881614e9e565b811461549357600080fd5b50565b61549f81614ed4565b81146154aa57600080fd5b50565b6154b681614f02565b81146154c157600080fd5b50565b6154cd81614f0c565b81146154d857600080fd5b50565b6154e481614f30565b81146154ef57600080fd5b5056fea264697066735822122070c965d9d69bdbb25ba5f30bc7644067c80ac5e4ba878d949caa91e7dfc73edc64736f6c63430008030033",
  "immutableReferences": {},
  "source": "// SPDX-License-Identifier: Unlicensed\r\npragma solidity ^0.8.3;\r\nimport \"@openzeppelin/contracts/access/Ownable.sol\";\r\nimport \"./libraries/FixedPoint.sol\"; \r\nimport \"./EtherEmpireTypes.sol\"; \r\nimport \"./EtherEmpireStorage.sol\"; \r\nimport \"./EtherEmpireDiplomacy.sol\"; \r\nimport \"./EtherEmpireCombat.sol\"; \r\nimport \"./smart_treaties/SmartTreaty.sol\";\r\n\r\n// Handles entity creation and core features\r\ncontract EtherEmpireWorld is Ownable, EtherEmpireStorage {\r\n\r\n    event FarmBuilt(address _owner, uint32 _id, uint16 _locx, uint16 _locy);\r\n    event WallBuilt(address _owner, uint32 _id, uint16 _locx, uint16 _locy);\r\n    event ArmyRecruited(address _owner, uint32 _id, uint16 _locx, uint16 _locy);\r\n    event ArmyMoved(address _owner, uint32 _id, uint16 _locx, uint16 _locy);\r\n    event HarvestInitiated(address _owner, uint32 _id, uint16 _locx, uint16 _locy, uint64 _completionBlock);\r\n\r\n    // , UniswapV2Pair _lpContractAddress\r\n    constructor(uint64 _yieldMin_32x32, uint64 _yieldRange_32x32, uint64 _armyToWallTokenRatio_32x32, uint64 _farmOccupationBurnRate_32x32, EtherEmpireToken _tokenContractAddress, uint64 _blocksToDivest) {\r\n        yieldMin_32x32 = _yieldMin_32x32;\r\n        yieldRange_32x32 = _yieldRange_32x32; \r\n        armyToWallTokenRatio_32x32 = _armyToWallTokenRatio_32x32;\r\n        farmOccupationBurnRate_32x32 = _farmOccupationBurnRate_32x32;\r\n        globalLandValue_32x32 = 0;\r\n        spawnedEntitiesCount = 0;\r\n        tokenContract = _tokenContractAddress;\r\n        blocksToDivest = _blocksToDivest;\r\n        // lpContract = _lpContractAddress; \r\n    }\r\n\r\n    modifier onlyOwnerOf(uint32 _id, address _owner) {\r\n        requireIsOwner(_id, _owner); \r\n        _;\r\n    }\r\n\r\n    modifier emptyAtLayer(uint16 _locx, uint16 _locy, uint8 layer) {\r\n        require(allEntities[_locx  + _locy * map_width + layer * map_width * map_height].entityType == EtherEmpireTypes.EntityType.EMPTY, \"This needs to be an empty land!\");\r\n        _; \r\n    }\r\n\r\n    function _idAtXY(uint16 _locx, uint16 _locy, uint8 layer) public view returns(uint32) {\r\n        return _locx + _locy * map_width + map_width * map_height * layer;\r\n    }\r\n\r\n    function requireIsOwner(uint32 _id, address _owner) internal view {\r\n        require(entityToOwner[_id] == _owner, \"You may only call this function on an entity that you own\");    \r\n    }\r\n\r\n    function _randMod(uint _seed, uint _nonce, uint _mod) internal pure returns(uint) {\r\n        return uint(keccak256(abi.encodePacked(_seed, _nonce))) % _mod; \r\n    }\r\n\r\n    // This function can only be called by whoever deployed the contract \r\n    function populateLand(uint16 _width, uint16 _height, uint _seed) onlyOwner public {\r\n        require(allEntities[0].entityType == EtherEmpireTypes.EntityType.EMPTY, \"Non-empty world\");\r\n\r\n        map_width = _width;\r\n        map_height = _height; \r\n\r\n        // Declare a local nonce so that the same seed will generate the same map \r\n        uint nonce = 0;\r\n\r\n        for (uint16 y = 0; y < _width; y++) {\r\n            for (uint16 x = 0; x < _height; x++) {\r\n                uint32 index = x + y * map_width;\r\n                // Currently only generates arable lands \r\n                EtherEmpireTypes.Entity memory newLand = EtherEmpireTypes.Entity(uint32(index), EtherEmpireTypes.EntityType.TILE, 0, uint64(FixedPoint.add(yieldMin_32x32, _randMod(_seed, nonce++, yieldRange_32x32), 32, 32, 32)), x, y);\r\n                allEntities[index] = newLand; \r\n                entityToOwner[index] = address(0); // wilderness\r\n\r\n            }\r\n        }\r\n    }\r\n\r\n    // Returns total farm yield at current block number, in the UQ144x112 format. Assumes supply of tokens do not exceed 2**144 - 1 \r\n    function yieldValue(uint16 _locx, uint16 _locy) view public returns(uint64) {\r\n        uint32 index = _locx + _locy * map_width + map_height * map_width; \r\n        EtherEmpireTypes.Entity storage thisFarm = allEntities[index];\r\n        require(thisFarm.entityType == EtherEmpireTypes.EntityType.FARM, \"No farm built here\");        \r\n        uint64 landValueAtBlock_32x32 = globalLandValue_32x32; \r\n        uint64 blockNumber = uint64(block.number);\r\n        uint64 cumulativeYield_32x32 = 0; \r\n        uint64 lastHarvestable = harvestTimer[index] == 0? blockNumber : (harvestTimer[index] - blocksToDivest - 1);\r\n        for (uint64 i = blockNumber; i > allEntities[index].qualifier1_32x32; i--) {\r\n            if (i <= lastHarvestable)\r\n            {\r\n                cumulativeYield_32x32 += uint64(FixedPoint.multiply((FixedPoint.divide(thisFarm.qualifier2_32x32, landValueAtBlock_32x32, 32, 32, 32, 32)),\r\n                                                         tokensBurntAtBlock[i],\r\n                                                         32, 0, 32, 32));\r\n            }\r\n            \r\n            landValueAtBlock_32x32 = uint64(uint(FixedPoint.addSigned(int64(landValueAtBlock_32x32), -1 * int64(landValueAddedAtBlock_32x32[i]), 32, 32, 32))); \r\n        }\r\n        return cumulativeYield_32x32;\r\n    }\r\n\r\n    // Requires implementation of ERC20 \r\n    function buildFarm(uint16 _locx, uint16 _locy, uint32 tokenStaked) public emptyAtLayer(_locx, _locy, 1) returns(uint32) {\r\n        uint32 index = _locx + _locy * map_width + map_height * map_width;\r\n        uint64 blockNumber = uint64(block.number);\r\n        tokenContract.transferFrom(msg.sender, address(this), tokenStaked); \r\n        uint64 landValue_32x32 = uint64(FixedPoint.sqrt(uint64(tokenStaked) << 32, 32, 32)); // Added precision\r\n        uint64 modifier_32x32 = allEntities[_idAtXY(_locx, _locy, 0)].qualifier2_32x32;\r\n        landValue_32x32 = uint64(FixedPoint.multiply(landValue_32x32, modifier_32x32, 32, 32, 32, 32)); // Include land modifier\r\n        allEntities[index] = EtherEmpireTypes.Entity(index, EtherEmpireTypes.EntityType.FARM, blockNumber, landValue_32x32, _locx, _locy);\r\n        landValueAddedAtBlock_32x32[blockNumber] = int64(FixedPoint.addSigned(landValueAddedAtBlock_32x32[blockNumber], int64(landValue_32x32), 32, 32, 32));\r\n        globalLandValue_32x32 = uint64(FixedPoint.add(globalLandValue_32x32, landValue_32x32, 32, 32, 32)); \r\n        entityToOwner[index] = msg.sender;\r\n        emit FarmBuilt(msg.sender, index, _locx, _locy);\r\n        return index;\r\n    }\r\n\r\n    // Requires implementation of ERC20 \r\n    function buildWall(uint16 _locx, uint16 _locy, uint32 tokenSpent) public emptyAtLayer(_locx, _locy, 1) returns(uint32) {\r\n        uint32 index = _locx + _locy * map_width + map_height * map_width;\r\n        uint64 blockNumber = uint64(block.number);\r\n        tokenContract.transferFrom(msg.sender, address(this), tokenSpent); \r\n\r\n        uint64 wallFortification_32x32 = uint64(tokenSpent) << 32;\r\n        allEntities[index] = EtherEmpireTypes.Entity(index, EtherEmpireTypes.EntityType.WALL, blockNumber, wallFortification_32x32, _locx, _locy);\r\n        tokensBurntAtBlock[blockNumber] = tokensBurntAtBlock[blockNumber] + tokenSpent;\r\n        emit WallBuilt(msg.sender, index, _locx, _locy);\r\n        return index;\r\n    }\r\n\r\n    // Requires implementation of ERC20 \r\n    function buildArmy(uint16 _locx, uint16 _locy, uint32 tokenSpent) public returns(uint32) {\r\n        EtherEmpireTypes.Entity memory l2 = allEntities[_locx  + _locy * map_width + 1 * map_width * map_height];\r\n        require(l2.entityType == EtherEmpireTypes.EntityType.FARM, \"Must be built on farm!\");\r\n        require(entityToOwner[l2.id] == msg.sender, \"Must be built on your farm!\"); \r\n        uint32 index = spawnedEntitiesCount + 2 * map_width * map_height;\r\n        uint64 blockNumber = uint64(block.number);\r\n        tokenContract.transferFrom(msg.sender, address(this), tokenSpent); \r\n\r\n        uint64 armySize_32x32 = uint64(FixedPoint.divide(uint64(tokenSpent) << 32, armyToWallTokenRatio_32x32, 32, 32, 32, 32)); \r\n        allEntities[index] = EtherEmpireTypes.Entity(index, EtherEmpireTypes.EntityType.ARMY, blockNumber, armySize_32x32, _locx, _locy);\r\n        tokensBurntAtBlock[blockNumber] = tokensBurntAtBlock[blockNumber] + tokenSpent;\r\n        entityToOwner[index] = msg.sender;\r\n        spawnedEntitiesCount += 1; \r\n        emit ArmyRecruited(msg.sender, index, _locx, _locy);\r\n        return index;\r\n    }\r\n\r\n    function harvestFarm(uint16 _locx, uint16 _locy) public returns(bool) {\r\n        uint32 index = _locx + _locy * map_width + map_width * map_height;\r\n        requireIsOwner(index, msg.sender);\r\n        uint64 landValue_32x32 = allEntities[index].qualifier2_32x32;\r\n        uint64 modifier_32x32 = allEntities[_idAtXY(_locx, _locy, 0)].qualifier2_32x32;\r\n        uint64 blockNumber = uint64(block.number);\r\n        if (harvestTimer[index] == 0) {\r\n            harvestTimer[index] = blockNumber + blocksToDivest;\r\n            landValueAddedAtBlock_32x32[blockNumber] = int64(FixedPoint.addSigned(landValueAddedAtBlock_32x32[blockNumber], -1 * int64(landValue_32x32), 32, 32, 32));\r\n            globalLandValue_32x32 = uint64(uint(FixedPoint.addSigned(int64(globalLandValue_32x32), -1 * int64(landValue_32x32), 32, 32, 32)));\r\n            emit HarvestInitiated(msg.sender, index, _locx, _locy, harvestTimer[index]);\r\n            return false; \r\n        } else if (harvestTimer[index] > uint64(block.number)) {\r\n            return false;\r\n        }\r\n        landValue_32x32 = uint64(FixedPoint.divide(landValue_32x32, modifier_32x32, 32, 32, 32, 32)); // Factor out land modifier\r\n        uint64 redeemable = uint64(FixedPoint.multiply(landValue_32x32, landValue_32x32, 32, 32, 32, 32)) + yieldValue(_locx, _locy); \r\n        tokenContract.transfer(msg.sender, redeemable);\r\n        harvestTimer[index] = 0; \r\n        EtherEmpireCombat.destroy(index, msg.sender, allEntities, entityToOwner);\r\n        return true;\r\n    }\r\n\r\n\r\n    function changeEntityOwner(uint32 _id, address _newOwner) public {\r\n        require(msg.sender == entityToOwner[_id] || authorizedTreaty[entityToOwner[_id]][msg.sender]);\r\n        entityToOwner[_id] = _newOwner;\r\n    }\r\n\r\n    function getEntityOwner(uint32 _id) view external returns(address) {\r\n        return entityToOwner[_id];\r\n    }\r\n\r\n    // // To be implemented\r\n    // function createTreaty(address ref) external {\r\n    //     address newTreaty = SmartTreaty(ref).duplicate();\r\n    //     authorizedTreaty[msg.sender][newTreaty] = true;\r\n    //     SmartTreaty(newTreaty).sign(msg.sender);\r\n    // }\r\n\r\n    // function signTreaty(address ref) external {\r\n    //     authorizedTreaty[msg.sender][ref] = true;\r\n    //     SmartTreaty(ref).sign(msg.sender);\r\n    // }\r\n\r\n    // Relay external calls to specific libraries \r\n\r\n    function armyAttack(uint32 _self, uint32 _other) external onlyOwnerOf(_self, msg.sender) returns(bool) {\r\n        return EtherEmpireCombat.armyAttack(_self, _other, allEntities, entityToOwner, nonAggression, farmOccupationBurnRate_32x32);\r\n    }\r\n\r\n    function armyMove(uint32 _id, uint16 _locx, uint16 _locy) external onlyOwnerOf(_id, msg.sender) returns(bool) {\r\n        bool successfulMovement = EtherEmpireCombat.armyMove(_id, _locx, _locy, allEntities, entityToOwner, access);\r\n        if (successfulMovement) emit ArmyMoved(msg.sender, _id, _locx, _locy);\r\n        return successfulMovement;\r\n    }\r\n}\r\n",
  "sourcePath": "C:\\Users\\Kuan\\Documents\\GitHub\\ether-empire\\contracts\\EtherEmpireWorld.sol",
  "compiler": {
    "name": "solc",
    "version": "0.8.3+commit.8d00100c.Emscripten.clang"
  },
  "schemaVersion": "3.3.4",
  "updatedAt": "2021-05-25T01:47:42.667Z",
  "networkType": "ethereum",
  "devdoc": {
    "kind": "dev",
    "methods": {
      "owner()": {
        "details": "Returns the address of the current owner."
      },
      "renounceOwnership()": {
        "details": "Leaves the contract without owner. It will not be possible to call `onlyOwner` functions anymore. Can only be called by the current owner. NOTE: Renouncing ownership will leave the contract without an owner, thereby removing any functionality that is only available to the owner."
      },
      "transferOwnership(address)": {
        "details": "Transfers ownership of the contract to a new account (`newOwner`). Can only be called by the current owner."
      }
    },
    "version": 1
  },
  "userdoc": {
    "kind": "user",
    "methods": {},
    "version": 1
  }
}