{
  "contractName": "EtherEmpireStorage",
  "abi": [
    {
      "inputs": [
        {
          "internalType": "uint32",
          "name": "",
          "type": "uint32"
        }
      ],
      "name": "allEntities",
      "outputs": [
        {
          "internalType": "uint32",
          "name": "id",
          "type": "uint32"
        },
        {
          "internalType": "enum EtherEmpireTypes.EntityType",
          "name": "entityType",
          "type": "uint8"
        },
        {
          "internalType": "uint64",
          "name": "qualifier1_32x32",
          "type": "uint64"
        },
        {
          "internalType": "uint64",
          "name": "qualifier2_32x32",
          "type": "uint64"
        },
        {
          "internalType": "uint16",
          "name": "locx",
          "type": "uint16"
        },
        {
          "internalType": "uint16",
          "name": "locy",
          "type": "uint16"
        }
      ],
      "stateMutability": "view",
      "type": "function"
    },
    {
      "inputs": [],
      "name": "armyToWallTokenRatio_32x32",
      "outputs": [
        {
          "internalType": "uint64",
          "name": "",
          "type": "uint64"
        }
      ],
      "stateMutability": "view",
      "type": "function"
    },
    {
      "inputs": [],
      "name": "blocksToDivest",
      "outputs": [
        {
          "internalType": "uint64",
          "name": "",
          "type": "uint64"
        }
      ],
      "stateMutability": "view",
      "type": "function"
    },
    {
      "inputs": [],
      "name": "farmOccupationBurnRate_32x32",
      "outputs": [
        {
          "internalType": "uint64",
          "name": "",
          "type": "uint64"
        }
      ],
      "stateMutability": "view",
      "type": "function"
    },
    {
      "inputs": [],
      "name": "globalLandValue_32x32",
      "outputs": [
        {
          "internalType": "uint64",
          "name": "",
          "type": "uint64"
        }
      ],
      "stateMutability": "view",
      "type": "function"
    },
    {
      "inputs": [],
      "name": "map_height",
      "outputs": [
        {
          "internalType": "uint16",
          "name": "",
          "type": "uint16"
        }
      ],
      "stateMutability": "view",
      "type": "function"
    },
    {
      "inputs": [],
      "name": "map_width",
      "outputs": [
        {
          "internalType": "uint16",
          "name": "",
          "type": "uint16"
        }
      ],
      "stateMutability": "view",
      "type": "function"
    },
    {
      "inputs": [],
      "name": "yieldMin_32x32",
      "outputs": [
        {
          "internalType": "uint64",
          "name": "",
          "type": "uint64"
        }
      ],
      "stateMutability": "view",
      "type": "function"
    },
    {
      "inputs": [],
      "name": "yieldRange_32x32",
      "outputs": [
        {
          "internalType": "uint64",
          "name": "",
          "type": "uint64"
        }
      ],
      "stateMutability": "view",
      "type": "function"
    }
  ],
  "bytecode": "0x608060405234801561001057600080fd5b50610516806100206000396000f3fe608060405234801561001057600080fd5b50600436106100935760003560e01c8063ac479a8a11610066578063ac479a8a14610110578063dacd27dc14610145578063e21f34df14610163578063f02cae6114610181578063f77ddaa81461019f57610093565b806315b7d2271461009857806354ef4952146100b657806375f189f9146100d457806384937d88146100f2575b600080fd5b6100a06101bd565b6040516100ad9190610398565b60405180910390f35b6100be6101d1565b6040516100cb9190610414565b60405180910390f35b6100dc6101eb565b6040516100e99190610414565b60405180910390f35b6100fa610205565b6040516101079190610414565b60405180910390f35b61012a60048036038101906101259190610333565b61021f565b60405161013c969594939291906103b3565b60405180910390f35b61014d6102bc565b60405161015a9190610414565b60405180910390f35b61016b6102d6565b6040516101789190610414565b60405180910390f35b6101896102f0565b6040516101969190610398565b60405180910390f35b6101a7610304565b6040516101b49190610414565b60405180910390f35b600160009054906101000a900461ffff1681565b600560109054906101000a900467ffffffffffffffff1681565b600560089054906101000a900467ffffffffffffffff1681565b600560009054906101000a900467ffffffffffffffff1681565b60006020528060005260406000206000915090508060000160009054906101000a900463ffffffff16908060000160049054906101000a900460ff16908060000160059054906101000a900467ffffffffffffffff169080600001600d9054906101000a900467ffffffffffffffff16908060000160159054906101000a900461ffff16908060000160179054906101000a900461ffff16905086565b600660009054906101000a900467ffffffffffffffff1681565b600660089054906101000a900467ffffffffffffffff1681565b600160029054906101000a900461ffff1681565b600560189054906101000a900467ffffffffffffffff1681565b60008135905061032d816104c9565b92915050565b60006020828403121561034557600080fd5b60006103538482850161031e565b91505092915050565b61036581610474565b82525050565b61037481610442565b82525050565b61038381610450565b82525050565b61039281610460565b82525050565b60006020820190506103ad600083018461036b565b92915050565b600060c0820190506103c8600083018961037a565b6103d5602083018861035c565b6103e26040830187610389565b6103ef6060830186610389565b6103fc608083018561036b565b61040960a083018461036b565b979650505050505050565b60006020820190506104296000830184610389565b92915050565b600081905061043d826104b5565b919050565b600061ffff82169050919050565b600063ffffffff82169050919050565b600067ffffffffffffffff82169050919050565b600061047f8261042f565b9050919050565b7f4e487b7100000000000000000000000000000000000000000000000000000000600052602160045260246000fd5b600581106104c6576104c5610486565b5b50565b6104d281610450565b81146104dd57600080fd5b5056fea2646970667358221220540ee04476018b7e6e8a790efb00214717bd39d7f4439d406fe7bc20f1b9558f64736f6c63430008030033",
  "immutableReferences": {},
  "source": "// SPDX-License-Identifier: Unlicensed\r\npragma solidity ^0.8.3;\r\nimport \"./EtherEmpireTypes.sol\"; \r\nimport \"./EtherEmpireToken.sol\";\r\n// import \"@uniswap/v2-core/contracts/UniswapV2Pair.sol\";\r\n\r\ncontract EtherEmpireStorage {\r\n\r\n    // World \r\n    mapping (uint32 => EtherEmpireTypes.Entity) public allEntities;\r\n    uint16 public map_width;\r\n    uint16 public map_height;\r\n    uint32 spawnedEntitiesCount; \r\n    EtherEmpireToken tokenContract;\r\n    // UniswapV2Pair lpContract;\r\n\r\n    mapping (uint32 => address) entityToOwner; \r\n    mapping (uint64 => uint32) tokensBurntAtBlock; // In integer unit, of smallest decimal fungible\r\n    mapping (uint64 => int64) landValueAddedAtBlock_32x32;\r\n\r\n    uint64 public yieldMin_32x32; \r\n    uint64 public yieldRange_32x32; \r\n    uint64 public armyToWallTokenRatio_32x32; \r\n    uint64 public farmOccupationBurnRate_32x32;\r\n    uint64 public globalLandValue_32x32;\r\n    uint64 public blocksToDivest;\r\n\r\n    // Diplomacy \r\n    mapping (address => mapping(address => bool)) nonAggression;\r\n    mapping (address => mapping(address => bool)) access;\r\n\r\n    // Smart Treaties \r\n    mapping (uint32 => address) entityToPublicContract; \r\n    mapping (address => mapping (address => bool)) authorizedTreaty; \r\n}",
  "sourcePath": "C:\\Users\\Kuan\\Documents\\GitHub\\ether-empire\\contracts\\EtherEmpireStorage.sol",
  "compiler": {
    "name": "solc",
    "version": "0.8.3+commit.8d00100c.Emscripten.clang"
  },
  "schemaVersion": "3.3.4",
  "updatedAt": "2021-05-08T16:15:18.721Z",
  "devdoc": {
    "kind": "dev",
    "methods": {},
    "version": 1
  },
  "userdoc": {
    "kind": "user",
    "methods": {},
    "version": 1
  }
}