{
  "contractName": "EtherEmpireWorld",
  "abi": [
    {
      "inputs": [
        {
          "internalType": "uint64",
          "name": "_yieldMin_32x32",
          "type": "uint64"
        },
        {
          "internalType": "uint64",
          "name": "_yieldRange_32x32",
          "type": "uint64"
        },
        {
          "internalType": "uint64",
          "name": "_armyToWallTokenRatio_32x32",
          "type": "uint64"
        },
        {
          "internalType": "uint64",
          "name": "_farmOccupationBurnRate_32x32",
          "type": "uint64"
        },
        {
          "internalType": "contract EtherEmpireToken",
          "name": "_tokenContractAddress",
          "type": "address"
        },
        {
          "internalType": "uint64",
          "name": "_blocksToDivest",
          "type": "uint64"
        }
      ],
      "stateMutability": "nonpayable",
      "type": "constructor"
    },
    {
      "anonymous": false,
      "inputs": [
        {
          "indexed": false,
          "internalType": "address",
          "name": "_owner",
          "type": "address"
        },
        {
          "indexed": false,
          "internalType": "uint32",
          "name": "_id",
          "type": "uint32"
        },
        {
          "indexed": false,
          "internalType": "uint16",
          "name": "_locx",
          "type": "uint16"
        },
        {
          "indexed": false,
          "internalType": "uint16",
          "name": "_locy",
          "type": "uint16"
        }
      ],
      "name": "ArmyMoved",
      "type": "event"
    },
    {
      "anonymous": false,
      "inputs": [
        {
          "indexed": false,
          "internalType": "address",
          "name": "_owner",
          "type": "address"
        },
        {
          "indexed": false,
          "internalType": "uint32",
          "name": "_id",
          "type": "uint32"
        },
        {
          "indexed": false,
          "internalType": "uint16",
          "name": "_locx",
          "type": "uint16"
        },
        {
          "indexed": false,
          "internalType": "uint16",
          "name": "_locy",
          "type": "uint16"
        }
      ],
      "name": "ArmyRecruited",
      "type": "event"
    },
    {
      "anonymous": false,
      "inputs": [
        {
          "indexed": false,
          "internalType": "address",
          "name": "_owner",
          "type": "address"
        },
        {
          "indexed": false,
          "internalType": "uint32",
          "name": "_id",
          "type": "uint32"
        },
        {
          "indexed": false,
          "internalType": "uint16",
          "name": "_locx",
          "type": "uint16"
        },
        {
          "indexed": false,
          "internalType": "uint16",
          "name": "_locy",
          "type": "uint16"
        }
      ],
      "name": "FarmBuilt",
      "type": "event"
    },
    {
      "anonymous": false,
      "inputs": [
        {
          "indexed": true,
          "internalType": "address",
          "name": "previousOwner",
          "type": "address"
        },
        {
          "indexed": true,
          "internalType": "address",
          "name": "newOwner",
          "type": "address"
        }
      ],
      "name": "OwnershipTransferred",
      "type": "event"
    },
    {
      "anonymous": false,
      "inputs": [
        {
          "indexed": false,
          "internalType": "address",
          "name": "_owner",
          "type": "address"
        },
        {
          "indexed": false,
          "internalType": "uint32",
          "name": "_id",
          "type": "uint32"
        },
        {
          "indexed": false,
          "internalType": "uint16",
          "name": "_locx",
          "type": "uint16"
        },
        {
          "indexed": false,
          "internalType": "uint16",
          "name": "_locy",
          "type": "uint16"
        }
      ],
      "name": "WallBuilt",
      "type": "event"
    },
    {
      "inputs": [
        {
          "internalType": "uint32",
          "name": "",
          "type": "uint32"
        }
      ],
      "name": "allEntities",
      "outputs": [
        {
          "internalType": "uint32",
          "name": "id",
          "type": "uint32"
        },
        {
          "internalType": "enum EtherEmpireTypes.EntityType",
          "name": "entityType",
          "type": "uint8"
        },
        {
          "internalType": "uint64",
          "name": "qualifier1_32x32",
          "type": "uint64"
        },
        {
          "internalType": "uint64",
          "name": "qualifier2_32x32",
          "type": "uint64"
        },
        {
          "internalType": "uint16",
          "name": "locx",
          "type": "uint16"
        },
        {
          "internalType": "uint16",
          "name": "locy",
          "type": "uint16"
        }
      ],
      "stateMutability": "view",
      "type": "function"
    },
    {
      "inputs": [],
      "name": "armyToWallTokenRatio_32x32",
      "outputs": [
        {
          "internalType": "uint64",
          "name": "",
          "type": "uint64"
        }
      ],
      "stateMutability": "view",
      "type": "function"
    },
    {
      "inputs": [],
      "name": "blocksToDivest",
      "outputs": [
        {
          "internalType": "uint64",
          "name": "",
          "type": "uint64"
        }
      ],
      "stateMutability": "view",
      "type": "function"
    },
    {
      "inputs": [],
      "name": "farmOccupationBurnRate_32x32",
      "outputs": [
        {
          "internalType": "uint64",
          "name": "",
          "type": "uint64"
        }
      ],
      "stateMutability": "view",
      "type": "function"
    },
    {
      "inputs": [],
      "name": "globalLandValue_32x32",
      "outputs": [
        {
          "internalType": "uint64",
          "name": "",
          "type": "uint64"
        }
      ],
      "stateMutability": "view",
      "type": "function"
    },
    {
      "inputs": [],
      "name": "map_height",
      "outputs": [
        {
          "internalType": "uint16",
          "name": "",
          "type": "uint16"
        }
      ],
      "stateMutability": "view",
      "type": "function"
    },
    {
      "inputs": [],
      "name": "map_width",
      "outputs": [
        {
          "internalType": "uint16",
          "name": "",
          "type": "uint16"
        }
      ],
      "stateMutability": "view",
      "type": "function"
    },
    {
      "inputs": [],
      "name": "owner",
      "outputs": [
        {
          "internalType": "address",
          "name": "",
          "type": "address"
        }
      ],
      "stateMutability": "view",
      "type": "function"
    },
    {
      "inputs": [],
      "name": "renounceOwnership",
      "outputs": [],
      "stateMutability": "nonpayable",
      "type": "function"
    },
    {
      "inputs": [
        {
          "internalType": "address",
          "name": "newOwner",
          "type": "address"
        }
      ],
      "name": "transferOwnership",
      "outputs": [],
      "stateMutability": "nonpayable",
      "type": "function"
    },
    {
      "inputs": [],
      "name": "yieldMin_32x32",
      "outputs": [
        {
          "internalType": "uint64",
          "name": "",
          "type": "uint64"
        }
      ],
      "stateMutability": "view",
      "type": "function"
    },
    {
      "inputs": [],
      "name": "yieldRange_32x32",
      "outputs": [
        {
          "internalType": "uint64",
          "name": "",
          "type": "uint64"
        }
      ],
      "stateMutability": "view",
      "type": "function"
    },
    {
      "inputs": [
        {
          "internalType": "uint16",
          "name": "_width",
          "type": "uint16"
        },
        {
          "internalType": "uint16",
          "name": "_height",
          "type": "uint16"
        },
        {
          "internalType": "uint256",
          "name": "_seed",
          "type": "uint256"
        }
      ],
      "name": "populateLand",
      "outputs": [],
      "stateMutability": "nonpayable",
      "type": "function"
    },
    {
      "inputs": [
        {
          "internalType": "uint16",
          "name": "_locx",
          "type": "uint16"
        },
        {
          "internalType": "uint16",
          "name": "_locy",
          "type": "uint16"
        }
      ],
      "name": "yieldValue",
      "outputs": [
        {
          "internalType": "uint256",
          "name": "",
          "type": "uint256"
        }
      ],
      "stateMutability": "view",
      "type": "function"
    },
    {
      "inputs": [
        {
          "internalType": "uint16",
          "name": "_locx",
          "type": "uint16"
        },
        {
          "internalType": "uint16",
          "name": "_locy",
          "type": "uint16"
        },
        {
          "internalType": "uint32",
          "name": "tokenStaked",
          "type": "uint32"
        }
      ],
      "name": "buildFarm",
      "outputs": [
        {
          "internalType": "uint32",
          "name": "",
          "type": "uint32"
        }
      ],
      "stateMutability": "nonpayable",
      "type": "function"
    },
    {
      "inputs": [
        {
          "internalType": "uint16",
          "name": "_locx",
          "type": "uint16"
        },
        {
          "internalType": "uint16",
          "name": "_locy",
          "type": "uint16"
        },
        {
          "internalType": "uint32",
          "name": "tokenSpent",
          "type": "uint32"
        }
      ],
      "name": "buildWall",
      "outputs": [
        {
          "internalType": "uint32",
          "name": "",
          "type": "uint32"
        }
      ],
      "stateMutability": "nonpayable",
      "type": "function"
    },
    {
      "inputs": [
        {
          "internalType": "uint16",
          "name": "_locx",
          "type": "uint16"
        },
        {
          "internalType": "uint16",
          "name": "_locy",
          "type": "uint16"
        },
        {
          "internalType": "uint32",
          "name": "tokenSpent",
          "type": "uint32"
        }
      ],
      "name": "buildArmy",
      "outputs": [
        {
          "internalType": "uint32",
          "name": "",
          "type": "uint32"
        }
      ],
      "stateMutability": "nonpayable",
      "type": "function"
    },
    {
      "inputs": [
        {
          "internalType": "uint16",
          "name": "_locx",
          "type": "uint16"
        },
        {
          "internalType": "uint16",
          "name": "_locy",
          "type": "uint16"
        }
      ],
      "name": "divest",
      "outputs": [
        {
          "internalType": "bool",
          "name": "",
          "type": "bool"
        }
      ],
      "stateMutability": "nonpayable",
      "type": "function"
    },
    {
      "inputs": [
        {
          "internalType": "bytes32",
          "name": "signature",
          "type": "bytes32"
        },
        {
          "internalType": "bytes32",
          "name": "args",
          "type": "bytes32"
        }
      ],
      "name": "executeSignedInstructions",
      "outputs": [
        {
          "internalType": "bool",
          "name": "",
          "type": "bool"
        }
      ],
      "stateMutability": "nonpayable",
      "type": "function"
    },
    {
      "inputs": [
        {
          "internalType": "bytes",
          "name": "data",
          "type": "bytes"
        }
      ],
      "name": "toString",
      "outputs": [
        {
          "internalType": "string",
          "name": "",
          "type": "string"
        }
      ],
      "stateMutability": "pure",
      "type": "function"
    },
    {
      "inputs": [
        {
          "internalType": "uint32",
          "name": "_id",
          "type": "uint32"
        },
        {
          "internalType": "address",
          "name": "_newOwner",
          "type": "address"
        }
      ],
      "name": "changeEntityOwner",
      "outputs": [],
      "stateMutability": "nonpayable",
      "type": "function"
    },
    {
      "inputs": [
        {
          "internalType": "uint32",
          "name": "_id",
          "type": "uint32"
        }
      ],
      "name": "getEntityOwner",
      "outputs": [
        {
          "internalType": "address",
          "name": "",
          "type": "address"
        }
      ],
      "stateMutability": "view",
      "type": "function"
    },
    {
      "inputs": [
        {
          "internalType": "address",
          "name": "ref",
          "type": "address"
        }
      ],
      "name": "createTreaty",
      "outputs": [],
      "stateMutability": "nonpayable",
      "type": "function"
    },
    {
      "inputs": [
        {
          "internalType": "address",
          "name": "ref",
          "type": "address"
        }
      ],
      "name": "signTreaty",
      "outputs": [],
      "stateMutability": "nonpayable",
      "type": "function"
    },
    {
      "inputs": [
        {
          "internalType": "uint32",
          "name": "_self",
          "type": "uint32"
        },
        {
          "internalType": "uint32",
          "name": "_other",
          "type": "uint32"
        }
      ],
      "name": "armyAttack",
      "outputs": [
        {
          "internalType": "bool",
          "name": "",
          "type": "bool"
        }
      ],
      "stateMutability": "nonpayable",
      "type": "function"
    },
    {
      "inputs": [
        {
          "internalType": "uint32",
          "name": "_id",
          "type": "uint32"
        },
        {
          "internalType": "uint16",
          "name": "_locx",
          "type": "uint16"
        },
        {
          "internalType": "uint16",
          "name": "_locy",
          "type": "uint16"
        }
      ],
      "name": "armyMove",
      "outputs": [
        {
          "internalType": "bool",
          "name": "",
          "type": "bool"
        }
      ],
      "stateMutability": "nonpayable",
      "type": "function"
    }
  ],
  "bytecode": "0x60806040523480156200001157600080fd5b5060405162005d7d38038062005d7d833981810160405281019062000037919062000283565b6000620000496200024d60201b60201c565b9050806000806101000a81548173ffffffffffffffffffffffffffffffffffffffff021916908373ffffffffffffffffffffffffffffffffffffffff1602179055508073ffffffffffffffffffffffffffffffffffffffff16600073ffffffffffffffffffffffffffffffffffffffff167f8be0079c531659141344cd1fd0a4f28419497f9722a3daafe3b4186f6b6457e060405160405180910390a35085600660006101000a81548167ffffffffffffffff021916908367ffffffffffffffff16021790555084600660086101000a81548167ffffffffffffffff021916908367ffffffffffffffff16021790555083600660106101000a81548167ffffffffffffffff021916908367ffffffffffffffff16021790555082600660186101000a81548167ffffffffffffffff021916908367ffffffffffffffff1602179055506000600760006101000a81548167ffffffffffffffff021916908367ffffffffffffffff1602179055506000600260046101000a81548163ffffffff021916908363ffffffff16021790555081600260086101000a81548173ffffffffffffffffffffffffffffffffffffffff021916908373ffffffffffffffffffffffffffffffffffffffff16021790555080600760086101000a81548167ffffffffffffffff021916908367ffffffffffffffff160217905550505050505050620003a9565b600033905090565b600081519050620002668162000375565b92915050565b6000815190506200027d816200038f565b92915050565b60008060008060008060c087890312156200029d57600080fd5b6000620002ad89828a016200026c565b9650506020620002c089828a016200026c565b9550506040620002d389828a016200026c565b9450506060620002e689828a016200026c565b9350506080620002f989828a0162000255565b92505060a06200030c89828a016200026c565b9150509295509295509295565b6000620003268262000341565b9050919050565b60006200033a8262000319565b9050919050565b600073ffffffffffffffffffffffffffffffffffffffff82169050919050565b600067ffffffffffffffff82169050919050565b62000380816200032d565b81146200038c57600080fd5b50565b6200039a8162000361565b8114620003a657600080fd5b50565b6159c480620003b96000396000f3fe608060405234801561001057600080fd5b506004361061018e5760003560e01c80638776e527116100de578063d5bda1a511610097578063e21f34df11610071578063e21f34df146104d6578063f02cae61146104f4578063f2fde38b14610512578063f77ddaa81461052e5761018e565b8063d5bda1a51461046c578063dacd27dc1461049c578063e19a4d5a146104ba5761018e565b80638776e5271461038157806388759b5a146103b15780638da5cb5b146103cd578063ac479a8a146103eb578063b46306c914610420578063baf1d425146104505761018e565b8063715018a61161014b57806375f189f91161012557806375f189f9146102e557806376299258146103035780638079a5921461033357806384937d88146103635761018e565b8063715018a61461027b57806371aad10d1461028557806371e08fad146102b55761018e565b8063036e357b1461019357806315b7d227146101c35780632b2a33f1146101e15780634b544fba146102115780635205e5fb1461022d57806354ef49521461025d575b600080fd5b6101ad60048036038101906101a8919061411b565b61054c565b6040516101ba9190614774565b60405180910390f35b6101cb610554565b6040516101d89190614991565b60405180910390f35b6101fb60048036038101906101f69190614223565b610568565b60405161020891906149c7565b60405180910390f35b61022b600480360381019061022691906141d4565b610b9c565b005b61024760048036038101906102429190614198565b611047565b60405161025491906149ac565b60405180910390f35b6102656113ce565b6040516102729190614b05565b60405180910390f35b6102836113e8565b005b61029f600480360381019061029a9190614157565b611522565b6040516102ac919061478f565b60405180910390f35b6102cf60048036038101906102ca9190614223565b611972565b6040516102dc91906149c7565b60405180910390f35b6102ed61215d565b6040516102fa9190614b05565b60405180910390f35b61031d600480360381019061031891906142d7565b612177565b60405161032a9190614774565b60405180910390f35b61034d60048036038101906103489190614198565b612311565b60405161035a9190614774565b60405180910390f35b61036b612382565b6040516103789190614b05565b60405180910390f35b61039b60048036038101906103969190614326565b61239c565b6040516103a89190614774565b60405180910390f35b6103cb60048036038101906103c691906140a0565b612501565b005b6103d5612604565b6040516103e291906146b4565b60405180910390f35b61040560048036038101906104009190614272565b61262d565b604051610417969594939291906149e2565b60405180910390f35b61043a60048036038101906104359190614272565b6126ca565b60405161044791906146b4565b60405180910390f35b61046a6004803603810190610465919061429b565b612713565b005b61048660048036038101906104819190614223565b6128bc565b60405161049391906149c7565b60405180910390f35b6104a4612ddd565b6040516104b19190614b05565b60405180910390f35b6104d460048036038101906104cf91906140a0565b612df7565b005b6104de612f7f565b6040516104eb9190614b05565b60405180910390f35b6104fc612f99565b6040516105099190614991565b60405180910390f35b61052c600480360381019061052791906140a0565b612fab565b005b610536613154565b6040516105439190614b05565b60405180910390f35b600092915050565b600260009054906101000a900461ffff1681565b600083836001600060048111156105a8577f4e487b7100000000000000000000000000000000000000000000000000000000600052602160045260246000fd5b6001600060028054906101000a900461ffff16600260009054906101000a900461ffff168560ff166105da91906150d9565b6105e491906150d9565b600260009054906101000a900461ffff168661060091906150d9565b8761060b9190614b92565b6106159190614b92565b61ffff1663ffffffff16815260200190815260200160002060000160049054906101000a900460ff166004811115610676577f4e487b7100000000000000000000000000000000000000000000000000000000600052602160045260246000fd5b146106b6576040517f08c379a00000000000000000000000000000000000000000000000000000000081526004016106ad90614931565b60405180910390fd5b6000600260009054906101000a900461ffff1660028054906101000a900461ffff166106e291906150d9565b600260009054906101000a900461ffff16886106fe91906150d9565b896107099190614b92565b6107139190614b92565b61ffff1690506000439050600260089054906101000a900473ffffffffffffffffffffffffffffffffffffffff1673ffffffffffffffffffffffffffffffffffffffff166323b872dd33308a6040518463ffffffff1660e01b815260040161077d939291906146cf565b602060405180830381600087803b15801561079757600080fd5b505af11580156107ab573d6000803e3d6000fd5b505050506040513d601f19601f820116820180604052508101906107cf91906140f2565b5060006107fc60208963ffffffff1667ffffffffffffffff16901b67ffffffffffffffff1660208061316e565b90506040518060c001604052808463ffffffff16815260200160048081111561084e577f4e487b7100000000000000000000000000000000000000000000000000000000600052602160045260246000fd5b815260200163ffffffff67ffffffffffffffff1681526020018267ffffffffffffffff1681526020018b61ffff1681526020018a61ffff16815250600160008563ffffffff1663ffffffff16815260200190815260200160002060008201518160000160006101000a81548163ffffffff021916908363ffffffff16021790555060208201518160000160046101000a81548160ff02191690836004811115610920577f4e487b7100000000000000000000000000000000000000000000000000000000600052602160045260246000fd5b021790555060408201518160000160056101000a81548167ffffffffffffffff021916908367ffffffffffffffff160217905550606082015181600001600d6101000a81548167ffffffffffffffff021916908367ffffffffffffffff16021790555060808201518160000160156101000a81548161ffff021916908361ffff16021790555060a08201518160000160176101000a81548161ffff021916908361ffff160217905550905050610a40600560008467ffffffffffffffff1667ffffffffffffffff16815260200190815260200160002060009054906101000a900460070b60070b827fffffffffffffffffffffffffffffffffffffffffffffffffffffffffffffffff610a339190614ff2565b60070b602080602061321b565b600560008467ffffffffffffffff1667ffffffffffffffff16815260200190815260200160002060006101000a81548167ffffffffffffffff021916908360070b67ffffffffffffffff160217905550610ac9600760009054906101000a900467ffffffffffffffff1667ffffffffffffffff168267ffffffffffffffff166020806020613383565b600760006101000a81548167ffffffffffffffff021916908367ffffffffffffffff16021790555033600360008563ffffffff1663ffffffff16815260200190815260200160002060006101000a81548173ffffffffffffffffffffffffffffffffffffffff021916908373ffffffffffffffffffffffffffffffffffffffff1602179055507f55976d8e78c6bf477a2ce62d3c1ecdb4a7d8c4415ed039624f32664add77c06433848c8c604051610b849493929190614706565b60405180910390a18296505050505050509392505050565b610ba46133b0565b73ffffffffffffffffffffffffffffffffffffffff16610bc2612604565b73ffffffffffffffffffffffffffffffffffffffff1614610c18576040517f08c379a0000000000000000000000000000000000000000000000000000000008152600401610c0f906148d1565b60405180910390fd5b60006004811115610c52577f4e487b7100000000000000000000000000000000000000000000000000000000600052602160045260246000fd5b600160008063ffffffff16815260200190815260200160002060000160049054906101000a900460ff166004811115610cb4577f4e487b7100000000000000000000000000000000000000000000000000000000600052602160045260246000fd5b14610cf4576040517f08c379a0000000000000000000000000000000000000000000000000000000008152600401610ceb90614971565b60405180910390fd5b82600260006101000a81548161ffff021916908361ffff160217905550816002806101000a81548161ffff021916908361ffff1602179055506000805b8461ffff168161ffff1610156110405760005b8461ffff168161ffff16101561102c576000600260009054906101000a900461ffff1683610d7291906150d9565b82610d7d9190614b92565b61ffff16905060006040518060c001604052808363ffffffff16815260200160016004811115610dd6577f4e487b7100000000000000000000000000000000000000000000000000000000600052602160045260246000fd5b8152602001600067ffffffffffffffff168152602001610e51600660009054906101000a900467ffffffffffffffff1667ffffffffffffffff16610e478a8a80610e1f90615424565b9b50600660089054906101000a900467ffffffffffffffff1667ffffffffffffffff166133b8565b6020806020613383565b67ffffffffffffffff1681526020018461ffff1681526020018561ffff16815250905080600160008463ffffffff1663ffffffff16815260200190815260200160002060008201518160000160006101000a81548163ffffffff021916908363ffffffff16021790555060208201518160000160046101000a81548160ff02191690836004811115610f0c577f4e487b7100000000000000000000000000000000000000000000000000000000600052602160045260246000fd5b021790555060408201518160000160056101000a81548167ffffffffffffffff021916908367ffffffffffffffff160217905550606082015181600001600d6101000a81548167ffffffffffffffff021916908367ffffffffffffffff16021790555060808201518160000160156101000a81548161ffff021916908361ffff16021790555060a08201518160000160176101000a81548161ffff021916908361ffff1602179055509050506000600360008463ffffffff1663ffffffff16815260200190815260200160002060006101000a81548173ffffffffffffffffffffffffffffffffffffffff021916908373ffffffffffffffffffffffffffffffffffffffff16021790555050508080611024906153f9565b915050610d44565b508080611038906153f9565b915050610d31565b5050505050565b600080600260009054906101000a900461ffff1660028054906101000a900461ffff1661107491906150d9565b600260009054906101000a900461ffff168461109091906150d9565b8561109b9190614b92565b6110a59190614b92565b61ffff1690506000600160008363ffffffff1663ffffffff1681526020019081526020016000209050600480811115611107577f4e487b7100000000000000000000000000000000000000000000000000000000600052602160045260246000fd5b8160000160049054906101000a900460ff166004811115611151577f4e487b7100000000000000000000000000000000000000000000000000000000600052602160045260246000fd5b14611191576040517f08c379a000000000000000000000000000000000000000000000000000000000815260040161118890614891565b60405180910390fd5b6000600760009054906101000a900467ffffffffffffffff16905060004390506000808460000160059054906101000a900467ffffffffffffffff1667ffffffffffffffff168367ffffffffffffffff16116111ed5782611207565b8460000160059054906101000a900467ffffffffffffffff165b905060008190505b600160008863ffffffff1663ffffffff16815260200190815260200160002060000160059054906101000a900467ffffffffffffffff1667ffffffffffffffff168167ffffffffffffffff1611156113b4576112ea6112a087600001600d9054906101000a900467ffffffffffffffff1667ffffffffffffffff168767ffffffffffffffff166020806020806133fa565b600460008467ffffffffffffffff1667ffffffffffffffff16815260200190815260200160002060009054906101000a900463ffffffff1663ffffffff1660206000602080613578565b836112f59190614c5a565b925061139f600560008667ffffffffffffffff1667ffffffffffffffff16815260200190815260200160002060009054906101000a900460070b60070b600560008467ffffffffffffffff1667ffffffffffffffff16815260200190815260200160002060009054906101000a900460070b7fffffffffffffffffffffffffffffffffffffffffffffffffffffffffffffffff6113929190614ff2565b60070b602080602061321b565b945080806113ac9061539e565b91505061120f565b508167ffffffffffffffff16965050505050505092915050565b600660109054906101000a900467ffffffffffffffff1681565b6113f06133b0565b73ffffffffffffffffffffffffffffffffffffffff1661140e612604565b73ffffffffffffffffffffffffffffffffffffffff1614611464576040517f08c379a000000000000000000000000000000000000000000000000000000000815260040161145b906148d1565b60405180910390fd5b600073ffffffffffffffffffffffffffffffffffffffff1660008054906101000a900473ffffffffffffffffffffffffffffffffffffffff1673ffffffffffffffffffffffffffffffffffffffff167f8be0079c531659141344cd1fd0a4f28419497f9722a3daafe3b4186f6b6457e060405160405180910390a360008060006101000a81548173ffffffffffffffffffffffffffffffffffffffff021916908373ffffffffffffffffffffffffffffffffffffffff160217905550565b606060006040518060400160405280601081526020017f3031323334353637383961626364656600000000000000000000000000000000815250905060006002845161156e9190615115565b600261157a9190614bca565b67ffffffffffffffff8111156115b9577f4e487b7100000000000000000000000000000000000000000000000000000000600052604160045260246000fd5b6040519080825280601f01601f1916602001820160405280156115eb5781602001600182028036833780820191505090505b5090507f300000000000000000000000000000000000000000000000000000000000000081600081518110611649577f4e487b7100000000000000000000000000000000000000000000000000000000600052603260045260246000fd5b60200101907effffffffffffffffffffffffffffffffffffffffffffffffffffffffffffff1916908160001a9053507f7800000000000000000000000000000000000000000000000000000000000000816001815181106116d3577f4e487b7100000000000000000000000000000000000000000000000000000000600052603260045260246000fd5b60200101907effffffffffffffffffffffffffffffffffffffffffffffffffffffffffffff1916908160001a90535060005b84518110156119675782600486838151811061174a577f4e487b7100000000000000000000000000000000000000000000000000000000600052603260045260246000fd5b602001015160f81c60f81b7effffffffffffffffffffffffffffffffffffffffffffffffffffffffffffff1916901c60f81c60ff16815181106117b6577f4e487b7100000000000000000000000000000000000000000000000000000000600052603260045260246000fd5b602001015160f81c60f81b826002836117cf9190615115565b60026117db9190614bca565b81518110611812577f4e487b7100000000000000000000000000000000000000000000000000000000600052603260045260246000fd5b60200101907effffffffffffffffffffffffffffffffffffffffffffffffffffffffffffff1916908160001a90535082600f60f81b868381518110611880577f4e487b7100000000000000000000000000000000000000000000000000000000600052603260045260246000fd5b602001015160f81c60f81b1660f81c60ff16815181106118c9577f4e487b7100000000000000000000000000000000000000000000000000000000600052603260045260246000fd5b602001015160f81c60f81b826002836118e29190615115565b60036118ee9190614bca565b81518110611925577f4e487b7100000000000000000000000000000000000000000000000000000000600052603260045260246000fd5b60200101907effffffffffffffffffffffffffffffffffffffffffffffffffffffffffffff1916908160001a905350808061195f90615424565b915050611705565b508092505050919050565b6000806001600060028054906101000a900461ffff16600260009054906101000a900461ffff1660016119a591906150d9565b6119af91906150d9565b600260009054906101000a900461ffff16876119cb91906150d9565b886119d69190614b92565b6119e09190614b92565b61ffff1663ffffffff1681526020019081526020016000206040518060c00160405290816000820160009054906101000a900463ffffffff1663ffffffff1663ffffffff1681526020016000820160049054906101000a900460ff166004811115611a74577f4e487b7100000000000000000000000000000000000000000000000000000000600052602160045260246000fd5b6004811115611aac577f4e487b7100000000000000000000000000000000000000000000000000000000600052602160045260246000fd5b81526020016000820160059054906101000a900467ffffffffffffffff1667ffffffffffffffff1667ffffffffffffffff16815260200160008201600d9054906101000a900467ffffffffffffffff1667ffffffffffffffff1667ffffffffffffffff1681526020016000820160159054906101000a900461ffff1661ffff1661ffff1681526020016000820160179054906101000a900461ffff1661ffff1661ffff16815250509050600480811115611b8f577f4e487b7100000000000000000000000000000000000000000000000000000000600052602160045260246000fd5b81602001516004811115611bcc577f4e487b7100000000000000000000000000000000000000000000000000000000600052602160045260246000fd5b14611c0c576040517f08c379a0000000000000000000000000000000000000000000000000000000008152600401611c0390614851565b60405180910390fd5b3373ffffffffffffffffffffffffffffffffffffffff1660036000836000015163ffffffff1663ffffffff16815260200190815260200160002060009054906101000a900473ffffffffffffffffffffffffffffffffffffffff1673ffffffffffffffffffffffffffffffffffffffff1614611cbd576040517f08c379a0000000000000000000000000000000000000000000000000000000008152600401611cb4906148b1565b60405180910390fd5b600060028054906101000a900461ffff16600260009054906101000a900461ffff166002611ceb91906150d9565b611cf591906150d9565b61ffff16600260049054906101000a900463ffffffff16611d169190614c20565b90506000439050600260089054906101000a900473ffffffffffffffffffffffffffffffffffffffff1673ffffffffffffffffffffffffffffffffffffffff166323b872dd3330886040518463ffffffff1660e01b8152600401611d7c939291906146cf565b602060405180830381600087803b158015611d9657600080fd5b505af1158015611daa573d6000803e3d6000fd5b505050506040513d601f19601f82011682018060405250810190611dce91906140f2565b506000611e1f60208763ffffffff1667ffffffffffffffff16901b67ffffffffffffffff16600660109054906101000a900467ffffffffffffffff1667ffffffffffffffff166020806020806133fa565b90506040518060c001604052808463ffffffff16815260200160036004811115611e72577f4e487b7100000000000000000000000000000000000000000000000000000000600052602160045260246000fd5b81526020018367ffffffffffffffff1681526020018267ffffffffffffffff1681526020018961ffff1681526020018861ffff16815250600160008563ffffffff1663ffffffff16815260200190815260200160002060008201518160000160006101000a81548163ffffffff021916908363ffffffff16021790555060208201518160000160046101000a81548160ff02191690836004811115611f40577f4e487b7100000000000000000000000000000000000000000000000000000000600052602160045260246000fd5b021790555060408201518160000160056101000a81548167ffffffffffffffff021916908367ffffffffffffffff160217905550606082015181600001600d6101000a81548167ffffffffffffffff021916908367ffffffffffffffff16021790555060808201518160000160156101000a81548161ffff021916908361ffff16021790555060a08201518160000160176101000a81548161ffff021916908361ffff16021790555090505085600460008467ffffffffffffffff1667ffffffffffffffff16815260200190815260200160002060009054906101000a900463ffffffff1661202f9190614c20565b600460008467ffffffffffffffff1667ffffffffffffffff16815260200190815260200160002060006101000a81548163ffffffff021916908363ffffffff16021790555033600360008563ffffffff1663ffffffff16815260200190815260200160002060006101000a81548173ffffffffffffffffffffffffffffffffffffffff021916908373ffffffffffffffffffffffffffffffffffffffff1602179055506001600260048282829054906101000a900463ffffffff166120f49190614c20565b92506101000a81548163ffffffff021916908363ffffffff1602179055507ff6d687f7b1506dd0afa44fe5ca3ba6e87c4943689d87cba8eabacf9debe4ca2433848a8a6040516121479493929190614706565b60405180910390a1829450505050509392505050565b600660089054906101000a900467ffffffffffffffff1681565b600083338073ffffffffffffffffffffffffffffffffffffffff16600360008463ffffffff1663ffffffff16815260200190815260200160002060009054906101000a900473ffffffffffffffffffffffffffffffffffffffff1673ffffffffffffffffffffffffffffffffffffffff1614612228576040517f08c379a000000000000000000000000000000000000000000000000000000000815260040161221f90614951565b60405180910390fd5b600073__EtherEmpireCombat_____________________63152496118888886001600360096040518763ffffffff1660e01b815260040161226e96959493929190614a43565b60206040518083038186803b15801561228657600080fd5b505af415801561229a573d6000803e3d6000fd5b505050506040513d601f19601f820116820180604052508101906122be91906140f2565b90508015612304577fc9c7219e12f0b5ddc828e2e1479d53e8e5416665400152bd5fe1c021efbb3220338888886040516122fb9493929190614706565b60405180910390a15b8093505050509392505050565b600061237a60028054906101000a900461ffff16600260009054906101000a900461ffff1661234091906150d9565b600260009054906101000a900461ffff168461235c91906150d9565b856123679190614b92565b6123719190614b92565b61ffff166137a8565b905092915050565b600660009054906101000a900467ffffffffffffffff1681565b600082338073ffffffffffffffffffffffffffffffffffffffff16600360008463ffffffff1663ffffffff16815260200190815260200160002060009054906101000a900473ffffffffffffffffffffffffffffffffffffffff1673ffffffffffffffffffffffffffffffffffffffff161461244d576040517f08c379a000000000000000000000000000000000000000000000000000000000815260040161244490614951565b60405180910390fd5b73__EtherEmpireCombat_____________________636d030c518686600160036008600660189054906101000a900467ffffffffffffffff166040518763ffffffff1660e01b81526004016124a796959493929190614aa4565b60206040518083038186803b1580156124bf57600080fd5b505af41580156124d3573d6000803e3d6000fd5b505050506040513d601f19601f820116820180604052508101906124f791906140f2565b9250505092915050565b6001600b60003373ffffffffffffffffffffffffffffffffffffffff1673ffffffffffffffffffffffffffffffffffffffff16815260200190815260200160002060008373ffffffffffffffffffffffffffffffffffffffff1673ffffffffffffffffffffffffffffffffffffffff16815260200190815260200160002060006101000a81548160ff0219169083151502179055508073ffffffffffffffffffffffffffffffffffffffff1663f71be837336040518263ffffffff1660e01b81526004016125cf91906146b4565b600060405180830381600087803b1580156125e957600080fd5b505af11580156125fd573d6000803e3d6000fd5b5050505050565b60008060009054906101000a900473ffffffffffffffffffffffffffffffffffffffff16905090565b60016020528060005260406000206000915090508060000160009054906101000a900463ffffffff16908060000160049054906101000a900460ff16908060000160059054906101000a900467ffffffffffffffff169080600001600d9054906101000a900467ffffffffffffffff16908060000160159054906101000a900461ffff16908060000160179054906101000a900461ffff16905086565b6000600360008363ffffffff1663ffffffff16815260200190815260200160002060009054906101000a900473ffffffffffffffffffffffffffffffffffffffff169050919050565b600360008363ffffffff1663ffffffff16815260200190815260200160002060009054906101000a900473ffffffffffffffffffffffffffffffffffffffff1673ffffffffffffffffffffffffffffffffffffffff163373ffffffffffffffffffffffffffffffffffffffff1614806128515750600b6000600360008563ffffffff1663ffffffff16815260200190815260200160002060009054906101000a900473ffffffffffffffffffffffffffffffffffffffff1673ffffffffffffffffffffffffffffffffffffffff1673ffffffffffffffffffffffffffffffffffffffff16815260200190815260200160002060003373ffffffffffffffffffffffffffffffffffffffff1673ffffffffffffffffffffffffffffffffffffffff16815260200190815260200160002060009054906101000a900460ff165b61285a57600080fd5b80600360008463ffffffff1663ffffffff16815260200190815260200160002060006101000a81548173ffffffffffffffffffffffffffffffffffffffff021916908373ffffffffffffffffffffffffffffffffffffffff1602179055505050565b600083836001600060048111156128fc577f4e487b7100000000000000000000000000000000000000000000000000000000600052602160045260246000fd5b6001600060028054906101000a900461ffff16600260009054906101000a900461ffff168560ff1661292e91906150d9565b61293891906150d9565b600260009054906101000a900461ffff168661295491906150d9565b8761295f9190614b92565b6129699190614b92565b61ffff1663ffffffff16815260200190815260200160002060000160049054906101000a900460ff1660048111156129ca577f4e487b7100000000000000000000000000000000000000000000000000000000600052602160045260246000fd5b14612a0a576040517f08c379a0000000000000000000000000000000000000000000000000000000008152600401612a0190614931565b60405180910390fd5b6000600260009054906101000a900461ffff1660028054906101000a900461ffff16612a3691906150d9565b600260009054906101000a900461ffff1688612a5291906150d9565b89612a5d9190614b92565b612a679190614b92565b61ffff1690506000439050600260089054906101000a900473ffffffffffffffffffffffffffffffffffffffff1673ffffffffffffffffffffffffffffffffffffffff166323b872dd33308a6040518463ffffffff1660e01b8152600401612ad1939291906146cf565b602060405180830381600087803b158015612aeb57600080fd5b505af1158015612aff573d6000803e3d6000fd5b505050506040513d601f19601f82011682018060405250810190612b2391906140f2565b50600060208863ffffffff1667ffffffffffffffff16901b90506040518060c001604052808463ffffffff16815260200160026004811115612b8e577f4e487b7100000000000000000000000000000000000000000000000000000000600052602160045260246000fd5b81526020018367ffffffffffffffff1681526020018267ffffffffffffffff1681526020018b61ffff1681526020018a61ffff16815250600160008563ffffffff1663ffffffff16815260200190815260200160002060008201518160000160006101000a81548163ffffffff021916908363ffffffff16021790555060208201518160000160046101000a81548160ff02191690836004811115612c5c577f4e487b7100000000000000000000000000000000000000000000000000000000600052602160045260246000fd5b021790555060408201518160000160056101000a81548167ffffffffffffffff021916908367ffffffffffffffff160217905550606082015181600001600d6101000a81548167ffffffffffffffff021916908367ffffffffffffffff16021790555060808201518160000160156101000a81548161ffff021916908361ffff16021790555060a08201518160000160176101000a81548161ffff021916908361ffff16021790555090505087600460008467ffffffffffffffff1667ffffffffffffffff16815260200190815260200160002060009054906101000a900463ffffffff16612d4b9190614c20565b600460008467ffffffffffffffff1667ffffffffffffffff16815260200190815260200160002060006101000a81548163ffffffff021916908363ffffffff1602179055507feccb62409f7c15694f95b0febf07fe47b3ee14bbb921e7d80032cad5d7e9e16a33848c8c604051612dc59493929190614706565b60405180910390a18296505050505050509392505050565b600760009054906101000a900467ffffffffffffffff1681565b60008173ffffffffffffffffffffffffffffffffffffffff16631f922d066040518163ffffffff1660e01b8152600401602060405180830381600087803b158015612e4157600080fd5b505af1158015612e55573d6000803e3d6000fd5b505050506040513d601f19601f82011682018060405250810190612e7991906140c9565b90506001600b60003373ffffffffffffffffffffffffffffffffffffffff1673ffffffffffffffffffffffffffffffffffffffff16815260200190815260200160002060008373ffffffffffffffffffffffffffffffffffffffff1673ffffffffffffffffffffffffffffffffffffffff16815260200190815260200160002060006101000a81548160ff0219169083151502179055508073ffffffffffffffffffffffffffffffffffffffff1663f71be837336040518263ffffffff1660e01b8152600401612f4991906146b4565b600060405180830381600087803b158015612f6357600080fd5b505af1158015612f77573d6000803e3d6000fd5b505050505050565b600760089054906101000a900467ffffffffffffffff1681565b60028054906101000a900461ffff1681565b612fb36133b0565b73ffffffffffffffffffffffffffffffffffffffff16612fd1612604565b73ffffffffffffffffffffffffffffffffffffffff1614613027576040517f08c379a000000000000000000000000000000000000000000000000000000000815260040161301e906148d1565b60405180910390fd5b600073ffffffffffffffffffffffffffffffffffffffff168173ffffffffffffffffffffffffffffffffffffffff161415613097576040517f08c379a000000000000000000000000000000000000000000000000000000000815260040161308e906147f1565b60405180910390fd5b8073ffffffffffffffffffffffffffffffffffffffff1660008054906101000a900473ffffffffffffffffffffffffffffffffffffffff1673ffffffffffffffffffffffffffffffffffffffff167f8be0079c531659141344cd1fd0a4f28419497f9722a3daafe3b4186f6b6457e060405160405180910390a3806000806101000a81548173ffffffffffffffffffffffffffffffffffffffff021916908373ffffffffffffffffffffffffffffffffffffffff16021790555050565b600660189054906101000a900467ffffffffffffffff1681565b60008061317a85613aee565b60ff6131869190615237565b60ff169050600284826131999190614bca565b6131a39190615477565b816131ae9190615203565b9050600083600286846131c19190614bca565b6131cb9190614ccf565b6131d5919061516f565b9050600081126131f757806131ec8388901b613c47565b901c92505050613214565b80613201906154a8565b61320d8388901b613c47565b901b925050505b9392505050565b60008061322787613e13565b9050600061323487613e13565b905060008812158015613248575060008712155b156132765761326d8261325c838989613e35565b86896132689190614bca565b613ec3565b9250505061337a565b60008812158015613288575060008713155b806132a15750600088131580156132a0575060008712155b5b1561332a578082106132d6576132cd826132bc838989613e35565b86896132c89190614bca565b613f34565b9250505061337a565b6132f6816132e5848989613e35565b86896132f19190614bca565b613f34565b7fffffffffffffffffffffffffffffffffffffffffffffffffffffffffffffffff6133219190614edb565b9250505061337a565b61334a82613339838989613e35565b86896133459190614bca565b613ec3565b7fffffffffffffffffffffffffffffffffffffffffffffffffffffffffffffffff6133759190614edb565b925050505b95945050505050565b60006133a586613394878787613e35565b84876133a09190614bca565b613ec3565b905095945050505050565b600033905090565b60008184846040516020016133ce929190614688565b6040516020818303038152906040528051906020012060001c6133f19190615477565b90509392505050565b600080861161343e576040517f08c379a000000000000000000000000000000000000000000000000000000000815260040161343590614831565b60405180910390fd5b600061344988613aee565b60ff6134559190615237565b60ff169050600087828a901b61346b9190614d39565b90506000828861347b9190614bca565b87866134879190614bca565b613491919061516f565b905060008112156134b357806134a6906154a8565b82901c935050505061356e565b600082828385901b925082901c14613500576040517f08c379a00000000000000000000000000000000000000000000000000000000081526004016134f7906148f1565b60405180910390fd5b6001868861350e9190614bca565b600261351a9190614dbd565b6135249190615203565b811115613566576040517f08c379a000000000000000000000000000000000000000000000000000000000815260040161355d906148f1565b60405180910390fd5b809450505050505b9695505050505050565b6000808714806135885750600086145b15613596576000905061379e565b60008588901c905060008682901b896135af9190615203565b905060008689901c905060008782901b8a6135ca9190615203565b9050600082856135da9190615115565b9050600082856135ea9190615115565b9050600083876135fa9190615115565b90506000868661360a9190615115565b905060018b600261361b9190614dbd565b6136259190615203565b841115613667576040517f08c379a000000000000000000000000000000000000000000000000000000000815260040161365e90614911565b60405180910390fd5b60008a85901b90508c8e61367b9190614bca565b8b106136df578c8e8c61368e9190615203565b6136989190615203565b84901b8e8c6136a79190615203565b83901b8e8d6136b69190615203565b85901b6136c39190614bca565b6136cd9190614bca565b816136d89190614bca565b9050613791565b8a8d8f6136ec9190614bca565b6136f69190615203565b84901c816137049190614bca565b90508d8b1061372e578d8b6137199190615203565b82901b816137279190614bca565b905061374b565b8a8e61373a9190615203565b82901c816137489190614bca565b90505b8c8b10613773578c8b61375e9190615203565b83901b8161376c9190614bca565b9050613790565b8a8d61377f9190615203565b83901c8161378d9190614bca565b90505b5b8099505050505050505050505b9695505050505050565b600081338073ffffffffffffffffffffffffffffffffffffffff16600360008463ffffffff1663ffffffff16815260200190815260200160002060009054906101000a900473ffffffffffffffffffffffffffffffffffffffff1673ffffffffffffffffffffffffffffffffffffffff1614613859576040517f08c379a000000000000000000000000000000000000000000000000000000000815260040161385090614951565b60405180910390fd5b6000600160008663ffffffff1663ffffffff168152602001908152602001600020600001600d9054906101000a900467ffffffffffffffff1690506000600160008763ffffffff1663ffffffff16815260200190815260200160002060000160059054906101000a900467ffffffffffffffff169050600043905063ffffffff8267ffffffffffffffff1614156139de57600760089054906101000a900467ffffffffffffffff168161390c9190614c5a565b9150613982600560008367ffffffffffffffff1667ffffffffffffffff16815260200190815260200160002060009054906101000a900460070b60070b847fffffffffffffffffffffffffffffffffffffffffffffffffffffffffffffffff6139759190614ff2565b60070b602080602061321b565b600560008367ffffffffffffffff1667ffffffffffffffff16815260200190815260200160002060006101000a81548167ffffffffffffffff021916908360070b67ffffffffffffffff16021790555060009550505050613ae7565b4367ffffffffffffffff168267ffffffffffffffff161115613a065760009550505050613ae7565b6000613a2c8467ffffffffffffffff168567ffffffffffffffff16602080602080613578565b9050600260089054906101000a900473ffffffffffffffffffffffffffffffffffffffff1673ffffffffffffffffffffffffffffffffffffffff1663a9059cbb33836040518363ffffffff1660e01b8152600401613a8b92919061474b565b602060405180830381600087803b158015613aa557600080fd5b505af1158015613ab9573d6000803e3d6000fd5b505050506040513d601f19601f82011682018060405250810190613add91906140f2565b5060019650505050505b5050919050565b6000808211613b32576040517f08c379a0000000000000000000000000000000000000000000000000000000008152600401613b29906147d1565b60405180910390fd5b7001000000000000000000000000000000008210613b6157608082901c9150608081613b5e9190614c98565b90505b680100000000000000008210613b8857604082901c9150604081613b859190614c98565b90505b6401000000008210613bab57602082901c9150602081613ba89190614c98565b90505b620100008210613bcc57601082901c9150601081613bc99190614c98565b90505b6101008210613bec57600882901c9150600881613be99190614c98565b90505b60108210613c0b57600482901c9150600481613c089190614c98565b90505b60048210613c2a57600282901c9150600281613c279190614c98565b90505b60028210613c4257600181613c3f9190614c98565b90505b919050565b600080821415613c5a5760009050613e0e565b60008290506000600190507001000000000000000000000000000000008210613c8c57608082901c9150604081901b90505b680100000000000000008210613cab57604082901c9150602081901b90505b6401000000008210613cc657602082901c9150601081901b90505b620100008210613cdf57601082901c9150600881901b90505b6101008210613cf757600882901c9150600481901b90505b60108210613d0e57600482901c9150600281901b90505b60088210613d1e57600181901b90505b60018185613d2c9190614d39565b82613d379190614bca565b901c905060018185613d499190614d39565b82613d549190614bca565b901c905060018185613d669190614d39565b82613d719190614bca565b901c905060018185613d839190614d39565b82613d8e9190614bca565b901c905060018185613da09190614d39565b82613dab9190614bca565b901c905060018185613dbd9190614d39565b82613dc89190614bca565b901c905060018185613dda9190614d39565b82613de59190614bca565b901c905060008185613df79190614d39565b9050808210613e065780613e08565b815b93505050505b919050565b600080821215613e2c5781613e27906154a8565b613e2e565b815b9050919050565b6000828211613e54578183613e4a9190615203565b84901c9050613ebc565b6000848484613e639190615203565b8585613e6f9190615203565b87901b925082901c14613eb7576040517f08c379a0000000000000000000000000000000000000000000000000000000008152600401613eae90614871565b60405180910390fd5b809150505b9392505050565b600083826002613ed39190614dbd565b8486613edf9190614bca565b925082613eec9190615477565b1015613f2d576040517f08c379a0000000000000000000000000000000000000000000000000000000008152600401613f2490614811565b60405180910390fd5b9392505050565b600083826002613f449190614dbd565b8486613f509190615203565b925082613f5d9190615477565b1115613f9e576040517f08c379a0000000000000000000000000000000000000000000000000000000008152600401613f95906147b1565b60405180910390fd5b9392505050565b6000613fb8613fb384614b45565b614b20565b905082815260208101848484011115613fd057600080fd5b613fdb84828561535c565b509392505050565b600081359050613ff281615904565b92915050565b60008151905061400781615904565b92915050565b60008151905061401c8161591b565b92915050565b60008135905061403181615932565b92915050565b600082601f83011261404857600080fd5b8135614058848260208601613fa5565b91505092915050565b60008135905061407081615949565b92915050565b60008135905061408581615960565b92915050565b60008135905061409a81615977565b92915050565b6000602082840312156140b257600080fd5b60006140c084828501613fe3565b91505092915050565b6000602082840312156140db57600080fd5b60006140e984828501613ff8565b91505092915050565b60006020828403121561410457600080fd5b60006141128482850161400d565b91505092915050565b6000806040838503121561412e57600080fd5b600061413c85828601614022565b925050602061414d85828601614022565b9150509250929050565b60006020828403121561416957600080fd5b600082013567ffffffffffffffff81111561418357600080fd5b61418f84828501614037565b91505092915050565b600080604083850312156141ab57600080fd5b60006141b985828601614061565b92505060206141ca85828601614061565b9150509250929050565b6000806000606084860312156141e957600080fd5b60006141f786828701614061565b935050602061420886828701614061565b925050604061421986828701614076565b9150509250925092565b60008060006060848603121561423857600080fd5b600061424686828701614061565b935050602061425786828701614061565b92505060406142688682870161408b565b9150509250925092565b60006020828403121561428457600080fd5b60006142928482850161408b565b91505092915050565b600080604083850312156142ae57600080fd5b60006142bc8582860161408b565b92505060206142cd85828601613fe3565b9150509250929050565b6000806000606084860312156142ec57600080fd5b60006142fa8682870161408b565b935050602061430b86828701614061565b925050604061431c86828701614061565b9150509250925092565b6000806040838503121561433957600080fd5b60006143478582860161408b565b92505060206143588582860161408b565b9150509250929050565b61436b8161526b565b82525050565b61437a8161527d565b82525050565b61438981615326565b82525050565b8082525050565b8082525050565b8082525050565b60006143af82614b76565b6143b98185614b81565b93506143c981856020860161536b565b6143d2816155ad565b840191505092915050565b60006143ea601583614b81565b91506143f5826155cb565b602082019050919050565b600061440d602183614b81565b9150614418826155f4565b604082019050919050565b6000614430602683614b81565b915061443b82615643565b604082019050919050565b6000614453601a83614b81565b915061445e82615692565b602082019050919050565b6000614476602383614b81565b9150614481826156bb565b604082019050919050565b6000614499601683614b81565b91506144a48261570a565b602082019050919050565b60006144bc601c83614b81565b91506144c782615733565b602082019050919050565b60006144df601283614b81565b91506144ea8261575c565b602082019050919050565b6000614502601b83614b81565b915061450d82615785565b602082019050919050565b6000614525602083614b81565b9150614530826157ae565b602082019050919050565b6000614548601c83614b81565b9150614553826157d7565b602082019050919050565b600061456b602183614b81565b915061457682615800565b604082019050919050565b600061458e601f83614b81565b91506145998261584f565b602082019050919050565b60006145b1603983614b81565b91506145bc82615878565b604082019050919050565b60006145d4600f83614b81565b91506145df826158c7565b602082019050919050565b6145f3816152bd565b82525050565b614602816152bd565b82525050565b614611816152eb565b82525050565b614628614623826152eb565b61546d565b82525050565b61463781615338565b82525050565b614646816152f5565b82525050565b614655816152f5565b82525050565b6146648161534a565b82525050565b61467381615305565b82525050565b61468281615305565b82525050565b60006146948285614617565b6020820191506146a48284614617565b6020820191508190509392505050565b60006020820190506146c96000830184614362565b92915050565b60006060820190506146e46000830186614362565b6146f16020830185614362565b6146fe604083018461462e565b949350505050565b600060808201905061471b6000830187614362565b614728602083018661463d565b61473560408301856145ea565b61474260608301846145ea565b95945050505050565b60006040820190506147606000830185614362565b61476d602083018461465b565b9392505050565b60006020820190506147896000830184614371565b92915050565b600060208201905081810360008301526147a981846143a4565b905092915050565b600060208201905081810360008301526147ca816143dd565b9050919050565b600060208201905081810360008301526147ea81614400565b9050919050565b6000602082019050818103600083015261480a81614423565b9050919050565b6000602082019050818103600083015261482a81614446565b9050919050565b6000602082019050818103600083015261484a81614469565b9050919050565b6000602082019050818103600083015261486a8161448c565b9050919050565b6000602082019050818103600083015261488a816144af565b9050919050565b600060208201905081810360008301526148aa816144d2565b9050919050565b600060208201905081810360008301526148ca816144f5565b9050919050565b600060208201905081810360008301526148ea81614518565b9050919050565b6000602082019050818103600083015261490a8161453b565b9050919050565b6000602082019050818103600083015261492a8161455e565b9050919050565b6000602082019050818103600083015261494a81614581565b9050919050565b6000602082019050818103600083015261496a816145a4565b9050919050565b6000602082019050818103600083015261498a816145c7565b9050919050565b60006020820190506149a660008301846145ea565b92915050565b60006020820190506149c16000830184614608565b92915050565b60006020820190506149dc600083018461463d565b92915050565b600060c0820190506149f7600083018961463d565b614a046020830188614380565b614a11604083018761466a565b614a1e606083018661466a565b614a2b60808301856145ea565b614a3860a08301846145ea565b979650505050505050565b600060c082019050614a58600083018961464c565b614a6560208301886145f9565b614a7260408301876145f9565b614a7f606083018661439d565b614a8c6080830185614396565b614a9960a083018461438f565b979650505050505050565b600060c082019050614ab9600083018961464c565b614ac6602083018861464c565b614ad3604083018761439d565b614ae06060830186614396565b614aed608083018561438f565b614afa60a0830184614679565b979650505050505050565b6000602082019050614b1a600083018461466a565b92915050565b6000614b2a614b3b565b9050614b3682826153c8565b919050565b6000604051905090565b600067ffffffffffffffff821115614b6057614b5f61557e565b5b614b69826155ad565b9050602081019050919050565b600081519050919050565b600082825260208201905092915050565b6000614b9d826152bd565b9150614ba8836152bd565b92508261ffff03821115614bbf57614bbe6154f1565b5b828201905092915050565b6000614bd5826152eb565b9150614be0836152eb565b9250827fffffffffffffffffffffffffffffffffffffffffffffffffffffffffffffffff03821115614c1557614c146154f1565b5b828201905092915050565b6000614c2b826152f5565b9150614c36836152f5565b92508263ffffffff03821115614c4f57614c4e6154f1565b5b828201905092915050565b6000614c6582615305565b9150614c7083615305565b92508267ffffffffffffffff03821115614c8d57614c8c6154f1565b5b828201905092915050565b6000614ca382615319565b9150614cae83615319565b92508260ff03821115614cc457614cc36154f1565b5b828201905092915050565b6000614cda826152a6565b9150614ce5836152a6565b925082614cf557614cf4615520565b5b600160000383147f800000000000000000000000000000000000000000000000000000000000000083141615614d2e57614d2d6154f1565b5b828205905092915050565b6000614d44826152eb565b9150614d4f836152eb565b925082614d5f57614d5e615520565b5b828204905092915050565b6000808291508390505b6001851115614db457808604811115614d9057614d8f6154f1565b5b6001851615614d9f5780820291505b8081029050614dad856155be565b9450614d74565b94509492505050565b6000614dc8826152eb565b9150614dd3836152eb565b9250614e007fffffffffffffffffffffffffffffffffffffffffffffffffffffffffffffffff8484614e08565b905092915050565b600082614e185760019050614ed4565b81614e265760009050614ed4565b8160018114614e3c5760028114614e4657614e75565b6001915050614ed4565b60ff841115614e5857614e576154f1565b5b8360020a915084821115614e6f57614e6e6154f1565b5b50614ed4565b5060208310610133831016604e8410600b8410161715614eaa5782820a905083811115614ea557614ea46154f1565b5b614ed4565b614eb78484846001614d6a565b92509050818404811115614ece57614ecd6154f1565b5b81810290505b9392505050565b6000614ee6826152a6565b9150614ef1836152a6565b9250827f7fffffffffffffffffffffffffffffffffffffffffffffffffffffffffffffff0482116000841360008413161615614f3057614f2f6154f1565b5b817f80000000000000000000000000000000000000000000000000000000000000000583126000841260008413161615614f6d57614f6c6154f1565b5b827f80000000000000000000000000000000000000000000000000000000000000000582126000841360008412161615614faa57614fa96154f1565b5b827f7fffffffffffffffffffffffffffffffffffffffffffffffffffffffffffffff0582126000841260008412161615614fe757614fe66154f1565b5b828202905092915050565b6000614ffd826152b0565b9150615008836152b0565b925082677fffffffffffffff048211600084136000841316161561502f5761502e6154f1565b5b817fffffffffffffffffffffffffffffffffffffffffffffffff8000000000000000058312600084126000841316161561506c5761506b6154f1565b5b827fffffffffffffffffffffffffffffffffffffffffffffffff800000000000000005821260008413600084121616156150a9576150a86154f1565b5b82677fffffffffffffff05821260008412600084121616156150ce576150cd6154f1565b5b828202905092915050565b60006150e4826152bd565b91506150ef836152bd565b92508161ffff048311821515161561510a576151096154f1565b5b828202905092915050565b6000615120826152eb565b915061512b836152eb565b9250817fffffffffffffffffffffffffffffffffffffffffffffffffffffffffffffffff0483118215151615615164576151636154f1565b5b828202905092915050565b600061517a826152a6565b9150615185836152a6565b9250827f8000000000000000000000000000000000000000000000000000000000000000018212600084121516156151c0576151bf6154f1565b5b827f7fffffffffffffffffffffffffffffffffffffffffffffffffffffffffffffff0182136000841216156151f8576151f76154f1565b5b828203905092915050565b600061520e826152eb565b9150615219836152eb565b92508282101561522c5761522b6154f1565b5b828203905092915050565b600061524282615319565b915061524d83615319565b9250828210156152605761525f6154f1565b5b828203905092915050565b6000615276826152cb565b9050919050565b60008115159050919050565b6000819050919050565b60008190506152a1826158f0565b919050565b6000819050919050565b60008160070b9050919050565b600061ffff82169050919050565b600073ffffffffffffffffffffffffffffffffffffffff82169050919050565b6000819050919050565b600063ffffffff82169050919050565b600067ffffffffffffffff82169050919050565b600060ff82169050919050565b600061533182615293565b9050919050565b6000615343826152f5565b9050919050565b600061535582615305565b9050919050565b82818337600083830152505050565b60005b8381101561538957808201518184015260208101905061536e565b83811115615398576000848401525b50505050565b60006153a982615305565b915060008214156153bd576153bc6154f1565b5b600182039050919050565b6153d1826155ad565b810181811067ffffffffffffffff821117156153f0576153ef61557e565b5b80604052505050565b6000615404826152bd565b915061ffff821415615419576154186154f1565b5b600182019050919050565b600061542f826152eb565b91507fffffffffffffffffffffffffffffffffffffffffffffffffffffffffffffffff821415615462576154616154f1565b5b600182019050919050565b6000819050919050565b6000615482826152eb565b915061548d836152eb565b92508261549d5761549c615520565b5b828206905092915050565b60006154b3826152a6565b91507f80000000000000000000000000000000000000000000000000000000000000008214156154e6576154e56154f1565b5b816000039050919050565b7f4e487b7100000000000000000000000000000000000000000000000000000000600052601160045260246000fd5b7f4e487b7100000000000000000000000000000000000000000000000000000000600052601260045260246000fd5b7f4e487b7100000000000000000000000000000000000000000000000000000000600052602160045260246000fd5b7f4e487b7100000000000000000000000000000000000000000000000000000000600052604160045260246000fd5b6000601f19601f8301169050919050565b60008160011c9050919050565b7f64732d6d6174682d7375622d756e646572666c6f770000000000000000000000600082015250565b7f4269744d6174683a3a6d6f73745369676e69666963616e744269743a207a657260008201527f6f00000000000000000000000000000000000000000000000000000000000000602082015250565b7f4f776e61626c653a206e6577206f776e657220697320746865207a65726f206160008201527f6464726573730000000000000000000000000000000000000000000000000000602082015250565b7f64732d6d6174682d6164642d6f766572666c6f77646673667766000000000000600082015250565b7f4669786564506f696e743a3a64697675713a206469766973696f6e206279207a60008201527f65726f0000000000000000000000000000000000000000000000000000000000602082015250565b7f4d757374206265206275696c74206f6e206661726d2100000000000000000000600082015250565b7f4669786564506f696e743a3a656e636f64653a206f766572666c6f7700000000600082015250565b7f4e6f206661726d206275696c7420686572650000000000000000000000000000600082015250565b7f4d757374206265206275696c74206f6e20796f7572206661726d210000000000600082015250565b7f4f776e61626c653a2063616c6c6572206973206e6f7420746865206f776e6572600082015250565b7f4669786564506f696e743a3a6469766964653a206f766572666c6f7700000000600082015250565b7f4669786564506f696e743a3a6d756c75713a207570706572206f766572666c6f60008201527f7700000000000000000000000000000000000000000000000000000000000000602082015250565b7f54686973206e6565647320746f20626520616e20656d707479206c616e642100600082015250565b7f596f75206d6179206f6e6c792063616c6c20746869732066756e6374696f6e2060008201527f6f6e20616e20656e74697479207468617420796f75206f776e00000000000000602082015250565b7f4e6f6e2d656d70747920776f726c640000000000000000000000000000000000600082015250565b600581106159015761590061554f565b5b50565b61590d8161526b565b811461591857600080fd5b50565b6159248161527d565b811461592f57600080fd5b50565b61593b81615289565b811461594657600080fd5b50565b615952816152bd565b811461595d57600080fd5b50565b615969816152eb565b811461597457600080fd5b50565b615980816152f5565b811461598b57600080fd5b5056fea2646970667358221220217460847a9b9291e73d29c4d08b9ce65e98610da086dc2b0364316fca5b51f564736f6c63430008030033",
  "immutableReferences": {},
  "source": "// SPDX-License-Identifier: Unlicensed\r\npragma solidity ^0.8.3;\r\nimport \"@openzeppelin/contracts/access/Ownable.sol\";\r\nimport \"./libraries/FixedPoint.sol\"; \r\nimport \"./EtherEmpireTypes.sol\"; \r\nimport \"./EtherEmpireStorage.sol\"; \r\nimport \"./EtherEmpireDiplomacy.sol\"; \r\nimport \"./EtherEmpireCombat.sol\"; \r\nimport \"./smart_treaties/SmartTreaty.sol\";\r\n\r\n// Handles entity creation and core features\r\ncontract EtherEmpireWorld is Ownable, EtherEmpireStorage {\r\n\r\n    event FarmBuilt(address _owner, uint32 _id, uint16 _locx, uint16 _locy);\r\n    event WallBuilt(address _owner, uint32 _id, uint16 _locx, uint16 _locy);\r\n    event ArmyRecruited(address _owner, uint32 _id, uint16 _locx, uint16 _locy);\r\n    event ArmyMoved(address _owner, uint32 _id, uint16 _locx, uint16 _locy);\r\n\r\n    // , UniswapV2Pair _lpContractAddress\r\n    constructor(uint64 _yieldMin_32x32, uint64 _yieldRange_32x32, uint64 _armyToWallTokenRatio_32x32, uint64 _farmOccupationBurnRate_32x32, EtherEmpireToken _tokenContractAddress, uint64 _blocksToDivest) {\r\n        yieldMin_32x32 = _yieldMin_32x32;\r\n        yieldRange_32x32 = _yieldRange_32x32; \r\n        armyToWallTokenRatio_32x32 = _armyToWallTokenRatio_32x32;\r\n        farmOccupationBurnRate_32x32 = _farmOccupationBurnRate_32x32;\r\n        globalLandValue_32x32 = 0;\r\n        spawnedEntitiesCount = 0;\r\n        tokenContract = _tokenContractAddress;\r\n        blocksToDivest = _blocksToDivest;\r\n        // lpContract = _lpContractAddress; \r\n    }\r\n\r\n    modifier onlyOwnerOf(uint32 _id, address owner) {\r\n        require(entityToOwner[_id] == owner, \"You may only call this function on an entity that you own\");\r\n        _;\r\n    }\r\n\r\n    modifier isEmpty(uint16 _locx, uint16 _locy, uint8 layer) {\r\n        require(allEntities[_locx  + _locy * map_width + layer * map_width * map_height].entityType == EtherEmpireTypes.EntityType.EMPTY, \"This needs to be an empty land!\");\r\n        _; \r\n    }\r\n\r\n    function _randMod(uint _seed, uint _nonce, uint _mod) internal pure returns(uint) {\r\n        return uint(keccak256(abi.encodePacked(_seed, _nonce))) % _mod; \r\n    }\r\n\r\n    // This function can only be called by whoever deployed the contract \r\n    function populateLand(uint16 _width, uint16 _height, uint _seed) onlyOwner public {\r\n        require(allEntities[0].entityType == EtherEmpireTypes.EntityType.EMPTY, \"Non-empty world\");\r\n\r\n        map_width = _width;\r\n        map_height = _height; \r\n\r\n        // Declare a local nonce so that the same seed will generate the same map \r\n        uint nonce = 0;\r\n\r\n        for (uint16 y = 0; y < _width; y++) {\r\n            for (uint16 x = 0; x < _height; x++) {\r\n                uint32 index = x + y * map_width;\r\n                // Currently only generates arable lands \r\n                EtherEmpireTypes.Entity memory newLand = EtherEmpireTypes.Entity(uint32(index), EtherEmpireTypes.EntityType.TILE, 0, uint64(FixedPoint.add(yieldMin_32x32, _randMod(_seed, nonce++, yieldRange_32x32), 32, 32, 32)), x, y);\r\n                allEntities[index] = newLand; \r\n                entityToOwner[index] = address(0); // wilderness\r\n\r\n            }\r\n        }\r\n    }\r\n\r\n    // Returns total farm yield at current block number, in the UQ144x112 format. Assumes supply of tokens do not exceed 2**144 - 1 \r\n    function yieldValue(uint16 _locx, uint16 _locy) view public returns(uint) {\r\n        uint32 index = _locx + _locy * map_width + map_height * map_width; \r\n        EtherEmpireTypes.Entity storage thisFarm = allEntities[index];\r\n        require(thisFarm.entityType == EtherEmpireTypes.EntityType.FARM, \"No farm built here\");        \r\n        uint64 landValueAtBlock_32x32 = globalLandValue_32x32; \r\n        uint64 blockNumber = uint64(block.number);\r\n        uint64 cumulativeYield_32x32 = 0; \r\n        uint64 lastHarvestable = blockNumber > thisFarm.qualifier1_32x32 ? thisFarm.qualifier1_32x32 : blockNumber;\r\n        for (uint64 i = lastHarvestable; i > allEntities[index].qualifier1_32x32; i--) {\r\n            cumulativeYield_32x32 += uint64(FixedPoint.multiply((FixedPoint.divide(thisFarm.qualifier2_32x32, landValueAtBlock_32x32, 32, 32, 32, 32)),\r\n                                                         tokensBurntAtBlock[i],\r\n                                                         32, 0, 32, 32));\r\n            landValueAtBlock_32x32 = uint64(uint(FixedPoint.addSigned(landValueAddedAtBlock_32x32[blockNumber], -1 * int64(landValueAddedAtBlock_32x32[i]), 32, 32, 32))); \r\n        }\r\n        return cumulativeYield_32x32;\r\n    }\r\n\r\n    // Requires implementation of ERC20 \r\n    function buildFarm(uint16 _locx, uint16 _locy, uint32 tokenStaked) public isEmpty(_locx, _locy, 1) returns(uint32) {\r\n        uint32 index = _locx + _locy * map_width + map_height * map_width;\r\n        uint64 blockNumber = uint64(block.number);\r\n        tokenContract.transferFrom(msg.sender, address(this), tokenStaked); \r\n        uint64 landValue_32x32 = uint64(FixedPoint.sqrt(uint64(tokenStaked) << 32, 32, 32)); // Added precision\r\n        allEntities[index] = EtherEmpireTypes.Entity(index, EtherEmpireTypes.EntityType.FARM, 2**32-1, landValue_32x32, _locx, _locy);\r\n        landValueAddedAtBlock_32x32[blockNumber] = int64(FixedPoint.addSigned(landValueAddedAtBlock_32x32[blockNumber], -1 * int64(landValue_32x32), 32, 32, 32));\r\n        globalLandValue_32x32 = uint64(FixedPoint.add(globalLandValue_32x32, landValue_32x32, 32, 32, 32)); \r\n        entityToOwner[index] = msg.sender;\r\n        emit FarmBuilt(msg.sender, index, _locx, _locy);\r\n        return index;\r\n    }\r\n\r\n    // Requires implementation of ERC20 \r\n    function buildWall(uint16 _locx, uint16 _locy, uint32 tokenSpent) public isEmpty(_locx, _locy, 1) returns(uint32) {\r\n        uint32 index = _locx + _locy * map_width + map_height * map_width;\r\n        uint64 blockNumber = uint64(block.number);\r\n        tokenContract.transferFrom(msg.sender, address(this), tokenSpent); \r\n\r\n        uint64 wallFortification_32x32 = uint64(tokenSpent) << 32;\r\n        allEntities[index] = EtherEmpireTypes.Entity(index, EtherEmpireTypes.EntityType.WALL, blockNumber, wallFortification_32x32, _locx, _locy);\r\n        tokensBurntAtBlock[blockNumber] = tokensBurntAtBlock[blockNumber] + tokenSpent;\r\n        emit WallBuilt(msg.sender, index, _locx, _locy);\r\n        return index;\r\n    }\r\n\r\n    // Requires implementation of ERC20 \r\n    function buildArmy(uint16 _locx, uint16 _locy, uint32 tokenSpent) public returns(uint32) {\r\n        EtherEmpireTypes.Entity memory l2 = allEntities[_locx  + _locy * map_width + 1 * map_width * map_height];\r\n        require(l2.entityType == EtherEmpireTypes.EntityType.FARM, \"Must be built on farm!\");\r\n        require(entityToOwner[l2.id] == msg.sender, \"Must be built on your farm!\"); \r\n        uint32 index = spawnedEntitiesCount + 2 * map_width * map_height;\r\n        uint64 blockNumber = uint64(block.number);\r\n        tokenContract.transferFrom(msg.sender, address(this), tokenSpent); \r\n\r\n        uint64 armySize_32x32 = uint64(FixedPoint.divide(uint64(tokenSpent) << 32, armyToWallTokenRatio_32x32, 32, 32, 32, 32)); \r\n        allEntities[index] = EtherEmpireTypes.Entity(index, EtherEmpireTypes.EntityType.ARMY, blockNumber, armySize_32x32, _locx, _locy);\r\n        tokensBurntAtBlock[blockNumber] = tokensBurntAtBlock[blockNumber] + tokenSpent;\r\n        entityToOwner[index] = msg.sender;\r\n        spawnedEntitiesCount += 1; \r\n        emit ArmyRecruited(msg.sender, index, _locx, _locy);\r\n        return index;\r\n    }\r\n\r\n    function divest(uint16 _locx, uint16 _locy) public returns(bool) {\r\n        return _divest(_locx + _locy * map_width + map_width * map_height);\r\n    }\r\n\r\n    function _divest(uint32 _id) onlyOwnerOf(_id, msg.sender) internal returns(bool) {\r\n        uint64 landValue_32x32 = allEntities[_id].qualifier2_32x32;\r\n        uint64 divestMinBlock = allEntities[_id].qualifier1_32x32;\r\n        uint64 blockNumber = uint64(block.number);\r\n        if (divestMinBlock == 2**32-1) {\r\n            divestMinBlock = blockNumber + blocksToDivest;\r\n            landValueAddedAtBlock_32x32[blockNumber] = int64(FixedPoint.addSigned(landValueAddedAtBlock_32x32[blockNumber], -1 * int64(landValue_32x32), 32, 32, 32));\r\n            return false; \r\n        } else if (divestMinBlock > uint64(block.number)) {\r\n            return false;\r\n        }\r\n        uint64 redeemable = uint64(FixedPoint.multiply(landValue_32x32, landValue_32x32, 32, 32, 32, 32)); \r\n        tokenContract.transfer(msg.sender, redeemable);\r\n        return true;\r\n    }\r\n\r\n    function executeSignedInstructions(bytes32 signature, bytes32 args) external returns(bool) {\r\n\r\n    }\r\n\r\n    function toString(bytes memory data) public pure returns(string memory) {\r\n        bytes memory alphabet = \"0123456789abcdef\";\r\n\r\n        bytes memory str = new bytes(2 + data.length * 2);\r\n        str[0] = \"0\";\r\n        str[1] = \"x\";\r\n        for (uint i = 0; i < data.length; i++) {\r\n            str[2+i*2] = alphabet[uint(uint8(data[i] >> 4))];\r\n            str[3+i*2] = alphabet[uint(uint8(data[i] & 0x0f))];\r\n        }\r\n        return string(str);\r\n    }\r\n\r\n\r\n    function changeEntityOwner(uint32 _id, address _newOwner) public {\r\n        require(msg.sender == entityToOwner[_id] || authorizedTreaty[entityToOwner[_id]][msg.sender]);\r\n        entityToOwner[_id] = _newOwner;\r\n    }\r\n\r\n    function getEntityOwner(uint32 _id) view external returns(address) {\r\n        return entityToOwner[_id];\r\n    }\r\n\r\n    // To be implemented\r\n    function createTreaty(address ref) external {\r\n        address newTreaty = SmartTreaty(ref).duplicate();\r\n        authorizedTreaty[msg.sender][newTreaty] = true;\r\n        SmartTreaty(newTreaty).sign(msg.sender);\r\n    }\r\n\r\n    function signTreaty(address ref) external {\r\n        authorizedTreaty[msg.sender][ref] = true;\r\n        SmartTreaty(ref).sign(msg.sender);\r\n    }\r\n\r\n    // Relay external calls to specific libraries \r\n\r\n    function armyAttack(uint32 _self, uint32 _other) external onlyOwnerOf(_self, msg.sender) returns(bool) {\r\n        return EtherEmpireCombat.armyAttack(_self, _other, allEntities, entityToOwner, nonAggression, farmOccupationBurnRate_32x32);\r\n    }\r\n\r\n    function armyMove(uint32 _id, uint16 _locx, uint16 _locy) external onlyOwnerOf(_id, msg.sender) returns(bool) {\r\n        bool successfulMovement = EtherEmpireCombat.armyMove(_id, _locx, _locy, allEntities, entityToOwner, access);\r\n        if (successfulMovement) emit ArmyMoved(msg.sender, _id, _locx, _locy);\r\n        return successfulMovement;\r\n    }\r\n}\r\n",
  "sourcePath": "C:\\Users\\Kuan\\Documents\\GitHub\\ether-empire\\contracts\\EtherEmpireWorld.sol",
  "compiler": {
    "name": "solc",
    "version": "0.8.3+commit.8d00100c.Emscripten.clang"
  },
  "schemaVersion": "3.3.4",
  "updatedAt": "2021-05-08T16:15:18.772Z",
  "devdoc": {
    "kind": "dev",
    "methods": {
      "owner()": {
        "details": "Returns the address of the current owner."
      },
      "renounceOwnership()": {
        "details": "Leaves the contract without owner. It will not be possible to call `onlyOwner` functions anymore. Can only be called by the current owner. NOTE: Renouncing ownership will leave the contract without an owner, thereby removing any functionality that is only available to the owner."
      },
      "transferOwnership(address)": {
        "details": "Transfers ownership of the contract to a new account (`newOwner`). Can only be called by the current owner."
      }
    },
    "version": 1
  },
  "userdoc": {
    "kind": "user",
    "methods": {},
    "version": 1
  }
}