{
  "contractName": "EtherEmpireStorage",
  "abi": [
    {
      "inputs": [
        {
          "internalType": "uint32",
          "name": "",
          "type": "uint32"
        }
      ],
      "name": "allEntities",
      "outputs": [
        {
          "internalType": "uint32",
          "name": "id",
          "type": "uint32"
        },
        {
          "internalType": "enum EtherEmpireTypes.EntityType",
          "name": "entityType",
          "type": "uint8"
        },
        {
          "internalType": "uint64",
          "name": "qualifier1_32x32",
          "type": "uint64"
        },
        {
          "internalType": "uint64",
          "name": "qualifier2_32x32",
          "type": "uint64"
        },
        {
          "internalType": "uint16",
          "name": "locx",
          "type": "uint16"
        },
        {
          "internalType": "uint16",
          "name": "locy",
          "type": "uint16"
        }
      ],
      "stateMutability": "view",
      "type": "function"
    },
    {
      "inputs": [],
      "name": "armyToWallTokenRatio_32x32",
      "outputs": [
        {
          "internalType": "uint64",
          "name": "",
          "type": "uint64"
        }
      ],
      "stateMutability": "view",
      "type": "function"
    },
    {
      "inputs": [],
      "name": "blocksToDivest",
      "outputs": [
        {
          "internalType": "uint64",
          "name": "",
          "type": "uint64"
        }
      ],
      "stateMutability": "view",
      "type": "function"
    },
    {
      "inputs": [],
      "name": "farmOccupationBurnRate_32x32",
      "outputs": [
        {
          "internalType": "uint64",
          "name": "",
          "type": "uint64"
        }
      ],
      "stateMutability": "view",
      "type": "function"
    },
    {
      "inputs": [],
      "name": "globalLandValue_32x32",
      "outputs": [
        {
          "internalType": "uint64",
          "name": "",
          "type": "uint64"
        }
      ],
      "stateMutability": "view",
      "type": "function"
    },
    {
      "inputs": [],
      "name": "map_height",
      "outputs": [
        {
          "internalType": "uint16",
          "name": "",
          "type": "uint16"
        }
      ],
      "stateMutability": "view",
      "type": "function"
    },
    {
      "inputs": [],
      "name": "map_width",
      "outputs": [
        {
          "internalType": "uint16",
          "name": "",
          "type": "uint16"
        }
      ],
      "stateMutability": "view",
      "type": "function"
    },
    {
      "inputs": [],
      "name": "spawnedEntitiesCount",
      "outputs": [
        {
          "internalType": "uint32",
          "name": "",
          "type": "uint32"
        }
      ],
      "stateMutability": "view",
      "type": "function"
    },
    {
      "inputs": [],
      "name": "yieldMin_32x32",
      "outputs": [
        {
          "internalType": "uint64",
          "name": "",
          "type": "uint64"
        }
      ],
      "stateMutability": "view",
      "type": "function"
    },
    {
      "inputs": [],
      "name": "yieldRange_32x32",
      "outputs": [
        {
          "internalType": "uint64",
          "name": "",
          "type": "uint64"
        }
      ],
      "stateMutability": "view",
      "type": "function"
    }
  ],
  "bytecode": "0x608060405234801561001057600080fd5b50610570806100206000396000f3fe608060405234801561001057600080fd5b506004361061009e5760003560e01c8063ac479a8a11610066578063ac479a8a14610139578063dacd27dc1461016e578063e21f34df1461018c578063f02cae61146101aa578063f77ddaa8146101c85761009e565b806315b7d227146100a357806321ce3937146100c157806354ef4952146100df57806375f189f9146100fd57806384937d881461011b575b600080fd5b6100ab6101e6565b6040516100b891906103d7565b60405180910390f35b6100c96101fa565b6040516100d691906103f2565b60405180910390f35b6100e7610210565b6040516100f4919061046e565b60405180910390f35b61010561022a565b604051610112919061046e565b60405180910390f35b610123610244565b604051610130919061046e565b60405180910390f35b610153600480360381019061014e9190610372565b61025e565b6040516101659695949392919061040d565b60405180910390f35b6101766102fb565b604051610183919061046e565b60405180910390f35b610194610315565b6040516101a1919061046e565b60405180910390f35b6101b261032f565b6040516101bf91906103d7565b60405180910390f35b6101d0610343565b6040516101dd919061046e565b60405180910390f35b600160009054906101000a900461ffff1681565b600160049054906101000a900463ffffffff1681565b600660109054906101000a900467ffffffffffffffff1681565b600660089054906101000a900467ffffffffffffffff1681565b600660009054906101000a900467ffffffffffffffff1681565b60006020528060005260406000206000915090508060000160009054906101000a900463ffffffff16908060000160049054906101000a900460ff16908060000160059054906101000a900467ffffffffffffffff169080600001600d9054906101000a900467ffffffffffffffff16908060000160159054906101000a900461ffff16908060000160179054906101000a900461ffff16905086565b600760009054906101000a900467ffffffffffffffff1681565b600760089054906101000a900467ffffffffffffffff1681565b600160029054906101000a900461ffff1681565b600660189054906101000a900467ffffffffffffffff1681565b60008135905061036c81610523565b92915050565b60006020828403121561038457600080fd5b60006103928482850161035d565b91505092915050565b6103a4816104ce565b82525050565b6103b38161049c565b82525050565b6103c2816104aa565b82525050565b6103d1816104ba565b82525050565b60006020820190506103ec60008301846103aa565b92915050565b600060208201905061040760008301846103b9565b92915050565b600060c08201905061042260008301896103b9565b61042f602083018861039b565b61043c60408301876103c8565b61044960608301866103c8565b61045660808301856103aa565b61046360a08301846103aa565b979650505050505050565b600060208201905061048360008301846103c8565b92915050565b60008190506104978261050f565b919050565b600061ffff82169050919050565b600063ffffffff82169050919050565b600067ffffffffffffffff82169050919050565b60006104d982610489565b9050919050565b7f4e487b7100000000000000000000000000000000000000000000000000000000600052602160045260246000fd5b600581106105205761051f6104e0565b5b50565b61052c816104aa565b811461053757600080fd5b5056fea264697066735822122081afd60aa05f8a301d937827c4e6d1d7d3b5ffe49f4a9ba61ecfe83c45a86e3f64736f6c63430008030033",
  "immutableReferences": {},
  "source": "// SPDX-License-Identifier: Unlicensed\r\npragma solidity ^0.8.3;\r\nimport \"./EtherEmpireTypes.sol\"; \r\nimport \"./EtherEmpireToken_schain.sol\";\r\n// import \"@uniswap/v2-core/contracts/UniswapV2Pair.sol\";\r\n\r\ncontract EtherEmpireStorage {\r\n\r\n    // World \r\n    mapping (uint32 => EtherEmpireTypes.Entity) public allEntities;\r\n    uint16 public map_width;\r\n    uint16 public map_height;\r\n    uint32 public spawnedEntitiesCount; \r\n    EtherEmpireToken tokenContract;\r\n    // UniswapV2Pair lpContract;\r\n\r\n    mapping (uint32 => address) entityToOwner; \r\n    mapping (uint64 => uint32) tokensBurntAtBlock; // In integer unit, of smallest decimal fungible\r\n    mapping (uint64 => int64) landValueAddedAtBlock_32x32;\r\n    mapping (uint32 => uint64) harvestTimer; \r\n\r\n    uint64 public yieldMin_32x32; \r\n    uint64 public yieldRange_32x32; \r\n    uint64 public armyToWallTokenRatio_32x32; \r\n    uint64 public farmOccupationBurnRate_32x32;\r\n    uint64 public globalLandValue_32x32;\r\n    uint64 public blocksToDivest;\r\n\r\n    // Diplomacy \r\n    mapping (address => mapping(address => bool)) nonAggression;\r\n    mapping (address => mapping(address => bool)) access;\r\n\r\n    // Smart Treaties \r\n    mapping (uint32 => address) entityToPublicContract; \r\n    mapping (address => mapping (address => bool)) authorizedTreaty; \r\n}",
  "sourcePath": "C:\\Users\\Kuan\\Documents\\GitHub\\ether-empire\\contracts\\EtherEmpireStorage.sol",
  "compiler": {
    "name": "solc",
    "version": "0.8.3+commit.8d00100c.Emscripten.clang"
  },
  "schemaVersion": "3.3.4",
  "updatedAt": "2021-05-25T01:46:37.251Z",
  "devdoc": {
    "kind": "dev",
    "methods": {},
    "version": 1
  },
  "userdoc": {
    "kind": "user",
    "methods": {},
    "version": 1
  }
}