{
  "contractName": "EtherEmpireStorage",
  "abi": [
    {
      "inputs": [
        {
          "internalType": "uint32",
          "name": "",
          "type": "uint32"
        }
      ],
      "name": "allEntities",
      "outputs": [
        {
          "internalType": "uint32",
          "name": "id",
          "type": "uint32"
        },
        {
          "internalType": "enum EtherEmpireTypes.EntityType",
          "name": "entityType",
          "type": "uint8"
        },
        {
          "internalType": "uint64",
          "name": "qualifier1_32x32",
          "type": "uint64"
        },
        {
          "internalType": "uint64",
          "name": "qualifier2_32x32",
          "type": "uint64"
        },
        {
          "internalType": "uint16",
          "name": "locx",
          "type": "uint16"
        },
        {
          "internalType": "uint16",
          "name": "locy",
          "type": "uint16"
        }
      ],
      "stateMutability": "view",
      "type": "function"
    },
    {
      "inputs": [],
      "name": "armyToWallTokenRatio_32x32",
      "outputs": [
        {
          "internalType": "uint64",
          "name": "",
          "type": "uint64"
        }
      ],
      "stateMutability": "view",
      "type": "function"
    },
    {
      "inputs": [],
      "name": "blocksToDivest",
      "outputs": [
        {
          "internalType": "uint64",
          "name": "",
          "type": "uint64"
        }
      ],
      "stateMutability": "view",
      "type": "function"
    },
    {
      "inputs": [],
      "name": "farmOccupationBurnRate_32x32",
      "outputs": [
        {
          "internalType": "uint64",
          "name": "",
          "type": "uint64"
        }
      ],
      "stateMutability": "view",
      "type": "function"
    },
    {
      "inputs": [],
      "name": "globalLandValue_32x32",
      "outputs": [
        {
          "internalType": "uint64",
          "name": "",
          "type": "uint64"
        }
      ],
      "stateMutability": "view",
      "type": "function"
    },
    {
      "inputs": [
        {
          "internalType": "uint64",
          "name": "",
          "type": "uint64"
        }
      ],
      "name": "landValueAddedAtBlock_32x32",
      "outputs": [
        {
          "internalType": "int64",
          "name": "",
          "type": "int64"
        }
      ],
      "stateMutability": "view",
      "type": "function"
    },
    {
      "inputs": [],
      "name": "map_height",
      "outputs": [
        {
          "internalType": "uint16",
          "name": "",
          "type": "uint16"
        }
      ],
      "stateMutability": "view",
      "type": "function"
    },
    {
      "inputs": [],
      "name": "map_width",
      "outputs": [
        {
          "internalType": "uint16",
          "name": "",
          "type": "uint16"
        }
      ],
      "stateMutability": "view",
      "type": "function"
    },
    {
      "inputs": [],
      "name": "yieldMin_32x32",
      "outputs": [
        {
          "internalType": "uint64",
          "name": "",
          "type": "uint64"
        }
      ],
      "stateMutability": "view",
      "type": "function"
    },
    {
      "inputs": [],
      "name": "yieldRange_32x32",
      "outputs": [
        {
          "internalType": "uint64",
          "name": "",
          "type": "uint64"
        }
      ],
      "stateMutability": "view",
      "type": "function"
    }
  ],
  "bytecode": "0x608060405234801561001057600080fd5b506105fd806100206000396000f3fe608060405234801561001057600080fd5b506004361061009e5760003560e01c8063ac479a8a11610066578063ac479a8a1461014b578063dacd27dc14610180578063e21f34df1461019e578063f02cae61146101bc578063f77ddaa8146101da5761009e565b806315b7d227146100a35780633320c24c146100c157806354ef4952146100f157806375f189f91461010f57806384937d881461012d575b600080fd5b6100ab6101f8565b6040516100b8919061045b565b60405180910390f35b6100db60048036038101906100d691906103cc565b61020c565b6040516100e89190610440565b60405180910390f35b6100f961022c565b60405161010691906104d7565b60405180910390f35b610117610246565b60405161012491906104d7565b60405180910390f35b610135610260565b60405161014291906104d7565b60405180910390f35b610165600480360381019061016091906103a3565b61027a565b60405161017796959493929190610476565b60405180910390f35b610188610317565b60405161019591906104d7565b60405180910390f35b6101a6610331565b6040516101b391906104d7565b60405180910390f35b6101c461034b565b6040516101d1919061045b565b60405180910390f35b6101e261035f565b6040516101ef91906104d7565b60405180910390f35b600160009054906101000a900461ffff1681565b60046020528060005260406000206000915054906101000a900460070b81565b600660109054906101000a900467ffffffffffffffff1681565b600660089054906101000a900467ffffffffffffffff1681565b600660009054906101000a900467ffffffffffffffff1681565b60006020528060005260406000206000915090508060000160009054906101000a900463ffffffff16908060000160049054906101000a900460ff16908060000160059054906101000a900467ffffffffffffffff169080600001600d9054906101000a900467ffffffffffffffff16908060000160159054906101000a900461ffff16908060000160179054906101000a900461ffff16905086565b600760009054906101000a900467ffffffffffffffff1681565b600760089054906101000a900467ffffffffffffffff1681565b600160029054906101000a900461ffff1681565b600660189054906101000a900467ffffffffffffffff1681565b60008135905061038881610599565b92915050565b60008135905061039d816105b0565b92915050565b6000602082840312156103b557600080fd5b60006103c384828501610379565b91505092915050565b6000602082840312156103de57600080fd5b60006103ec8482850161038e565b91505092915050565b6103fe81610544565b82525050565b61040d81610505565b82525050565b61041c81610512565b82525050565b61042b81610520565b82525050565b61043a81610530565b82525050565b60006020820190506104556000830184610404565b92915050565b60006020820190506104706000830184610413565b92915050565b600060c08201905061048b6000830189610422565b61049860208301886103f5565b6104a56040830187610431565b6104b26060830186610431565b6104bf6080830185610413565b6104cc60a0830184610413565b979650505050505050565b60006020820190506104ec6000830184610431565b92915050565b600081905061050082610585565b919050565b60008160070b9050919050565b600061ffff82169050919050565b600063ffffffff82169050919050565b600067ffffffffffffffff82169050919050565b600061054f826104f2565b9050919050565b7f4e487b7100000000000000000000000000000000000000000000000000000000600052602160045260246000fd5b6005811061059657610595610556565b5b50565b6105a281610520565b81146105ad57600080fd5b50565b6105b981610530565b81146105c457600080fd5b5056fea2646970667358221220e32e47ed5fc450133027b039dd5922a695640ba4763107254700a64f2e3a6a3264736f6c63430008030033",
  "immutableReferences": {},
  "source": "// SPDX-License-Identifier: Unlicensed\npragma solidity ^0.8.3;\nimport \"./EtherEmpireTypes.sol\"; \nimport \"./EtherEmpireToken.sol\";\n// import \"@uniswap/v2-core/contracts/UniswapV2Pair.sol\";\n\ncontract EtherEmpireStorage {\n\n    // World \n    mapping (uint32 => EtherEmpireTypes.Entity) public allEntities;\n    uint16 public map_width;\n    uint16 public map_height;\n    uint32 spawnedEntitiesCount; \n    EtherEmpireToken tokenContract;\n    // UniswapV2Pair lpContract;\n\n    mapping (uint32 => address) entityToOwner; \n    mapping (uint64 => uint32) tokensBurntAtBlock; // In integer unit, of smallest decimal fungible\n    mapping (uint64 => int64) public landValueAddedAtBlock_32x32;\n    mapping (uint32 => uint64) harvestTimer; \n\n    uint64 public yieldMin_32x32; \n    uint64 public yieldRange_32x32; \n    uint64 public armyToWallTokenRatio_32x32; \n    uint64 public farmOccupationBurnRate_32x32;\n    uint64 public globalLandValue_32x32;\n    uint64 public blocksToDivest;\n\n    // Diplomacy \n    mapping (address => mapping(address => bool)) nonAggression;\n    mapping (address => mapping(address => bool)) access;\n\n    // Smart Treaties \n    mapping (uint32 => address) entityToPublicContract; \n    mapping (address => mapping (address => bool)) authorizedTreaty; \n}",
  "sourcePath": "/Users/jacky/Personal-Projects/ether-empire/contracts/EtherEmpireStorage.sol",
  "compiler": {
    "name": "solc",
    "version": "0.8.3+commit.8d00100c.Emscripten.clang"
  },
  "schemaVersion": "3.3.4",
  "updatedAt": "2021-05-25T18:35:51.585Z",
  "devdoc": {
    "kind": "dev",
    "methods": {},
    "version": 1
  },
  "userdoc": {
    "kind": "user",
    "methods": {},
    "version": 1
  }
}