{
  "contractName": "EtherEmpireWorld",
  "abi": [
    {
      "inputs": [
        {
          "internalType": "uint64",
          "name": "_yieldMin_32x32",
          "type": "uint64"
        },
        {
          "internalType": "uint64",
          "name": "_yieldRange_32x32",
          "type": "uint64"
        },
        {
          "internalType": "uint64",
          "name": "_armyToWallTokenRatio_32x32",
          "type": "uint64"
        },
        {
          "internalType": "uint64",
          "name": "_farmOccupationBurnRate_32x32",
          "type": "uint64"
        },
        {
          "internalType": "contract EtherEmpireToken",
          "name": "_tokenContractAddress",
          "type": "address"
        },
        {
          "internalType": "uint64",
          "name": "_blocksToDivest",
          "type": "uint64"
        }
      ],
      "stateMutability": "nonpayable",
      "type": "constructor"
    },
    {
      "anonymous": false,
      "inputs": [
        {
          "indexed": false,
          "internalType": "address",
          "name": "_owner",
          "type": "address"
        },
        {
          "indexed": false,
          "internalType": "uint32",
          "name": "_id",
          "type": "uint32"
        },
        {
          "indexed": false,
          "internalType": "uint16",
          "name": "_locx",
          "type": "uint16"
        },
        {
          "indexed": false,
          "internalType": "uint16",
          "name": "_locy",
          "type": "uint16"
        }
      ],
      "name": "ArmyMoved",
      "type": "event"
    },
    {
      "anonymous": false,
      "inputs": [
        {
          "indexed": false,
          "internalType": "address",
          "name": "_owner",
          "type": "address"
        },
        {
          "indexed": false,
          "internalType": "uint32",
          "name": "_id",
          "type": "uint32"
        },
        {
          "indexed": false,
          "internalType": "uint16",
          "name": "_locx",
          "type": "uint16"
        },
        {
          "indexed": false,
          "internalType": "uint16",
          "name": "_locy",
          "type": "uint16"
        }
      ],
      "name": "ArmyRecruited",
      "type": "event"
    },
    {
      "anonymous": false,
      "inputs": [
        {
          "indexed": false,
          "internalType": "address",
          "name": "_owner",
          "type": "address"
        },
        {
          "indexed": false,
          "internalType": "uint32",
          "name": "_id",
          "type": "uint32"
        },
        {
          "indexed": false,
          "internalType": "uint16",
          "name": "_locx",
          "type": "uint16"
        },
        {
          "indexed": false,
          "internalType": "uint16",
          "name": "_locy",
          "type": "uint16"
        }
      ],
      "name": "FarmBuilt",
      "type": "event"
    },
    {
      "anonymous": false,
      "inputs": [
        {
          "indexed": false,
          "internalType": "address",
          "name": "_owner",
          "type": "address"
        },
        {
          "indexed": false,
          "internalType": "uint32",
          "name": "_id",
          "type": "uint32"
        },
        {
          "indexed": false,
          "internalType": "uint16",
          "name": "_locx",
          "type": "uint16"
        },
        {
          "indexed": false,
          "internalType": "uint16",
          "name": "_locy",
          "type": "uint16"
        },
        {
          "indexed": false,
          "internalType": "uint64",
          "name": "_completionBlock",
          "type": "uint64"
        }
      ],
      "name": "HarvestInitiated",
      "type": "event"
    },
    {
      "anonymous": false,
      "inputs": [
        {
          "indexed": true,
          "internalType": "address",
          "name": "previousOwner",
          "type": "address"
        },
        {
          "indexed": true,
          "internalType": "address",
          "name": "newOwner",
          "type": "address"
        }
      ],
      "name": "OwnershipTransferred",
      "type": "event"
    },
    {
      "anonymous": false,
      "inputs": [
        {
          "indexed": false,
          "internalType": "address",
          "name": "_owner",
          "type": "address"
        },
        {
          "indexed": false,
          "internalType": "uint32",
          "name": "_id",
          "type": "uint32"
        },
        {
          "indexed": false,
          "internalType": "uint16",
          "name": "_locx",
          "type": "uint16"
        },
        {
          "indexed": false,
          "internalType": "uint16",
          "name": "_locy",
          "type": "uint16"
        }
      ],
      "name": "WallBuilt",
      "type": "event"
    },
    {
      "inputs": [
        {
          "internalType": "uint32",
          "name": "",
          "type": "uint32"
        }
      ],
      "name": "allEntities",
      "outputs": [
        {
          "internalType": "uint32",
          "name": "id",
          "type": "uint32"
        },
        {
          "internalType": "enum EtherEmpireTypes.EntityType",
          "name": "entityType",
          "type": "uint8"
        },
        {
          "internalType": "uint64",
          "name": "qualifier1_32x32",
          "type": "uint64"
        },
        {
          "internalType": "uint64",
          "name": "qualifier2_32x32",
          "type": "uint64"
        },
        {
          "internalType": "uint16",
          "name": "locx",
          "type": "uint16"
        },
        {
          "internalType": "uint16",
          "name": "locy",
          "type": "uint16"
        }
      ],
      "stateMutability": "view",
      "type": "function",
      "constant": true
    },
    {
      "inputs": [],
      "name": "armyToWallTokenRatio_32x32",
      "outputs": [
        {
          "internalType": "uint64",
          "name": "",
          "type": "uint64"
        }
      ],
      "stateMutability": "view",
      "type": "function",
      "constant": true
    },
    {
      "inputs": [],
      "name": "blocksToDivest",
      "outputs": [
        {
          "internalType": "uint64",
          "name": "",
          "type": "uint64"
        }
      ],
      "stateMutability": "view",
      "type": "function",
      "constant": true
    },
    {
      "inputs": [],
      "name": "farmOccupationBurnRate_32x32",
      "outputs": [
        {
          "internalType": "uint64",
          "name": "",
          "type": "uint64"
        }
      ],
      "stateMutability": "view",
      "type": "function",
      "constant": true
    },
    {
      "inputs": [],
      "name": "globalLandValue_32x32",
      "outputs": [
        {
          "internalType": "uint64",
          "name": "",
          "type": "uint64"
        }
      ],
      "stateMutability": "view",
      "type": "function",
      "constant": true
    },
    {
      "inputs": [
        {
          "internalType": "uint64",
          "name": "",
          "type": "uint64"
        }
      ],
      "name": "landValueAddedAtBlock_32x32",
      "outputs": [
        {
          "internalType": "int64",
          "name": "",
          "type": "int64"
        }
      ],
      "stateMutability": "view",
      "type": "function",
      "constant": true
    },
    {
      "inputs": [],
      "name": "map_height",
      "outputs": [
        {
          "internalType": "uint16",
          "name": "",
          "type": "uint16"
        }
      ],
      "stateMutability": "view",
      "type": "function",
      "constant": true
    },
    {
      "inputs": [],
      "name": "map_width",
      "outputs": [
        {
          "internalType": "uint16",
          "name": "",
          "type": "uint16"
        }
      ],
      "stateMutability": "view",
      "type": "function",
      "constant": true
    },
    {
      "inputs": [],
      "name": "owner",
      "outputs": [
        {
          "internalType": "address",
          "name": "",
          "type": "address"
        }
      ],
      "stateMutability": "view",
      "type": "function",
      "constant": true
    },
    {
      "inputs": [],
      "name": "renounceOwnership",
      "outputs": [],
      "stateMutability": "nonpayable",
      "type": "function"
    },
    {
      "inputs": [
        {
          "internalType": "address",
          "name": "newOwner",
          "type": "address"
        }
      ],
      "name": "transferOwnership",
      "outputs": [],
      "stateMutability": "nonpayable",
      "type": "function"
    },
    {
      "inputs": [],
      "name": "yieldMin_32x32",
      "outputs": [
        {
          "internalType": "uint64",
          "name": "",
          "type": "uint64"
        }
      ],
      "stateMutability": "view",
      "type": "function",
      "constant": true
    },
    {
      "inputs": [],
      "name": "yieldRange_32x32",
      "outputs": [
        {
          "internalType": "uint64",
          "name": "",
          "type": "uint64"
        }
      ],
      "stateMutability": "view",
      "type": "function",
      "constant": true
    },
    {
      "inputs": [
        {
          "internalType": "uint16",
          "name": "_width",
          "type": "uint16"
        },
        {
          "internalType": "uint16",
          "name": "_height",
          "type": "uint16"
        },
        {
          "internalType": "uint256",
          "name": "_seed",
          "type": "uint256"
        }
      ],
      "name": "populateLand",
      "outputs": [],
      "stateMutability": "nonpayable",
      "type": "function"
    },
    {
      "inputs": [
        {
          "internalType": "uint16",
          "name": "_locx",
          "type": "uint16"
        },
        {
          "internalType": "uint16",
          "name": "_locy",
          "type": "uint16"
        }
      ],
      "name": "yieldValue",
      "outputs": [
        {
          "internalType": "uint64",
          "name": "",
          "type": "uint64"
        }
      ],
      "stateMutability": "view",
      "type": "function",
      "constant": true
    },
    {
      "inputs": [
        {
          "internalType": "uint16",
          "name": "_locx",
          "type": "uint16"
        },
        {
          "internalType": "uint16",
          "name": "_locy",
          "type": "uint16"
        },
        {
          "internalType": "uint32",
          "name": "tokenStaked",
          "type": "uint32"
        }
      ],
      "name": "buildFarm",
      "outputs": [
        {
          "internalType": "uint32",
          "name": "",
          "type": "uint32"
        }
      ],
      "stateMutability": "nonpayable",
      "type": "function"
    },
    {
      "inputs": [
        {
          "internalType": "uint16",
          "name": "_locx",
          "type": "uint16"
        },
        {
          "internalType": "uint16",
          "name": "_locy",
          "type": "uint16"
        },
        {
          "internalType": "uint32",
          "name": "tokenSpent",
          "type": "uint32"
        }
      ],
      "name": "buildWall",
      "outputs": [
        {
          "internalType": "uint32",
          "name": "",
          "type": "uint32"
        }
      ],
      "stateMutability": "nonpayable",
      "type": "function"
    },
    {
      "inputs": [
        {
          "internalType": "uint16",
          "name": "_locx",
          "type": "uint16"
        },
        {
          "internalType": "uint16",
          "name": "_locy",
          "type": "uint16"
        },
        {
          "internalType": "uint32",
          "name": "tokenSpent",
          "type": "uint32"
        }
      ],
      "name": "buildArmy",
      "outputs": [
        {
          "internalType": "uint32",
          "name": "",
          "type": "uint32"
        }
      ],
      "stateMutability": "nonpayable",
      "type": "function"
    },
    {
      "inputs": [
        {
          "internalType": "uint16",
          "name": "_locx",
          "type": "uint16"
        },
        {
          "internalType": "uint16",
          "name": "_locy",
          "type": "uint16"
        }
      ],
      "name": "harvestFarm",
      "outputs": [
        {
          "internalType": "bool",
          "name": "",
          "type": "bool"
        }
      ],
      "stateMutability": "nonpayable",
      "type": "function"
    },
    {
      "inputs": [
        {
          "internalType": "bytes32",
          "name": "signature",
          "type": "bytes32"
        },
        {
          "internalType": "bytes32",
          "name": "args",
          "type": "bytes32"
        }
      ],
      "name": "executeSignedInstructions",
      "outputs": [
        {
          "internalType": "bool",
          "name": "",
          "type": "bool"
        }
      ],
      "stateMutability": "nonpayable",
      "type": "function"
    },
    {
      "inputs": [
        {
          "internalType": "bytes",
          "name": "data",
          "type": "bytes"
        }
      ],
      "name": "toString",
      "outputs": [
        {
          "internalType": "string",
          "name": "",
          "type": "string"
        }
      ],
      "stateMutability": "pure",
      "type": "function",
      "constant": true
    },
    {
      "inputs": [
        {
          "internalType": "uint32",
          "name": "_id",
          "type": "uint32"
        },
        {
          "internalType": "address",
          "name": "_newOwner",
          "type": "address"
        }
      ],
      "name": "changeEntityOwner",
      "outputs": [],
      "stateMutability": "nonpayable",
      "type": "function"
    },
    {
      "inputs": [
        {
          "internalType": "uint32",
          "name": "_id",
          "type": "uint32"
        }
      ],
      "name": "getEntityOwner",
      "outputs": [
        {
          "internalType": "address",
          "name": "",
          "type": "address"
        }
      ],
      "stateMutability": "view",
      "type": "function",
      "constant": true
    },
    {
      "inputs": [
        {
          "internalType": "address",
          "name": "ref",
          "type": "address"
        }
      ],
      "name": "createTreaty",
      "outputs": [],
      "stateMutability": "nonpayable",
      "type": "function"
    },
    {
      "inputs": [
        {
          "internalType": "address",
          "name": "ref",
          "type": "address"
        }
      ],
      "name": "signTreaty",
      "outputs": [],
      "stateMutability": "nonpayable",
      "type": "function"
    },
    {
      "inputs": [
        {
          "internalType": "uint32",
          "name": "_self",
          "type": "uint32"
        },
        {
          "internalType": "uint32",
          "name": "_other",
          "type": "uint32"
        }
      ],
      "name": "armyAttack",
      "outputs": [
        {
          "internalType": "bool",
          "name": "",
          "type": "bool"
        }
      ],
      "stateMutability": "nonpayable",
      "type": "function"
    },
    {
      "inputs": [
        {
          "internalType": "uint32",
          "name": "_id",
          "type": "uint32"
        },
        {
          "internalType": "uint16",
          "name": "_locx",
          "type": "uint16"
        },
        {
          "internalType": "uint16",
          "name": "_locy",
          "type": "uint16"
        }
      ],
      "name": "armyMove",
      "outputs": [
        {
          "internalType": "bool",
          "name": "",
          "type": "bool"
        }
      ],
      "stateMutability": "nonpayable",
      "type": "function"
    }
  ],
  "bytecode": "0x60806040523480156200001157600080fd5b506040516200621038038062006210833981810160405281019062000037919062000282565b6000620000496200024c60201b60201c565b9050806000806101000a81548173ffffffffffffffffffffffffffffffffffffffff021916908373ffffffffffffffffffffffffffffffffffffffff1602179055508073ffffffffffffffffffffffffffffffffffffffff16600073ffffffffffffffffffffffffffffffffffffffff167f8be0079c531659141344cd1fd0a4f28419497f9722a3daafe3b4186f6b6457e060405160405180910390a35085600760006101000a81548167ffffffffffffffff021916908367ffffffffffffffff16021790555084600760086101000a81548167ffffffffffffffff021916908367ffffffffffffffff16021790555083600760106101000a81548167ffffffffffffffff021916908367ffffffffffffffff16021790555082600760186101000a81548167ffffffffffffffff021916908367ffffffffffffffff1602179055506000600860006101000a81548167ffffffffffffffff021916908367ffffffffffffffff1602179055506000600260046101000a81548163ffffffff021916908363ffffffff16021790555081600260086101000a81548173ffffffffffffffffffffffffffffffffffffffff021916908373ffffffffffffffffffffffffffffffffffffffff160217905550806008806101000a81548167ffffffffffffffff021916908367ffffffffffffffff160217905550505050505050620003a8565b600033905090565b600081519050620002658162000374565b92915050565b6000815190506200027c816200038e565b92915050565b60008060008060008060c087890312156200029c57600080fd5b6000620002ac89828a016200026b565b9650506020620002bf89828a016200026b565b9550506040620002d289828a016200026b565b9450506060620002e589828a016200026b565b9350506080620002f889828a0162000254565b92505060a06200030b89828a016200026b565b9150509295509295509295565b6000620003258262000340565b9050919050565b6000620003398262000318565b9050919050565b600073ffffffffffffffffffffffffffffffffffffffff82169050919050565b600067ffffffffffffffff82169050919050565b6200037f816200032c565b81146200038b57600080fd5b50565b620003998162000360565b8114620003a557600080fd5b50565b615e5880620003b86000396000f3fe608060405234801561001057600080fd5b50600436106101a95760003560e01c80638776e527116100f9578063d5bda1a511610097578063e21f34df11610071578063e21f34df14610521578063f02cae611461053f578063f2fde38b1461055d578063f77ddaa814610579576101a9565b8063d5bda1a5146104b7578063dacd27dc146104e7578063e19a4d5a14610505576101a9565b8063a13822b2116100d3578063a13822b214610406578063ac479a8a14610436578063b46306c91461046b578063baf1d4251461049b576101a9565b80638776e5271461039c57806388759b5a146103cc5780638da5cb5b146103e8576101a9565b806354ef49521161016657806371e08fad1161014057806371e08fad1461030057806375f189f914610330578063762992581461034e57806384937d881461037e576101a9565b806354ef4952146102a8578063715018a6146102c657806371aad10d146102d0576101a9565b8063036e357b146101ae57806315b7d227146101de5780632b2a33f1146101fc5780633320c24c1461022c5780634b544fba1461025c5780635205e5fb14610278575b600080fd5b6101c860048036038101906101c391906144b1565b610597565b6040516101d59190614b86565b60405180910390f35b6101e661059f565b6040516101f39190614dbe565b60405180910390f35b610216600480360381019061021191906145b9565b6105b3565b6040516102239190614dd9565b60405180910390f35b610246600480360381019061024191906146f8565b610bb8565b6040516102539190614ba1565b60405180910390f35b6102766004803603810190610271919061456a565b610bd8565b005b610292600480360381019061028d919061452e565b611083565b60405161029f9190614f4e565b60405180910390f35b6102b061143f565b6040516102bd9190614f4e565b60405180910390f35b6102ce611459565b005b6102ea60048036038101906102e591906144ed565b611593565b6040516102f79190614bbc565b60405180910390f35b61031a600480360381019061031591906145b9565b6119e3565b6040516103279190614dd9565b60405180910390f35b6103386121ce565b6040516103459190614f4e565b60405180910390f35b6103686004803603810190610363919061466d565b6121e8565b6040516103759190614b86565b60405180910390f35b6103866122df565b6040516103939190614f4e565b60405180910390f35b6103b660048036038101906103b191906146bc565b6122f9565b6040516103c39190614b86565b60405180910390f35b6103e660048036038101906103e19190614436565b6123bb565b005b6103f06124be565b6040516103fd9190614a73565b60405180910390f35b610420600480360381019061041b919061452e565b6124e7565b60405161042d9190614b86565b60405180910390f35b610450600480360381019061044b9190614608565b6129ab565b60405161046296959493929190614e2b565b60405180910390f35b61048560048036038101906104809190614608565b612a48565b6040516104929190614a73565b60405180910390f35b6104b560048036038101906104b09190614631565b612a91565b005b6104d160048036038101906104cc91906145b9565b612c3a565b6040516104de9190614dd9565b60405180910390f35b6104ef61315b565b6040516104fc9190614f4e565b60405180910390f35b61051f600480360381019061051a9190614436565b613175565b005b6105296132fd565b6040516105369190614f4e565b60405180910390f35b610547613315565b6040516105549190614dbe565b60405180910390f35b61057760048036038101906105729190614436565b613327565b005b6105816134d0565b60405161058e9190614f4e565b60405180910390f35b600092915050565b600260009054906101000a900461ffff1681565b600083836001600060048111156105f3577f4e487b7100000000000000000000000000000000000000000000000000000000600052602160045260246000fd5b6001600060028054906101000a900461ffff16600260009054906101000a900461ffff168560ff166106259190615522565b61062f9190615522565b600260009054906101000a900461ffff168661064b9190615522565b876106569190614fdb565b6106609190614fdb565b61ffff1663ffffffff16815260200190815260200160002060000160049054906101000a900460ff1660048111156106c1577f4e487b7100000000000000000000000000000000000000000000000000000000600052602160045260246000fd5b14610701576040517f08c379a00000000000000000000000000000000000000000000000000000000081526004016106f890614d5e565b60405180910390fd5b6000600260009054906101000a900461ffff1660028054906101000a900461ffff1661072d9190615522565b600260009054906101000a900461ffff16886107499190615522565b896107549190614fdb565b61075e9190614fdb565b61ffff1690506000439050600260089054906101000a900473ffffffffffffffffffffffffffffffffffffffff1673ffffffffffffffffffffffffffffffffffffffff166323b872dd33308a6040518463ffffffff1660e01b81526004016107c893929190614a8e565b602060405180830381600087803b1580156107e257600080fd5b505af11580156107f6573d6000803e3d6000fd5b505050506040513d601f19601f8201168201806040525081019061081a9190614488565b50600061084760208963ffffffff1667ffffffffffffffff16901b67ffffffffffffffff166020806134ea565b90506040518060c001604052808463ffffffff168152602001600480811115610899577f4e487b7100000000000000000000000000000000000000000000000000000000600052602160045260246000fd5b81526020018367ffffffffffffffff1681526020018267ffffffffffffffff1681526020018b61ffff1681526020018a61ffff16815250600160008563ffffffff1663ffffffff16815260200190815260200160002060008201518160000160006101000a81548163ffffffff021916908363ffffffff16021790555060208201518160000160046101000a81548160ff02191690836004811115610967577f4e487b7100000000000000000000000000000000000000000000000000000000600052602160045260246000fd5b021790555060408201518160000160056101000a81548167ffffffffffffffff021916908367ffffffffffffffff160217905550606082015181600001600d6101000a81548167ffffffffffffffff021916908367ffffffffffffffff16021790555060808201518160000160156101000a81548161ffff021916908361ffff16021790555060a08201518160000160176101000a81548161ffff021916908361ffff160217905550905050610a5c600560008467ffffffffffffffff1667ffffffffffffffff16815260200190815260200160002060009054906101000a900460070b60070b8260070b6020806020613597565b600560008467ffffffffffffffff1667ffffffffffffffff16815260200190815260200160002060006101000a81548167ffffffffffffffff021916908360070b67ffffffffffffffff160217905550610ae5600860009054906101000a900467ffffffffffffffff1667ffffffffffffffff168267ffffffffffffffff1660208060206136ff565b600860006101000a81548167ffffffffffffffff021916908367ffffffffffffffff16021790555033600360008563ffffffff1663ffffffff16815260200190815260200160002060006101000a81548173ffffffffffffffffffffffffffffffffffffffff021916908373ffffffffffffffffffffffffffffffffffffffff1602179055507f55976d8e78c6bf477a2ce62d3c1ecdb4a7d8c4415ed039624f32664add77c06433848c8c604051610ba09493929190614ac5565b60405180910390a18296505050505050509392505050565b60056020528060005260406000206000915054906101000a900460070b81565b610be061372c565b73ffffffffffffffffffffffffffffffffffffffff16610bfe6124be565b73ffffffffffffffffffffffffffffffffffffffff1614610c54576040517f08c379a0000000000000000000000000000000000000000000000000000000008152600401610c4b90614cfe565b60405180910390fd5b60006004811115610c8e577f4e487b7100000000000000000000000000000000000000000000000000000000600052602160045260246000fd5b600160008063ffffffff16815260200190815260200160002060000160049054906101000a900460ff166004811115610cf0577f4e487b7100000000000000000000000000000000000000000000000000000000600052602160045260246000fd5b14610d30576040517f08c379a0000000000000000000000000000000000000000000000000000000008152600401610d2790614d9e565b60405180910390fd5b82600260006101000a81548161ffff021916908361ffff160217905550816002806101000a81548161ffff021916908361ffff1602179055506000805b8461ffff168161ffff16101561107c5760005b8461ffff168161ffff161015611068576000600260009054906101000a900461ffff1683610dae9190615522565b82610db99190614fdb565b61ffff16905060006040518060c001604052808363ffffffff16815260200160016004811115610e12577f4e487b7100000000000000000000000000000000000000000000000000000000600052602160045260246000fd5b8152602001600067ffffffffffffffff168152602001610e8d600760009054906101000a900467ffffffffffffffff1667ffffffffffffffff16610e838a8a80610e5b906158a1565b9b50600760089054906101000a900467ffffffffffffffff1667ffffffffffffffff16613734565b60208060206136ff565b67ffffffffffffffff1681526020018461ffff1681526020018561ffff16815250905080600160008463ffffffff1663ffffffff16815260200190815260200160002060008201518160000160006101000a81548163ffffffff021916908363ffffffff16021790555060208201518160000160046101000a81548160ff02191690836004811115610f48577f4e487b7100000000000000000000000000000000000000000000000000000000600052602160045260246000fd5b021790555060408201518160000160056101000a81548167ffffffffffffffff021916908367ffffffffffffffff160217905550606082015181600001600d6101000a81548167ffffffffffffffff021916908367ffffffffffffffff16021790555060808201518160000160156101000a81548161ffff021916908361ffff16021790555060a08201518160000160176101000a81548161ffff021916908361ffff1602179055509050506000600360008463ffffffff1663ffffffff16815260200190815260200160002060006101000a81548173ffffffffffffffffffffffffffffffffffffffff021916908373ffffffffffffffffffffffffffffffffffffffff1602179055505050808061106090615876565b915050610d80565b50808061107490615876565b915050610d6d565b5050505050565b600080600260009054906101000a900461ffff1660028054906101000a900461ffff166110b09190615522565b600260009054906101000a900461ffff16846110cc9190615522565b856110d79190614fdb565b6110e19190614fdb565b61ffff1690506000600160008363ffffffff1663ffffffff1681526020019081526020016000209050600480811115611143577f4e487b7100000000000000000000000000000000000000000000000000000000600052602160045260246000fd5b8160000160049054906101000a900460ff16600481111561118d577f4e487b7100000000000000000000000000000000000000000000000000000000600052602160045260246000fd5b146111cd576040517f08c379a00000000000000000000000000000000000000000000000000000000081526004016111c490614cbe565b60405180910390fd5b6000600860009054906101000a900467ffffffffffffffff169050600043905060008080600660008863ffffffff1663ffffffff16815260200190815260200160002060009054906101000a900467ffffffffffffffff1667ffffffffffffffff161461129857600160088054906101000a900467ffffffffffffffff16600660008963ffffffff1663ffffffff16815260200190815260200160002060009054906101000a900467ffffffffffffffff166112899190615680565b6112939190615680565b61129a565b825b905060008390505b600160008863ffffffff1663ffffffff16815260200190815260200160002060000160059054906101000a900467ffffffffffffffff1667ffffffffffffffff168167ffffffffffffffff16111561142f578167ffffffffffffffff168167ffffffffffffffff16116113a65761139861134e87600001600d9054906101000a900467ffffffffffffffff1667ffffffffffffffff168767ffffffffffffffff16602080602080613776565b600460008467ffffffffffffffff1667ffffffffffffffff16815260200190815260200160002060009054906101000a900463ffffffff1663ffffffff16602060006020806138f4565b836113a391906150a3565b92505b61141a8560070b600560008467ffffffffffffffff1667ffffffffffffffff16815260200190815260200160002060009054906101000a900460070b7fffffffffffffffffffffffffffffffffffffffffffffffffffffffffffffffff61140d919061543b565b60070b6020806020613597565b945080806114279061581b565b9150506112a2565b5081965050505050505092915050565b600760109054906101000a900467ffffffffffffffff1681565b61146161372c565b73ffffffffffffffffffffffffffffffffffffffff1661147f6124be565b73ffffffffffffffffffffffffffffffffffffffff16146114d5576040517f08c379a00000000000000000000000000000000000000000000000000000000081526004016114cc90614cfe565b60405180910390fd5b600073ffffffffffffffffffffffffffffffffffffffff1660008054906101000a900473ffffffffffffffffffffffffffffffffffffffff1673ffffffffffffffffffffffffffffffffffffffff167f8be0079c531659141344cd1fd0a4f28419497f9722a3daafe3b4186f6b6457e060405160405180910390a360008060006101000a81548173ffffffffffffffffffffffffffffffffffffffff021916908373ffffffffffffffffffffffffffffffffffffffff160217905550565b606060006040518060400160405280601081526020017f303132333435363738396162636465660000000000000000000000000000000081525090506000600284516115df919061555e565b60026115eb9190615013565b67ffffffffffffffff81111561162a577f4e487b7100000000000000000000000000000000000000000000000000000000600052604160045260246000fd5b6040519080825280601f01601f19166020018201604052801561165c5781602001600182028036833780820191505090505b5090507f3000000000000000000000000000000000000000000000000000000000000000816000815181106116ba577f4e487b7100000000000000000000000000000000000000000000000000000000600052603260045260246000fd5b60200101907effffffffffffffffffffffffffffffffffffffffffffffffffffffffffffff1916908160001a9053507f780000000000000000000000000000000000000000000000000000000000000081600181518110611744577f4e487b7100000000000000000000000000000000000000000000000000000000600052603260045260246000fd5b60200101907effffffffffffffffffffffffffffffffffffffffffffffffffffffffffffff1916908160001a90535060005b84518110156119d8578260048683815181106117bb577f4e487b7100000000000000000000000000000000000000000000000000000000600052603260045260246000fd5b602001015160f81c60f81b7effffffffffffffffffffffffffffffffffffffffffffffffffffffffffffff1916901c60f81c60ff1681518110611827577f4e487b7100000000000000000000000000000000000000000000000000000000600052603260045260246000fd5b602001015160f81c60f81b82600283611840919061555e565b600261184c9190615013565b81518110611883577f4e487b7100000000000000000000000000000000000000000000000000000000600052603260045260246000fd5b60200101907effffffffffffffffffffffffffffffffffffffffffffffffffffffffffffff1916908160001a90535082600f60f81b8683815181106118f1577f4e487b7100000000000000000000000000000000000000000000000000000000600052603260045260246000fd5b602001015160f81c60f81b1660f81c60ff168151811061193a577f4e487b7100000000000000000000000000000000000000000000000000000000600052603260045260246000fd5b602001015160f81c60f81b82600283611953919061555e565b600361195f9190615013565b81518110611996577f4e487b7100000000000000000000000000000000000000000000000000000000600052603260045260246000fd5b60200101907effffffffffffffffffffffffffffffffffffffffffffffffffffffffffffff1916908160001a90535080806119d0906158a1565b915050611776565b508092505050919050565b6000806001600060028054906101000a900461ffff16600260009054906101000a900461ffff166001611a169190615522565b611a209190615522565b600260009054906101000a900461ffff1687611a3c9190615522565b88611a479190614fdb565b611a519190614fdb565b61ffff1663ffffffff1681526020019081526020016000206040518060c00160405290816000820160009054906101000a900463ffffffff1663ffffffff1663ffffffff1681526020016000820160049054906101000a900460ff166004811115611ae5577f4e487b7100000000000000000000000000000000000000000000000000000000600052602160045260246000fd5b6004811115611b1d577f4e487b7100000000000000000000000000000000000000000000000000000000600052602160045260246000fd5b81526020016000820160059054906101000a900467ffffffffffffffff1667ffffffffffffffff1667ffffffffffffffff16815260200160008201600d9054906101000a900467ffffffffffffffff1667ffffffffffffffff1667ffffffffffffffff1681526020016000820160159054906101000a900461ffff1661ffff1661ffff1681526020016000820160179054906101000a900461ffff1661ffff1661ffff16815250509050600480811115611c00577f4e487b7100000000000000000000000000000000000000000000000000000000600052602160045260246000fd5b81602001516004811115611c3d577f4e487b7100000000000000000000000000000000000000000000000000000000600052602160045260246000fd5b14611c7d576040517f08c379a0000000000000000000000000000000000000000000000000000000008152600401611c7490614c7e565b60405180910390fd5b3373ffffffffffffffffffffffffffffffffffffffff1660036000836000015163ffffffff1663ffffffff16815260200190815260200160002060009054906101000a900473ffffffffffffffffffffffffffffffffffffffff1673ffffffffffffffffffffffffffffffffffffffff1614611d2e576040517f08c379a0000000000000000000000000000000000000000000000000000000008152600401611d2590614cde565b60405180910390fd5b600060028054906101000a900461ffff16600260009054906101000a900461ffff166002611d5c9190615522565b611d669190615522565b61ffff16600260049054906101000a900463ffffffff16611d879190615069565b90506000439050600260089054906101000a900473ffffffffffffffffffffffffffffffffffffffff1673ffffffffffffffffffffffffffffffffffffffff166323b872dd3330886040518463ffffffff1660e01b8152600401611ded93929190614a8e565b602060405180830381600087803b158015611e0757600080fd5b505af1158015611e1b573d6000803e3d6000fd5b505050506040513d601f19601f82011682018060405250810190611e3f9190614488565b506000611e9060208763ffffffff1667ffffffffffffffff16901b67ffffffffffffffff16600760109054906101000a900467ffffffffffffffff1667ffffffffffffffff16602080602080613776565b90506040518060c001604052808463ffffffff16815260200160036004811115611ee3577f4e487b7100000000000000000000000000000000000000000000000000000000600052602160045260246000fd5b81526020018367ffffffffffffffff1681526020018267ffffffffffffffff1681526020018961ffff1681526020018861ffff16815250600160008563ffffffff1663ffffffff16815260200190815260200160002060008201518160000160006101000a81548163ffffffff021916908363ffffffff16021790555060208201518160000160046101000a81548160ff02191690836004811115611fb1577f4e487b7100000000000000000000000000000000000000000000000000000000600052602160045260246000fd5b021790555060408201518160000160056101000a81548167ffffffffffffffff021916908367ffffffffffffffff160217905550606082015181600001600d6101000a81548167ffffffffffffffff021916908367ffffffffffffffff16021790555060808201518160000160156101000a81548161ffff021916908361ffff16021790555060a08201518160000160176101000a81548161ffff021916908361ffff16021790555090505085600460008467ffffffffffffffff1667ffffffffffffffff16815260200190815260200160002060009054906101000a900463ffffffff166120a09190615069565b600460008467ffffffffffffffff1667ffffffffffffffff16815260200190815260200160002060006101000a81548163ffffffff021916908363ffffffff16021790555033600360008563ffffffff1663ffffffff16815260200190815260200160002060006101000a81548173ffffffffffffffffffffffffffffffffffffffff021916908373ffffffffffffffffffffffffffffffffffffffff1602179055506001600260048282829054906101000a900463ffffffff166121659190615069565b92506101000a81548163ffffffff021916908363ffffffff1602179055507ff6d687f7b1506dd0afa44fe5ca3ba6e87c4943689d87cba8eabacf9debe4ca2433848a8a6040516121b89493929190614ac5565b60405180910390a1829450505050509392505050565b600760089054906101000a900467ffffffffffffffff1681565b600083336121f68282613b24565b600073__EtherEmpireCombat_____________________631524961188888860016003600a6040518763ffffffff1660e01b815260040161223c96959493929190614e8c565b60206040518083038186803b15801561225457600080fd5b505af4158015612268573d6000803e3d6000fd5b505050506040513d601f19601f8201168201806040525081019061228c9190614488565b905080156122d2577fc9c7219e12f0b5ddc828e2e1479d53e8e5416665400152bd5fe1c021efbb3220338888886040516122c99493929190614ac5565b60405180910390a15b8093505050509392505050565b600760009054906101000a900467ffffffffffffffff1681565b600082336123078282613b24565b73__EtherEmpireCombat_____________________636d030c518686600160036009600760189054906101000a900467ffffffffffffffff166040518763ffffffff1660e01b815260040161236196959493929190614eed565b60206040518083038186803b15801561237957600080fd5b505af415801561238d573d6000803e3d6000fd5b505050506040513d601f19601f820116820180604052508101906123b19190614488565b9250505092915050565b6001600c60003373ffffffffffffffffffffffffffffffffffffffff1673ffffffffffffffffffffffffffffffffffffffff16815260200190815260200160002060008373ffffffffffffffffffffffffffffffffffffffff1673ffffffffffffffffffffffffffffffffffffffff16815260200190815260200160002060006101000a81548160ff0219169083151502179055508073ffffffffffffffffffffffffffffffffffffffff1663f71be837336040518263ffffffff1660e01b81526004016124899190614a73565b600060405180830381600087803b1580156124a357600080fd5b505af11580156124b7573d6000803e3d6000fd5b5050505050565b60008060009054906101000a900473ffffffffffffffffffffffffffffffffffffffff16905090565b60008060028054906101000a900461ffff16600260009054906101000a900461ffff166125149190615522565b600260009054906101000a900461ffff16846125309190615522565b8561253b9190614fdb565b6125459190614fdb565b61ffff1690506125558133613b24565b6000600160008363ffffffff1663ffffffff168152602001908152602001600020600001600d9054906101000a900467ffffffffffffffff16905060004390506000600660008563ffffffff1663ffffffff16815260200190815260200160002060009054906101000a900467ffffffffffffffff1667ffffffffffffffff1614156128005760088054906101000a900467ffffffffffffffff16816125fb91906150a3565b600660008563ffffffff1663ffffffff16815260200190815260200160002060006101000a81548167ffffffffffffffff021916908367ffffffffffffffff1602179055506126b4600560008367ffffffffffffffff1667ffffffffffffffff16815260200190815260200160002060009054906101000a900460070b60070b837fffffffffffffffffffffffffffffffffffffffffffffffffffffffffffffffff6126a7919061543b565b60070b6020806020613597565b600560008367ffffffffffffffff1667ffffffffffffffff16815260200190815260200160002060006101000a81548167ffffffffffffffff021916908360070b67ffffffffffffffff16021790555061275a600860009054906101000a900467ffffffffffffffff1660070b837fffffffffffffffffffffffffffffffffffffffffffffffffffffffffffffffff61274d919061543b565b60070b6020806020613597565b600860006101000a81548167ffffffffffffffff021916908367ffffffffffffffff1602179055507f9f7fcb213b8386bddd453ea273fa6bd97515bffdaec3a593bd6ebfbc92d2fbb833848888600660008963ffffffff1663ffffffff16815260200190815260200160002060009054906101000a900467ffffffffffffffff166040516127ec959493929190614b0a565b60405180910390a1600093505050506129a5565b4367ffffffffffffffff16600660008563ffffffff1663ffffffff16815260200190815260200160002060009054906101000a900467ffffffffffffffff1667ffffffffffffffff16111561285b57600093505050506129a5565b60006128678787611083565b61288b8467ffffffffffffffff168567ffffffffffffffff166020806020806138f4565b61289591906150a3565b9050600260089054906101000a900473ffffffffffffffffffffffffffffffffffffffff1673ffffffffffffffffffffffffffffffffffffffff1663a9059cbb33836040518363ffffffff1660e01b81526004016128f4929190614b5d565b602060405180830381600087803b15801561290e57600080fd5b505af1158015612922573d6000803e3d6000fd5b505050506040513d601f19601f820116820180604052508101906129469190614488565b506000600660008663ffffffff1663ffffffff16815260200190815260200160002060006101000a81548167ffffffffffffffff021916908367ffffffffffffffff16021790555061299c843360016003613bd5565b60019450505050505b92915050565b60016020528060005260406000206000915090508060000160009054906101000a900463ffffffff16908060000160049054906101000a900460ff16908060000160059054906101000a900467ffffffffffffffff169080600001600d9054906101000a900467ffffffffffffffff16908060000160159054906101000a900461ffff16908060000160179054906101000a900461ffff16905086565b6000600360008363ffffffff1663ffffffff16815260200190815260200160002060009054906101000a900473ffffffffffffffffffffffffffffffffffffffff169050919050565b600360008363ffffffff1663ffffffff16815260200190815260200160002060009054906101000a900473ffffffffffffffffffffffffffffffffffffffff1673ffffffffffffffffffffffffffffffffffffffff163373ffffffffffffffffffffffffffffffffffffffff161480612bcf5750600c6000600360008563ffffffff1663ffffffff16815260200190815260200160002060009054906101000a900473ffffffffffffffffffffffffffffffffffffffff1673ffffffffffffffffffffffffffffffffffffffff1673ffffffffffffffffffffffffffffffffffffffff16815260200190815260200160002060003373ffffffffffffffffffffffffffffffffffffffff1673ffffffffffffffffffffffffffffffffffffffff16815260200190815260200160002060009054906101000a900460ff165b612bd857600080fd5b80600360008463ffffffff1663ffffffff16815260200190815260200160002060006101000a81548173ffffffffffffffffffffffffffffffffffffffff021916908373ffffffffffffffffffffffffffffffffffffffff1602179055505050565b60008383600160006004811115612c7a577f4e487b7100000000000000000000000000000000000000000000000000000000600052602160045260246000fd5b6001600060028054906101000a900461ffff16600260009054906101000a900461ffff168560ff16612cac9190615522565b612cb69190615522565b600260009054906101000a900461ffff1686612cd29190615522565b87612cdd9190614fdb565b612ce79190614fdb565b61ffff1663ffffffff16815260200190815260200160002060000160049054906101000a900460ff166004811115612d48577f4e487b7100000000000000000000000000000000000000000000000000000000600052602160045260246000fd5b14612d88576040517f08c379a0000000000000000000000000000000000000000000000000000000008152600401612d7f90614d5e565b60405180910390fd5b6000600260009054906101000a900461ffff1660028054906101000a900461ffff16612db49190615522565b600260009054906101000a900461ffff1688612dd09190615522565b89612ddb9190614fdb565b612de59190614fdb565b61ffff1690506000439050600260089054906101000a900473ffffffffffffffffffffffffffffffffffffffff1673ffffffffffffffffffffffffffffffffffffffff166323b872dd33308a6040518463ffffffff1660e01b8152600401612e4f93929190614a8e565b602060405180830381600087803b158015612e6957600080fd5b505af1158015612e7d573d6000803e3d6000fd5b505050506040513d601f19601f82011682018060405250810190612ea19190614488565b50600060208863ffffffff1667ffffffffffffffff16901b90506040518060c001604052808463ffffffff16815260200160026004811115612f0c577f4e487b7100000000000000000000000000000000000000000000000000000000600052602160045260246000fd5b81526020018367ffffffffffffffff1681526020018267ffffffffffffffff1681526020018b61ffff1681526020018a61ffff16815250600160008563ffffffff1663ffffffff16815260200190815260200160002060008201518160000160006101000a81548163ffffffff021916908363ffffffff16021790555060208201518160000160046101000a81548160ff02191690836004811115612fda577f4e487b7100000000000000000000000000000000000000000000000000000000600052602160045260246000fd5b021790555060408201518160000160056101000a81548167ffffffffffffffff021916908367ffffffffffffffff160217905550606082015181600001600d6101000a81548167ffffffffffffffff021916908367ffffffffffffffff16021790555060808201518160000160156101000a81548161ffff021916908361ffff16021790555060a08201518160000160176101000a81548161ffff021916908361ffff16021790555090505087600460008467ffffffffffffffff1667ffffffffffffffff16815260200190815260200160002060009054906101000a900463ffffffff166130c99190615069565b600460008467ffffffffffffffff1667ffffffffffffffff16815260200190815260200160002060006101000a81548163ffffffff021916908363ffffffff1602179055507feccb62409f7c15694f95b0febf07fe47b3ee14bbb921e7d80032cad5d7e9e16a33848c8c6040516131439493929190614ac5565b60405180910390a18296505050505050509392505050565b600860009054906101000a900467ffffffffffffffff1681565b60008173ffffffffffffffffffffffffffffffffffffffff16631f922d066040518163ffffffff1660e01b8152600401602060405180830381600087803b1580156131bf57600080fd5b505af11580156131d3573d6000803e3d6000fd5b505050506040513d601f19601f820116820180604052508101906131f7919061445f565b90506001600c60003373ffffffffffffffffffffffffffffffffffffffff1673ffffffffffffffffffffffffffffffffffffffff16815260200190815260200160002060008373ffffffffffffffffffffffffffffffffffffffff1673ffffffffffffffffffffffffffffffffffffffff16815260200190815260200160002060006101000a81548160ff0219169083151502179055508073ffffffffffffffffffffffffffffffffffffffff1663f71be837336040518263ffffffff1660e01b81526004016132c79190614a73565b600060405180830381600087803b1580156132e157600080fd5b505af11580156132f5573d6000803e3d6000fd5b505050505050565b60088054906101000a900467ffffffffffffffff1681565b60028054906101000a900461ffff1681565b61332f61372c565b73ffffffffffffffffffffffffffffffffffffffff1661334d6124be565b73ffffffffffffffffffffffffffffffffffffffff16146133a3576040517f08c379a000000000000000000000000000000000000000000000000000000000815260040161339a90614cfe565b60405180910390fd5b600073ffffffffffffffffffffffffffffffffffffffff168173ffffffffffffffffffffffffffffffffffffffff161415613413576040517f08c379a000000000000000000000000000000000000000000000000000000000815260040161340a90614c1e565b60405180910390fd5b8073ffffffffffffffffffffffffffffffffffffffff1660008054906101000a900473ffffffffffffffffffffffffffffffffffffffff1673ffffffffffffffffffffffffffffffffffffffff167f8be0079c531659141344cd1fd0a4f28419497f9722a3daafe3b4186f6b6457e060405160405180910390a3806000806101000a81548173ffffffffffffffffffffffffffffffffffffffff021916908373ffffffffffffffffffffffffffffffffffffffff16021790555050565b600760189054906101000a900467ffffffffffffffff1681565b6000806134f685613e6f565b60ff61350291906156b4565b60ff169050600284826135159190615013565b61351f91906158f4565b8161352a919061564c565b90506000836002868461353d9190615013565b6135479190615118565b61355191906155b8565b90506000811261357357806135688388901b613fc8565b901c92505050613590565b8061357d90615925565b6135898388901b613fc8565b901b925050505b9392505050565b6000806135a387614194565b905060006135b087614194565b9050600088121580156135c4575060008712155b156135f2576135e9826135d88389896141b6565b86896135e49190615013565b614244565b925050506136f6565b60008812158015613604575060008713155b8061361d57506000881315801561361c575060008712155b5b156136a65780821061365257613649826136388389896141b6565b86896136449190615013565b6142b5565b925050506136f6565b613672816136618489896141b6565b868961366d9190615013565b6142b5565b7fffffffffffffffffffffffffffffffffffffffffffffffffffffffffffffffff61369d9190615324565b925050506136f6565b6136c6826136b58389896141b6565b86896136c19190615013565b614244565b7fffffffffffffffffffffffffffffffffffffffffffffffffffffffffffffffff6136f19190615324565b925050505b95945050505050565b6000613721866137108787876141b6565b848761371c9190615013565b614244565b905095945050505050565b600033905090565b600081848460405160200161374a929190614a47565b6040516020818303038152906040528051906020012060001c61376d91906158f4565b90509392505050565b60008086116137ba576040517f08c379a00000000000000000000000000000000000000000000000000000000081526004016137b190614c5e565b60405180910390fd5b60006137c588613e6f565b60ff6137d191906156b4565b60ff169050600087828a901b6137e79190615182565b9050600082886137f79190615013565b87866138039190615013565b61380d91906155b8565b9050600081121561382f578061382290615925565b82901c93505050506138ea565b600082828385901b925082901c1461387c576040517f08c379a000000000000000000000000000000000000000000000000000000000815260040161387390614d1e565b60405180910390fd5b6001868861388a9190615013565b60026138969190615206565b6138a0919061564c565b8111156138e2576040517f08c379a00000000000000000000000000000000000000000000000000000000081526004016138d990614d1e565b60405180910390fd5b809450505050505b9695505050505050565b6000808714806139045750600086145b156139125760009050613b1a565b60008588901c905060008682901b8961392b919061564c565b905060008689901c905060008782901b8a613946919061564c565b905060008285613956919061555e565b905060008285613966919061555e565b905060008387613976919061555e565b905060008686613986919061555e565b905060018b60026139979190615206565b6139a1919061564c565b8411156139e3576040517f08c379a00000000000000000000000000000000000000000000000000000000081526004016139da90614d3e565b60405180910390fd5b60008a85901b90508c8e6139f79190615013565b8b10613a5b578c8e8c613a0a919061564c565b613a14919061564c565b84901b8e8c613a23919061564c565b83901b8e8d613a32919061564c565b85901b613a3f9190615013565b613a499190615013565b81613a549190615013565b9050613b0d565b8a8d8f613a689190615013565b613a72919061564c565b84901c81613a809190615013565b90508d8b10613aaa578d8b613a95919061564c565b82901b81613aa39190615013565b9050613ac7565b8a8e613ab6919061564c565b82901c81613ac49190615013565b90505b8c8b10613aef578c8b613ada919061564c565b83901b81613ae89190615013565b9050613b0c565b8a8d613afb919061564c565b83901c81613b099190615013565b90505b5b8099505050505050505050505b9695505050505050565b8073ffffffffffffffffffffffffffffffffffffffff16600360008463ffffffff1663ffffffff16815260200190815260200160002060009054906101000a900473ffffffffffffffffffffffffffffffffffffffff1673ffffffffffffffffffffffffffffffffffffffff1614613bd1576040517f08c379a0000000000000000000000000000000000000000000000000000000008152600401613bc890614d7e565b60405180910390fd5b5050565b60008260008663ffffffff1663ffffffff16815260200190815260200160002060000160006101000a81548163ffffffff021916908363ffffffff16021790555060008260008663ffffffff1663ffffffff16815260200190815260200160002060000160046101000a81548160ff02191690836004811115613c81577f4e487b7100000000000000000000000000000000000000000000000000000000600052602160045260246000fd5b021790555060008260008663ffffffff1663ffffffff16815260200190815260200160002060000160056101000a81548167ffffffffffffffff021916908367ffffffffffffffff16021790555060008260008663ffffffff1663ffffffff168152602001908152602001600020600001600d6101000a81548167ffffffffffffffff021916908367ffffffffffffffff16021790555060008260008663ffffffff1663ffffffff16815260200190815260200160002060000160156101000a81548161ffff021916908361ffff16021790555060008260008663ffffffff1663ffffffff16815260200190815260200160002060000160176101000a81548161ffff021916908361ffff1602179055507f2bb23083392c38dde5df982d5b95489a0b96017d9e113d5a264c15869b164110848260008763ffffffff1663ffffffff16815260200190815260200160002060009054906101000a900473ffffffffffffffffffffffffffffffffffffffff1685604051613e0393929190614df4565b60405180910390a160008160008663ffffffff1663ffffffff16815260200190815260200160002060006101000a81548173ffffffffffffffffffffffffffffffffffffffff021916908373ffffffffffffffffffffffffffffffffffffffff16021790555050505050565b6000808211613eb3576040517f08c379a0000000000000000000000000000000000000000000000000000000008152600401613eaa90614bfe565b60405180910390fd5b7001000000000000000000000000000000008210613ee257608082901c9150608081613edf91906150e1565b90505b680100000000000000008210613f0957604082901c9150604081613f0691906150e1565b90505b6401000000008210613f2c57602082901c9150602081613f2991906150e1565b90505b620100008210613f4d57601082901c9150601081613f4a91906150e1565b90505b6101008210613f6d57600882901c9150600881613f6a91906150e1565b90505b60108210613f8c57600482901c9150600481613f8991906150e1565b90505b60048210613fab57600282901c9150600281613fa891906150e1565b90505b60028210613fc357600181613fc091906150e1565b90505b919050565b600080821415613fdb576000905061418f565b6000829050600060019050700100000000000000000000000000000000821061400d57608082901c9150604081901b90505b68010000000000000000821061402c57604082901c9150602081901b90505b640100000000821061404757602082901c9150601081901b90505b62010000821061406057601082901c9150600881901b90505b610100821061407857600882901c9150600481901b90505b6010821061408f57600482901c9150600281901b90505b6008821061409f57600181901b90505b600181856140ad9190615182565b826140b89190615013565b901c9050600181856140ca9190615182565b826140d59190615013565b901c9050600181856140e79190615182565b826140f29190615013565b901c9050600181856141049190615182565b8261410f9190615013565b901c9050600181856141219190615182565b8261412c9190615013565b901c90506001818561413e9190615182565b826141499190615013565b901c90506001818561415b9190615182565b826141669190615013565b901c9050600081856141789190615182565b90508082106141875780614189565b815b93505050505b919050565b6000808212156141ad57816141a890615925565b6141af565b815b9050919050565b60008282116141d55781836141cb919061564c565b84901c905061423d565b60008484846141e4919061564c565b85856141f0919061564c565b87901b925082901c14614238576040517f08c379a000000000000000000000000000000000000000000000000000000000815260040161422f90614c9e565b60405180910390fd5b809150505b9392505050565b6000838260026142549190615206565b84866142609190615013565b92508261426d91906158f4565b10156142ae576040517f08c379a00000000000000000000000000000000000000000000000000000000081526004016142a590614c3e565b60405180910390fd5b9392505050565b6000838260026142c59190615206565b84866142d1919061564c565b9250826142de91906158f4565b111561431f576040517f08c379a000000000000000000000000000000000000000000000000000000000815260040161431690614bde565b60405180910390fd5b9392505050565b600061433961433484614f8e565b614f69565b90508281526020810184848401111561435157600080fd5b61435c8482856157d9565b509392505050565b60008135905061437381615d81565b92915050565b60008151905061438881615d81565b92915050565b60008151905061439d81615d98565b92915050565b6000813590506143b281615daf565b92915050565b600082601f8301126143c957600080fd5b81356143d9848260208601614326565b91505092915050565b6000813590506143f181615dc6565b92915050565b60008135905061440681615ddd565b92915050565b60008135905061441b81615df4565b92915050565b60008135905061443081615e0b565b92915050565b60006020828403121561444857600080fd5b600061445684828501614364565b91505092915050565b60006020828403121561447157600080fd5b600061447f84828501614379565b91505092915050565b60006020828403121561449a57600080fd5b60006144a88482850161438e565b91505092915050565b600080604083850312156144c457600080fd5b60006144d2858286016143a3565b92505060206144e3858286016143a3565b9150509250929050565b6000602082840312156144ff57600080fd5b600082013567ffffffffffffffff81111561451957600080fd5b614525848285016143b8565b91505092915050565b6000806040838503121561454157600080fd5b600061454f858286016143e2565b9250506020614560858286016143e2565b9150509250929050565b60008060006060848603121561457f57600080fd5b600061458d868287016143e2565b935050602061459e868287016143e2565b92505060406145af868287016143f7565b9150509250925092565b6000806000606084860312156145ce57600080fd5b60006145dc868287016143e2565b93505060206145ed868287016143e2565b92505060406145fe8682870161440c565b9150509250925092565b60006020828403121561461a57600080fd5b60006146288482850161440c565b91505092915050565b6000806040838503121561464457600080fd5b60006146528582860161440c565b925050602061466385828601614364565b9150509250929050565b60008060006060848603121561468257600080fd5b60006146908682870161440c565b93505060206146a1868287016143e2565b92505060406146b2868287016143e2565b9150509250925092565b600080604083850312156146cf57600080fd5b60006146dd8582860161440c565b92505060206146ee8582860161440c565b9150509250929050565b60006020828403121561470a57600080fd5b600061471884828501614421565b91505092915050565b61472a816156e8565b82525050565b614739816156fa565b82525050565b614748816157a3565b82525050565b6147578161572d565b82525050565b8082525050565b8082525050565b8082525050565b600061477d82614fbf565b6147878185614fca565b93506147978185602086016157e8565b6147a081615a2a565b840191505092915050565b60006147b8601583614fca565b91506147c382615a48565b602082019050919050565b60006147db602183614fca565b91506147e682615a71565b604082019050919050565b60006147fe602683614fca565b915061480982615ac0565b604082019050919050565b6000614821601a83614fca565b915061482c82615b0f565b602082019050919050565b6000614844602383614fca565b915061484f82615b38565b604082019050919050565b6000614867601683614fca565b915061487282615b87565b602082019050919050565b600061488a601c83614fca565b915061489582615bb0565b602082019050919050565b60006148ad601283614fca565b91506148b882615bd9565b602082019050919050565b60006148d0601b83614fca565b91506148db82615c02565b602082019050919050565b60006148f3602083614fca565b91506148fe82615c2b565b602082019050919050565b6000614916601c83614fca565b915061492182615c54565b602082019050919050565b6000614939602183614fca565b915061494482615c7d565b604082019050919050565b600061495c601f83614fca565b915061496782615ccc565b602082019050919050565b600061497f603983614fca565b915061498a82615cf5565b604082019050919050565b60006149a2600f83614fca565b91506149ad82615d44565b602082019050919050565b6149c18161573a565b82525050565b6149d08161573a565b82525050565b6149e76149e282615768565b6158ea565b82525050565b6149f6816157b5565b82525050565b614a0581615772565b82525050565b614a1481615772565b82525050565b614a23816157c7565b82525050565b614a3281615782565b82525050565b614a4181615782565b82525050565b6000614a5382856149d6565b602082019150614a6382846149d6565b6020820191508190509392505050565b6000602082019050614a886000830184614721565b92915050565b6000606082019050614aa36000830186614721565b614ab06020830185614721565b614abd60408301846149ed565b949350505050565b6000608082019050614ada6000830187614721565b614ae760208301866149fc565b614af460408301856149b8565b614b0160608301846149b8565b95945050505050565b600060a082019050614b1f6000830188614721565b614b2c60208301876149fc565b614b3960408301866149b8565b614b4660608301856149b8565b614b536080830184614a29565b9695505050505050565b6000604082019050614b726000830185614721565b614b7f6020830184614a1a565b9392505050565b6000602082019050614b9b6000830184614730565b92915050565b6000602082019050614bb6600083018461474e565b92915050565b60006020820190508181036000830152614bd68184614772565b905092915050565b60006020820190508181036000830152614bf7816147ab565b9050919050565b60006020820190508181036000830152614c17816147ce565b9050919050565b60006020820190508181036000830152614c37816147f1565b9050919050565b60006020820190508181036000830152614c5781614814565b9050919050565b60006020820190508181036000830152614c7781614837565b9050919050565b60006020820190508181036000830152614c978161485a565b9050919050565b60006020820190508181036000830152614cb78161487d565b9050919050565b60006020820190508181036000830152614cd7816148a0565b9050919050565b60006020820190508181036000830152614cf7816148c3565b9050919050565b60006020820190508181036000830152614d17816148e6565b9050919050565b60006020820190508181036000830152614d3781614909565b9050919050565b60006020820190508181036000830152614d578161492c565b9050919050565b60006020820190508181036000830152614d778161494f565b9050919050565b60006020820190508181036000830152614d9781614972565b9050919050565b60006020820190508181036000830152614db781614995565b9050919050565b6000602082019050614dd360008301846149b8565b92915050565b6000602082019050614dee60008301846149fc565b92915050565b6000606082019050614e0960008301866149fc565b614e166020830185614721565b614e236040830184614721565b949350505050565b600060c082019050614e4060008301896149fc565b614e4d602083018861473f565b614e5a6040830187614a29565b614e676060830186614a29565b614e7460808301856149b8565b614e8160a08301846149b8565b979650505050505050565b600060c082019050614ea16000830189614a0b565b614eae60208301886149c7565b614ebb60408301876149c7565b614ec8606083018661476b565b614ed56080830185614764565b614ee260a083018461475d565b979650505050505050565b600060c082019050614f026000830189614a0b565b614f0f6020830188614a0b565b614f1c604083018761476b565b614f296060830186614764565b614f36608083018561475d565b614f4360a0830184614a38565b979650505050505050565b6000602082019050614f636000830184614a29565b92915050565b6000614f73614f84565b9050614f7f8282615845565b919050565b6000604051905090565b600067ffffffffffffffff821115614fa957614fa86159fb565b5b614fb282615a2a565b9050602081019050919050565b600081519050919050565b600082825260208201905092915050565b6000614fe68261573a565b9150614ff18361573a565b92508261ffff038211156150085761500761596e565b5b828201905092915050565b600061501e82615768565b915061502983615768565b9250827fffffffffffffffffffffffffffffffffffffffffffffffffffffffffffffffff0382111561505e5761505d61596e565b5b828201905092915050565b600061507482615772565b915061507f83615772565b92508263ffffffff038211156150985761509761596e565b5b828201905092915050565b60006150ae82615782565b91506150b983615782565b92508267ffffffffffffffff038211156150d6576150d561596e565b5b828201905092915050565b60006150ec82615796565b91506150f783615796565b92508260ff0382111561510d5761510c61596e565b5b828201905092915050565b600061512382615723565b915061512e83615723565b92508261513e5761513d61599d565b5b600160000383147f8000000000000000000000000000000000000000000000000000000000000000831416156151775761517661596e565b5b828205905092915050565b600061518d82615768565b915061519883615768565b9250826151a8576151a761599d565b5b828204905092915050565b6000808291508390505b60018511156151fd578086048111156151d9576151d861596e565b5b60018516156151e85780820291505b80810290506151f685615a3b565b94506151bd565b94509492505050565b600061521182615768565b915061521c83615768565b92506152497fffffffffffffffffffffffffffffffffffffffffffffffffffffffffffffffff8484615251565b905092915050565b600082615261576001905061531d565b8161526f576000905061531d565b8160018114615285576002811461528f576152be565b600191505061531d565b60ff8411156152a1576152a061596e565b5b8360020a9150848211156152b8576152b761596e565b5b5061531d565b5060208310610133831016604e8410600b84101617156152f35782820a9050838111156152ee576152ed61596e565b5b61531d565b61530084848460016151b3565b925090508184048111156153175761531661596e565b5b81810290505b9392505050565b600061532f82615723565b915061533a83615723565b9250827f7fffffffffffffffffffffffffffffffffffffffffffffffffffffffffffffff04821160008413600084131616156153795761537861596e565b5b817f800000000000000000000000000000000000000000000000000000000000000005831260008412600084131616156153b6576153b561596e565b5b827f800000000000000000000000000000000000000000000000000000000000000005821260008413600084121616156153f3576153f261596e565b5b827f7fffffffffffffffffffffffffffffffffffffffffffffffffffffffffffffff05821260008412600084121616156154305761542f61596e565b5b828202905092915050565b60006154468261572d565b91506154518361572d565b925082677fffffffffffffff04821160008413600084131616156154785761547761596e565b5b817fffffffffffffffffffffffffffffffffffffffffffffffff800000000000000005831260008412600084131616156154b5576154b461596e565b5b827fffffffffffffffffffffffffffffffffffffffffffffffff800000000000000005821260008413600084121616156154f2576154f161596e565b5b82677fffffffffffffff05821260008412600084121616156155175761551661596e565b5b828202905092915050565b600061552d8261573a565b91506155388361573a565b92508161ffff04831182151516156155535761555261596e565b5b828202905092915050565b600061556982615768565b915061557483615768565b9250817fffffffffffffffffffffffffffffffffffffffffffffffffffffffffffffffff04831182151516156155ad576155ac61596e565b5b828202905092915050565b60006155c382615723565b91506155ce83615723565b9250827f8000000000000000000000000000000000000000000000000000000000000000018212600084121516156156095761560861596e565b5b827f7fffffffffffffffffffffffffffffffffffffffffffffffffffffffffffffff0182136000841216156156415761564061596e565b5b828203905092915050565b600061565782615768565b915061566283615768565b9250828210156156755761567461596e565b5b828203905092915050565b600061568b82615782565b915061569683615782565b9250828210156156a9576156a861596e565b5b828203905092915050565b60006156bf82615796565b91506156ca83615796565b9250828210156156dd576156dc61596e565b5b828203905092915050565b60006156f382615748565b9050919050565b60008115159050919050565b6000819050919050565b600081905061571e82615d6d565b919050565b6000819050919050565b60008160070b9050919050565b600061ffff82169050919050565b600073ffffffffffffffffffffffffffffffffffffffff82169050919050565b6000819050919050565b600063ffffffff82169050919050565b600067ffffffffffffffff82169050919050565b600060ff82169050919050565b60006157ae82615710565b9050919050565b60006157c082615772565b9050919050565b60006157d282615782565b9050919050565b82818337600083830152505050565b60005b838110156158065780820151818401526020810190506157eb565b83811115615815576000848401525b50505050565b600061582682615782565b9150600082141561583a5761583961596e565b5b600182039050919050565b61584e82615a2a565b810181811067ffffffffffffffff8211171561586d5761586c6159fb565b5b80604052505050565b60006158818261573a565b915061ffff8214156158965761589561596e565b5b600182019050919050565b60006158ac82615768565b91507fffffffffffffffffffffffffffffffffffffffffffffffffffffffffffffffff8214156158df576158de61596e565b5b600182019050919050565b6000819050919050565b60006158ff82615768565b915061590a83615768565b92508261591a5761591961599d565b5b828206905092915050565b600061593082615723565b91507f80000000000000000000000000000000000000000000000000000000000000008214156159635761596261596e565b5b816000039050919050565b7f4e487b7100000000000000000000000000000000000000000000000000000000600052601160045260246000fd5b7f4e487b7100000000000000000000000000000000000000000000000000000000600052601260045260246000fd5b7f4e487b7100000000000000000000000000000000000000000000000000000000600052602160045260246000fd5b7f4e487b7100000000000000000000000000000000000000000000000000000000600052604160045260246000fd5b6000601f19601f8301169050919050565b60008160011c9050919050565b7f64732d6d6174682d7375622d756e646572666c6f770000000000000000000000600082015250565b7f4269744d6174683a3a6d6f73745369676e69666963616e744269743a207a657260008201527f6f00000000000000000000000000000000000000000000000000000000000000602082015250565b7f4f776e61626c653a206e6577206f776e657220697320746865207a65726f206160008201527f6464726573730000000000000000000000000000000000000000000000000000602082015250565b7f64732d6d6174682d6164642d6f766572666c6f77646673667766000000000000600082015250565b7f4669786564506f696e743a3a64697675713a206469766973696f6e206279207a60008201527f65726f0000000000000000000000000000000000000000000000000000000000602082015250565b7f4d757374206265206275696c74206f6e206661726d2100000000000000000000600082015250565b7f4669786564506f696e743a3a656e636f64653a206f766572666c6f7700000000600082015250565b7f4e6f206661726d206275696c7420686572650000000000000000000000000000600082015250565b7f4d757374206265206275696c74206f6e20796f7572206661726d210000000000600082015250565b7f4f776e61626c653a2063616c6c6572206973206e6f7420746865206f776e6572600082015250565b7f4669786564506f696e743a3a6469766964653a206f766572666c6f7700000000600082015250565b7f4669786564506f696e743a3a6d756c75713a207570706572206f766572666c6f60008201527f7700000000000000000000000000000000000000000000000000000000000000602082015250565b7f54686973206e6565647320746f20626520616e20656d707479206c616e642100600082015250565b7f596f75206d6179206f6e6c792063616c6c20746869732066756e6374696f6e2060008201527f6f6e20616e20656e74697479207468617420796f75206f776e00000000000000602082015250565b7f4e6f6e2d656d70747920776f726c640000000000000000000000000000000000600082015250565b60058110615d7e57615d7d6159cc565b5b50565b615d8a816156e8565b8114615d9557600080fd5b50565b615da1816156fa565b8114615dac57600080fd5b50565b615db881615706565b8114615dc357600080fd5b50565b615dcf8161573a565b8114615dda57600080fd5b50565b615de681615768565b8114615df157600080fd5b50565b615dfd81615772565b8114615e0857600080fd5b50565b615e1481615782565b8114615e1f57600080fd5b5056fea2646970667358221220c903aef1ec450fa0c60d72f58182dcc17161e9ee55507dc5b4f736ac5776ae1964736f6c63430008030033",
  "immutableReferences": {},
  "source": "// SPDX-License-Identifier: Unlicensed\r\npragma solidity ^0.8.3;\r\nimport \"@openzeppelin/contracts/access/Ownable.sol\";\r\nimport \"./libraries/FixedPoint.sol\"; \r\nimport \"./EtherEmpireTypes.sol\"; \r\nimport \"./EtherEmpireStorage.sol\"; \r\nimport \"./EtherEmpireDiplomacy.sol\"; \r\nimport \"./EtherEmpireCombat.sol\"; \r\nimport \"./smart_treaties/SmartTreaty.sol\";\r\n\r\n// Handles entity creation and core features\r\ncontract EtherEmpireWorld is Ownable, EtherEmpireStorage {\r\n\r\n    event FarmBuilt(address _owner, uint32 _id, uint16 _locx, uint16 _locy);\r\n    event WallBuilt(address _owner, uint32 _id, uint16 _locx, uint16 _locy);\r\n    event ArmyRecruited(address _owner, uint32 _id, uint16 _locx, uint16 _locy);\r\n    event ArmyMoved(address _owner, uint32 _id, uint16 _locx, uint16 _locy);\r\n    event HarvestInitiated(address _owner, uint32 _id, uint16 _locx, uint16 _locy, uint64 _completionBlock);\r\n\r\n    // , UniswapV2Pair _lpContractAddress\r\n    constructor(uint64 _yieldMin_32x32, uint64 _yieldRange_32x32, uint64 _armyToWallTokenRatio_32x32, uint64 _farmOccupationBurnRate_32x32, EtherEmpireToken _tokenContractAddress, uint64 _blocksToDivest) {\r\n        yieldMin_32x32 = _yieldMin_32x32;\r\n        yieldRange_32x32 = _yieldRange_32x32; \r\n        armyToWallTokenRatio_32x32 = _armyToWallTokenRatio_32x32;\r\n        farmOccupationBurnRate_32x32 = _farmOccupationBurnRate_32x32;\r\n        globalLandValue_32x32 = 0;\r\n        spawnedEntitiesCount = 0;\r\n        tokenContract = _tokenContractAddress;\r\n        blocksToDivest = _blocksToDivest;\r\n        // lpContract = _lpContractAddress; \r\n    }\r\n\r\n    modifier onlyOwnerOf(uint32 _id, address _owner) {\r\n        requireIsOwner(_id, _owner); \r\n        _;\r\n    }\r\n\r\n    modifier emptyAtLayer(uint16 _locx, uint16 _locy, uint8 layer) {\r\n        require(allEntities[_locx  + _locy * map_width + layer * map_width * map_height].entityType == EtherEmpireTypes.EntityType.EMPTY, \"This needs to be an empty land!\");\r\n        _; \r\n    }\r\n\r\n    function requireIsOwner(uint32 _id, address _owner) internal view {\r\n        require(entityToOwner[_id] == _owner, \"You may only call this function on an entity that you own\");    \r\n    }\r\n\r\n    function _randMod(uint _seed, uint _nonce, uint _mod) internal pure returns(uint) {\r\n        return uint(keccak256(abi.encodePacked(_seed, _nonce))) % _mod; \r\n    }\r\n\r\n    // This function can only be called by whoever deployed the contract \r\n    function populateLand(uint16 _width, uint16 _height, uint _seed) onlyOwner public {\r\n        require(allEntities[0].entityType == EtherEmpireTypes.EntityType.EMPTY, \"Non-empty world\");\r\n\r\n        map_width = _width;\r\n        map_height = _height; \r\n\r\n        // Declare a local nonce so that the same seed will generate the same map \r\n        uint nonce = 0;\r\n\r\n        for (uint16 y = 0; y < _width; y++) {\r\n            for (uint16 x = 0; x < _height; x++) {\r\n                uint32 index = x + y * map_width;\r\n                // Currently only generates arable lands \r\n                EtherEmpireTypes.Entity memory newLand = EtherEmpireTypes.Entity(uint32(index), EtherEmpireTypes.EntityType.TILE, 0, uint64(FixedPoint.add(yieldMin_32x32, _randMod(_seed, nonce++, yieldRange_32x32), 32, 32, 32)), x, y);\r\n                allEntities[index] = newLand; \r\n                entityToOwner[index] = address(0); // wilderness\r\n\r\n            }\r\n        }\r\n    }\r\n\r\n    // Returns total farm yield at current block number, in the UQ144x112 format. Assumes supply of tokens do not exceed 2**144 - 1 \r\n    function yieldValue(uint16 _locx, uint16 _locy) view public returns(uint64) {\r\n        uint32 index = _locx + _locy * map_width + map_height * map_width; \r\n        EtherEmpireTypes.Entity storage thisFarm = allEntities[index];\r\n        require(thisFarm.entityType == EtherEmpireTypes.EntityType.FARM, \"No farm built here\");        \r\n        uint64 landValueAtBlock_32x32 = globalLandValue_32x32; \r\n        uint64 blockNumber = uint64(block.number);\r\n        uint64 cumulativeYield_32x32 = 0; \r\n        uint64 lastHarvestable = harvestTimer[index] == 0? blockNumber : (harvestTimer[index] - blocksToDivest - 1);\r\n        for (uint64 i = blockNumber; i > allEntities[index].qualifier1_32x32; i--) {\r\n            if (i <= lastHarvestable)\r\n            {\r\n                cumulativeYield_32x32 += uint64(FixedPoint.multiply((FixedPoint.divide(thisFarm.qualifier2_32x32, landValueAtBlock_32x32, 32, 32, 32, 32)),\r\n                                                         tokensBurntAtBlock[i],\r\n                                                         32, 0, 32, 32));\r\n            }\r\n            \r\n            landValueAtBlock_32x32 = uint64(uint(FixedPoint.addSigned(int64(landValueAtBlock_32x32), -1 * int64(landValueAddedAtBlock_32x32[i]), 32, 32, 32))); \r\n        }\r\n        return cumulativeYield_32x32;\r\n    }\r\n\r\n    // Requires implementation of ERC20 \r\n    function buildFarm(uint16 _locx, uint16 _locy, uint32 tokenStaked) public emptyAtLayer(_locx, _locy, 1) returns(uint32) {\r\n        uint32 index = _locx + _locy * map_width + map_height * map_width;\r\n        uint64 blockNumber = uint64(block.number);\r\n        tokenContract.transferFrom(msg.sender, address(this), tokenStaked); \r\n        uint64 landValue_32x32 = uint64(FixedPoint.sqrt(uint64(tokenStaked) << 32, 32, 32)); // Added precision\r\n        allEntities[index] = EtherEmpireTypes.Entity(index, EtherEmpireTypes.EntityType.FARM, blockNumber, landValue_32x32, _locx, _locy);\r\n        landValueAddedAtBlock_32x32[blockNumber] = int64(FixedPoint.addSigned(landValueAddedAtBlock_32x32[blockNumber], int64(landValue_32x32), 32, 32, 32));\r\n        globalLandValue_32x32 = uint64(FixedPoint.add(globalLandValue_32x32, landValue_32x32, 32, 32, 32)); \r\n        entityToOwner[index] = msg.sender;\r\n        emit FarmBuilt(msg.sender, index, _locx, _locy);\r\n        return index;\r\n    }\r\n\r\n    // Requires implementation of ERC20 \r\n    function buildWall(uint16 _locx, uint16 _locy, uint32 tokenSpent) public emptyAtLayer(_locx, _locy, 1) returns(uint32) {\r\n        uint32 index = _locx + _locy * map_width + map_height * map_width;\r\n        uint64 blockNumber = uint64(block.number);\r\n        tokenContract.transferFrom(msg.sender, address(this), tokenSpent); \r\n\r\n        uint64 wallFortification_32x32 = uint64(tokenSpent) << 32;\r\n        allEntities[index] = EtherEmpireTypes.Entity(index, EtherEmpireTypes.EntityType.WALL, blockNumber, wallFortification_32x32, _locx, _locy);\r\n        tokensBurntAtBlock[blockNumber] = tokensBurntAtBlock[blockNumber] + tokenSpent;\r\n        emit WallBuilt(msg.sender, index, _locx, _locy);\r\n        return index;\r\n    }\r\n\r\n    // Requires implementation of ERC20 \r\n    function buildArmy(uint16 _locx, uint16 _locy, uint32 tokenSpent) public returns(uint32) {\r\n        EtherEmpireTypes.Entity memory l2 = allEntities[_locx  + _locy * map_width + 1 * map_width * map_height];\r\n        require(l2.entityType == EtherEmpireTypes.EntityType.FARM, \"Must be built on farm!\");\r\n        require(entityToOwner[l2.id] == msg.sender, \"Must be built on your farm!\"); \r\n        uint32 index = spawnedEntitiesCount + 2 * map_width * map_height;\r\n        uint64 blockNumber = uint64(block.number);\r\n        tokenContract.transferFrom(msg.sender, address(this), tokenSpent); \r\n\r\n        uint64 armySize_32x32 = uint64(FixedPoint.divide(uint64(tokenSpent) << 32, armyToWallTokenRatio_32x32, 32, 32, 32, 32)); \r\n        allEntities[index] = EtherEmpireTypes.Entity(index, EtherEmpireTypes.EntityType.ARMY, blockNumber, armySize_32x32, _locx, _locy);\r\n        tokensBurntAtBlock[blockNumber] = tokensBurntAtBlock[blockNumber] + tokenSpent;\r\n        entityToOwner[index] = msg.sender;\r\n        spawnedEntitiesCount += 1; \r\n        emit ArmyRecruited(msg.sender, index, _locx, _locy);\r\n        return index;\r\n    }\r\n\r\n    function harvestFarm(uint16 _locx, uint16 _locy) public returns(bool) {\r\n        uint32 index = _locx + _locy * map_width + map_width * map_height;\r\n        requireIsOwner(index, msg.sender);\r\n        uint64 landValue_32x32 = allEntities[index].qualifier2_32x32;\r\n        uint64 blockNumber = uint64(block.number);\r\n        if (harvestTimer[index] == 0) {\r\n            harvestTimer[index] = blockNumber + blocksToDivest;\r\n            landValueAddedAtBlock_32x32[blockNumber] = int64(FixedPoint.addSigned(landValueAddedAtBlock_32x32[blockNumber], -1 * int64(landValue_32x32), 32, 32, 32));\r\n            globalLandValue_32x32 = uint64(uint(FixedPoint.addSigned(int64(globalLandValue_32x32), -1 * int64(landValue_32x32), 32, 32, 32)));\r\n            emit HarvestInitiated(msg.sender, index, _locx, _locy, harvestTimer[index]);\r\n            return false; \r\n        } else if (harvestTimer[index] > uint64(block.number)) {\r\n            return false;\r\n        }\r\n        uint64 redeemable = uint64(FixedPoint.multiply(landValue_32x32, landValue_32x32, 32, 32, 32, 32)) + yieldValue(_locx, _locy); \r\n        tokenContract.transfer(msg.sender, redeemable);\r\n        harvestTimer[index] = 0; \r\n        EtherEmpireCombat.destroy(index, msg.sender, allEntities, entityToOwner);\r\n        return true;\r\n    }\r\n\r\n    function executeSignedInstructions(bytes32 signature, bytes32 args) external returns(bool) {\r\n\r\n    }\r\n\r\n    function toString(bytes memory data) public pure returns(string memory) {\r\n        bytes memory alphabet = \"0123456789abcdef\";\r\n\r\n        bytes memory str = new bytes(2 + data.length * 2);\r\n        str[0] = \"0\";\r\n        str[1] = \"x\";\r\n        for (uint i = 0; i < data.length; i++) {\r\n            str[2+i*2] = alphabet[uint(uint8(data[i] >> 4))];\r\n            str[3+i*2] = alphabet[uint(uint8(data[i] & 0x0f))];\r\n        }\r\n        return string(str);\r\n    }\r\n\r\n\r\n    function changeEntityOwner(uint32 _id, address _newOwner) public {\r\n        require(msg.sender == entityToOwner[_id] || authorizedTreaty[entityToOwner[_id]][msg.sender]);\r\n        entityToOwner[_id] = _newOwner;\r\n    }\r\n\r\n    function getEntityOwner(uint32 _id) view external returns(address) {\r\n        return entityToOwner[_id];\r\n    }\r\n\r\n    // To be implemented\r\n    function createTreaty(address ref) external {\r\n        address newTreaty = SmartTreaty(ref).duplicate();\r\n        authorizedTreaty[msg.sender][newTreaty] = true;\r\n        SmartTreaty(newTreaty).sign(msg.sender);\r\n    }\r\n\r\n    function signTreaty(address ref) external {\r\n        authorizedTreaty[msg.sender][ref] = true;\r\n        SmartTreaty(ref).sign(msg.sender);\r\n    }\r\n\r\n    // Relay external calls to specific libraries \r\n\r\n    function armyAttack(uint32 _self, uint32 _other) external onlyOwnerOf(_self, msg.sender) returns(bool) {\r\n        return EtherEmpireCombat.armyAttack(_self, _other, allEntities, entityToOwner, nonAggression, farmOccupationBurnRate_32x32);\r\n    }\r\n\r\n    function armyMove(uint32 _id, uint16 _locx, uint16 _locy) external onlyOwnerOf(_id, msg.sender) returns(bool) {\r\n        bool successfulMovement = EtherEmpireCombat.armyMove(_id, _locx, _locy, allEntities, entityToOwner, access);\r\n        if (successfulMovement) emit ArmyMoved(msg.sender, _id, _locx, _locy);\r\n        return successfulMovement;\r\n    }\r\n}\r\n",
  "sourcePath": "C:\\Users\\Daniel\\Desktop\\Coding Projects\\ether-empire\\contracts\\EtherEmpireWorld.sol",
  "compiler": {
    "name": "solc",
    "version": "0.8.3+commit.8d00100c.Emscripten.clang"
  },
  "schemaVersion": "3.3.4",
  "updatedAt": "2021-05-08T21:53:06.481Z",
  "networkType": "ethereum",
  "devdoc": {
    "kind": "dev",
    "methods": {
      "owner()": {
        "details": "Returns the address of the current owner."
      },
      "renounceOwnership()": {
        "details": "Leaves the contract without owner. It will not be possible to call `onlyOwner` functions anymore. Can only be called by the current owner. NOTE: Renouncing ownership will leave the contract without an owner, thereby removing any functionality that is only available to the owner."
      },
      "transferOwnership(address)": {
        "details": "Transfers ownership of the contract to a new account (`newOwner`). Can only be called by the current owner."
      }
    },
    "version": 1
  },
  "userdoc": {
    "kind": "user",
    "methods": {},
    "version": 1
  }
}