{
  "contractName": "EtherEmpireTokenMain",
  "abi": [
    {
      "inputs": [],
      "stateMutability": "nonpayable",
      "type": "constructor"
    },
    {
      "anonymous": false,
      "inputs": [
        {
          "indexed": true,
          "internalType": "address",
          "name": "owner",
          "type": "address"
        },
        {
          "indexed": true,
          "internalType": "address",
          "name": "spender",
          "type": "address"
        },
        {
          "indexed": false,
          "internalType": "uint256",
          "name": "value",
          "type": "uint256"
        }
      ],
      "name": "Approval",
      "type": "event"
    },
    {
      "anonymous": false,
      "inputs": [
        {
          "indexed": true,
          "internalType": "bytes32",
          "name": "role",
          "type": "bytes32"
        },
        {
          "indexed": true,
          "internalType": "bytes32",
          "name": "previousAdminRole",
          "type": "bytes32"
        },
        {
          "indexed": true,
          "internalType": "bytes32",
          "name": "newAdminRole",
          "type": "bytes32"
        }
      ],
      "name": "RoleAdminChanged",
      "type": "event"
    },
    {
      "anonymous": false,
      "inputs": [
        {
          "indexed": true,
          "internalType": "bytes32",
          "name": "role",
          "type": "bytes32"
        },
        {
          "indexed": true,
          "internalType": "address",
          "name": "account",
          "type": "address"
        },
        {
          "indexed": true,
          "internalType": "address",
          "name": "sender",
          "type": "address"
        }
      ],
      "name": "RoleGranted",
      "type": "event"
    },
    {
      "anonymous": false,
      "inputs": [
        {
          "indexed": true,
          "internalType": "bytes32",
          "name": "role",
          "type": "bytes32"
        },
        {
          "indexed": true,
          "internalType": "address",
          "name": "account",
          "type": "address"
        },
        {
          "indexed": true,
          "internalType": "address",
          "name": "sender",
          "type": "address"
        }
      ],
      "name": "RoleRevoked",
      "type": "event"
    },
    {
      "anonymous": false,
      "inputs": [
        {
          "indexed": true,
          "internalType": "address",
          "name": "from",
          "type": "address"
        },
        {
          "indexed": true,
          "internalType": "address",
          "name": "to",
          "type": "address"
        },
        {
          "indexed": false,
          "internalType": "uint256",
          "name": "value",
          "type": "uint256"
        }
      ],
      "name": "Transfer",
      "type": "event"
    },
    {
      "inputs": [],
      "name": "DEFAULT_ADMIN_ROLE",
      "outputs": [
        {
          "internalType": "bytes32",
          "name": "",
          "type": "bytes32"
        }
      ],
      "stateMutability": "view",
      "type": "function",
      "constant": true
    },
    {
      "inputs": [],
      "name": "MINTER_ROLE",
      "outputs": [
        {
          "internalType": "bytes32",
          "name": "",
          "type": "bytes32"
        }
      ],
      "stateMutability": "view",
      "type": "function",
      "constant": true
    },
    {
      "inputs": [],
      "name": "MINTER_ROLE_ADMIN",
      "outputs": [
        {
          "internalType": "bytes32",
          "name": "",
          "type": "bytes32"
        }
      ],
      "stateMutability": "view",
      "type": "function",
      "constant": true
    },
    {
      "inputs": [
        {
          "internalType": "bytes32",
          "name": "role",
          "type": "bytes32"
        }
      ],
      "name": "getRoleAdmin",
      "outputs": [
        {
          "internalType": "bytes32",
          "name": "",
          "type": "bytes32"
        }
      ],
      "stateMutability": "view",
      "type": "function",
      "constant": true
    },
    {
      "inputs": [
        {
          "internalType": "bytes32",
          "name": "role",
          "type": "bytes32"
        },
        {
          "internalType": "uint256",
          "name": "index",
          "type": "uint256"
        }
      ],
      "name": "getRoleMember",
      "outputs": [
        {
          "internalType": "address",
          "name": "",
          "type": "address"
        }
      ],
      "stateMutability": "view",
      "type": "function",
      "constant": true
    },
    {
      "inputs": [
        {
          "internalType": "bytes32",
          "name": "role",
          "type": "bytes32"
        }
      ],
      "name": "getRoleMemberCount",
      "outputs": [
        {
          "internalType": "uint256",
          "name": "",
          "type": "uint256"
        }
      ],
      "stateMutability": "view",
      "type": "function",
      "constant": true
    },
    {
      "inputs": [
        {
          "internalType": "bytes32",
          "name": "role",
          "type": "bytes32"
        },
        {
          "internalType": "address",
          "name": "account",
          "type": "address"
        }
      ],
      "name": "grantRole",
      "outputs": [],
      "stateMutability": "nonpayable",
      "type": "function"
    },
    {
      "inputs": [
        {
          "internalType": "bytes32",
          "name": "role",
          "type": "bytes32"
        },
        {
          "internalType": "address",
          "name": "account",
          "type": "address"
        }
      ],
      "name": "hasRole",
      "outputs": [
        {
          "internalType": "bool",
          "name": "",
          "type": "bool"
        }
      ],
      "stateMutability": "view",
      "type": "function",
      "constant": true
    },
    {
      "inputs": [
        {
          "internalType": "bytes32",
          "name": "role",
          "type": "bytes32"
        },
        {
          "internalType": "address",
          "name": "account",
          "type": "address"
        }
      ],
      "name": "renounceRole",
      "outputs": [],
      "stateMutability": "nonpayable",
      "type": "function"
    },
    {
      "inputs": [
        {
          "internalType": "bytes32",
          "name": "role",
          "type": "bytes32"
        },
        {
          "internalType": "address",
          "name": "account",
          "type": "address"
        }
      ],
      "name": "revokeRole",
      "outputs": [],
      "stateMutability": "nonpayable",
      "type": "function"
    },
    {
      "inputs": [
        {
          "internalType": "bytes4",
          "name": "interfaceId",
          "type": "bytes4"
        }
      ],
      "name": "supportsInterface",
      "outputs": [
        {
          "internalType": "bool",
          "name": "",
          "type": "bool"
        }
      ],
      "stateMutability": "view",
      "type": "function",
      "constant": true
    },
    {
      "inputs": [],
      "name": "name",
      "outputs": [
        {
          "internalType": "string",
          "name": "",
          "type": "string"
        }
      ],
      "stateMutability": "view",
      "type": "function",
      "constant": true
    },
    {
      "inputs": [],
      "name": "symbol",
      "outputs": [
        {
          "internalType": "string",
          "name": "",
          "type": "string"
        }
      ],
      "stateMutability": "view",
      "type": "function",
      "constant": true
    },
    {
      "inputs": [],
      "name": "decimals",
      "outputs": [
        {
          "internalType": "uint8",
          "name": "",
          "type": "uint8"
        }
      ],
      "stateMutability": "view",
      "type": "function",
      "constant": true
    },
    {
      "inputs": [],
      "name": "totalSupply",
      "outputs": [
        {
          "internalType": "uint256",
          "name": "",
          "type": "uint256"
        }
      ],
      "stateMutability": "view",
      "type": "function",
      "constant": true
    },
    {
      "inputs": [
        {
          "internalType": "address",
          "name": "account",
          "type": "address"
        }
      ],
      "name": "balanceOf",
      "outputs": [
        {
          "internalType": "uint256",
          "name": "",
          "type": "uint256"
        }
      ],
      "stateMutability": "view",
      "type": "function",
      "constant": true
    },
    {
      "inputs": [
        {
          "internalType": "address",
          "name": "recipient",
          "type": "address"
        },
        {
          "internalType": "uint256",
          "name": "amount",
          "type": "uint256"
        }
      ],
      "name": "transfer",
      "outputs": [
        {
          "internalType": "bool",
          "name": "",
          "type": "bool"
        }
      ],
      "stateMutability": "nonpayable",
      "type": "function"
    },
    {
      "inputs": [
        {
          "internalType": "address",
          "name": "owner",
          "type": "address"
        },
        {
          "internalType": "address",
          "name": "spender",
          "type": "address"
        }
      ],
      "name": "allowance",
      "outputs": [
        {
          "internalType": "uint256",
          "name": "",
          "type": "uint256"
        }
      ],
      "stateMutability": "view",
      "type": "function",
      "constant": true
    },
    {
      "inputs": [
        {
          "internalType": "address",
          "name": "spender",
          "type": "address"
        },
        {
          "internalType": "uint256",
          "name": "amount",
          "type": "uint256"
        }
      ],
      "name": "approve",
      "outputs": [
        {
          "internalType": "bool",
          "name": "",
          "type": "bool"
        }
      ],
      "stateMutability": "nonpayable",
      "type": "function"
    },
    {
      "inputs": [
        {
          "internalType": "address",
          "name": "sender",
          "type": "address"
        },
        {
          "internalType": "address",
          "name": "recipient",
          "type": "address"
        },
        {
          "internalType": "uint256",
          "name": "amount",
          "type": "uint256"
        }
      ],
      "name": "transferFrom",
      "outputs": [
        {
          "internalType": "bool",
          "name": "",
          "type": "bool"
        }
      ],
      "stateMutability": "nonpayable",
      "type": "function"
    },
    {
      "inputs": [
        {
          "internalType": "address",
          "name": "spender",
          "type": "address"
        },
        {
          "internalType": "uint256",
          "name": "addedValue",
          "type": "uint256"
        }
      ],
      "name": "increaseAllowance",
      "outputs": [
        {
          "internalType": "bool",
          "name": "",
          "type": "bool"
        }
      ],
      "stateMutability": "nonpayable",
      "type": "function"
    },
    {
      "inputs": [
        {
          "internalType": "address",
          "name": "spender",
          "type": "address"
        },
        {
          "internalType": "uint256",
          "name": "subtractedValue",
          "type": "uint256"
        }
      ],
      "name": "decreaseAllowance",
      "outputs": [
        {
          "internalType": "bool",
          "name": "",
          "type": "bool"
        }
      ],
      "stateMutability": "nonpayable",
      "type": "function"
    },
    {
      "inputs": [
        {
          "internalType": "address",
          "name": "account",
          "type": "address"
        }
      ],
      "name": "addMinter",
      "outputs": [],
      "stateMutability": "nonpayable",
      "type": "function"
    }
  ],
  "bytecode": "0x60806040523480156200001157600080fd5b506040518060400160405280600c81526020017f456d7069726520546f6b656e00000000000000000000000000000000000000008152506040518060400160405280600381526020017f454d500000000000000000000000000000000000000000000000000000000000815250816003908051906020019062000096929190620006ec565b508060049080519060200190620000af929190620006ec565b505050620000e47f9f2df0fed2c77648de5860a4cc508cd0818c85b8b8a1ab4ceeef8d981c8956a633620001f760201b60201c565b620001167f11c2020b6b4f4e00c2410234e0c72636b4739cf7cda4d8e24ef6b881350e670433620001f760201b60201c565b620001687f9f2df0fed2c77648de5860a4cc508cd0818c85b8b8a1ab4ceeef8d981c8956a67f11c2020b6b4f4e00c2410234e0c72636b4739cf7cda4d8e24ef6b881350e67046200023f60201b60201c565b633b9aca0060098190555062000187336009546200029d60201b60201c565b3373ffffffffffffffffffffffffffffffffffffffff16600073ffffffffffffffffffffffffffffffffffffffff167fddf252ad1be2c89b69c2b068fc378daa952ba7f163c4a11628f55a4df523b3ef600954604051620001e991906200083f565b60405180910390a3620009e0565b6200020e82826200047760201b62000c591760201c565b6200023a81600660008581526020019081526020016000206200048d60201b62000c671790919060201c565b505050565b806200025183620004c560201b60201c565b837fbd79b86ffe0ab8e8776151514217cd7cacd52c909f66475c3af44e129f0b00ff60405160405180910390a48060056000848152602001908152602001600020600101819055505050565b620002cf7f9f2df0fed2c77648de5860a4cc508cd0818c85b8b8a1ab4ceeef8d981c8956a633620004e560201b60201c565b62000311576040517f08c379a00000000000000000000000000000000000000000000000000000000081526004016200030890620007fb565b60405180910390fd5b600073ffffffffffffffffffffffffffffffffffffffff168273ffffffffffffffffffffffffffffffffffffffff16141562000384576040517f08c379a00000000000000000000000000000000000000000000000000000000081526004016200037b906200081d565b60405180910390fd5b62000398600083836200055060201b60201c565b8060096000828254620003ac91906200086d565b9250508190555080600760008473ffffffffffffffffffffffffffffffffffffffff1673ffffffffffffffffffffffffffffffffffffffff16815260200190815260200160002060008282546200040491906200086d565b925050819055508173ffffffffffffffffffffffffffffffffffffffff16600073ffffffffffffffffffffffffffffffffffffffff167fddf252ad1be2c89b69c2b068fc378daa952ba7f163c4a11628f55a4df523b3ef836040516200046b91906200083f565b60405180910390a35050565b6200048982826200055560201b60201c565b5050565b6000620004bd836000018373ffffffffffffffffffffffffffffffffffffffff1660001b6200064760201b60201c565b905092915050565b600060056000838152602001908152602001600020600101549050919050565b60006005600084815260200190815260200160002060000160008373ffffffffffffffffffffffffffffffffffffffff1673ffffffffffffffffffffffffffffffffffffffff16815260200190815260200160002060009054906101000a900460ff16905092915050565b505050565b620005678282620004e560201b60201c565b620006435760016005600084815260200190815260200160002060000160008373ffffffffffffffffffffffffffffffffffffffff1673ffffffffffffffffffffffffffffffffffffffff16815260200190815260200160002060006101000a81548160ff021916908315150217905550620005e8620006c160201b60201c565b73ffffffffffffffffffffffffffffffffffffffff168173ffffffffffffffffffffffffffffffffffffffff16837f2f8788117e7eff1d82e926ec794901d17c78024a50270940304540a733656f0d60405160405180910390a45b5050565b60006200065b8383620006c960201b60201c565b620006b6578260000182908060018154018082558091505060019003906000526020600020016000909190919091505582600001805490508360010160008481526020019081526020016000208190555060019050620006bb565b600090505b92915050565b600033905090565b600080836001016000848152602001908152602001600020541415905092915050565b828054620006fa90620008d4565b90600052602060002090601f0160209004810192826200071e57600085556200076a565b82601f106200073957805160ff19168380011785556200076a565b828001600101855582156200076a579182015b82811115620007695782518255916020019190600101906200074c565b5b5090506200077991906200077d565b5090565b5b80821115620007985760008160009055506001016200077e565b5090565b6000620007ab6024836200085c565b9150620007b88262000968565b604082019050919050565b6000620007d2601f836200085c565b9150620007df82620009b7565b602082019050919050565b620007f581620008ca565b82525050565b6000602082019050818103600083015262000816816200079c565b9050919050565b600060208201905081810360008301526200083881620007c3565b9050919050565b6000602082019050620008566000830184620007ea565b92915050565b600082825260208201905092915050565b60006200087a82620008ca565b91506200088783620008ca565b9250827fffffffffffffffffffffffffffffffffffffffffffffffffffffffffffffffff03821115620008bf57620008be6200090a565b5b828201905092915050565b6000819050919050565b60006002820490506001821680620008ed57607f821691505b6020821081141562000904576200090362000939565b5b50919050565b7f4e487b7100000000000000000000000000000000000000000000000000000000600052601160045260246000fd5b7f4e487b7100000000000000000000000000000000000000000000000000000000600052602260045260246000fd5b7f45524332303a206d7573742068617665206d696e74657220726f6c6520746f2060008201527f6275726e00000000000000000000000000000000000000000000000000000000602082015250565b7f45524332303a206d696e7420746f20746865207a65726f206164647265737300600082015250565b6128a380620009f06000396000f3fe608060405234801561001057600080fd5b506004361061014d5760003560e01c806370a08231116100c3578063a457c2d71161007c578063a457c2d7146103da578063a9059cbb1461040a578063ca15c8731461043a578063d53913931461046a578063d547741f14610488578063dd62ed3e146104a45761014d565b806370a08231146102f25780639010d07c1461032257806391d148541461035257806395d89b4114610382578063983b2d56146103a0578063a217fddf146103bc5761014d565b806323b872dd1161011557806323b872dd1461020c578063248a9ca31461023c5780632f2ff15d1461026c578063313ce5671461028857806336568abe146102a657806339509351146102c25761014d565b806301ffc9a71461015257806306fdde0314610182578063095ea7b3146101a057806311d15e7a146101d057806318160ddd146101ee575b600080fd5b61016c60048036038101906101679190611d04565b6104d4565b6040516101799190611ffe565b60405180910390f35b61018a61054e565b6040516101979190612034565b60405180910390f35b6101ba60048036038101906101b59190611c27565b6105e0565b6040516101c79190611ffe565b60405180910390f35b6101d86105f7565b6040516101e59190612019565b60405180910390f35b6101f661061b565b60405161020391906121b6565b60405180910390f35b61022660048036038101906102219190611bd8565b610625565b6040516102339190611ffe565b60405180910390f35b61025660048036038101906102519190611c63565b610718565b6040516102639190612019565b60405180910390f35b61028660048036038101906102819190611c8c565b610738565b005b61029061076c565b60405161029d91906121d1565b60405180910390f35b6102c060048036038101906102bb9190611c8c565b610775565b005b6102dc60048036038101906102d79190611c27565b6107a9565b6040516102e99190611ffe565b60405180910390f35b61030c60048036038101906103079190611b73565b610847565b60405161031991906121b6565b60405180910390f35b61033c60048036038101906103379190611cc8565b610890565b6040516103499190611fe3565b60405180910390f35b61036c60048036038101906103679190611c8c565b6108bf565b6040516103799190611ffe565b60405180910390f35b61038a61092a565b6040516103979190612034565b60405180910390f35b6103ba60048036038101906103b59190611b73565b6109bc565b005b6103c4610a52565b6040516103d19190612019565b60405180910390f35b6103f460048036038101906103ef9190611c27565b610a59565b6040516104019190611ffe565b60405180910390f35b610424600480360381019061041f9190611c27565b610b3f565b6040516104319190611ffe565b60405180910390f35b610454600480360381019061044f9190611c63565b610b56565b60405161046191906121b6565b60405180910390f35b610472610b7a565b60405161047f9190612019565b60405180910390f35b6104a2600480360381019061049d9190611c8c565b610b9e565b005b6104be60048036038101906104b99190611b9c565b610bd2565b6040516104cb91906121b6565b60405180910390f35b60007f5a05180f000000000000000000000000000000000000000000000000000000007bffffffffffffffffffffffffffffffffffffffffffffffffffffffff1916827bffffffffffffffffffffffffffffffffffffffffffffffffffffffff19161480610547575061054682610c97565b5b9050919050565b6060600a805461055d906123df565b80601f0160208091040260200160405190810160405280929190818152602001828054610589906123df565b80156105d65780601f106105ab576101008083540402835291602001916105d6565b820191906000526020600020905b8154815290600101906020018083116105b957829003601f168201915b5050505050905090565b60006105ed338484610d11565b6001905092915050565b7f11c2020b6b4f4e00c2410234e0c72636b4739cf7cda4d8e24ef6b881350e670481565b6000600954905090565b6000610632848484610edc565b6000600860008673ffffffffffffffffffffffffffffffffffffffff1673ffffffffffffffffffffffffffffffffffffffff16815260200190815260200160002060003373ffffffffffffffffffffffffffffffffffffffff1673ffffffffffffffffffffffffffffffffffffffff168152602001908152602001600020549050828110156106f6576040517f08c379a00000000000000000000000000000000000000000000000000000000081526004016106ed906120f6565b60405180910390fd5b61070c8533858461070791906122c3565b610d11565b60019150509392505050565b600060056000838152602001908152602001600020600101549050919050565b610742828261115e565b6107678160066000858152602001908152602001600020610c6790919063ffffffff16565b505050565b60006003905090565b61077f8282611187565b6107a4816006600085815260200190815260200160002061120a90919063ffffffff16565b505050565b600061083d338484600860003373ffffffffffffffffffffffffffffffffffffffff1673ffffffffffffffffffffffffffffffffffffffff16815260200190815260200160002060008873ffffffffffffffffffffffffffffffffffffffff1673ffffffffffffffffffffffffffffffffffffffff168152602001908152602001600020546108389190612213565b610d11565b6001905092915050565b6000600760008373ffffffffffffffffffffffffffffffffffffffff1673ffffffffffffffffffffffffffffffffffffffff168152602001908152602001600020549050919050565b60006108b7826006600086815260200190815260200160002061123a90919063ffffffff16565b905092915050565b60006005600084815260200190815260200160002060000160008373ffffffffffffffffffffffffffffffffffffffff1673ffffffffffffffffffffffffffffffffffffffff16815260200190815260200160002060009054906101000a900460ff16905092915050565b6060600b8054610939906123df565b80601f0160208091040260200160405190810160405280929190818152602001828054610965906123df565b80156109b25780601f10610987576101008083540402835291602001916109b2565b820191906000526020600020905b81548152906001019060200180831161099557829003601f168201915b5050505050905090565b6109e67f9f2df0fed2c77648de5860a4cc508cd0818c85b8b8a1ab4ceeef8d981c8956a6336108bf565b610a25576040517f08c379a0000000000000000000000000000000000000000000000000000000008152600401610a1c90612136565b60405180910390fd5b610a4f7f9f2df0fed2c77648de5860a4cc508cd0818c85b8b8a1ab4ceeef8d981c8956a682610738565b50565b6000801b81565b600080600860003373ffffffffffffffffffffffffffffffffffffffff1673ffffffffffffffffffffffffffffffffffffffff16815260200190815260200160002060008573ffffffffffffffffffffffffffffffffffffffff1673ffffffffffffffffffffffffffffffffffffffff16815260200190815260200160002054905082811015610b1e576040517f08c379a0000000000000000000000000000000000000000000000000000000008152600401610b1590612176565b60405180910390fd5b610b3433858584610b2f91906122c3565b610d11565b600191505092915050565b6000610b4c338484610edc565b6001905092915050565b6000610b7360066000848152602001908152602001600020611254565b9050919050565b7f9f2df0fed2c77648de5860a4cc508cd0818c85b8b8a1ab4ceeef8d981c8956a681565b610ba88282611269565b610bcd816006600085815260200190815260200160002061120a90919063ffffffff16565b505050565b6000600860008473ffffffffffffffffffffffffffffffffffffffff1673ffffffffffffffffffffffffffffffffffffffff16815260200190815260200160002060008373ffffffffffffffffffffffffffffffffffffffff1673ffffffffffffffffffffffffffffffffffffffff16815260200190815260200160002054905092915050565b610c638282611292565b5050565b6000610c8f836000018373ffffffffffffffffffffffffffffffffffffffff1660001b611373565b905092915050565b60007f7965db0b000000000000000000000000000000000000000000000000000000007bffffffffffffffffffffffffffffffffffffffffffffffffffffffff1916827bffffffffffffffffffffffffffffffffffffffffffffffffffffffff19161480610d0a5750610d09826113e3565b5b9050919050565b600073ffffffffffffffffffffffffffffffffffffffff168373ffffffffffffffffffffffffffffffffffffffff161415610d81576040517f08c379a0000000000000000000000000000000000000000000000000000000008152600401610d7890612156565b60405180910390fd5b600073ffffffffffffffffffffffffffffffffffffffff168273ffffffffffffffffffffffffffffffffffffffff161415610df1576040517f08c379a0000000000000000000000000000000000000000000000000000000008152600401610de8906120b6565b60405180910390fd5b80600860008573ffffffffffffffffffffffffffffffffffffffff1673ffffffffffffffffffffffffffffffffffffffff16815260200190815260200160002060008473ffffffffffffffffffffffffffffffffffffffff1673ffffffffffffffffffffffffffffffffffffffff168152602001908152602001600020819055508173ffffffffffffffffffffffffffffffffffffffff168373ffffffffffffffffffffffffffffffffffffffff167f8c5be1e5ebec7d5bd14f71427d1e84f3dd0314c0f7b2291e5b200ac8c7c3b92583604051610ecf91906121b6565b60405180910390a3505050565b600073ffffffffffffffffffffffffffffffffffffffff168373ffffffffffffffffffffffffffffffffffffffff161415610f4c576040517f08c379a0000000000000000000000000000000000000000000000000000000008152600401610f4390612116565b60405180910390fd5b600073ffffffffffffffffffffffffffffffffffffffff168273ffffffffffffffffffffffffffffffffffffffff161415610fbc576040517f08c379a0000000000000000000000000000000000000000000000000000000008152600401610fb390612096565b60405180910390fd5b610fc783838361144d565b6000600760008573ffffffffffffffffffffffffffffffffffffffff1673ffffffffffffffffffffffffffffffffffffffff1681526020019081526020016000205490508181101561104e576040517f08c379a0000000000000000000000000000000000000000000000000000000008152600401611045906120d6565b60405180910390fd5b818161105a91906122c3565b600760008673ffffffffffffffffffffffffffffffffffffffff1673ffffffffffffffffffffffffffffffffffffffff1681526020019081526020016000208190555081600760008573ffffffffffffffffffffffffffffffffffffffff1673ffffffffffffffffffffffffffffffffffffffff16815260200190815260200160002060008282546110ec9190612213565b925050819055508273ffffffffffffffffffffffffffffffffffffffff168473ffffffffffffffffffffffffffffffffffffffff167fddf252ad1be2c89b69c2b068fc378daa952ba7f163c4a11628f55a4df523b3ef8460405161115091906121b6565b60405180910390a350505050565b61116782610718565b61117881611173611452565b61145a565b6111828383611292565b505050565b61118f611452565b73ffffffffffffffffffffffffffffffffffffffff168173ffffffffffffffffffffffffffffffffffffffff16146111fc576040517f08c379a00000000000000000000000000000000000000000000000000000000081526004016111f390612196565b60405180910390fd5b61120682826114f7565b5050565b6000611232836000018373ffffffffffffffffffffffffffffffffffffffff1660001b6115d9565b905092915050565b60006112498360000183611757565b60001c905092915050565b6000611262826000016117f1565b9050919050565b61127282610718565b6112838161127e611452565b61145a565b61128d83836114f7565b505050565b61129c82826108bf565b61136f5760016005600084815260200190815260200160002060000160008373ffffffffffffffffffffffffffffffffffffffff1673ffffffffffffffffffffffffffffffffffffffff16815260200190815260200160002060006101000a81548160ff021916908315150217905550611314611452565b73ffffffffffffffffffffffffffffffffffffffff168173ffffffffffffffffffffffffffffffffffffffff16837f2f8788117e7eff1d82e926ec794901d17c78024a50270940304540a733656f0d60405160405180910390a45b5050565b600061137f8383611802565b6113d85782600001829080600181540180825580915050600190039060005260206000200160009091909190915055826000018054905083600101600084815260200190815260200160002081905550600190506113dd565b600090505b92915050565b60007f01ffc9a7000000000000000000000000000000000000000000000000000000007bffffffffffffffffffffffffffffffffffffffffffffffffffffffff1916827bffffffffffffffffffffffffffffffffffffffffffffffffffffffff1916149050919050565b505050565b600033905090565b61146482826108bf565b6114f3576114898173ffffffffffffffffffffffffffffffffffffffff166014611825565b6114978360001c6020611825565b6040516020016114a8929190611fa9565b6040516020818303038152906040526040517f08c379a00000000000000000000000000000000000000000000000000000000081526004016114ea9190612034565b60405180910390fd5b5050565b61150182826108bf565b156115d55760006005600084815260200190815260200160002060000160008373ffffffffffffffffffffffffffffffffffffffff1673ffffffffffffffffffffffffffffffffffffffff16815260200190815260200160002060006101000a81548160ff02191690831515021790555061157a611452565b73ffffffffffffffffffffffffffffffffffffffff168173ffffffffffffffffffffffffffffffffffffffff16837ff6391f5c32d9c69d2a47ea670b442974b53935d1edc7fd64eb21e047a839171b60405160405180910390a45b5050565b6000808360010160008481526020019081526020016000205490506000811461174b57600060018261160b91906122c3565b905060006001866000018054905061162391906122c3565b90506000866000018281548110611663577f4e487b7100000000000000000000000000000000000000000000000000000000600052603260045260246000fd5b90600052602060002001549050808760000184815481106116ad577f4e487b7100000000000000000000000000000000000000000000000000000000600052603260045260246000fd5b906000526020600020018190555083876001016000838152602001908152602001600020819055508660000180548061170f577f4e487b7100000000000000000000000000000000000000000000000000000000600052603160045260246000fd5b60019003818190600052602060002001600090559055866001016000878152602001908152602001600020600090556001945050505050611751565b60009150505b92915050565b6000818360000180549050116117a2576040517f08c379a000000000000000000000000000000000000000000000000000000000815260040161179990612056565b60405180910390fd5b8260000182815481106117de577f4e487b7100000000000000000000000000000000000000000000000000000000600052603260045260246000fd5b9060005260206000200154905092915050565b600081600001805490509050919050565b600080836001016000848152602001908152602001600020541415905092915050565b6060600060028360026118389190612269565b6118429190612213565b67ffffffffffffffff811115611881577f4e487b7100000000000000000000000000000000000000000000000000000000600052604160045260246000fd5b6040519080825280601f01601f1916602001820160405280156118b35781602001600182028036833780820191505090505b5090507f300000000000000000000000000000000000000000000000000000000000000081600081518110611911577f4e487b7100000000000000000000000000000000000000000000000000000000600052603260045260246000fd5b60200101907effffffffffffffffffffffffffffffffffffffffffffffffffffffffffffff1916908160001a9053507f78000000000000000000000000000000000000000000000000000000000000008160018151811061199b577f4e487b7100000000000000000000000000000000000000000000000000000000600052603260045260246000fd5b60200101907effffffffffffffffffffffffffffffffffffffffffffffffffffffffffffff1916908160001a905350600060018460026119db9190612269565b6119e59190612213565b90505b6001811115611ad1577f3031323334353637383961626364656600000000000000000000000000000000600f861660108110611a4d577f4e487b7100000000000000000000000000000000000000000000000000000000600052603260045260246000fd5b1a60f81b828281518110611a8a577f4e487b7100000000000000000000000000000000000000000000000000000000600052603260045260246000fd5b60200101907effffffffffffffffffffffffffffffffffffffffffffffffffffffffffffff1916908160001a905350600485901c945080611aca906123b5565b90506119e8565b5060008414611b15576040517f08c379a0000000000000000000000000000000000000000000000000000000008152600401611b0c90612076565b60405180910390fd5b8091505092915050565b600081359050611b2e81612811565b92915050565b600081359050611b4381612828565b92915050565b600081359050611b588161283f565b92915050565b600081359050611b6d81612856565b92915050565b600060208284031215611b8557600080fd5b6000611b9384828501611b1f565b91505092915050565b60008060408385031215611baf57600080fd5b6000611bbd85828601611b1f565b9250506020611bce85828601611b1f565b9150509250929050565b600080600060608486031215611bed57600080fd5b6000611bfb86828701611b1f565b9350506020611c0c86828701611b1f565b9250506040611c1d86828701611b5e565b9150509250925092565b60008060408385031215611c3a57600080fd5b6000611c4885828601611b1f565b9250506020611c5985828601611b5e565b9150509250929050565b600060208284031215611c7557600080fd5b6000611c8384828501611b34565b91505092915050565b60008060408385031215611c9f57600080fd5b6000611cad85828601611b34565b9250506020611cbe85828601611b1f565b9150509250929050565b60008060408385031215611cdb57600080fd5b6000611ce985828601611b34565b9250506020611cfa85828601611b5e565b9150509250929050565b600060208284031215611d1657600080fd5b6000611d2484828501611b49565b91505092915050565b611d36816122f7565b82525050565b611d4581612309565b82525050565b611d5481612315565b82525050565b6000611d65826121ec565b611d6f81856121f7565b9350611d7f818560208601612382565b611d888161246f565b840191505092915050565b6000611d9e826121ec565b611da88185612208565b9350611db8818560208601612382565b80840191505092915050565b6000611dd16022836121f7565b9150611ddc82612480565b604082019050919050565b6000611df46020836121f7565b9150611dff826124cf565b602082019050919050565b6000611e176023836121f7565b9150611e22826124f8565b604082019050919050565b6000611e3a6022836121f7565b9150611e4582612547565b604082019050919050565b6000611e5d6026836121f7565b9150611e6882612596565b604082019050919050565b6000611e806028836121f7565b9150611e8b826125e5565b604082019050919050565b6000611ea36025836121f7565b9150611eae82612634565b604082019050919050565b6000611ec66032836121f7565b9150611ed182612683565b604082019050919050565b6000611ee96024836121f7565b9150611ef4826126d2565b604082019050919050565b6000611f0c601783612208565b9150611f1782612721565b601782019050919050565b6000611f2f6025836121f7565b9150611f3a8261274a565b604082019050919050565b6000611f52601183612208565b9150611f5d82612799565b601182019050919050565b6000611f75602f836121f7565b9150611f80826127c2565b604082019050919050565b611f948161236b565b82525050565b611fa381612375565b82525050565b6000611fb482611eff565b9150611fc08285611d93565b9150611fcb82611f45565b9150611fd78284611d93565b91508190509392505050565b6000602082019050611ff86000830184611d2d565b92915050565b60006020820190506120136000830184611d3c565b92915050565b600060208201905061202e6000830184611d4b565b92915050565b6000602082019050818103600083015261204e8184611d5a565b905092915050565b6000602082019050818103600083015261206f81611dc4565b9050919050565b6000602082019050818103600083015261208f81611de7565b9050919050565b600060208201905081810360008301526120af81611e0a565b9050919050565b600060208201905081810360008301526120cf81611e2d565b9050919050565b600060208201905081810360008301526120ef81611e50565b9050919050565b6000602082019050818103600083015261210f81611e73565b9050919050565b6000602082019050818103600083015261212f81611e96565b9050919050565b6000602082019050818103600083015261214f81611eb9565b9050919050565b6000602082019050818103600083015261216f81611edc565b9050919050565b6000602082019050818103600083015261218f81611f22565b9050919050565b600060208201905081810360008301526121af81611f68565b9050919050565b60006020820190506121cb6000830184611f8b565b92915050565b60006020820190506121e66000830184611f9a565b92915050565b600081519050919050565b600082825260208201905092915050565b600081905092915050565b600061221e8261236b565b91506122298361236b565b9250827fffffffffffffffffffffffffffffffffffffffffffffffffffffffffffffffff0382111561225e5761225d612411565b5b828201905092915050565b60006122748261236b565b915061227f8361236b565b9250817fffffffffffffffffffffffffffffffffffffffffffffffffffffffffffffffff04831182151516156122b8576122b7612411565b5b828202905092915050565b60006122ce8261236b565b91506122d98361236b565b9250828210156122ec576122eb612411565b5b828203905092915050565b60006123028261234b565b9050919050565b60008115159050919050565b6000819050919050565b60007fffffffff0000000000000000000000000000000000000000000000000000000082169050919050565b600073ffffffffffffffffffffffffffffffffffffffff82169050919050565b6000819050919050565b600060ff82169050919050565b60005b838110156123a0578082015181840152602081019050612385565b838111156123af576000848401525b50505050565b60006123c08261236b565b915060008214156123d4576123d3612411565b5b600182039050919050565b600060028204905060018216806123f757607f821691505b6020821081141561240b5761240a612440565b5b50919050565b7f4e487b7100000000000000000000000000000000000000000000000000000000600052601160045260246000fd5b7f4e487b7100000000000000000000000000000000000000000000000000000000600052602260045260246000fd5b6000601f19601f8301169050919050565b7f456e756d657261626c655365743a20696e646578206f7574206f6620626f756e60008201527f6473000000000000000000000000000000000000000000000000000000000000602082015250565b7f537472696e67733a20686578206c656e67746820696e73756666696369656e74600082015250565b7f45524332303a207472616e7366657220746f20746865207a65726f206164647260008201527f6573730000000000000000000000000000000000000000000000000000000000602082015250565b7f45524332303a20617070726f766520746f20746865207a65726f20616464726560008201527f7373000000000000000000000000000000000000000000000000000000000000602082015250565b7f45524332303a207472616e7366657220616d6f756e742065786365656473206260008201527f616c616e63650000000000000000000000000000000000000000000000000000602082015250565b7f45524332303a207472616e7366657220616d6f756e742065786365656473206160008201527f6c6c6f77616e6365000000000000000000000000000000000000000000000000602082015250565b7f45524332303a207472616e736665722066726f6d20746865207a65726f20616460008201527f6472657373000000000000000000000000000000000000000000000000000000602082015250565b7f45524332303a206f6e6c79206d696e7465722063616e20616464206f7468657260008201527f20757365727320746f2074686520726f6c650000000000000000000000000000602082015250565b7f45524332303a20617070726f76652066726f6d20746865207a65726f2061646460008201527f7265737300000000000000000000000000000000000000000000000000000000602082015250565b7f416363657373436f6e74726f6c3a206163636f756e7420000000000000000000600082015250565b7f45524332303a2064656372656173656420616c6c6f77616e63652062656c6f7760008201527f207a65726f000000000000000000000000000000000000000000000000000000602082015250565b7f206973206d697373696e6720726f6c6520000000000000000000000000000000600082015250565b7f416363657373436f6e74726f6c3a2063616e206f6e6c792072656e6f756e636560008201527f20726f6c657320666f722073656c660000000000000000000000000000000000602082015250565b61281a816122f7565b811461282557600080fd5b50565b61283181612315565b811461283c57600080fd5b50565b6128488161231f565b811461285357600080fd5b50565b61285f8161236b565b811461286a57600080fd5b5056fea2646970667358221220cb88794e424105a7fcc87078c66e597f32ce0770b6ad14845de8ee3e58e638f064736f6c63430008030033",
  "immutableReferences": {},
  "source": "pragma solidity ^0.8.3;\r\n\r\nimport \"@openzeppelin/contracts/token/ERC20/ERC20.sol\";\r\nimport \"@openzeppelin/contracts/token/ERC20/extensions/IERC20Metadata.sol\";\r\nimport \"@openzeppelin/contracts/access/AccessControlEnumerable.sol\";\r\n\r\ninterface tokenReceipient {\r\n    function receiveApproval(address _from, uint256 _value, address _token, bytes calldata _extraData) external; \r\n}\r\n\r\ncontract EtherEmpireTokenMain is ERC20, AccessControlEnumerable  {\r\n    bytes32 public constant MINTER_ROLE = keccak256(\"MINTER_ROLE\");\r\n    bytes32 public constant MINTER_ROLE_ADMIN = keccak256(\"MINTER_ROLE_ADMIN\");\r\n\r\n    mapping (address => uint256) private _balances;\r\n\r\n    mapping (address => mapping (address => uint256)) private _allowances;\r\n\r\n    uint256 private _totalSupply;\r\n\r\n    string private _name;\r\n    string private _symbol;\r\n\r\n\r\n    constructor ()  ERC20(\"Empire Token\", \"EMP\") AccessControlEnumerable() {\r\n        // This allows contract deployer to grant minting access to SKALE's IMA \r\n        _setupRole(MINTER_ROLE, msg.sender);\r\n        _setupRole(MINTER_ROLE_ADMIN, msg.sender);\r\n        _setRoleAdmin(MINTER_ROLE, MINTER_ROLE_ADMIN); \r\n\r\n        // Initial supply only minted on mainnet contract \r\n        _totalSupply = 1000000000; // 32 bits \r\n        _mint(msg.sender, _totalSupply);\r\n\r\n        emit Transfer(address(0), msg.sender, _totalSupply);\r\n    }\r\n\r\n    function name() public view virtual override returns (string memory) {\r\n        return _name;\r\n    }\r\n\r\n    function symbol() public view virtual override returns (string memory) {\r\n        return _symbol;\r\n    }\r\n\r\n    function decimals() public view virtual override returns (uint8) {\r\n        return 3;\r\n    }\r\n\r\n    function totalSupply() public view virtual override returns (uint256) {\r\n        return _totalSupply;\r\n    }\r\n\r\n\r\n    function balanceOf(address account) public view virtual override returns (uint256) {\r\n        return _balances[account];\r\n    }\r\n\r\n    function transfer(address recipient, uint256 amount) public virtual override returns (bool) {\r\n        _transfer(msg.sender, recipient, amount);\r\n        return true;\r\n    }\r\n\r\n    function allowance(address owner, address spender) public view virtual override returns (uint256) {\r\n        return _allowances[owner][spender];\r\n    }\r\n\r\n    function approve(address spender, uint256 amount) public virtual override returns (bool) {\r\n        _approve(msg.sender, spender, amount);\r\n        return true;\r\n    }\r\n\r\n    function transferFrom(address sender, address recipient, uint256 amount) public virtual override returns (bool) {\r\n        _transfer(sender, recipient, amount);\r\n\r\n        uint256 currentAllowance = _allowances[sender][msg.sender];\r\n        require(currentAllowance >= amount, \"ERC20: transfer amount exceeds allowance\");\r\n        _approve(sender, msg.sender, currentAllowance - amount);\r\n\r\n        return true;\r\n    }\r\n\r\n    function increaseAllowance(address spender, uint256 addedValue) public override returns (bool) {\r\n        _approve(msg.sender, spender, _allowances[msg.sender][spender] + addedValue);\r\n        return true;\r\n    }\r\n\r\n    function decreaseAllowance(address spender, uint256 subtractedValue) public override returns (bool) {\r\n        uint256 currentAllowance = _allowances[msg.sender][spender];\r\n        require(currentAllowance >= subtractedValue, \"ERC20: decreased allowance below zero\");\r\n        _approve(msg.sender, spender, currentAllowance - subtractedValue);\r\n\r\n        return true;\r\n    }\r\n\r\n    function _transfer(address sender, address recipient, uint256 amount) internal override {\r\n        require(sender != address(0), \"ERC20: transfer from the zero address\");\r\n        require(recipient != address(0), \"ERC20: transfer to the zero address\");\r\n\r\n        _beforeTokenTransfer(sender, recipient, amount);\r\n\r\n        uint256 senderBalance = _balances[sender];\r\n        require(senderBalance >= amount, \"ERC20: transfer amount exceeds balance\");\r\n        _balances[sender] = senderBalance - amount;\r\n        _balances[recipient] += amount;\r\n\r\n        emit Transfer(sender, recipient, amount);\r\n    }\r\n\r\n    function _mint(address account, uint256 amount) internal override {\r\n        require(hasRole(MINTER_ROLE, msg.sender), \"ERC20: must have minter role to burn\");\r\n        require(account != address(0), \"ERC20: mint to the zero address\");\r\n\r\n        _beforeTokenTransfer(address(0), account, amount);\r\n\r\n        _totalSupply += amount;\r\n        _balances[account] += amount;\r\n        emit Transfer(address(0), account, amount);\r\n    }\r\n\r\n    function _burn(address account, uint256 amount) internal override {\r\n        require(hasRole(MINTER_ROLE, msg.sender), \"ERC20: must have minter role to burn\");\r\n        require(account != address(0), \"ERC20: burn from the zero address\");\r\n\r\n        _beforeTokenTransfer(account, address(0), amount);\r\n\r\n        uint256 accountBalance = _balances[account];\r\n        require(accountBalance >= amount, \"ERC20: burn amount exceeds balance\");\r\n        _balances[account] = accountBalance - amount;\r\n        _totalSupply -= amount;\r\n\r\n        emit Transfer(account, address(0), amount);\r\n    }\r\n\r\n    function _approve(address owner, address spender, uint256 amount) internal override {\r\n        require(owner != address(0), \"ERC20: approve from the zero address\");\r\n        require(spender != address(0), \"ERC20: approve to the zero address\");\r\n\r\n        _allowances[owner][spender] = amount;\r\n        emit Approval(owner, spender, amount);\r\n    }\r\n\r\n    // Addition to integrate with SKALE \r\n\r\n    function addMinter(address account) public {\r\n        require(hasRole(MINTER_ROLE, msg.sender), \"ERC20: only minter can add other users to the role\");\r\n        grantRole(MINTER_ROLE, account);\r\n    }\r\n\r\n\r\n}\r\n",
  "sourcePath": "C:/Users/Kuan/Documents/GitHub/ether-empire/contracts/EtherEmpireToken_mainnet.sol",
  "compiler": {
    "name": "solc",
    "version": "0.8.3+commit.8d00100c.Emscripten.clang"
  },
  "schemaVersion": "3.3.4",
  "updatedAt": "2021-05-25T01:47:42.707Z",
  "networkType": "ethereum",
  "devdoc": {
    "kind": "dev",
    "methods": {
      "allowance(address,address)": {
        "details": "See {IERC20-allowance}."
      },
      "approve(address,uint256)": {
        "details": "See {IERC20-approve}. Requirements: - `spender` cannot be the zero address."
      },
      "balanceOf(address)": {
        "details": "See {IERC20-balanceOf}."
      },
      "decimals()": {
        "details": "Returns the number of decimals used to get its user representation. For example, if `decimals` equals `2`, a balance of `505` tokens should be displayed to a user as `5,05` (`505 / 10 ** 2`). Tokens usually opt for a value of 18, imitating the relationship between Ether and Wei. This is the value {ERC20} uses, unless this function is overridden; NOTE: This information is only used for _display_ purposes: it in no way affects any of the arithmetic of the contract, including {IERC20-balanceOf} and {IERC20-transfer}."
      },
      "decreaseAllowance(address,uint256)": {
        "details": "Atomically decreases the allowance granted to `spender` by the caller. This is an alternative to {approve} that can be used as a mitigation for problems described in {IERC20-approve}. Emits an {Approval} event indicating the updated allowance. Requirements: - `spender` cannot be the zero address. - `spender` must have allowance for the caller of at least `subtractedValue`."
      },
      "getRoleAdmin(bytes32)": {
        "details": "Returns the admin role that controls `role`. See {grantRole} and {revokeRole}. To change a role's admin, use {_setRoleAdmin}."
      },
      "getRoleMember(bytes32,uint256)": {
        "details": "Returns one of the accounts that have `role`. `index` must be a value between 0 and {getRoleMemberCount}, non-inclusive. Role bearers are not sorted in any particular way, and their ordering may change at any point. WARNING: When using {getRoleMember} and {getRoleMemberCount}, make sure you perform all queries on the same block. See the following https://forum.openzeppelin.com/t/iterating-over-elements-on-enumerableset-in-openzeppelin-contracts/2296[forum post] for more information."
      },
      "getRoleMemberCount(bytes32)": {
        "details": "Returns the number of accounts that have `role`. Can be used together with {getRoleMember} to enumerate all bearers of a role."
      },
      "grantRole(bytes32,address)": {
        "details": "Overload {grantRole} to track enumerable memberships"
      },
      "hasRole(bytes32,address)": {
        "details": "Returns `true` if `account` has been granted `role`."
      },
      "increaseAllowance(address,uint256)": {
        "details": "Atomically increases the allowance granted to `spender` by the caller. This is an alternative to {approve} that can be used as a mitigation for problems described in {IERC20-approve}. Emits an {Approval} event indicating the updated allowance. Requirements: - `spender` cannot be the zero address."
      },
      "name()": {
        "details": "Returns the name of the token."
      },
      "renounceRole(bytes32,address)": {
        "details": "Overload {renounceRole} to track enumerable memberships"
      },
      "revokeRole(bytes32,address)": {
        "details": "Overload {revokeRole} to track enumerable memberships"
      },
      "supportsInterface(bytes4)": {
        "details": "See {IERC165-supportsInterface}."
      },
      "symbol()": {
        "details": "Returns the symbol of the token, usually a shorter version of the name."
      },
      "totalSupply()": {
        "details": "See {IERC20-totalSupply}."
      },
      "transfer(address,uint256)": {
        "details": "See {IERC20-transfer}. Requirements: - `recipient` cannot be the zero address. - the caller must have a balance of at least `amount`."
      },
      "transferFrom(address,address,uint256)": {
        "details": "See {IERC20-transferFrom}. Emits an {Approval} event indicating the updated allowance. This is not required by the EIP. See the note at the beginning of {ERC20}. Requirements: - `sender` and `recipient` cannot be the zero address. - `sender` must have a balance of at least `amount`. - the caller must have allowance for ``sender``'s tokens of at least `amount`."
      }
    },
    "version": 1
  },
  "userdoc": {
    "kind": "user",
    "methods": {},
    "version": 1
  }
}