{
  "contractName": "FixedPoint",
  "abi": [
    {
      "inputs": [],
      "name": "Q112",
      "outputs": [
        {
          "internalType": "uint256",
          "name": "",
          "type": "uint256"
        }
      ],
      "stateMutability": "view",
      "type": "function"
    },
    {
      "inputs": [],
      "name": "RESOLUTION",
      "outputs": [
        {
          "internalType": "uint8",
          "name": "",
          "type": "uint8"
        }
      ],
      "stateMutability": "view",
      "type": "function"
    }
  ],
  "bytecode": "0x610127610053600b82828239805160001a607314610046577f4e487b7100000000000000000000000000000000000000000000000000000000600052600060045260246000fd5b30600052607381538281f3fe7300000000000000000000000000000000000000003014608060405260043610603d5760003560e01c80633bf7a83e146042578063552f888a14605c575b600080fd5b60486076565b6040516053919060a8565b60405180910390f35b60626089565b604051606d919060c1565b60405180910390f35b6e01000000000000000000000000000081565b607081565b60958160da565b82525050565b60a28160e4565b82525050565b600060208201905060bb6000830184608e565b92915050565b600060208201905060d46000830184609b565b92915050565b6000819050919050565b600060ff8216905091905056fea2646970667358221220c7abd8c97295c2738b68dc442c0d9199c6638b667d77c3429238cc3e354c22c364736f6c63430008030033",
  "immutableReferences": {},
  "source": "// SPDX-License-Identifier: GPL-3.0-or-later\r\npragma solidity >=0.4.0;\r\n\r\nimport './FullMath.sol';\r\nimport './Babylonian.sol';\r\nimport './BitMath.sol';\r\n\r\n// a library for handling binary fixed point numbers (https://en.wikipedia.org/wiki/Q_(number_format))\r\nlibrary FixedPoint {\r\n    // range: [0, 2**112 - 1]\r\n    // resolution: 1 / 2**112\r\n    struct uq112x112 {\r\n        uint224 _x;\r\n    }\r\n\r\n    // range: [0, 2**144 - 1]\r\n    // resolution: 1 / 2**112\r\n    struct uq144x112 {\r\n        uint256 _x;\r\n    }\r\n\r\n    uint8 public constant RESOLUTION = 112;\r\n    uint256 public constant Q112 = 0x10000000000000000000000000000; // 2**112\r\n    uint256 private constant Q224 = 0x100000000000000000000000000000000000000000000000000000000; // 2**224\r\n    uint256 private constant LOWER_MASK = 0xffffffffffffffffffffffffffff; // decimal of UQ*x112 (lower 112 bits)\r\n\r\n    // encode a uint112 as a UQ112x112\r\n    function encode(uint112 x) internal pure returns (uq112x112 memory) {\r\n        return uq112x112(uint224(x) << RESOLUTION);\r\n    }\r\n\r\n    // encodes a uint144 as a UQ144x112\r\n    function encode144(uint144 x) internal pure returns (uq144x112 memory) {\r\n        return uq144x112(uint256(x) << RESOLUTION);\r\n    }\r\n\r\n    // decode a UQ112x112 into a uint112 by truncating after the radix point\r\n    function decode(uq112x112 memory self) internal pure returns (uint112) {\r\n        return uint112(self._x >> RESOLUTION);\r\n    }\r\n\r\n    // decode a UQ144x112 into a uint144 by truncating after the radix point\r\n    function decode144(uq144x112 memory self) internal pure returns (uint144) {\r\n        return uint144(self._x >> RESOLUTION);\r\n    }\r\n\r\n    function add(uq112x112 memory self, uq112x112 memory y) internal pure returns (uq112x112 memory) {\r\n        return uq112x112(self._x + y._x);\r\n    }\r\n\r\n    function sub(uq112x112 memory self, uq112x112 memory y) internal pure returns (uq112x112 memory) {\r\n        return uq112x112(self._x - y._x);\r\n    }\r\n\r\n    function add144(uq144x112 memory self, uq144x112 memory y) internal pure returns (uq144x112 memory) {\r\n        return uq144x112(self._x + y._x);\r\n    }\r\n\r\n    function sub144(uq144x112 memory self, uq144x112 memory y) internal pure returns (uq144x112 memory) {\r\n        return uq144x112(self._x - y._x);\r\n    }\r\n\r\n    // multiply a UQ112x112 by a uint, returning a UQ144x112\r\n    // reverts on overflow\r\n    function mul(uq112x112 memory self, uint256 y) internal pure returns (uq144x112 memory) {\r\n        uint256 z = 0;\r\n        require(y == 0 || (z = self._x * y) / y == self._x, 'FixedPoint::mul: overflow');\r\n        return uq144x112(z);\r\n    }\r\n\r\n    // multiply a UQ112x112 by an int and decode, returning an int\r\n    // reverts on overflow\r\n    function muli(uq112x112 memory self, int256 y) internal pure returns (int256) {\r\n        uint256 z = FullMath.mulDiv(self._x, uint256(y < 0 ? -y : y), Q112);\r\n        require(z < 2**255, 'FixedPoint::muli: overflow');\r\n        return y < 0 ? -int256(z) : int256(z);\r\n    }\r\n\r\n    // multiply a UQ112x112 by a UQ112x112, returning a UQ112x112\r\n    // lossy\r\n    function muluq(uq112x112 memory self, uq112x112 memory other) internal pure returns (uq112x112 memory) {\r\n        if (self._x == 0 || other._x == 0) {\r\n            return uq112x112(0);\r\n        }\r\n        uint112 upper_self = uint112(self._x >> RESOLUTION); // * 2^0\r\n        uint112 lower_self = uint112(self._x & LOWER_MASK); // * 2^-112\r\n        uint112 upper_other = uint112(other._x >> RESOLUTION); // * 2^0\r\n        uint112 lower_other = uint112(other._x & LOWER_MASK); // * 2^-112\r\n\r\n        // partial products\r\n        uint224 upper = uint224(upper_self) * upper_other; // * 2^0\r\n        uint224 lower = uint224(lower_self) * lower_other; // * 2^-224\r\n        uint224 uppers_lowero = uint224(upper_self) * lower_other; // * 2^-112\r\n        uint224 uppero_lowers = uint224(upper_other) * lower_self; // * 2^-112\r\n\r\n        // so the bit shift does not overflow\r\n        require(upper <= uint112(2**112-1), 'FixedPoint::muluq: upper overflow');\r\n\r\n        // this cannot exceed 256 bits, all values are 224 bits\r\n        uint256 sum = uint256(upper << RESOLUTION) + uppers_lowero + uppero_lowers + (lower >> RESOLUTION);\r\n\r\n        // so the cast does not overflow\r\n        require(sum <= uint224(2**224-1), 'FixedPoint::muluq: sum overflow');\r\n\r\n        return uq112x112(uint224(sum));\r\n    }\r\n\r\n    // divide a UQ112x112 by a UQ112x112, returning a UQ112x112\r\n    function divuq(uq112x112 memory self, uq112x112 memory other) internal pure returns (uq112x112 memory) {\r\n        require(other._x > 0, 'FixedPoint::divuq: division by zero');\r\n        if (self._x == other._x) {\r\n            return uq112x112(uint224(Q112));\r\n        }\r\n        if (self._x <= uint144(2**144-1)) {\r\n            uint256 value = (uint256(self._x) << RESOLUTION) / other._x;\r\n            require(value <= uint224(2**224-1), 'FixedPoint::divuq: overflow');\r\n            return uq112x112(uint224(value));\r\n        }\r\n\r\n        uint256 result = FullMath.mulDiv(Q112, self._x, other._x);\r\n        require(result <= uint224(2**224-1), 'FixedPoint::divuq: overflow');\r\n        return uq112x112(uint224(result));\r\n    }\r\n\r\n    // returns a UQ112x112 which represents the ratio of the numerator to the denominator\r\n    // can be lossy\r\n    function fraction(uint256 numerator, uint256 denominator) internal pure returns (uq112x112 memory) {\r\n        require(denominator > 0, 'FixedPoint::fraction: division by zero');\r\n        if (numerator == 0) return FixedPoint.uq112x112(0);\r\n\r\n        if (numerator <= uint144(2**144-1)) {\r\n            uint256 result = (numerator << RESOLUTION) / denominator;\r\n            require(result <= uint224(2**224-1), 'FixedPoint::fraction: overflow');\r\n            return uq112x112(uint224(result));\r\n        } else {\r\n            uint256 result = FullMath.mulDiv(numerator, Q112, denominator);\r\n            require(result <= uint224(2**224-1), 'FixedPoint::fraction: overflow');\r\n            return uq112x112(uint224(result));\r\n        }\r\n    }\r\n\r\n    // take the reciprocal of a UQ112x112\r\n    // reverts on overflow\r\n    // lossy\r\n    function reciprocal(uq112x112 memory self) internal pure returns (uq112x112 memory) {\r\n        require(self._x != 0, 'FixedPoint::reciprocal: reciprocal of zero');\r\n        require(self._x != 1, 'FixedPoint::reciprocal: overflow');\r\n        return uq112x112(uint224(Q224 / self._x));\r\n    }\r\n\r\n    // square root of a UQ112x112\r\n    // lossy between 0/1 and 40 bits\r\n    function sqrt(uq112x112 memory self) internal pure returns (uq112x112 memory) {\r\n        if (self._x <= uint144(2**144-1)) {\r\n            return uq112x112(uint224(Babylonian.sqrt(uint256(self._x) << 112)));\r\n        }\r\n\r\n        uint8 safeShiftBits = 255 - BitMath.mostSignificantBit(self._x);\r\n        safeShiftBits -= safeShiftBits % 2;\r\n        return uq112x112(uint224(Babylonian.sqrt(uint256(self._x) << safeShiftBits) << ((112 - safeShiftBits) / 2)));\r\n    }\r\n}",
  "sourcePath": "C:/Users/Daniel/Desktop/Coding Projects/ether-empire/contracts/libraries/FixedPoint.sol",
  "compiler": {
    "name": "solc",
    "version": "0.8.3+commit.8d00100c.Emscripten.clang"
  },
  "schemaVersion": "3.3.4",
  "updatedAt": "2021-04-26T04:42:36.180Z",
  "devdoc": {
    "kind": "dev",
    "methods": {},
    "version": 1
  },
  "userdoc": {
    "kind": "user",
    "methods": {},
    "version": 1
  }
}