{
  "contractName": "FixedPoint",
  "abi": [
    {
      "inputs": [
        {
          "internalType": "int256",
          "name": "x",
          "type": "int256"
        }
      ],
      "name": "abs",
      "outputs": [
        {
          "internalType": "int256",
          "name": "",
          "type": "int256"
        }
      ],
      "stateMutability": "pure",
      "type": "function"
    }
  ],
  "bytecode": "0x6101c3610053600b82828239805160001a607314610046577f4e487b7100000000000000000000000000000000000000000000000000000000600052600060045260246000fd5b30600052607381538281f3fe73000000000000000000000000000000000000000030146080604052600436106100355760003560e01c80631b5ac4b51461003a575b600080fd5b610054600480360381019061004f91906100a1565b61006a565b60405161006191906100d9565b60405180910390f35b600080821215610083578161007e906100fe565b610085565b815b9050919050565b60008135905061009b81610176565b92915050565b6000602082840312156100b357600080fd5b60006100c18482850161008c565b91505092915050565b6100d3816100f4565b82525050565b60006020820190506100ee60008301846100ca565b92915050565b6000819050919050565b6000610109826100f4565b91507f800000000000000000000000000000000000000000000000000000000000000082141561013c5761013b610147565b5b816000039050919050565b7f4e487b7100000000000000000000000000000000000000000000000000000000600052601160045260246000fd5b61017f816100f4565b811461018a57600080fd5b5056fea26469706673582212209ab6fe2f078eeb98b74d02861dcba6e07f92da3b4b51745dbacc3758401b150f64736f6c63430008030033",
  "immutableReferences": {},
  "source": "// SPDX-License-Identifier: GPL-3.0-or-later\npragma solidity >=0.4.0;\n\nimport './BitMath.sol';\nimport './SafeMath.sol';\nimport './Babylonian.sol'; \n\n// Library to allow for fixed point numbers of variable sizes \nlibrary FixedPoint {\n\n    function abs(int x) public pure returns (int) {\n        return x >= 0 ? x : -x;\n    }\n    // [0, 2**range - 1],  for stepsize of 1 / 2**resolution. total size = range+resolution. Lossy, permits cutting off lower digit, but throws error if upper digit overflows \n    // require range1 + range2 <= 255\n    function multiply(uint num1, uint num2, uint res1, uint res2, uint range_out, uint res_out) internal pure returns(uint) {\n        if (num1 == 0 || num2 == 0) {\n            return 0;\n        }\n        uint upper_self = num1 >> res1; // * 2^0\n        uint lower_self = num1 - (upper_self << res1); // * 2^-res1\n        uint upper_other = num2 >> res2; // * 2^0\n        uint lower_other = num2 - (upper_other << res2); // * 2^-res2\n\n        // partial products\n        uint upper = upper_self * upper_other; // * 2^0\n        uint lower = lower_self * lower_other; // * 2^-(res1+res2)\n        uint uppers_lowero = upper_self * lower_other; // * 2^-res2\n        uint uppero_lowers = upper_other * lower_self; // * 2^-res1\n\n        // so the bit shift does not overflow\n        require(upper <= 2**range_out - 1, 'FixedPoint::muluq: upper overflow');\n\n        // lowest unit is 2**-res_out\n        uint sum = upper << res_out;\n        \n        if (res_out >= res1 + res2) {\n            sum += (uppers_lowero << res_out - res2) + (uppero_lowers << res_out - res1) + (lower << res_out - res1 - res2);\n        } else {\n            sum += lower >> res1 + res2 - res_out;\n\n            if (res_out >= res1) {\n                sum += uppero_lowers << res_out - res1;\n            } else {\n                sum += uppero_lowers >> res1 - res_out;\n            }\n\n            if (res_out >= res2) {\n                sum += uppers_lowero << res_out - res2;\n            } else {\n                sum += uppers_lowero >> res2 - res_out;\n            }\n        }\n\n        return sum;\n    }\n\n    function divide(uint num1, uint num2, uint res1, uint res2, uint range_out, uint res_out) internal pure returns (uint) {\n        require(num2 > 0, 'FixedPoint::divuq: division by zero');\n        uint max_shift = 255 - BitMath.mostSignificantBit(num1);\n        uint value = (num1 << max_shift) / num2; // 2**-(res1 + max_shift - res2)\n        int left_shifts = int(res_out + res2) - int(res1 + max_shift);\n    \n        \n        if (left_shifts < 0) {\n            return value >> uint(-left_shifts);\n        } else {\n            uint z = 0;\n            require((z = value << uint(left_shifts)) >> uint(left_shifts) == value, 'FixedPoint::divide: overflow');\n            require(z <= uint(2**(range_out+res_out)-1), 'FixedPoint::divide: overflow');\n            return z;\n        }\n\n    }\n\n    function encode(uint num, uint res_in, uint res_out) internal pure returns (uint) {\n        if (res_out <= res_in) {\n            return num >> res_in - res_out;\n        }\n\n        uint z = 0;\n        require((z = num << res_out - res_in) >> res_out - res_in == num, 'FixedPoint::encode: overflow');\n        return z;\n    }\n\n    function add(uint num1, uint num2, uint res1, uint res2, uint range_out) internal pure returns (uint) {\n        return SafeMath.safeAdd(num1, encode(num2, res1, res2), res1+range_out);\n    }\n\n    function addSigned(int num1, int num2, uint res1, uint res2, uint range_out) internal pure returns (int) {\n        uint abs_num1 = uint(abs(num1));\n        uint abs_num2 = uint(abs(num2));\n\n        if (num1 >= 0 && num2 >= 0)\n        {\n            return int(SafeMath.safeAdd(abs_num1, encode(abs_num2, res1, res2), res1+range_out));\n        } else if ((num1 >= 0 && num2 <= 0) || (num1 <= 0 && num2 >= 0))\n        {\n            if (abs_num1 >= abs_num2) \n            return int(SafeMath.safeSub(abs_num1, encode(abs_num2, res1, res2), res1+range_out));\n            else \n            return -1 *  int(SafeMath.safeSub(abs_num2, encode(abs_num1, res1, res2), res1+range_out));\n        } else {\n            return -1 * int(SafeMath.safeAdd(abs_num1, encode(abs_num2, res1, res2), res1+range_out));\n        }\n        \n    }\n\n    function sub(uint num1, uint num2, uint res1, uint res2, uint range_out) internal pure returns (uint) {\n        return SafeMath.safeSub(num1, encode(num2, res1, res2), res1+range_out);\n    }\n\n    function sqrt(uint num, uint res_in, uint res_out) internal pure returns (uint) {\n        uint max_shift = 255 - BitMath.mostSignificantBit(num);\n        max_shift = max_shift - (max_shift+res_in) % 2;\n        int unshift = int(max_shift + res_in)/2 - int(res_out);\n        if (unshift >= 0)\n        {\n            return Babylonian.sqrt(num << max_shift) >> uint(unshift);\n        } else {\n            return Babylonian.sqrt(num << max_shift) << uint(-unshift);\n        }\n        \n    }\n    \n \n}\n\n// library FixedPoint {\n//     // range: [0, 2**112 - 1]\n//     // resolution: 1 / 2**112\n//     struct uq112x112 {\n//         uint224 _x;\n//     }\n\n//     // range: [0, 2**144 - 1]\n//     // resolution: 1 / 2**112\n//     struct uq144x112 {\n//         uint256 _x;\n//     }\n\n//     uint8 public constant RESOLUTION = 112;\n//     uint256 public constant Q112 = 0x10000000000000000000000000000; // 2**112\n//     uint256 private constant Q224 = 0x100000000000000000000000000000000000000000000000000000000; // 2**224\n//     uint256 private constant LOWER_MASK = 0xffffffffffffffffffffffffffff; // decimal of UQ*x112 (lower 112 bits)\n\n//     // encode a uint112 as a UQ112x112\n//     function encode(uint112 x) internal pure returns (uq112x112 memory) {\n//         return uq112x112(uint224(x) << RESOLUTION);\n//     }\n\n//     // encodes a uint144 as a UQ144x112\n//     function encode144(uint144 x) internal pure returns (uq144x112 memory) {\n//         return uq144x112(uint256(x) << RESOLUTION);\n//     }\n\n//     // decode a UQ112x112 into a uint112 by truncating after the radix point\n//     function decode(uq112x112 memory self) internal pure returns (uint112) {\n//         return uint112(self._x >> RESOLUTION);\n//     }\n\n//     // decode a UQ144x112 into a uint144 by truncating after the radix point\n//     function decode144(uq144x112 memory self) internal pure returns (uint144) {\n//         return uint144(self._x >> RESOLUTION);\n//     }\n\n//     function add(uq112x112 memory self, uq112x112 memory y) internal pure returns (uq112x112 memory) {\n//         return uq112x112(self._x + y._x);\n//     }\n\n//     function sub(uq112x112 memory self, uq112x112 memory y) internal pure returns (uq112x112 memory) {\n//         return uq112x112(self._x - y._x);\n//     }\n\n//     function add144(uq144x112 memory self, uq144x112 memory y) internal pure returns (uq144x112 memory) {\n//         return uq144x112(self._x + y._x);\n//     }\n\n//     function sub144(uq144x112 memory self, uq144x112 memory y) internal pure returns (uq144x112 memory) {\n//         return uq144x112(self._x - y._x);\n//     }\n\n//     // multiply a UQ112x112 by a uint, returning a UQ144x112\n//     // reverts on overflow\n//     function mul(uq112x112 memory self, uint256 y) internal pure returns (uq144x112 memory) {\n//         uint256 z = 0;\n//         require(y == 0 || (z = self._x * y) / y == self._x, 'FixedPoint::mul: overflow');\n//         return uq144x112(z);\n//     }\n\n//     // multiply a UQ112x112 by an int and decode, returning an int\n//     // reverts on overflow\n//     function muli(uq112x112 memory self, int256 y) internal pure returns (int256) {\n//         uint256 z = FullMath.mulDiv(self._x, uint256(y < 0 ? -y : y), Q112);\n//         require(z < 2**255, 'FixedPoint::muli: overflow');\n//         return y < 0 ? -int256(z) : int256(z);\n//     }\n\n//     // multiply a UQ112x112 by a UQ112x112, returning a UQ112x112\n//     // lossy\n//     function muluq(uq112x112 memory self, uq112x112 memory other) internal pure returns (uq112x112 memory) {\n//         if (self._x == 0 || other._x == 0) {\n//             return uq112x112(0);\n//         }\n//         uint112 upper_self = uint112(self._x >> RESOLUTION); // * 2^0\n//         uint112 lower_self = uint112(self._x & LOWER_MASK); // * 2^-112\n//         uint112 upper_other = uint112(other._x >> RESOLUTION); // * 2^0\n//         uint112 lower_other = uint112(other._x & LOWER_MASK); // * 2^-112\n\n//         // partial products\n//         uint224 upper = uint224(upper_self) * upper_other; // * 2^0\n//         uint224 lower = uint224(lower_self) * lower_other; // * 2^-224\n//         uint224 uppers_lowero = uint224(upper_self) * lower_other; // * 2^-112\n//         uint224 uppero_lowers = uint224(upper_other) * lower_self; // * 2^-112\n\n//         // so the bit shift does not overflow\n//         require(upper <= uint112(2**112-1), 'FixedPoint::muluq: upper overflow');\n\n//         // this cannot exceed 256 bits, all values are 224 bits\n//         uint256 sum = uint256(upper << RESOLUTION) + uppers_lowero + uppero_lowers + (lower >> RESOLUTION);\n\n//         // so the cast does not overflow\n//         require(sum <= uint224(2**224-1), 'FixedPoint::muluq: sum overflow');\n\n//         return uq112x112(uint224(sum));\n//     }\n\n//     // divide a UQ112x112 by a UQ112x112, returning a UQ112x112\n//     function divuq(uq112x112 memory self, uq112x112 memory other) internal pure returns (uq112x112 memory) {\n//         require(other._x > 0, 'FixedPoint::divuq: division by zero');\n//         if (self._x == other._x) {\n//             return uq112x112(uint224(Q112));\n//         }\n//         if (self._x <= uint144(2**144-1)) {\n//             uint256 value = (uint256(self._x) << RESOLUTION) / other._x;\n//             require(value <= uint224(2**224-1), 'FixedPoint::divuq: overflow');\n//             return uq112x112(uint224(value));\n//         }\n\n//         uint256 result = FullMath.mulDiv(Q112, self._x, other._x);\n//         require(result <= uint224(2**224-1), 'FixedPoint::divuq: overflow');\n//         return uq112x112(uint224(result));\n//     }\n\n//     // returns a UQ112x112 which represents the ratio of the numerator to the denominator\n//     // can be lossy\n//     function fraction(uint256 numerator, uint256 denominator) internal pure returns (uq112x112 memory) {\n//         require(denominator > 0, 'FixedPoint::fraction: division by zero');\n//         if (numerator == 0) return FixedPoint.uq112x112(0);\n\n//         if (numerator <= uint144(2**144-1)) {\n//             uint256 result = (numerator << RESOLUTION) / denominator;\n//             require(result <= uint224(2**224-1), 'FixedPoint::fraction: overflow');\n//             return uq112x112(uint224(result));\n//         } else {\n//             uint256 result = FullMath.mulDiv(numerator, Q112, denominator);\n//             require(result <= uint224(2**224-1), 'FixedPoint::fraction: overflow');\n//             return uq112x112(uint224(result));\n//         }\n//     }\n\n//     // take the reciprocal of a UQ112x112\n//     // reverts on overflow\n//     // lossy\n//     function reciprocal(uq112x112 memory self) internal pure returns (uq112x112 memory) {\n//         require(self._x != 0, 'FixedPoint::reciprocal: reciprocal of zero');\n//         require(self._x != 1, 'FixedPoint::reciprocal: overflow');\n//         return uq112x112(uint224(Q224 / self._x));\n//     }\n\n//     // square root of a UQ112x112\n//     // lossy between 0/1 and 40 bits\n//     function sqrt(uq112x112 memory self) internal pure returns (uq112x112 memory) {\n//         if (self._x <= uint144(2**144-1)) {\n//             return uq112x112(uint224(Babylonian.sqrt(uint256(self._x) << 112)));\n//         }\n\n//         uint8 safeShiftBits = 255 - BitMath.mostSignificantBit(self._x);\n//         safeShiftBits -= safeShiftBits % 2;\n//         return uq112x112(uint224(Babylonian.sqrt(uint256(self._x) << safeShiftBits) << ((112 - safeShiftBits) / 2)));\n//     }\n// }",
  "sourcePath": "/Users/jacky/Personal-Projects/ether-empire/contracts/libraries/FixedPoint.sol",
  "compiler": {
    "name": "solc",
    "version": "0.8.3+commit.8d00100c.Emscripten.clang"
  },
  "schemaVersion": "3.3.4",
  "updatedAt": "2021-05-11T19:27:52.452Z",
  "devdoc": {
    "kind": "dev",
    "methods": {},
    "version": 1
  },
  "userdoc": {
    "kind": "user",
    "methods": {},
    "version": 1
  }
}