{
  "contractName": "GameWorld",
  "abi": [
    {
      "inputs": [
        {
          "internalType": "uint224",
          "name": "_yieldMin",
          "type": "uint224"
        },
        {
          "internalType": "uint224",
          "name": "_yieldRange",
          "type": "uint224"
        }
      ],
      "stateMutability": "nonpayable",
      "type": "constructor"
    },
    {
      "anonymous": false,
      "inputs": [
        {
          "indexed": true,
          "internalType": "address",
          "name": "previousOwner",
          "type": "address"
        },
        {
          "indexed": true,
          "internalType": "address",
          "name": "newOwner",
          "type": "address"
        }
      ],
      "name": "OwnershipTransferred",
      "type": "event"
    },
    {
      "inputs": [
        {
          "internalType": "uint256",
          "name": "",
          "type": "uint256"
        }
      ],
      "name": "allEntities",
      "outputs": [
        {
          "internalType": "uint256",
          "name": "id",
          "type": "uint256"
        },
        {
          "internalType": "enum GameWorld.EntityType",
          "name": "entityType",
          "type": "uint8"
        },
        {
          "internalType": "uint256",
          "name": "qualifier1",
          "type": "uint256"
        },
        {
          "components": [
            {
              "internalType": "uint224",
              "name": "_x",
              "type": "uint224"
            }
          ],
          "internalType": "struct FixedPoint.uq112x112",
          "name": "qualifier2",
          "type": "tuple"
        },
        {
          "internalType": "uint16",
          "name": "locx",
          "type": "uint16"
        },
        {
          "internalType": "uint16",
          "name": "locy",
          "type": "uint16"
        }
      ],
      "stateMutability": "view",
      "type": "function",
      "constant": true
    },
    {
      "inputs": [],
      "name": "globalLandValue",
      "outputs": [
        {
          "internalType": "uint224",
          "name": "_x",
          "type": "uint224"
        }
      ],
      "stateMutability": "view",
      "type": "function",
      "constant": true
    },
    {
      "inputs": [],
      "name": "map_height",
      "outputs": [
        {
          "internalType": "uint256",
          "name": "",
          "type": "uint256"
        }
      ],
      "stateMutability": "view",
      "type": "function",
      "constant": true
    },
    {
      "inputs": [],
      "name": "map_width",
      "outputs": [
        {
          "internalType": "uint256",
          "name": "",
          "type": "uint256"
        }
      ],
      "stateMutability": "view",
      "type": "function",
      "constant": true
    },
    {
      "inputs": [],
      "name": "owner",
      "outputs": [
        {
          "internalType": "address",
          "name": "",
          "type": "address"
        }
      ],
      "stateMutability": "view",
      "type": "function",
      "constant": true
    },
    {
      "inputs": [],
      "name": "renounceOwnership",
      "outputs": [],
      "stateMutability": "nonpayable",
      "type": "function"
    },
    {
      "inputs": [
        {
          "internalType": "address",
          "name": "newOwner",
          "type": "address"
        }
      ],
      "name": "transferOwnership",
      "outputs": [],
      "stateMutability": "nonpayable",
      "type": "function"
    },
    {
      "inputs": [],
      "name": "yieldMin",
      "outputs": [
        {
          "internalType": "uint224",
          "name": "_x",
          "type": "uint224"
        }
      ],
      "stateMutability": "view",
      "type": "function",
      "constant": true
    },
    {
      "inputs": [],
      "name": "yieldRange",
      "outputs": [
        {
          "internalType": "uint224",
          "name": "_x",
          "type": "uint224"
        }
      ],
      "stateMutability": "view",
      "type": "function",
      "constant": true
    },
    {
      "inputs": [
        {
          "internalType": "uint256",
          "name": "_width",
          "type": "uint256"
        },
        {
          "internalType": "uint256",
          "name": "_height",
          "type": "uint256"
        },
        {
          "internalType": "uint256",
          "name": "_seed",
          "type": "uint256"
        }
      ],
      "name": "populateLand",
      "outputs": [],
      "stateMutability": "nonpayable",
      "type": "function"
    },
    {
      "inputs": [
        {
          "internalType": "uint16",
          "name": "_locx",
          "type": "uint16"
        },
        {
          "internalType": "uint16",
          "name": "_locy",
          "type": "uint16"
        }
      ],
      "name": "yieldValue",
      "outputs": [
        {
          "internalType": "uint256",
          "name": "",
          "type": "uint256"
        }
      ],
      "stateMutability": "view",
      "type": "function",
      "constant": true
    },
    {
      "inputs": [
        {
          "internalType": "uint16",
          "name": "_locx",
          "type": "uint16"
        },
        {
          "internalType": "uint16",
          "name": "_locy",
          "type": "uint16"
        },
        {
          "internalType": "uint112",
          "name": "tokenStaked",
          "type": "uint112"
        }
      ],
      "name": "buildFarm",
      "outputs": [],
      "stateMutability": "nonpayable",
      "type": "function"
    },
    {
      "inputs": [
        {
          "internalType": "uint16",
          "name": "_locx",
          "type": "uint16"
        },
        {
          "internalType": "uint16",
          "name": "_locy",
          "type": "uint16"
        },
        {
          "internalType": "uint112",
          "name": "tokenStaked",
          "type": "uint112"
        }
      ],
      "name": "buildWall",
      "outputs": [],
      "stateMutability": "nonpayable",
      "type": "function"
    }
  ],
  "bytecode": "0x60806040523480156200001157600080fd5b506040516200391e3803806200391e8339818101604052810190620000379190620002aa565b6000620000496200028b60201b60201c565b9050806000806101000a81548173ffffffffffffffffffffffffffffffffffffffff021916908373ffffffffffffffffffffffffffffffffffffffff1602179055508073ffffffffffffffffffffffffffffffffffffffff16600073ffffffffffffffffffffffffffffffffffffffff167f8be0079c531659141344cd1fd0a4f28419497f9722a3daafe3b4186f6b6457e060405160405180910390a3506040518060200160405280837bffffffffffffffffffffffffffffffffffffffffffffffffffffffff16815250600760008201518160000160006101000a8154817bffffffffffffffffffffffffffffffffffffffffffffffffffffffff02191690837bffffffffffffffffffffffffffffffffffffffffffffffffffffffff1602179055509050506040518060200160405280827bffffffffffffffffffffffffffffffffffffffffffffffffffffffff16815250600860008201518160000160006101000a8154817bffffffffffffffffffffffffffffffffffffffffffffffffffffffff02191690837bffffffffffffffffffffffffffffffffffffffffffffffffffffffff160217905550905050604051806020016040528060007bffffffffffffffffffffffffffffffffffffffffffffffffffffffff16815250600960008201518160000160006101000a8154817bffffffffffffffffffffffffffffffffffffffffffffffffffffffff02191690837bffffffffffffffffffffffffffffffffffffffffffffffffffffffff16021790555090505050506200032d565b600033905090565b600081519050620002a48162000313565b92915050565b60008060408385031215620002be57600080fd5b6000620002ce8582860162000293565b9250506020620002e18582860162000293565b9150509250929050565b60007bffffffffffffffffffffffffffffffffffffffffffffffffffffffff82169050919050565b6200031e81620002eb565b81146200032a57600080fd5b50565b6135e1806200033d6000396000f3fe608060405234801561001057600080fd5b50600436106100cf5760003560e01c80638da5cb5b1161008c578063cee3823b11610066578063cee3823b146101f1578063d23087f11461020f578063f02cae611461022d578063f2fde38b1461024b576100cf565b80638da5cb5b14610199578063c45c1801146101b7578063cb627f09146101d5576100cf565b806315b7d227146100d457806329ee8880146100f25780634379e7431461010e5780635205e5fb1461012a578063715018a61461015a57806388aac64c14610164575b600080fd5b6100dc610267565b6040516100e99190612d4b565b60405180910390f35b61010c600480360381019061010791906128b4565b61026d565b005b610128600480360381019061012391906128b4565b6106f7565b005b610144600480360381019061013f9190612878565b6109de565b6040516101519190612d4b565b60405180910390f35b610162610d1a565b005b61017e60048036038101906101799190612903565b610e54565b60405161019096959493929190612d66565b60405180910390f35b6101a1610f31565b6040516101ae9190612bb5565b60405180910390f35b6101bf610f5a565b6040516101cc9190612d30565b60405180910390f35b6101ef60048036038101906101ea919061292c565b610f8e565b005b6101f96113a2565b6040516102069190612d30565b60405180910390f35b6102176113d6565b6040516102249190612d30565b60405180910390f35b61023561140a565b6040516102429190612d4b565b60405180910390f35b6102656004803603810190610260919061284f565b611410565b005b60025481565b8261ffff168261ffff166001600073ffffffffffffffffffffffffffffffffffffffff1660046000600354600254856102a69190612f6f565b6102b09190612f6f565b600254866102be9190612f6f565b876102c99190612e2a565b6102d39190612e2a565b815260200190815260200160002060009054906101000a900473ffffffffffffffffffffffffffffffffffffffff1673ffffffffffffffffffffffffffffffffffffffff161461032257600080fd5b60006002546003546103349190612f6f565b6002548761ffff166103469190612f6f565b8861ffff166103559190612e2a565b61035f9190612e2a565b9050600061037461036f876115b9565b61162a565b90506040518060c001604052808381526020016003808111156103c0577f4e487b7100000000000000000000000000000000000000000000000000000000600052602160045260246000fd5b81526020014381526020018281526020018961ffff1681526020018861ffff16815250600160008481526020019081526020016000206000820151816000015560208201518160010160006101000a81548160ff02191690836003811115610451577f4e487b7100000000000000000000000000000000000000000000000000000000600052602160045260246000fd5b02179055506040820151816002015560608201518160030160008201518160000160006101000a8154817bffffffffffffffffffffffffffffffffffffffffffffffffffffffff02191690837bffffffffffffffffffffffffffffffffffffffffffffffffffffffff160217905550505060808201518160040160006101000a81548161ffff021916908361ffff16021790555060a08201518160040160026101000a81548161ffff021916908361ffff1602179055509050506105a0600660004381526020019081526020016000206040518060200160405290816000820160009054906101000a90047bffffffffffffffffffffffffffffffffffffffffffffffffffffffff167bffffffffffffffffffffffffffffffffffffffffffffffffffffffff167bffffffffffffffffffffffffffffffffffffffffffffffffffffffff1681525050826117aa565b6006600043815260200190815260200160002060008201518160000160006101000a8154817bffffffffffffffffffffffffffffffffffffffffffffffffffffffff02191690837bffffffffffffffffffffffffffffffffffffffffffffffffffffffff16021790555090505061069160096040518060200160405290816000820160009054906101000a90047bffffffffffffffffffffffffffffffffffffffffffffffffffffffff167bffffffffffffffffffffffffffffffffffffffffffffffffffffffff167bffffffffffffffffffffffffffffffffffffffffffffffffffffffff1681525050826117aa565b600960008201518160000160006101000a8154817bffffffffffffffffffffffffffffffffffffffffffffffffffffffff02191690837bffffffffffffffffffffffffffffffffffffffffffffffffffffffff1602179055509050505050505050505050565b8261ffff168261ffff166001600073ffffffffffffffffffffffffffffffffffffffff1660046000600354600254856107309190612f6f565b61073a9190612f6f565b600254866107489190612f6f565b876107539190612e2a565b61075d9190612e2a565b815260200190815260200160002060009054906101000a900473ffffffffffffffffffffffffffffffffffffffff1673ffffffffffffffffffffffffffffffffffffffff16146107ac57600080fd5b60006002546003546107be9190612f6f565b6002548761ffff166107d09190612f6f565b8861ffff166107df9190612e2a565b6107e99190612e2a565b905060008590506040518060c001604052808381526020016001600381111561083b577f4e487b7100000000000000000000000000000000000000000000000000000000600052602160045260246000fd5b815260200143815260200161084f836115b9565b81526020018961ffff1681526020018861ffff16815250600160008481526020019081526020016000206000820151816000015560208201518160010160006101000a81548160ff021916908360038111156108d4577f4e487b7100000000000000000000000000000000000000000000000000000000600052602160045260246000fd5b02179055506040820151816002015560608201518160030160008201518160000160006101000a8154817bffffffffffffffffffffffffffffffffffffffffffffffffffffffff02191690837bffffffffffffffffffffffffffffffffffffffffffffffffffffffff160217905550505060808201518160040160006101000a81548161ffff021916908361ffff16021790555060a08201518160040160026101000a81548161ffff021916908361ffff160217905550905050806dffffffffffffffffffffffffffff1660056000438152602001908152602001600020546109bd9190612e2a565b60056000438152602001908152602001600020819055505050505050505050565b6000806002546003546109f19190612f6f565b6002548461ffff16610a039190612f6f565b8561ffff16610a129190612e2a565b610a1c9190612e2a565b90506000600160008381526020019081526020016000209050600380811115610a6e577f4e487b7100000000000000000000000000000000000000000000000000000000600052602160045260246000fd5b8160010160009054906101000a900460ff166003811115610ab8577f4e487b7100000000000000000000000000000000000000000000000000000000600052602160045260246000fd5b14610ac257600080fd5b600060096040518060200160405290816000820160009054906101000a90047bffffffffffffffffffffffffffffffffffffffffffffffffffffffff167bffffffffffffffffffffffffffffffffffffffffffffffffffffffff167bffffffffffffffffffffffffffffffffffffffffffffffffffffffff16815250509050600060405180602001604052806000815250905060004390505b6001600086815260200190815260200160002060020154811115610d0857610c2c82610c27610c0e876003016040518060200160405290816000820160009054906101000a90047bffffffffffffffffffffffffffffffffffffffffffffffffffffffff167bffffffffffffffffffffffffffffffffffffffffffffffffffffffff167bffffffffffffffffffffffffffffffffffffffffffffffffffffffff1681525050610c09886117fa565b61194c565b6005600086815260200190815260200160002054611d64565b611e2f565b9150610cc383600660008481526020019081526020016000206040518060200160405290816000820160009054906101000a90047bffffffffffffffffffffffffffffffffffffffffffffffffffffffff167bffffffffffffffffffffffffffffffffffffffffffffffffffffffff167bffffffffffffffffffffffffffffffffffffffffffffffffffffffff1681525050611e61565b9250600083600001517bffffffffffffffffffffffffffffffffffffffffffffffffffffffff161415610cf557610d08565b8080610d0090613123565b915050610b5b565b50806000015194505050505092915050565b610d22611eb1565b73ffffffffffffffffffffffffffffffffffffffff16610d40610f31565b73ffffffffffffffffffffffffffffffffffffffff1614610d96576040517f08c379a0000000000000000000000000000000000000000000000000000000008152600401610d8d90612c70565b60405180910390fd5b600073ffffffffffffffffffffffffffffffffffffffff1660008054906101000a900473ffffffffffffffffffffffffffffffffffffffff1673ffffffffffffffffffffffffffffffffffffffff167f8be0079c531659141344cd1fd0a4f28419497f9722a3daafe3b4186f6b6457e060405160405180910390a360008060006101000a81548173ffffffffffffffffffffffffffffffffffffffff021916908373ffffffffffffffffffffffffffffffffffffffff160217905550565b60016020528060005260406000206000915090508060000154908060010160009054906101000a900460ff1690806002015490806003016040518060200160405290816000820160009054906101000a90047bffffffffffffffffffffffffffffffffffffffffffffffffffffffff167bffffffffffffffffffffffffffffffffffffffffffffffffffffffff167bffffffffffffffffffffffffffffffffffffffffffffffffffffffff1681525050908060040160009054906101000a900461ffff16908060040160029054906101000a900461ffff16905086565b60008060009054906101000a900473ffffffffffffffffffffffffffffffffffffffff16905090565b60078060000160009054906101000a90047bffffffffffffffffffffffffffffffffffffffffffffffffffffffff16905081565b610f96611eb1565b73ffffffffffffffffffffffffffffffffffffffff16610fb4610f31565b73ffffffffffffffffffffffffffffffffffffffff161461100a576040517f08c379a000000000000000000000000000000000000000000000000000000000815260040161100190612c70565b60405180910390fd5b82600281905550816003819055506000805b848161ffff16101561139b5760005b848161ffff1610156113875760006002548361ffff1661104b9190612f6f565b8261ffff1661105a9190612e2a565b905060006040518060c00160405280838152602001600060038111156110a9577f4e487b7100000000000000000000000000000000000000000000000000000000600052602160045260246000fd5b8152602001600081526020016111dd61115d60086040518060200160405290816000820160009054906101000a90047bffffffffffffffffffffffffffffffffffffffffffffffffffffffff167bffffffffffffffffffffffffffffffffffffffffffffffffffffffff167bffffffffffffffffffffffffffffffffffffffffffffffffffffffff16815250506111586111518c8c8061114890613178565b9d506064611eb9565b6064611efb565b61194c565b60076040518060200160405290816000820160009054906101000a90047bffffffffffffffffffffffffffffffffffffffffffffffffffffffff167bffffffffffffffffffffffffffffffffffffffffffffffffffffffff167bffffffffffffffffffffffffffffffffffffffffffffffffffffffff16815250506117aa565b81526020018461ffff1681526020018561ffff16815250905080600160008481526020019081526020016000206000820151816000015560208201518160010160006101000a81548160ff02191690836003811115611265577f4e487b7100000000000000000000000000000000000000000000000000000000600052602160045260246000fd5b02179055506040820151816002015560608201518160030160008201518160000160006101000a8154817bffffffffffffffffffffffffffffffffffffffffffffffffffffffff02191690837bffffffffffffffffffffffffffffffffffffffffffffffffffffffff160217905550505060808201518160040160006101000a81548161ffff021916908361ffff16021790555060a08201518160040160026101000a81548161ffff021916908361ffff16021790555090505060006004600084815260200190815260200160002060006101000a81548173ffffffffffffffffffffffffffffffffffffffff021916908373ffffffffffffffffffffffffffffffffffffffff1602179055505050808061137f9061314d565b91505061102b565b5080806113939061314d565b91505061101c565b5050505050565b60098060000160009054906101000a90047bffffffffffffffffffffffffffffffffffffffffffffffffffffffff16905081565b60088060000160009054906101000a90047bffffffffffffffffffffffffffffffffffffffffffffffffffffffff16905081565b60035481565b611418611eb1565b73ffffffffffffffffffffffffffffffffffffffff16611436610f31565b73ffffffffffffffffffffffffffffffffffffffff161461148c576040517f08c379a000000000000000000000000000000000000000000000000000000000815260040161148390612c70565b60405180910390fd5b600073ffffffffffffffffffffffffffffffffffffffff168173ffffffffffffffffffffffffffffffffffffffff1614156114fc576040517f08c379a00000000000000000000000000000000000000000000000000000000081526004016114f390612bf0565b60405180910390fd5b8073ffffffffffffffffffffffffffffffffffffffff1660008054906101000a900473ffffffffffffffffffffffffffffffffffffffff1673ffffffffffffffffffffffffffffffffffffffff167f8be0079c531659141344cd1fd0a4f28419497f9722a3daafe3b4186f6b6457e060405160405180910390a3806000806101000a81548173ffffffffffffffffffffffffffffffffffffffff021916908373ffffffffffffffffffffffffffffffffffffffff16021790555050565b6115c16127b7565b6040518060200160405280607060ff16846dffffffffffffffffffffffffffff167bffffffffffffffffffffffffffffffffffffffffffffffffffffffff16901b7bffffffffffffffffffffffffffffffffffffffffffffffffffffffff168152509050919050565b6116326127b7565b71ffffffffffffffffffffffffffffffffffff801682600001517bffffffffffffffffffffffffffffffffffffffffffffffffffffffff16116116d15760405180602001604052806116a9607085600001517bffffffffffffffffffffffffffffffffffffffffffffffffffffffff16901b612102565b7bffffffffffffffffffffffffffffffffffffffffffffffffffffffff1681525090506117a5565b60006116fe83600001517bffffffffffffffffffffffffffffffffffffffffffffffffffffffff166122ce565b60ff61170a9190613031565b905060028161171991906131fc565b816117249190613031565b9050604051806020016040528060028360706117409190613031565b61174a9190612ee8565b60ff1661177e8460ff1687600001517bffffffffffffffffffffffffffffffffffffffffffffffffffffffff16901b612102565b901b7bffffffffffffffffffffffffffffffffffffffffffffffffffffffff168152509150505b919050565b6117b26127b7565b6040518060200160405280836000015185600001516117d19190612dd8565b7bffffffffffffffffffffffffffffffffffffffffffffffffffffffff16815250905092915050565b6118026127b7565b600082600001517bffffffffffffffffffffffffffffffffffffffffffffffffffffffff161415611868576040517f08c379a000000000000000000000000000000000000000000000000000000000815260040161185f90612d10565b60405180910390fd5b600182600001517bffffffffffffffffffffffffffffffffffffffffffffffffffffffff1614156118ce576040517f08c379a00000000000000000000000000000000000000000000000000000000081526004016118c590612cf0565b60405180910390fd5b604051806020016040528083600001517bffffffffffffffffffffffffffffffffffffffffffffffffffffffff167c01000000000000000000000000000000000000000000000000000000006119249190612eb7565b7bffffffffffffffffffffffffffffffffffffffffffffffffffffffff168152509050919050565b6119546127b7565b600083600001517bffffffffffffffffffffffffffffffffffffffffffffffffffffffff1614806119a75750600082600001517bffffffffffffffffffffffffffffffffffffffffffffffffffffffff16145b156119e157604051806020016040528060007bffffffffffffffffffffffffffffffffffffffffffffffffffffffff168152509050611d5e565b6000607060ff1684600001517bffffffffffffffffffffffffffffffffffffffffffffffffffffffff16901c905060006dffffffffffffffffffffffffffff85600001517bffffffffffffffffffffffffffffffffffffffffffffffffffffffff161690506000607060ff1685600001517bffffffffffffffffffffffffffffffffffffffffffffffffffffffff16901c905060006dffffffffffffffffffffffffffff86600001517bffffffffffffffffffffffffffffffffffffffffffffffffffffffff161690506000826dffffffffffffffffffffffffffff16856dffffffffffffffffffffffffffff16611ad99190612f19565b90506000826dffffffffffffffffffffffffffff16856dffffffffffffffffffffffffffff16611b099190612f19565b90506000836dffffffffffffffffffffffffffff16876dffffffffffffffffffffffffffff16611b399190612f19565b90506000866dffffffffffffffffffffffffffff16866dffffffffffffffffffffffffffff16611b699190612f19565b90506dffffffffffffffffffffffffffff8016847bffffffffffffffffffffffffffffffffffffffffffffffffffffffff161115611bdc576040517f08c379a0000000000000000000000000000000000000000000000000000000008152600401611bd390612cd0565b60405180910390fd5b6000607060ff16847bffffffffffffffffffffffffffffffffffffffffffffffffffffffff16901c7bffffffffffffffffffffffffffffffffffffffffffffffffffffffff16827bffffffffffffffffffffffffffffffffffffffffffffffffffffffff16847bffffffffffffffffffffffffffffffffffffffffffffffffffffffff16607060ff16887bffffffffffffffffffffffffffffffffffffffffffffffffffffffff16901b7bffffffffffffffffffffffffffffffffffffffffffffffffffffffff16611cae9190612e2a565b611cb89190612e2a565b611cc29190612e2a565b90507bffffffffffffffffffffffffffffffffffffffffffffffffffffffff8016811115611d25576040517f08c379a0000000000000000000000000000000000000000000000000000000008152600401611d1c90612cb0565b60405180910390fd5b6040518060200160405280827bffffffffffffffffffffffffffffffffffffffffffffffffffffffff1681525099505050505050505050505b92915050565b611d6c6127e8565b600080831480611dd8575083600001517bffffffffffffffffffffffffffffffffffffffffffffffffffffffff16838486600001517bffffffffffffffffffffffffffffffffffffffffffffffffffffffff16611dc99190612f6f565b925082611dd69190612eb7565b145b611e17576040517f08c379a0000000000000000000000000000000000000000000000000000000008152600401611e0e90612c10565b60405180910390fd5b60405180602001604052808281525091505092915050565b611e376127e8565b604051806020016040528083600001518560000151611e569190612e2a565b815250905092915050565b611e696127b7565b604051806020016040528083600001518560000151611e889190612fc9565b7bffffffffffffffffffffffffffffffffffffffffffffffffffffffff16815250905092915050565b600033905090565b6000818484604051602001611ecf929190612b89565b6040516020818303038152906040528051906020012060001c611ef291906131cb565b90509392505050565b611f036127b7565b60008211611f46576040517f08c379a0000000000000000000000000000000000000000000000000000000008152600401611f3d90612c30565b60405180910390fd5b6000831415611f8457604051806020016040528060007bffffffffffffffffffffffffffffffffffffffffffffffffffffffff1681525090506120fc565b71ffffffffffffffffffffffffffffffffffff8016831161204c57600082607060ff1685901b611fb49190612eb7565b90507bffffffffffffffffffffffffffffffffffffffffffffffffffffffff8016811115612017576040517f08c379a000000000000000000000000000000000000000000000000000000000815260040161200e90612c90565b60405180910390fd5b6040518060200160405280827bffffffffffffffffffffffffffffffffffffffffffffffffffffffff168152509150506120fc565b6000612068846e01000000000000000000000000000085612427565b90507bffffffffffffffffffffffffffffffffffffffffffffffffffffffff80168111156120cb576040517f08c379a00000000000000000000000000000000000000000000000000000000081526004016120c290612c90565b60405180910390fd5b6040518060200160405280827bffffffffffffffffffffffffffffffffffffffffffffffffffffffff168152509150505b92915050565b60008082141561211557600090506122c9565b6000829050600060019050700100000000000000000000000000000000821061214757608082901c9150604081901b90505b68010000000000000000821061216657604082901c9150602081901b90505b640100000000821061218157602082901c9150601081901b90505b62010000821061219a57601082901c9150600881901b90505b61010082106121b257600882901c9150600481901b90505b601082106121c957600482901c9150600281901b90505b600882106121d957600181901b90505b600181856121e79190612eb7565b826121f29190612e2a565b901c9050600181856122049190612eb7565b8261220f9190612e2a565b901c9050600181856122219190612eb7565b8261222c9190612e2a565b901c90506001818561223e9190612eb7565b826122499190612e2a565b901c90506001818561225b9190612eb7565b826122669190612e2a565b901c9050600181856122789190612eb7565b826122839190612e2a565b901c9050600181856122959190612eb7565b826122a09190612e2a565b901c9050600081856122b29190612eb7565b90508082106122c157806122c3565b815b93505050505b919050565b6000808211612312576040517f08c379a000000000000000000000000000000000000000000000000000000000815260040161230990612bd0565b60405180910390fd5b700100000000000000000000000000000000821061234157608082901c915060808161233e9190612e80565b90505b68010000000000000000821061236857604082901c91506040816123659190612e80565b90505b640100000000821061238b57602082901c91506020816123889190612e80565b90505b6201000082106123ac57601082901c91506010816123a99190612e80565b90505b61010082106123cc57600882901c91506008816123c99190612e80565b90505b601082106123eb57600482901c91506004816123e89190612e80565b90505b6004821061240a57600282901c91506002816124079190612e80565b90505b600282106124225760018161241f9190612e80565b90505b919050565b60008060006124368686612515565b9150915060008480612471577f4e487b7100000000000000000000000000000000000000000000000000000000600052601260045260246000fd5b86880990508281111561248e5760018261248b9190612ffd565b91505b808361249a9190612ffd565b925060008214156124bb5784836124b19190612eb7565b935050505061250e565b8482106124fd576040517f08c379a00000000000000000000000000000000000000000000000000000000081526004016124f490612c50565b60405180910390fd5b6125088383876125b0565b93505050505b9392505050565b60008060007fffffffffffffffffffffffffffffffffffffffffffffffffffffffffffffffff8061256f577f4e487b7100000000000000000000000000000000000000000000000000000000600052601260045260246000fd5b848609905083856125809190612f6f565b9250828161258e9190612ffd565b9150828110156125a8576001826125a59190612ffd565b91505b509250929050565b6000806001837fffffffffffffffffffffffffffffffffffffffffffffffffffffffffffffffff6125e19190612ffd565b6125eb9190612e2a565b8316905080836125fb9190612eb7565b925080856126099190612eb7565b94506001816001837fffffffffffffffffffffffffffffffffffffffffffffffffffffffffffffffff61263c9190612ffd565b6126469190612e2a565b6126509190612eb7565b61265a9190612e2a565b846126659190612f6f565b856126709190612e2a565b945060006001905080846126849190612f6f565b60026126909190612ffd565b8161269b9190612f6f565b905080846126a99190612f6f565b60026126b59190612ffd565b816126c09190612f6f565b905080846126ce9190612f6f565b60026126da9190612ffd565b816126e59190612f6f565b905080846126f39190612f6f565b60026126ff9190612ffd565b8161270a9190612f6f565b905080846127189190612f6f565b60026127249190612ffd565b8161272f9190612f6f565b9050808461273d9190612f6f565b60026127499190612ffd565b816127549190612f6f565b905080846127629190612f6f565b600261276e9190612ffd565b816127799190612f6f565b905080846127879190612f6f565b60026127939190612ffd565b8161279e9190612f6f565b905080866127ac9190612f6f565b925050509392505050565b604051806020016040528060007bffffffffffffffffffffffffffffffffffffffffffffffffffffffff1681525090565b6040518060200160405280600081525090565b60008135905061280a8161354f565b92915050565b60008135905061281f81613566565b92915050565b6000813590506128348161357d565b92915050565b60008135905061284981613594565b92915050565b60006020828403121561286157600080fd5b600061286f848285016127fb565b91505092915050565b6000806040838503121561288b57600080fd5b600061289985828601612825565b92505060206128aa85828601612825565b9150509250929050565b6000806000606084860312156128c957600080fd5b60006128d786828701612825565b93505060206128e886828701612825565b92505060406128f986828701612810565b9150509250925092565b60006020828403121561291557600080fd5b60006129238482850161283a565b91505092915050565b60008060006060848603121561294157600080fd5b600061294f8682870161283a565b93505060206129608682870161283a565b92505060406129718682870161283a565b9150509250925092565b61298481613065565b82525050565b61299381613111565b82525050565b60006129a6602183612dc7565b91506129b1826132ba565b604082019050919050565b60006129c9602683612dc7565b91506129d482613309565b604082019050919050565b60006129ec601983612dc7565b91506129f782613358565b602082019050919050565b6000612a0f602683612dc7565b9150612a1a82613381565b604082019050919050565b6000612a32601a83612dc7565b9150612a3d826133d0565b602082019050919050565b6000612a55602083612dc7565b9150612a60826133f9565b602082019050919050565b6000612a78601e83612dc7565b9150612a8382613422565b602082019050919050565b6000612a9b601f83612dc7565b9150612aa68261344b565b602082019050919050565b6000612abe602183612dc7565b9150612ac982613474565b604082019050919050565b6000612ae1602083612dc7565b9150612aec826134c3565b602082019050919050565b6000612b04602a83612dc7565b9150612b0f826134ec565b604082019050919050565b602082016000820151612b306000850182612b45565b50505050565b612b3f816130a4565b82525050565b612b4e816130d2565b82525050565b612b5d816130d2565b82525050565b612b6c816130fa565b82525050565b612b83612b7e826130fa565b6131c1565b82525050565b6000612b958285612b72565b602082019150612ba58284612b72565b6020820191508190509392505050565b6000602082019050612bca600083018461297b565b92915050565b60006020820190508181036000830152612be981612999565b9050919050565b60006020820190508181036000830152612c09816129bc565b9050919050565b60006020820190508181036000830152612c29816129df565b9050919050565b60006020820190508181036000830152612c4981612a02565b9050919050565b60006020820190508181036000830152612c6981612a25565b9050919050565b60006020820190508181036000830152612c8981612a48565b9050919050565b60006020820190508181036000830152612ca981612a6b565b9050919050565b60006020820190508181036000830152612cc981612a8e565b9050919050565b60006020820190508181036000830152612ce981612ab1565b9050919050565b60006020820190508181036000830152612d0981612ad4565b9050919050565b60006020820190508181036000830152612d2981612af7565b9050919050565b6000602082019050612d456000830184612b54565b92915050565b6000602082019050612d606000830184612b63565b92915050565b600060c082019050612d7b6000830189612b63565b612d88602083018861298a565b612d956040830187612b63565b612da26060830186612b1a565b612daf6080830185612b36565b612dbc60a0830184612b36565b979650505050505050565b600082825260208201905092915050565b6000612de3826130d2565b9150612dee836130d2565b9250827bffffffffffffffffffffffffffffffffffffffffffffffffffffffff03821115612e1f57612e1e61322d565b5b828201905092915050565b6000612e35826130fa565b9150612e40836130fa565b9250827fffffffffffffffffffffffffffffffffffffffffffffffffffffffffffffffff03821115612e7557612e7461322d565b5b828201905092915050565b6000612e8b82613104565b9150612e9683613104565b92508260ff03821115612eac57612eab61322d565b5b828201905092915050565b6000612ec2826130fa565b9150612ecd836130fa565b925082612edd57612edc61325c565b5b828204905092915050565b6000612ef382613104565b9150612efe83613104565b925082612f0e57612f0d61325c565b5b828204905092915050565b6000612f24826130d2565b9150612f2f836130d2565b9250817bffffffffffffffffffffffffffffffffffffffffffffffffffffffff0483118215151615612f6457612f6361322d565b5b828202905092915050565b6000612f7a826130fa565b9150612f85836130fa565b9250817fffffffffffffffffffffffffffffffffffffffffffffffffffffffffffffffff0483118215151615612fbe57612fbd61322d565b5b828202905092915050565b6000612fd4826130d2565b9150612fdf836130d2565b925082821015612ff257612ff161322d565b5b828203905092915050565b6000613008826130fa565b9150613013836130fa565b9250828210156130265761302561322d565b5b828203905092915050565b600061303c82613104565b915061304783613104565b92508282101561305a5761305961322d565b5b828203905092915050565b6000613070826130b2565b9050919050565b60008190506130858261353b565b919050565b60006dffffffffffffffffffffffffffff82169050919050565b600061ffff82169050919050565b600073ffffffffffffffffffffffffffffffffffffffff82169050919050565b60007bffffffffffffffffffffffffffffffffffffffffffffffffffffffff82169050919050565b6000819050919050565b600060ff82169050919050565b600061311c82613077565b9050919050565b600061312e826130fa565b915060008214156131425761314161322d565b5b600182039050919050565b6000613158826130a4565b915061ffff82141561316d5761316c61322d565b5b600182019050919050565b6000613183826130fa565b91507fffffffffffffffffffffffffffffffffffffffffffffffffffffffffffffffff8214156131b6576131b561322d565b5b600182019050919050565b6000819050919050565b60006131d6826130fa565b91506131e1836130fa565b9250826131f1576131f061325c565b5b828206905092915050565b600061320782613104565b915061321283613104565b9250826132225761322161325c565b5b828206905092915050565b7f4e487b7100000000000000000000000000000000000000000000000000000000600052601160045260246000fd5b7f4e487b7100000000000000000000000000000000000000000000000000000000600052601260045260246000fd5b7f4e487b7100000000000000000000000000000000000000000000000000000000600052602160045260246000fd5b7f4269744d6174683a3a6d6f73745369676e69666963616e744269743a207a657260008201527f6f00000000000000000000000000000000000000000000000000000000000000602082015250565b7f4f776e61626c653a206e6577206f776e657220697320746865207a65726f206160008201527f6464726573730000000000000000000000000000000000000000000000000000602082015250565b7f4669786564506f696e743a3a6d756c3a206f766572666c6f7700000000000000600082015250565b7f4669786564506f696e743a3a6672616374696f6e3a206469766973696f6e206260008201527f79207a65726f0000000000000000000000000000000000000000000000000000602082015250565b7f46756c6c4d6174683a2046554c4c4449565f4f564552464c4f57000000000000600082015250565b7f4f776e61626c653a2063616c6c6572206973206e6f7420746865206f776e6572600082015250565b7f4669786564506f696e743a3a6672616374696f6e3a206f766572666c6f770000600082015250565b7f4669786564506f696e743a3a6d756c75713a2073756d206f766572666c6f7700600082015250565b7f4669786564506f696e743a3a6d756c75713a207570706572206f766572666c6f60008201527f7700000000000000000000000000000000000000000000000000000000000000602082015250565b7f4669786564506f696e743a3a7265636970726f63616c3a206f766572666c6f77600082015250565b7f4669786564506f696e743a3a7265636970726f63616c3a207265636970726f6360008201527f616c206f66207a65726f00000000000000000000000000000000000000000000602082015250565b6004811061354c5761354b61328b565b5b50565b61355881613065565b811461356357600080fd5b50565b61356f8161308a565b811461357a57600080fd5b50565b613586816130a4565b811461359157600080fd5b50565b61359d816130fa565b81146135a857600080fd5b5056fea2646970667358221220acef05ee01913676fe698e89445284e320bea7d3146f215cfc20d6d5edeb378c64736f6c63430008030033",
  "immutableReferences": {},
  "source": "// SPDX-License-Identifier: Unlicensed\npragma solidity ^0.8;\nimport \"@openzeppelin/contracts/access/Ownable.sol\";\nimport \"./libraries/FixedPoint.sol\";\n\ncontract GameWorld is Ownable {\n    enum EntityType {\n        TILE, // q1: TileType     q2: Modifier\n        WALL,\n        ARMY,\n        FARM // q1: BlockNumber  q2: FarmValue\n    }\n\n    struct Entity {\n        uint256 id;\n        EntityType entityType;\n        uint256 qualifier1;\n        FixedPoint.uq112x112 qualifier2; // For handling fixed-point decimals\n        uint16 locx;\n        uint16 locy;\n    }\n\n    mapping(uint256 => Entity) public allEntities;\n    uint256 public map_width;\n    uint256 public map_height;\n\n    mapping(uint256 => address) entityToOwner;\n    mapping(uint256 => uint256) tokensBurntAtBlock;\n    mapping(uint256 => FixedPoint.uq112x112) landValueAddedAtBlock;\n\n    // Fixed point float numbers , with range [0, 2*112-1] and resolution of 1/2*112\n    FixedPoint.uq112x112 public yieldMin;\n    FixedPoint.uq112x112 public yieldRange;\n    FixedPoint.uq112x112 public globalLandValue;\n\n    constructor(uint224 _yieldMin, uint224 _yieldRange) {\n        yieldMin = FixedPoint.uq112x112(_yieldMin);\n        yieldRange = FixedPoint.uq112x112(_yieldRange);\n        globalLandValue = FixedPoint.uq112x112(0);\n    }\n\n    modifier onlyOwnerOf(uint256 _entityId, address owner) {\n        require(entityToOwner[_entityId] == owner);\n        _;\n    }\n\n    modifier isEmpty(\n        uint256 _locx,\n        uint256 _locy,\n        uint256 layer\n    ) {\n        require(\n            entityToOwner[\n                _locx + _locy * map_width + layer * map_width * map_height\n            ] == address(0)\n        );\n        _;\n    }\n\n    function _randMod(\n        uint256 _seed,\n        uint256 _nonce,\n        uint256 _mod\n    ) internal pure returns (uint256) {\n        return uint256(keccak256(abi.encodePacked(_seed, _nonce))) % _mod;\n    }\n\n    // This function can only be called by whoever deployed the contract\n    function populateLand(\n        uint256 _width,\n        uint256 _height,\n        uint256 _seed\n    ) public onlyOwner {\n        map_width = _width;\n        map_height = _height;\n\n        // Declare a local nonce so that the same seed will generate the same map\n        uint256 nonce = 0;\n\n        for (uint16 y = 0; y < _width; y++) {\n            for (uint16 x = 0; x < _height; x++) {\n                uint256 index = x + y * map_width;\n                // Currently only generates arable lands\n                Entity memory newLand =\n                    Entity(\n                        index,\n                        EntityType.TILE,\n                        0,\n                        FixedPoint.add(\n                            FixedPoint.muluq(\n                                yieldRange,\n                                FixedPoint.fraction(\n                                    _randMod(_seed, nonce++, 100),\n                                    100\n                                )\n                            ),\n                            yieldMin\n                        ), // Highly unoptimized\n                        x,\n                        y\n                    );\n                allEntities[index] = newLand;\n                entityToOwner[index] = address(0); // wilderness\n            }\n        }\n    }\n\n    // Returns total farm yield at current block number, in the UQ144x112 format. Assumes supply of tokens do not exceed 2**144 - 1\n    function yieldValue(uint16 _locx, uint16 _locy)\n        public\n        view\n        returns (uint256)\n    {\n        uint256 index = _locx + _locy * map_width + map_height * map_width;\n        Entity storage thisFarm = allEntities[index];\n        require(thisFarm.entityType == EntityType.FARM);\n        FixedPoint.uq112x112 memory landValueAtBlock = globalLandValue;\n        FixedPoint.uq144x112 memory cumulativeYield = FixedPoint.uq144x112(0);\n        for (uint256 i = block.number; i > allEntities[index].qualifier1; i--) {\n            cumulativeYield = FixedPoint.add144(\n                cumulativeYield,\n                FixedPoint.mul(\n                    FixedPoint.muluq(\n                        thisFarm.qualifier2,\n                        FixedPoint.reciprocal(landValueAtBlock)\n                    ),\n                    tokensBurntAtBlock[i]\n                )\n            );\n            landValueAtBlock = FixedPoint.sub(\n                landValueAtBlock,\n                landValueAddedAtBlock[i]\n            );\n            // Shouldn't be necessary, but added as a safe check\n            if (landValueAtBlock._x == 0) break;\n        }\n        return cumulativeYield._x;\n    }\n\n    // Requires implementation of ERC20\n    function buildFarm(\n        uint16 _locx,\n        uint16 _locy,\n        uint112 tokenStaked\n    ) public isEmpty(_locx, _locy, 1) {\n        uint256 index = _locx + _locy * map_width + map_height * map_width;\n\n        // Check if message sender approved for token to be staked in the smart contract\n\n        FixedPoint.uq112x112 memory landValue =\n            FixedPoint.sqrt(FixedPoint.encode(tokenStaked));\n        allEntities[index] = Entity(\n            index,\n            EntityType.FARM,\n            block.number,\n            landValue,\n            _locx,\n            _locy\n        );\n        landValueAddedAtBlock[block.number] = FixedPoint.add(\n            landValueAddedAtBlock[block.number],\n            landValue\n        );\n        globalLandValue = FixedPoint.add(globalLandValue, landValue);\n    }\n\n    // Requires implementation of ERC20\n    function buildWall(\n        uint16 _locx,\n        uint16 _locy,\n        uint112 tokenStaked\n    ) public isEmpty(_locx, _locy, 1) {\n        uint256 index = _locx + _locy * map_width + map_height * map_width;\n\n        // Check if message sender approved for token to be staked in the smart contract\n\n        uint112 wallFortification = tokenStaked;\n        allEntities[index] = Entity(\n            index,\n            EntityType.WALL,\n            block.number,\n            FixedPoint.encode(wallFortification),\n            _locx,\n            _locy\n        );\n        tokensBurntAtBlock[block.number] =\n            tokensBurntAtBlock[block.number] +\n            wallFortification;\n    }\n}\n",
  "sourcePath": "/Users/jacky/Personal-Projects/ether-empire/contracts/GameWorld.sol",
  "compiler": {
    "name": "solc",
    "version": "0.8.3+commit.8d00100c.Emscripten.clang"
  },
  "schemaVersion": "3.3.4",
  "updatedAt": "2021-04-24T03:55:52.819Z",
  "networkType": "ethereum",
  "devdoc": {
    "kind": "dev",
    "methods": {
      "owner()": {
        "details": "Returns the address of the current owner."
      },
      "renounceOwnership()": {
        "details": "Leaves the contract without owner. It will not be possible to call `onlyOwner` functions anymore. Can only be called by the current owner. NOTE: Renouncing ownership will leave the contract without an owner, thereby removing any functionality that is only available to the owner."
      },
      "transferOwnership(address)": {
        "details": "Transfers ownership of the contract to a new account (`newOwner`). Can only be called by the current owner."
      }
    },
    "version": 1
  },
  "userdoc": {
    "kind": "user",
    "methods": {},
    "version": 1
  }
}