{
  "contractName": "GameToken",
  "abi": [
    {
      "inputs": [],
      "stateMutability": "nonpayable",
      "type": "constructor"
    },
    {
      "anonymous": false,
      "inputs": [
        {
          "indexed": true,
          "internalType": "address",
          "name": "tokenOwner",
          "type": "address"
        },
        {
          "indexed": true,
          "internalType": "address",
          "name": "spender",
          "type": "address"
        },
        {
          "indexed": false,
          "internalType": "uint256",
          "name": "tokens",
          "type": "uint256"
        }
      ],
      "name": "Approval",
      "type": "event"
    },
    {
      "anonymous": false,
      "inputs": [
        {
          "indexed": true,
          "internalType": "address",
          "name": "from",
          "type": "address"
        },
        {
          "indexed": true,
          "internalType": "address",
          "name": "to",
          "type": "address"
        },
        {
          "indexed": false,
          "internalType": "uint256",
          "name": "tokens",
          "type": "uint256"
        }
      ],
      "name": "Transfer",
      "type": "event"
    },
    {
      "inputs": [],
      "name": "_totalSupply",
      "outputs": [
        {
          "internalType": "uint256",
          "name": "",
          "type": "uint256"
        }
      ],
      "stateMutability": "view",
      "type": "function",
      "constant": true
    },
    {
      "inputs": [],
      "name": "decimals",
      "outputs": [
        {
          "internalType": "uint8",
          "name": "",
          "type": "uint8"
        }
      ],
      "stateMutability": "view",
      "type": "function",
      "constant": true
    },
    {
      "inputs": [],
      "name": "name",
      "outputs": [
        {
          "internalType": "string",
          "name": "",
          "type": "string"
        }
      ],
      "stateMutability": "view",
      "type": "function",
      "constant": true
    },
    {
      "inputs": [],
      "name": "symbol",
      "outputs": [
        {
          "internalType": "string",
          "name": "",
          "type": "string"
        }
      ],
      "stateMutability": "view",
      "type": "function",
      "constant": true
    },
    {
      "inputs": [],
      "name": "totalSupply",
      "outputs": [
        {
          "internalType": "uint256",
          "name": "",
          "type": "uint256"
        }
      ],
      "stateMutability": "view",
      "type": "function",
      "constant": true
    },
    {
      "inputs": [
        {
          "internalType": "address",
          "name": "tokenOwner",
          "type": "address"
        }
      ],
      "name": "balanceOf",
      "outputs": [
        {
          "internalType": "uint256",
          "name": "balance",
          "type": "uint256"
        }
      ],
      "stateMutability": "view",
      "type": "function",
      "constant": true
    },
    {
      "inputs": [
        {
          "internalType": "address",
          "name": "tokenOwner",
          "type": "address"
        },
        {
          "internalType": "address",
          "name": "spender",
          "type": "address"
        }
      ],
      "name": "allowance",
      "outputs": [
        {
          "internalType": "uint256",
          "name": "remaining",
          "type": "uint256"
        }
      ],
      "stateMutability": "view",
      "type": "function",
      "constant": true
    },
    {
      "inputs": [
        {
          "internalType": "address",
          "name": "spender",
          "type": "address"
        },
        {
          "internalType": "uint256",
          "name": "tokens",
          "type": "uint256"
        }
      ],
      "name": "approve",
      "outputs": [
        {
          "internalType": "bool",
          "name": "success",
          "type": "bool"
        }
      ],
      "stateMutability": "nonpayable",
      "type": "function"
    },
    {
      "inputs": [
        {
          "internalType": "address",
          "name": "to",
          "type": "address"
        },
        {
          "internalType": "uint256",
          "name": "tokens",
          "type": "uint256"
        }
      ],
      "name": "transfer",
      "outputs": [
        {
          "internalType": "bool",
          "name": "success",
          "type": "bool"
        }
      ],
      "stateMutability": "nonpayable",
      "type": "function"
    },
    {
      "inputs": [
        {
          "internalType": "address",
          "name": "from",
          "type": "address"
        },
        {
          "internalType": "address",
          "name": "to",
          "type": "address"
        },
        {
          "internalType": "uint256",
          "name": "tokens",
          "type": "uint256"
        }
      ],
      "name": "transferFrom",
      "outputs": [
        {
          "internalType": "bool",
          "name": "success",
          "type": "bool"
        }
      ],
      "stateMutability": "nonpayable",
      "type": "function"
    }
  ],
  "bytecode": "0x60806040523480156200001157600080fd5b506040518060400160405280600881526020017f414243746f6b656e000000000000000000000000000000000000000000000000815250600090805190602001906200005f92919062000192565b506040518060400160405280600381526020017f414243000000000000000000000000000000000000000000000000000000000081525060019080519060200190620000ad92919062000192565b506012600260006101000a81548160ff021916908360ff1602179055506a52b7d2dcc80cd2e4000000600381905550600354600460003373ffffffffffffffffffffffffffffffffffffffff1673ffffffffffffffffffffffffffffffffffffffff168152602001908152602001600020819055503373ffffffffffffffffffffffffffffffffffffffff16600073ffffffffffffffffffffffffffffffffffffffff167fddf252ad1be2c89b69c2b068fc378daa952ba7f163c4a11628f55a4df523b3ef60035460405162000184919062000253565b60405180910390a3620002df565b828054620001a0906200027a565b90600052602060002090601f016020900481019282620001c4576000855562000210565b82601f10620001df57805160ff191683800117855562000210565b8280016001018555821562000210579182015b828111156200020f578251825591602001919060010190620001f2565b5b5090506200021f919062000223565b5090565b5b808211156200023e57600081600090555060010162000224565b5090565b6200024d8162000270565b82525050565b60006020820190506200026a600083018462000242565b92915050565b6000819050919050565b600060028204905060018216806200029357607f821691505b60208210811415620002aa57620002a9620002b0565b5b50919050565b7f4e487b7100000000000000000000000000000000000000000000000000000000600052602260045260246000fd5b610f3d80620002ef6000396000f3fe608060405234801561001057600080fd5b506004361061009e5760003560e01c80633eaaf86b116100665780633eaaf86b1461015d57806370a082311461017b57806395d89b41146101ab578063a9059cbb146101c9578063dd62ed3e146101f95761009e565b806306fdde03146100a3578063095ea7b3146100c157806318160ddd146100f157806323b872dd1461010f578063313ce5671461013f575b600080fd5b6100ab610229565b6040516100b89190610c20565b60405180910390f35b6100db60048036038101906100d69190610b1d565b6102b7565b6040516100e89190610c05565b60405180910390f35b6100f96103a9565b6040516101069190610c82565b60405180910390f35b61012960048036038101906101249190610ace565b6103fd565b6040516101369190610c05565b60405180910390f35b61014761068d565b6040516101549190610c9d565b60405180910390f35b6101656106a0565b6040516101729190610c82565b60405180910390f35b61019560048036038101906101909190610a69565b6106a6565b6040516101a29190610c82565b60405180910390f35b6101b36106ef565b6040516101c09190610c20565b60405180910390f35b6101e360048036038101906101de9190610b1d565b61077d565b6040516101f09190610c05565b60405180910390f35b610213600480360381019061020e9190610a92565b610906565b6040516102209190610c82565b60405180910390f35b6000805461023690610de6565b80601f016020809104026020016040519081016040528092919081815260200182805461026290610de6565b80156102af5780601f10610284576101008083540402835291602001916102af565b820191906000526020600020905b81548152906001019060200180831161029257829003601f168201915b505050505081565b600081600560003373ffffffffffffffffffffffffffffffffffffffff1673ffffffffffffffffffffffffffffffffffffffff16815260200190815260200160002060008573ffffffffffffffffffffffffffffffffffffffff1673ffffffffffffffffffffffffffffffffffffffff168152602001908152602001600020819055508273ffffffffffffffffffffffffffffffffffffffff163373ffffffffffffffffffffffffffffffffffffffff167f8c5be1e5ebec7d5bd14f71427d1e84f3dd0314c0f7b2291e5b200ac8c7c3b925846040516103979190610c82565b60405180910390a36001905092915050565b6000600460008073ffffffffffffffffffffffffffffffffffffffff1673ffffffffffffffffffffffffffffffffffffffff168152602001908152602001600020546003546103f89190610d2a565b905090565b6000610448600460008673ffffffffffffffffffffffffffffffffffffffff1673ffffffffffffffffffffffffffffffffffffffff168152602001908152602001600020548361098d565b600460008673ffffffffffffffffffffffffffffffffffffffff1673ffffffffffffffffffffffffffffffffffffffff16815260200190815260200160002081905550610511600560008673ffffffffffffffffffffffffffffffffffffffff1673ffffffffffffffffffffffffffffffffffffffff16815260200190815260200160002060003373ffffffffffffffffffffffffffffffffffffffff1673ffffffffffffffffffffffffffffffffffffffff168152602001908152602001600020548361098d565b600560008673ffffffffffffffffffffffffffffffffffffffff1673ffffffffffffffffffffffffffffffffffffffff16815260200190815260200160002060003373ffffffffffffffffffffffffffffffffffffffff1673ffffffffffffffffffffffffffffffffffffffff168152602001908152602001600020819055506105da600460008573ffffffffffffffffffffffffffffffffffffffff1673ffffffffffffffffffffffffffffffffffffffff16815260200190815260200160002054836109e6565b600460008573ffffffffffffffffffffffffffffffffffffffff1673ffffffffffffffffffffffffffffffffffffffff168152602001908152602001600020819055508273ffffffffffffffffffffffffffffffffffffffff168473ffffffffffffffffffffffffffffffffffffffff167fddf252ad1be2c89b69c2b068fc378daa952ba7f163c4a11628f55a4df523b3ef8460405161067a9190610c82565b60405180910390a3600190509392505050565b600260009054906101000a900460ff1681565b60035481565b6000600460008373ffffffffffffffffffffffffffffffffffffffff1673ffffffffffffffffffffffffffffffffffffffff168152602001908152602001600020549050919050565b600180546106fc90610de6565b80601f016020809104026020016040519081016040528092919081815260200182805461072890610de6565b80156107755780601f1061074a57610100808354040283529160200191610775565b820191906000526020600020905b81548152906001019060200180831161075857829003601f168201915b505050505081565b60006107c8600460003373ffffffffffffffffffffffffffffffffffffffff1673ffffffffffffffffffffffffffffffffffffffff168152602001908152602001600020548361098d565b600460003373ffffffffffffffffffffffffffffffffffffffff1673ffffffffffffffffffffffffffffffffffffffff16815260200190815260200160002081905550610854600460008573ffffffffffffffffffffffffffffffffffffffff1673ffffffffffffffffffffffffffffffffffffffff16815260200190815260200160002054836109e6565b600460008573ffffffffffffffffffffffffffffffffffffffff1673ffffffffffffffffffffffffffffffffffffffff168152602001908152602001600020819055508273ffffffffffffffffffffffffffffffffffffffff163373ffffffffffffffffffffffffffffffffffffffff167fddf252ad1be2c89b69c2b068fc378daa952ba7f163c4a11628f55a4df523b3ef846040516108f49190610c82565b60405180910390a36001905092915050565b6000600560008473ffffffffffffffffffffffffffffffffffffffff1673ffffffffffffffffffffffffffffffffffffffff16815260200190815260200160002060008373ffffffffffffffffffffffffffffffffffffffff1673ffffffffffffffffffffffffffffffffffffffff16815260200190815260200160002054905092915050565b600082828461099c9190610d2a565b91508111156109e0576040517f08c379a00000000000000000000000000000000000000000000000000000000081526004016109d790610c42565b60405180910390fd5b92915050565b60008282846109f59190610cd4565b9150811015610a39576040517f08c379a0000000000000000000000000000000000000000000000000000000008152600401610a3090610c62565b60405180910390fd5b92915050565b600081359050610a4e81610ed9565b92915050565b600081359050610a6381610ef0565b92915050565b600060208284031215610a7b57600080fd5b6000610a8984828501610a3f565b91505092915050565b60008060408385031215610aa557600080fd5b6000610ab385828601610a3f565b9250506020610ac485828601610a3f565b9150509250929050565b600080600060608486031215610ae357600080fd5b6000610af186828701610a3f565b9350506020610b0286828701610a3f565b9250506040610b1386828701610a54565b9150509250925092565b60008060408385031215610b3057600080fd5b6000610b3e85828601610a3f565b9250506020610b4f85828601610a54565b9150509250929050565b610b6281610d70565b82525050565b6000610b7382610cb8565b610b7d8185610cc3565b9350610b8d818560208601610db3565b610b9681610e76565b840191505092915050565b6000610bae601583610cc3565b9150610bb982610e87565b602082019050919050565b6000610bd1601483610cc3565b9150610bdc82610eb0565b602082019050919050565b610bf081610d9c565b82525050565b610bff81610da6565b82525050565b6000602082019050610c1a6000830184610b59565b92915050565b60006020820190508181036000830152610c3a8184610b68565b905092915050565b60006020820190508181036000830152610c5b81610ba1565b9050919050565b60006020820190508181036000830152610c7b81610bc4565b9050919050565b6000602082019050610c976000830184610be7565b92915050565b6000602082019050610cb26000830184610bf6565b92915050565b600081519050919050565b600082825260208201905092915050565b6000610cdf82610d9c565b9150610cea83610d9c565b9250827fffffffffffffffffffffffffffffffffffffffffffffffffffffffffffffffff03821115610d1f57610d1e610e18565b5b828201905092915050565b6000610d3582610d9c565b9150610d4083610d9c565b925082821015610d5357610d52610e18565b5b828203905092915050565b6000610d6982610d7c565b9050919050565b60008115159050919050565b600073ffffffffffffffffffffffffffffffffffffffff82169050919050565b6000819050919050565b600060ff82169050919050565b60005b83811015610dd1578082015181840152602081019050610db6565b83811115610de0576000848401525b50505050565b60006002820490506001821680610dfe57607f821691505b60208210811415610e1257610e11610e47565b5b50919050565b7f4e487b7100000000000000000000000000000000000000000000000000000000600052601160045260246000fd5b7f4e487b7100000000000000000000000000000000000000000000000000000000600052602260045260246000fd5b6000601f19601f8301169050919050565b7f64732d6d6174682d7375622d756e646572666c6f770000000000000000000000600082015250565b7f64732d6d6174682d6164642d6f766572666c6f77000000000000000000000000600082015250565b610ee281610d5e565b8114610eed57600080fd5b50565b610ef981610d9c565b8114610f0457600080fd5b5056fea2646970667358221220a8f452d0caa0e41bc6a89cbe0cfb563232861fa7fb5fc858c46efb0425c0aec064736f6c63430008030033",
  "immutableReferences": {},
  "source": "pragma solidity ^0.8.3;\r\nimport \"./libraries/SafeMath.sol\";\r\nimport \"./interfaces/IERC20.sol\";\r\n\r\ncontract GameToken is ERC20Interface {\r\n    string public name;\r\n    string public symbol;\r\n    uint8 public decimals; // 18 decimals is the strongly suggested default, avoid changing it\r\n\r\n    uint256 public _totalSupply;\r\n\r\n    mapping(address => uint) balances;\r\n    mapping(address => mapping(address => uint)) allowed;\r\n\r\n\r\n    constructor() {\r\n        name = \"ABCtoken\";\r\n        symbol = \"ABC\";\r\n        decimals = 18;\r\n        _totalSupply = 100000000000000000000000000;\r\n\r\n        balances[msg.sender] = _totalSupply;\r\n        emit Transfer(address(0), msg.sender, _totalSupply);\r\n    }\r\n\r\n    function totalSupply() external override view returns (uint) {\r\n        return _totalSupply - balances[address(0)];\r\n    }\r\n\r\n    function balanceOf(address tokenOwner) external override view returns (uint balance) {\r\n        return balances[tokenOwner];\r\n    }\r\n\r\n    function allowance(address tokenOwner, address spender) external override view returns (uint remaining) {\r\n        return allowed[tokenOwner][spender];\r\n    }\r\n\r\n    function approve(address spender, uint tokens) external override returns (bool success) {\r\n        allowed[msg.sender][spender] = tokens;\r\n        emit Approval(msg.sender, spender, tokens);\r\n        return true;\r\n    }\r\n\r\n    function transfer(address to, uint tokens) external override returns (bool success) {\r\n        balances[msg.sender] = SafeMath.safeSub(balances[msg.sender], tokens);\r\n        balances[to] = SafeMath.safeAdd(balances[to], tokens);\r\n        emit Transfer(msg.sender, to, tokens);\r\n        return true;\r\n    }\r\n\r\n    function transferFrom(address from, address to, uint tokens) external override returns (bool success) {\r\n        balances[from] = SafeMath.safeSub(balances[from], tokens);\r\n        allowed[from][msg.sender] = SafeMath.safeSub(allowed[from][msg.sender], tokens);\r\n        balances[to] = SafeMath.safeAdd(balances[to], tokens);\r\n        emit Transfer(from, to, tokens);\r\n        return true;\r\n    }\r\n}\r\n",
  "sourcePath": "C:/Users/Daniel/Desktop/Coding Projects/ether-empire/contracts/GameToken.sol",
  "compiler": {
    "name": "solc",
    "version": "0.8.3+commit.8d00100c.Emscripten.clang"
  },
  "schemaVersion": "3.3.4",
  "updatedAt": "2021-04-29T01:05:32.951Z",
  "networkType": "ethereum",
  "devdoc": {
    "kind": "dev",
    "methods": {},
    "version": 1
  },
  "userdoc": {
    "kind": "user",
    "methods": {},
    "version": 1
  }
}