{
  "contractName": "GameToken",
  "abi": [
    {
      "inputs": [],
      "stateMutability": "nonpayable",
      "type": "constructor"
    },
    {
      "anonymous": false,
      "inputs": [
        {
          "indexed": true,
          "internalType": "address",
          "name": "tokenOwner",
          "type": "address"
        },
        {
          "indexed": true,
          "internalType": "address",
          "name": "spender",
          "type": "address"
        },
        {
          "indexed": false,
          "internalType": "uint256",
          "name": "tokens",
          "type": "uint256"
        }
      ],
      "name": "Approval",
      "type": "event"
    },
    {
      "anonymous": false,
      "inputs": [
        {
          "indexed": true,
          "internalType": "address",
          "name": "from",
          "type": "address"
        },
        {
          "indexed": true,
          "internalType": "address",
          "name": "to",
          "type": "address"
        },
        {
          "indexed": false,
          "internalType": "uint256",
          "name": "tokens",
          "type": "uint256"
        }
      ],
      "name": "Transfer",
      "type": "event"
    },
    {
      "inputs": [],
      "name": "_totalSupply",
      "outputs": [
        {
          "internalType": "uint256",
          "name": "",
          "type": "uint256"
        }
      ],
      "stateMutability": "view",
      "type": "function"
    },
    {
      "inputs": [],
      "name": "decimals",
      "outputs": [
        {
          "internalType": "uint8",
          "name": "",
          "type": "uint8"
        }
      ],
      "stateMutability": "view",
      "type": "function"
    },
    {
      "inputs": [],
      "name": "name",
      "outputs": [
        {
          "internalType": "string",
          "name": "",
          "type": "string"
        }
      ],
      "stateMutability": "view",
      "type": "function"
    },
    {
      "inputs": [],
      "name": "symbol",
      "outputs": [
        {
          "internalType": "string",
          "name": "",
          "type": "string"
        }
      ],
      "stateMutability": "view",
      "type": "function"
    },
    {
      "inputs": [],
      "name": "totalSupply",
      "outputs": [
        {
          "internalType": "uint256",
          "name": "",
          "type": "uint256"
        }
      ],
      "stateMutability": "view",
      "type": "function"
    },
    {
      "inputs": [
        {
          "internalType": "address",
          "name": "tokenOwner",
          "type": "address"
        }
      ],
      "name": "balanceOf",
      "outputs": [
        {
          "internalType": "uint256",
          "name": "balance",
          "type": "uint256"
        }
      ],
      "stateMutability": "view",
      "type": "function"
    },
    {
      "inputs": [
        {
          "internalType": "address",
          "name": "tokenOwner",
          "type": "address"
        },
        {
          "internalType": "address",
          "name": "spender",
          "type": "address"
        }
      ],
      "name": "allowance",
      "outputs": [
        {
          "internalType": "uint256",
          "name": "remaining",
          "type": "uint256"
        }
      ],
      "stateMutability": "view",
      "type": "function"
    },
    {
      "inputs": [
        {
          "internalType": "address",
          "name": "spender",
          "type": "address"
        },
        {
          "internalType": "uint256",
          "name": "tokens",
          "type": "uint256"
        }
      ],
      "name": "approve",
      "outputs": [
        {
          "internalType": "bool",
          "name": "success",
          "type": "bool"
        }
      ],
      "stateMutability": "nonpayable",
      "type": "function"
    },
    {
      "inputs": [
        {
          "internalType": "address",
          "name": "to",
          "type": "address"
        },
        {
          "internalType": "uint256",
          "name": "tokens",
          "type": "uint256"
        }
      ],
      "name": "transfer",
      "outputs": [
        {
          "internalType": "bool",
          "name": "success",
          "type": "bool"
        }
      ],
      "stateMutability": "nonpayable",
      "type": "function"
    },
    {
      "inputs": [
        {
          "internalType": "address",
          "name": "from",
          "type": "address"
        },
        {
          "internalType": "address",
          "name": "to",
          "type": "address"
        },
        {
          "internalType": "uint256",
          "name": "tokens",
          "type": "uint256"
        }
      ],
      "name": "transferFrom",
      "outputs": [
        {
          "internalType": "bool",
          "name": "success",
          "type": "bool"
        }
      ],
      "stateMutability": "nonpayable",
      "type": "function"
    }
  ],
  "bytecode": "0x60806040523480156200001157600080fd5b506040518060400160405280600881526020017f414243746f6b656e000000000000000000000000000000000000000000000000815250600090805190602001906200005f9291906200018b565b506040518060400160405280600381526020017f414243000000000000000000000000000000000000000000000000000000000081525060019080519060200190620000ad9291906200018b565b506004600260006101000a81548160ff021916908360ff160217905550633b9aca00600381905550600354600460003373ffffffffffffffffffffffffffffffffffffffff1673ffffffffffffffffffffffffffffffffffffffff168152602001908152602001600020819055503373ffffffffffffffffffffffffffffffffffffffff16600073ffffffffffffffffffffffffffffffffffffffff167fddf252ad1be2c89b69c2b068fc378daa952ba7f163c4a11628f55a4df523b3ef6003546040516200017d91906200024c565b60405180910390a3620002d8565b828054620001999062000273565b90600052602060002090601f016020900481019282620001bd576000855562000209565b82601f10620001d857805160ff191683800117855562000209565b8280016001018555821562000209579182015b8281111562000208578251825591602001919060010190620001eb565b5b5090506200021891906200021c565b5090565b5b80821115620002375760008160009055506001016200021d565b5090565b620002468162000269565b82525050565b60006020820190506200026360008301846200023b565b92915050565b6000819050919050565b600060028204905060018216806200028c57607f821691505b60208210811415620002a357620002a2620002a9565b5b50919050565b7f4e487b7100000000000000000000000000000000000000000000000000000000600052602260045260246000fd5b610c6880620002e86000396000f3fe608060405234801561001057600080fd5b506004361061009e5760003560e01c80633eaaf86b116100665780633eaaf86b1461015d57806370a082311461017b57806395d89b41146101ab578063a9059cbb146101c9578063dd62ed3e146101f95761009e565b806306fdde03146100a3578063095ea7b3146100c157806318160ddd146100f157806323b872dd1461010f578063313ce5671461013f575b600080fd5b6100ab610229565b6040516100b891906109dd565b60405180910390f35b6100db60048036038101906100d69190610920565b6102b7565b6040516100e891906109c2565b60405180910390f35b6100f96103a9565b60405161010691906109ff565b60405180910390f35b610129600480360381019061012491906108d1565b6103fd565b60405161013691906109c2565b60405180910390f35b6101476105ae565b6040516101549190610a1a565b60405180910390f35b6101656105c1565b60405161017291906109ff565b60405180910390f35b6101956004803603810190610190919061086c565b6105c7565b6040516101a291906109ff565b60405180910390f35b6101b3610610565b6040516101c091906109dd565b60405180910390f35b6101e360048036038101906101de9190610920565b61069e565b6040516101f091906109c2565b60405180910390f35b610213600480360381019061020e9190610895565b6107bb565b60405161022091906109ff565b60405180910390f35b6000805461023690610b63565b80601f016020809104026020016040519081016040528092919081815260200182805461026290610b63565b80156102af5780601f10610284576101008083540402835291602001916102af565b820191906000526020600020905b81548152906001019060200180831161029257829003601f168201915b505050505081565b600081600560003373ffffffffffffffffffffffffffffffffffffffff1673ffffffffffffffffffffffffffffffffffffffff16815260200190815260200160002060008573ffffffffffffffffffffffffffffffffffffffff1673ffffffffffffffffffffffffffffffffffffffff168152602001908152602001600020819055508273ffffffffffffffffffffffffffffffffffffffff163373ffffffffffffffffffffffffffffffffffffffff167f8c5be1e5ebec7d5bd14f71427d1e84f3dd0314c0f7b2291e5b200ac8c7c3b9258460405161039791906109ff565b60405180910390a36001905092915050565b6000600460008073ffffffffffffffffffffffffffffffffffffffff1673ffffffffffffffffffffffffffffffffffffffff168152602001908152602001600020546003546103f89190610aa7565b905090565b600081600460008673ffffffffffffffffffffffffffffffffffffffff1673ffffffffffffffffffffffffffffffffffffffff168152602001908152602001600020600082825461044e9190610aa7565b9250508190555081600560008673ffffffffffffffffffffffffffffffffffffffff1673ffffffffffffffffffffffffffffffffffffffff16815260200190815260200160002060003373ffffffffffffffffffffffffffffffffffffffff1673ffffffffffffffffffffffffffffffffffffffff16815260200190815260200160002060008282546104e19190610aa7565b9250508190555081600460008573ffffffffffffffffffffffffffffffffffffffff1673ffffffffffffffffffffffffffffffffffffffff16815260200190815260200160002060008282546105379190610a51565b925050819055508273ffffffffffffffffffffffffffffffffffffffff168473ffffffffffffffffffffffffffffffffffffffff167fddf252ad1be2c89b69c2b068fc378daa952ba7f163c4a11628f55a4df523b3ef8460405161059b91906109ff565b60405180910390a3600190509392505050565b600260009054906101000a900460ff1681565b60035481565b6000600460008373ffffffffffffffffffffffffffffffffffffffff1673ffffffffffffffffffffffffffffffffffffffff168152602001908152602001600020549050919050565b6001805461061d90610b63565b80601f016020809104026020016040519081016040528092919081815260200182805461064990610b63565b80156106965780601f1061066b57610100808354040283529160200191610696565b820191906000526020600020905b81548152906001019060200180831161067957829003601f168201915b505050505081565b600081600460003373ffffffffffffffffffffffffffffffffffffffff1673ffffffffffffffffffffffffffffffffffffffff16815260200190815260200160002060008282546106ef9190610aa7565b9250508190555081600460008573ffffffffffffffffffffffffffffffffffffffff1673ffffffffffffffffffffffffffffffffffffffff16815260200190815260200160002060008282546107459190610a51565b925050819055508273ffffffffffffffffffffffffffffffffffffffff163373ffffffffffffffffffffffffffffffffffffffff167fddf252ad1be2c89b69c2b068fc378daa952ba7f163c4a11628f55a4df523b3ef846040516107a991906109ff565b60405180910390a36001905092915050565b6000600560008473ffffffffffffffffffffffffffffffffffffffff1673ffffffffffffffffffffffffffffffffffffffff16815260200190815260200160002060008373ffffffffffffffffffffffffffffffffffffffff1673ffffffffffffffffffffffffffffffffffffffff16815260200190815260200160002054905092915050565b60008135905061085181610c04565b92915050565b60008135905061086681610c1b565b92915050565b60006020828403121561087e57600080fd5b600061088c84828501610842565b91505092915050565b600080604083850312156108a857600080fd5b60006108b685828601610842565b92505060206108c785828601610842565b9150509250929050565b6000806000606084860312156108e657600080fd5b60006108f486828701610842565b935050602061090586828701610842565b925050604061091686828701610857565b9150509250925092565b6000806040838503121561093357600080fd5b600061094185828601610842565b925050602061095285828601610857565b9150509250929050565b61096581610aed565b82525050565b600061097682610a35565b6109808185610a40565b9350610990818560208601610b30565b61099981610bf3565b840191505092915050565b6109ad81610b19565b82525050565b6109bc81610b23565b82525050565b60006020820190506109d7600083018461095c565b92915050565b600060208201905081810360008301526109f7818461096b565b905092915050565b6000602082019050610a1460008301846109a4565b92915050565b6000602082019050610a2f60008301846109b3565b92915050565b600081519050919050565b600082825260208201905092915050565b6000610a5c82610b19565b9150610a6783610b19565b9250827fffffffffffffffffffffffffffffffffffffffffffffffffffffffffffffffff03821115610a9c57610a9b610b95565b5b828201905092915050565b6000610ab282610b19565b9150610abd83610b19565b925082821015610ad057610acf610b95565b5b828203905092915050565b6000610ae682610af9565b9050919050565b60008115159050919050565b600073ffffffffffffffffffffffffffffffffffffffff82169050919050565b6000819050919050565b600060ff82169050919050565b60005b83811015610b4e578082015181840152602081019050610b33565b83811115610b5d576000848401525b50505050565b60006002820490506001821680610b7b57607f821691505b60208210811415610b8f57610b8e610bc4565b5b50919050565b7f4e487b7100000000000000000000000000000000000000000000000000000000600052601160045260246000fd5b7f4e487b7100000000000000000000000000000000000000000000000000000000600052602260045260246000fd5b6000601f19601f8301169050919050565b610c0d81610adb565b8114610c1857600080fd5b50565b610c2481610b19565b8114610c2f57600080fd5b5056fea2646970667358221220df15b91205e4d4bf8c9aad8c237d5130eacd0e8168b4fdd8e436c7d658239e4464736f6c63430008030033",
  "immutableReferences": {},
  "source": "pragma solidity ^0.8.3;\r\nimport \"./libraries/SafeMath.sol\";\r\nimport \"./interfaces/IERC20.sol\";\r\n\r\ncontract GameToken is ERC20Interface {\r\n    string public name;\r\n    string public symbol;\r\n    uint8 public decimals; // 18 decimals is the strongly suggested default, avoid changing it\r\n\r\n    uint256 public _totalSupply;\r\n\r\n    mapping(address => uint) balances;\r\n    mapping(address => mapping(address => uint)) allowed;\r\n\r\n\r\n    constructor() {\r\n        name = \"ABCtoken\";\r\n        symbol = \"ABC\";\r\n        decimals = 4; // needs further work\r\n        _totalSupply = 1000000000;\r\n\r\n        balances[msg.sender] = _totalSupply;\r\n        emit Transfer(address(0), msg.sender, _totalSupply);\r\n    }\r\n\r\n    function totalSupply() external override view returns (uint) {\r\n        return _totalSupply - balances[address(0)];\r\n    }\r\n\r\n    function balanceOf(address tokenOwner) external override view returns (uint balance) {\r\n        return balances[tokenOwner];\r\n    }\r\n\r\n    function allowance(address tokenOwner, address spender) external override view returns (uint remaining) {\r\n        return allowed[tokenOwner][spender];\r\n    }\r\n\r\n    // promise to pay \r\n    function approve(address spender, uint tokens) external override returns (bool success) {\r\n        allowed[msg.sender][spender] = tokens;\r\n        emit Approval(msg.sender, spender, tokens);\r\n        return true;\r\n    }\r\n\r\n    function transfer(address to, uint tokens) external override returns (bool success) {\r\n        balances[msg.sender] -= tokens;\r\n        balances[to] += tokens;\r\n        emit Transfer(msg.sender, to, tokens);\r\n        return true;\r\n    }\r\n    \r\n    // take money from\r\n    function transferFrom(address from, address to, uint tokens) external override returns (bool success) {\r\n        balances[from] -= tokens;\r\n        allowed[from][msg.sender] -= tokens;\r\n        balances[to] += tokens;\r\n        emit Transfer(from, to, tokens);\r\n        return true;\r\n    }\r\n}\r\n",
  "sourcePath": "C:/Users/Kuan/Documents/GitHub/ether-empire/contracts/EtherEmpireToken.sol",
  "compiler": {
    "name": "solc",
    "version": "0.8.3+commit.8d00100c.Emscripten.clang"
  },
  "schemaVersion": "3.3.4",
  "updatedAt": "2021-05-03T01:36:56.674Z",
  "devdoc": {
    "kind": "dev",
    "methods": {},
    "version": 1
  },
  "userdoc": {
    "kind": "user",
    "methods": {},
    "version": 1
  }
}