{
  "contractName": "GameWorld",
  "abi": [
    {
      "inputs": [
        {
          "internalType": "uint64",
          "name": "_yieldMin_32x32",
          "type": "uint64"
        },
        {
          "internalType": "uint64",
          "name": "_yieldRange_32x32",
          "type": "uint64"
        }
      ],
      "stateMutability": "nonpayable",
      "type": "constructor"
    },
    {
      "anonymous": false,
      "inputs": [
        {
          "indexed": true,
          "internalType": "address",
          "name": "previousOwner",
          "type": "address"
        },
        {
          "indexed": true,
          "internalType": "address",
          "name": "newOwner",
          "type": "address"
        }
      ],
      "name": "OwnershipTransferred",
      "type": "event"
    },
    {
      "inputs": [
        {
          "internalType": "uint32",
          "name": "",
          "type": "uint32"
        }
      ],
      "name": "allEntities",
      "outputs": [
        {
          "internalType": "uint32",
          "name": "id",
          "type": "uint32"
        },
        {
          "internalType": "enum GameWorld.EntityType",
          "name": "entityType",
          "type": "uint8"
        },
        {
          "internalType": "uint64",
          "name": "qualifier1_32x32",
          "type": "uint64"
        },
        {
          "internalType": "uint64",
          "name": "qualifier2_32x32",
          "type": "uint64"
        },
        {
          "internalType": "uint16",
          "name": "locx",
          "type": "uint16"
        },
        {
          "internalType": "uint16",
          "name": "locy",
          "type": "uint16"
        }
      ],
      "stateMutability": "view",
      "type": "function",
      "constant": true
    },
    {
      "inputs": [],
      "name": "globalLandValue_32x32",
      "outputs": [
        {
          "internalType": "uint64",
          "name": "",
          "type": "uint64"
        }
      ],
      "stateMutability": "view",
      "type": "function",
      "constant": true
    },
    {
      "inputs": [],
      "name": "map_height",
      "outputs": [
        {
          "internalType": "uint16",
          "name": "",
          "type": "uint16"
        }
      ],
      "stateMutability": "view",
      "type": "function",
      "constant": true
    },
    {
      "inputs": [],
      "name": "map_width",
      "outputs": [
        {
          "internalType": "uint16",
          "name": "",
          "type": "uint16"
        }
      ],
      "stateMutability": "view",
      "type": "function",
      "constant": true
    },
    {
      "inputs": [],
      "name": "owner",
      "outputs": [
        {
          "internalType": "address",
          "name": "",
          "type": "address"
        }
      ],
      "stateMutability": "view",
      "type": "function",
      "constant": true
    },
    {
      "inputs": [],
      "name": "renounceOwnership",
      "outputs": [],
      "stateMutability": "nonpayable",
      "type": "function"
    },
    {
      "inputs": [
        {
          "internalType": "address",
          "name": "newOwner",
          "type": "address"
        }
      ],
      "name": "transferOwnership",
      "outputs": [],
      "stateMutability": "nonpayable",
      "type": "function"
    },
    {
      "inputs": [],
      "name": "yieldMin_32x32",
      "outputs": [
        {
          "internalType": "uint64",
          "name": "",
          "type": "uint64"
        }
      ],
      "stateMutability": "view",
      "type": "function",
      "constant": true
    },
    {
      "inputs": [],
      "name": "yieldRange_32x32",
      "outputs": [
        {
          "internalType": "uint64",
          "name": "",
          "type": "uint64"
        }
      ],
      "stateMutability": "view",
      "type": "function",
      "constant": true
    },
    {
      "inputs": [
        {
          "internalType": "uint16",
          "name": "_width",
          "type": "uint16"
        },
        {
          "internalType": "uint16",
          "name": "_height",
          "type": "uint16"
        },
        {
          "internalType": "uint256",
          "name": "_seed",
          "type": "uint256"
        }
      ],
      "name": "populateLand",
      "outputs": [],
      "stateMutability": "nonpayable",
      "type": "function"
    },
    {
      "inputs": [
        {
          "internalType": "uint16",
          "name": "_locx",
          "type": "uint16"
        },
        {
          "internalType": "uint16",
          "name": "_locy",
          "type": "uint16"
        }
      ],
      "name": "yieldValue",
      "outputs": [
        {
          "internalType": "uint256",
          "name": "",
          "type": "uint256"
        }
      ],
      "stateMutability": "view",
      "type": "function",
      "constant": true
    },
    {
      "inputs": [
        {
          "internalType": "uint16",
          "name": "_locx",
          "type": "uint16"
        },
        {
          "internalType": "uint16",
          "name": "_locy",
          "type": "uint16"
        },
        {
          "internalType": "uint32",
          "name": "tokenStaked",
          "type": "uint32"
        }
      ],
      "name": "buildFarm",
      "outputs": [],
      "stateMutability": "nonpayable",
      "type": "function"
    },
    {
      "inputs": [
        {
          "internalType": "uint16",
          "name": "_locx",
          "type": "uint16"
        },
        {
          "internalType": "uint16",
          "name": "_locy",
          "type": "uint16"
        },
        {
          "internalType": "uint32",
          "name": "tokenStaked",
          "type": "uint32"
        }
      ],
      "name": "buildWall",
      "outputs": [],
      "stateMutability": "nonpayable",
      "type": "function"
    }
  ],
  "bytecode": "0x60806040523480156200001157600080fd5b506040516200307a3803806200307a83398181016040528101906200003791906200018a565b6000620000496200016b60201b60201c565b9050806000806101000a81548173ffffffffffffffffffffffffffffffffffffffff021916908373ffffffffffffffffffffffffffffffffffffffff1602179055508073ffffffffffffffffffffffffffffffffffffffff16600073ffffffffffffffffffffffffffffffffffffffff167f8be0079c531659141344cd1fd0a4f28419497f9722a3daafe3b4186f6b6457e060405160405180910390a35081600660006101000a81548167ffffffffffffffff021916908367ffffffffffffffff16021790555080600660086101000a81548167ffffffffffffffff021916908367ffffffffffffffff1602179055506000600660106101000a81548167ffffffffffffffff021916908367ffffffffffffffff1602179055505050620001f9565b600033905090565b6000815190506200018481620001df565b92915050565b600080604083850312156200019e57600080fd5b6000620001ae8582860162000173565b9250506020620001c18582860162000173565b9150509250929050565b600067ffffffffffffffff82169050919050565b620001ea81620001cb565b8114620001f657600080fd5b50565b612e7180620002096000396000f3fe608060405234801561001057600080fd5b50600436106100cf5760003560e01c806384937d881161008c578063d5bda1a511610066578063d5bda1a5146101f3578063dacd27dc1461020f578063f02cae611461022d578063f2fde38b1461024b576100cf565b806384937d88146101825780638da5cb5b146101a0578063ac479a8a146101be576100cf565b806315b7d227146100d45780632b2a33f1146100f25780634b544fba1461010e5780635205e5fb1461012a578063715018a61461015a57806375f189f914610164575b600080fd5b6100dc610267565b6040516100e991906123cf565b60405180910390f35b61010c60048036038101906101079190612001565b61027b565b005b61012860048036038101906101239190611fb2565b6106ca565b005b610144600480360381019061013f9190611f76565b610b0a565b60405161015191906123ea565b60405180910390f35b610162610d99565b005b61016c610ed3565b6040516101799190612466565b60405180910390f35b61018a610eed565b6040516101979190612466565b60405180910390f35b6101a8610f07565b6040516101b59190612274565b60405180910390f35b6101d860048036038101906101d39190612050565b610f30565b6040516101ea96959493929190612405565b60405180910390f35b61020d60048036038101906102089190612001565b610fcd565b005b610217611390565b6040516102249190612466565b60405180910390f35b6102356113aa565b60405161024291906123cf565b60405180910390f35b61026560048036038101906102609190611f4d565b6113bc565b005b600260009054906101000a900461ffff1681565b82826001600073ffffffffffffffffffffffffffffffffffffffff166003600060028054906101000a900461ffff16600260009054906101000a900461ffff168560ff166102c991906127a1565b6102d391906127a1565b600260009054906101000a900461ffff16866102ef91906127a1565b876102fa9190612492565b6103049190612492565b61ffff1663ffffffff16815260200190815260200160002060009054906101000a900473ffffffffffffffffffffffffffffffffffffffff1673ffffffffffffffffffffffffffffffffffffffff161461035d57600080fd5b6000600260009054906101000a900461ffff1660028054906101000a900461ffff1661038991906127a1565b600260009054906101000a900461ffff16876103a591906127a1565b886103b09190612492565b6103ba9190612492565b61ffff169050600043905060006103f160208863ffffffff1667ffffffffffffffff16901b67ffffffffffffffff16602080611565565b90506040518060c001604052808463ffffffff168152602001600380811115610443577f4e487b7100000000000000000000000000000000000000000000000000000000600052602160045260246000fd5b81526020018363ffffffff1667ffffffffffffffff1681526020018267ffffffffffffffff1681526020018a61ffff1681526020018961ffff16815250600160008563ffffffff1663ffffffff16815260200190815260200160002060008201518160000160006101000a81548163ffffffff021916908363ffffffff16021790555060208201518160000160046101000a81548160ff02191690836003811115610517577f4e487b7100000000000000000000000000000000000000000000000000000000600052602160045260246000fd5b021790555060408201518160000160056101000a81548167ffffffffffffffff021916908367ffffffffffffffff160217905550606082015181600001600d6101000a81548167ffffffffffffffff021916908367ffffffffffffffff16021790555060808201518160000160156101000a81548161ffff021916908361ffff16021790555060a08201518160000160176101000a81548161ffff021916908361ffff160217905550905050610619600560008463ffffffff1663ffffffff16815260200190815260200160002060009054906101000a900467ffffffffffffffff1667ffffffffffffffff168267ffffffffffffffff166020806020611612565b600560008463ffffffff1663ffffffff16815260200190815260200160002060006101000a81548167ffffffffffffffff021916908367ffffffffffffffff160217905550610697600660109054906101000a900467ffffffffffffffff1667ffffffffffffffff168267ffffffffffffffff166020806020611612565b600660106101000a81548167ffffffffffffffff021916908367ffffffffffffffff160217905550505050505050505050565b6106d261163f565b73ffffffffffffffffffffffffffffffffffffffff166106f0610f07565b73ffffffffffffffffffffffffffffffffffffffff1614610746576040517f08c379a000000000000000000000000000000000000000000000000000000000815260040161073d9061234f565b60405180910390fd5b6000600160008063ffffffff16815260200190815260200160002060000160159054906101000a900461ffff1661ffff16146107b7576040517f08c379a00000000000000000000000000000000000000000000000000000000081526004016107ae906123af565b60405180910390fd5b82600260006101000a81548161ffff021916908361ffff160217905550816002806101000a81548161ffff021916908361ffff1602179055506000805b8461ffff168161ffff161015610b035760005b8461ffff168161ffff161015610aef576000600260009054906101000a900461ffff168361083591906127a1565b826108409190612492565b61ffff16905060006040518060c001604052808363ffffffff16815260200160006003811115610899577f4e487b7100000000000000000000000000000000000000000000000000000000600052602160045260246000fd5b8152602001600067ffffffffffffffff168152602001610914600660009054906101000a900467ffffffffffffffff1667ffffffffffffffff1661090a8a8a806108e290612a32565b9b50600660089054906101000a900467ffffffffffffffff1667ffffffffffffffff16611647565b6020806020611612565b67ffffffffffffffff1681526020018461ffff1681526020018561ffff16815250905080600160008463ffffffff1663ffffffff16815260200190815260200160002060008201518160000160006101000a81548163ffffffff021916908363ffffffff16021790555060208201518160000160046101000a81548160ff021916908360038111156109cf577f4e487b7100000000000000000000000000000000000000000000000000000000600052602160045260246000fd5b021790555060408201518160000160056101000a81548167ffffffffffffffff021916908367ffffffffffffffff160217905550606082015181600001600d6101000a81548167ffffffffffffffff021916908367ffffffffffffffff16021790555060808201518160000160156101000a81548161ffff021916908361ffff16021790555060a08201518160000160176101000a81548161ffff021916908361ffff1602179055509050506000600360008463ffffffff1663ffffffff16815260200190815260200160002060006101000a81548173ffffffffffffffffffffffffffffffffffffffff021916908373ffffffffffffffffffffffffffffffffffffffff16021790555050508080610ae790612a07565b915050610807565b508080610afb90612a07565b9150506107f4565b5050505050565b600080600260009054906101000a900461ffff1660028054906101000a900461ffff16610b3791906127a1565b600260009054906101000a900461ffff1684610b5391906127a1565b85610b5e9190612492565b610b689190612492565b61ffff1690506000600160008363ffffffff1663ffffffff1681526020019081526020016000209050600380811115610bca577f4e487b7100000000000000000000000000000000000000000000000000000000600052602160045260246000fd5b8160000160049054906101000a900460ff166003811115610c14577f4e487b7100000000000000000000000000000000000000000000000000000000600052602160045260246000fd5b14610c1e57600080fd5b6000600660109054906101000a900467ffffffffffffffff1667ffffffffffffffff1690506000804390505b600160008663ffffffff1663ffffffff16815260200190815260200160002060000160059054906101000a900467ffffffffffffffff1667ffffffffffffffff168163ffffffff161115610d8b57610d2882610d1d610cd287600001600d9054906101000a900467ffffffffffffffff1667ffffffffffffffff168760208060e06020611689565b600460008663ffffffff1663ffffffff16815260200190815260200160002060009054906101000a900467ffffffffffffffff1667ffffffffffffffff166020600060e06020611807565b6000602060e0611612565b9150610d7683600560008463ffffffff1663ffffffff16815260200190815260200160002060009054906101000a900467ffffffffffffffff1667ffffffffffffffff1660208060e0611a37565b92508080610d83906129dd565b915050610c4a565b508094505050505092915050565b610da161163f565b73ffffffffffffffffffffffffffffffffffffffff16610dbf610f07565b73ffffffffffffffffffffffffffffffffffffffff1614610e15576040517f08c379a0000000000000000000000000000000000000000000000000000000008152600401610e0c9061234f565b60405180910390fd5b600073ffffffffffffffffffffffffffffffffffffffff1660008054906101000a900473ffffffffffffffffffffffffffffffffffffffff1673ffffffffffffffffffffffffffffffffffffffff167f8be0079c531659141344cd1fd0a4f28419497f9722a3daafe3b4186f6b6457e060405160405180910390a360008060006101000a81548173ffffffffffffffffffffffffffffffffffffffff021916908373ffffffffffffffffffffffffffffffffffffffff160217905550565b600660089054906101000a900467ffffffffffffffff1681565b600660009054906101000a900467ffffffffffffffff1681565b60008060009054906101000a900473ffffffffffffffffffffffffffffffffffffffff16905090565b60016020528060005260406000206000915090508060000160009054906101000a900463ffffffff16908060000160049054906101000a900460ff16908060000160059054906101000a900467ffffffffffffffff169080600001600d9054906101000a900467ffffffffffffffff16908060000160159054906101000a900461ffff16908060000160179054906101000a900461ffff16905086565b82826001600073ffffffffffffffffffffffffffffffffffffffff166003600060028054906101000a900461ffff16600260009054906101000a900461ffff168560ff1661101b91906127a1565b61102591906127a1565b600260009054906101000a900461ffff168661104191906127a1565b8761104c9190612492565b6110569190612492565b61ffff1663ffffffff16815260200190815260200160002060009054906101000a900473ffffffffffffffffffffffffffffffffffffffff1673ffffffffffffffffffffffffffffffffffffffff16146110af57600080fd5b6000600260009054906101000a900461ffff1660028054906101000a900461ffff166110db91906127a1565b600260009054906101000a900461ffff16876110f791906127a1565b886111029190612492565b61110c9190612492565b61ffff1690506000439050600060208763ffffffff1667ffffffffffffffff16901b90506040518060c001604052808463ffffffff16815260200160016003811115611181577f4e487b7100000000000000000000000000000000000000000000000000000000600052602160045260246000fd5b81526020018363ffffffff1667ffffffffffffffff1681526020018267ffffffffffffffff1681526020018a61ffff1681526020018961ffff16815250600160008563ffffffff1663ffffffff16815260200190815260200160002060008201518160000160006101000a81548163ffffffff021916908363ffffffff16021790555060208201518160000160046101000a81548160ff02191690836003811115611255577f4e487b7100000000000000000000000000000000000000000000000000000000600052602160045260246000fd5b021790555060408201518160000160056101000a81548167ffffffffffffffff021916908367ffffffffffffffff160217905550606082015181600001600d6101000a81548167ffffffffffffffff021916908367ffffffffffffffff16021790555060808201518160000160156101000a81548161ffff021916908361ffff16021790555060a08201518160000160176101000a81548161ffff021916908361ffff16021790555090505080600460008463ffffffff1663ffffffff16815260200190815260200160002060009054906101000a900467ffffffffffffffff166113409190612520565b600460008463ffffffff1663ffffffff16815260200190815260200160002060006101000a81548167ffffffffffffffff021916908367ffffffffffffffff160217905550505050505050505050565b600660109054906101000a900467ffffffffffffffff1681565b60028054906101000a900461ffff1681565b6113c461163f565b73ffffffffffffffffffffffffffffffffffffffff166113e2610f07565b73ffffffffffffffffffffffffffffffffffffffff1614611438576040517f08c379a000000000000000000000000000000000000000000000000000000000815260040161142f9061234f565b60405180910390fd5b600073ffffffffffffffffffffffffffffffffffffffff168173ffffffffffffffffffffffffffffffffffffffff1614156114a8576040517f08c379a000000000000000000000000000000000000000000000000000000000815260040161149f906122cf565b60405180910390fd5b8073ffffffffffffffffffffffffffffffffffffffff1660008054906101000a900473ffffffffffffffffffffffffffffffffffffffff1673ffffffffffffffffffffffffffffffffffffffff167f8be0079c531659141344cd1fd0a4f28419497f9722a3daafe3b4186f6b6457e060405160405180910390a3806000806101000a81548173ffffffffffffffffffffffffffffffffffffffff021916908373ffffffffffffffffffffffffffffffffffffffff16021790555050565b60008061157185611a64565b60ff61157d91906128ff565b60ff1690506002848261159091906124ca565b61159a9190612a85565b816115a591906128cb565b9050600083600286846115b891906124ca565b6115c29190612595565b6115cc9190612837565b9050600081126115ee57806115e38388901b611bbd565b901c9250505061160b565b806115f890612ab6565b6116048388901b611bbd565b901b925050505b9392505050565b600061163486611623878787611d89565b848761162f91906124ca565b611e17565b905095945050505050565b600033905090565b600081848460405160200161165d929190612248565b6040516020818303038152906040528051906020012060001c6116809190612a85565b90509392505050565b60008086116116cd576040517f08c379a00000000000000000000000000000000000000000000000000000000081526004016116c49061230f565b60405180910390fd5b60006116d888611a64565b60ff6116e491906128ff565b60ff169050600087828a901b6116fa91906125ff565b90506000828861170a91906124ca565b878661171691906124ca565b6117209190612837565b90506000811215611742578061173590612ab6565b82901c93505050506117fd565b600082828385901b925082901c1461178f576040517f08c379a00000000000000000000000000000000000000000000000000000000081526004016117869061236f565b60405180910390fd5b6001868861179d91906124ca565b60026117a99190612683565b6117b391906128cb565b8111156117f5576040517f08c379a00000000000000000000000000000000000000000000000000000000081526004016117ec9061236f565b60405180910390fd5b809450505050505b9695505050505050565b6000808714806118175750600086145b156118255760009050611a2d565b60008588901c905060008682901b8961183e91906128cb565b905060008689901c905060008782901b8a61185991906128cb565b90506000828561186991906127dd565b90506000828561187991906127dd565b90506000838761188991906127dd565b90506000868661189991906127dd565b905060018b60026118aa9190612683565b6118b491906128cb565b8411156118f6576040517f08c379a00000000000000000000000000000000000000000000000000000000081526004016118ed9061238f565b60405180910390fd5b60008a85901b90508c8e61190a91906124ca565b8b1061196e578c8e8c61191d91906128cb565b61192791906128cb565b84901b8e8c61193691906128cb565b83901b8e8d61194591906128cb565b85901b61195291906124ca565b61195c91906124ca565b8161196791906124ca565b9050611a20565b8a8d8f61197b91906124ca565b61198591906128cb565b84901c8161199391906124ca565b90508d8b106119bd578d8b6119a891906128cb565b82901b816119b691906124ca565b90506119da565b8a8e6119c991906128cb565b82901c816119d791906124ca565b90505b8c8b10611a02578c8b6119ed91906128cb565b83901b816119fb91906124ca565b9050611a1f565b8a8d611a0e91906128cb565b83901c81611a1c91906124ca565b90505b5b8099505050505050505050505b9695505050505050565b6000611a5986611a48878787611d89565b8487611a5491906124ca565b611e88565b905095945050505050565b6000808211611aa8576040517f08c379a0000000000000000000000000000000000000000000000000000000008152600401611a9f906122af565b60405180910390fd5b7001000000000000000000000000000000008210611ad757608082901c9150608081611ad4919061255e565b90505b680100000000000000008210611afe57604082901c9150604081611afb919061255e565b90505b6401000000008210611b2157602082901c9150602081611b1e919061255e565b90505b620100008210611b4257601082901c9150601081611b3f919061255e565b90505b6101008210611b6257600882901c9150600881611b5f919061255e565b90505b60108210611b8157600482901c9150600481611b7e919061255e565b90505b60048210611ba057600282901c9150600281611b9d919061255e565b90505b60028210611bb857600181611bb5919061255e565b90505b919050565b600080821415611bd05760009050611d84565b60008290506000600190507001000000000000000000000000000000008210611c0257608082901c9150604081901b90505b680100000000000000008210611c2157604082901c9150602081901b90505b6401000000008210611c3c57602082901c9150601081901b90505b620100008210611c5557601082901c9150600881901b90505b6101008210611c6d57600882901c9150600481901b90505b60108210611c8457600482901c9150600281901b90505b60088210611c9457600181901b90505b60018185611ca291906125ff565b82611cad91906124ca565b901c905060018185611cbf91906125ff565b82611cca91906124ca565b901c905060018185611cdc91906125ff565b82611ce791906124ca565b901c905060018185611cf991906125ff565b82611d0491906124ca565b901c905060018185611d1691906125ff565b82611d2191906124ca565b901c905060018185611d3391906125ff565b82611d3e91906124ca565b901c905060018185611d5091906125ff565b82611d5b91906124ca565b901c905060008185611d6d91906125ff565b9050808210611d7c5780611d7e565b815b93505050505b919050565b6000828211611da8578183611d9e91906128cb565b84901c9050611e10565b6000848484611db791906128cb565b8585611dc391906128cb565b87901b925082901c14611e0b576040517f08c379a0000000000000000000000000000000000000000000000000000000008152600401611e029061232f565b60405180910390fd5b809150505b9392505050565b600083826002611e279190612683565b8486611e3391906124ca565b925082611e409190612a85565b1015611e81576040517f08c379a0000000000000000000000000000000000000000000000000000000008152600401611e78906122ef565b60405180910390fd5b9392505050565b600083826002611e989190612683565b8486611ea491906128cb565b925082611eb19190612a85565b1115611ef2576040517f08c379a0000000000000000000000000000000000000000000000000000000008152600401611ee99061228f565b60405180910390fd5b9392505050565b600081359050611f0881612ddf565b92915050565b600081359050611f1d81612df6565b92915050565b600081359050611f3281612e0d565b92915050565b600081359050611f4781612e24565b92915050565b600060208284031215611f5f57600080fd5b6000611f6d84828501611ef9565b91505092915050565b60008060408385031215611f8957600080fd5b6000611f9785828601611f0e565b9250506020611fa885828601611f0e565b9150509250929050565b600080600060608486031215611fc757600080fd5b6000611fd586828701611f0e565b9350506020611fe686828701611f0e565b9250506040611ff786828701611f23565b9150509250925092565b60008060006060848603121561201657600080fd5b600061202486828701611f0e565b935050602061203586828701611f0e565b925050604061204686828701611f38565b9150509250925092565b60006020828403121561206257600080fd5b600061207084828501611f38565b91505092915050565b61208281612933565b82525050565b612091816129cb565b82525050565b60006120a4601583612481565b91506120af82612b99565b602082019050919050565b60006120c7602183612481565b91506120d282612bc2565b604082019050919050565b60006120ea602683612481565b91506120f582612c11565b604082019050919050565b600061210d601a83612481565b915061211882612c60565b602082019050919050565b6000612130602383612481565b915061213b82612c89565b604082019050919050565b6000612153601c83612481565b915061215e82612cd8565b602082019050919050565b6000612176602083612481565b915061218182612d01565b602082019050919050565b6000612199601c83612481565b91506121a482612d2a565b602082019050919050565b60006121bc602183612481565b91506121c782612d53565b604082019050919050565b60006121df600f83612481565b91506121ea82612da2565b602082019050919050565b6121fe81612962565b82525050565b61220d81612990565b82525050565b61222461221f82612990565b612a7b565b82525050565b6122338161299a565b82525050565b612242816129aa565b82525050565b60006122548285612213565b6020820191506122648284612213565b6020820191508190509392505050565b60006020820190506122896000830184612079565b92915050565b600060208201905081810360008301526122a881612097565b9050919050565b600060208201905081810360008301526122c8816120ba565b9050919050565b600060208201905081810360008301526122e8816120dd565b9050919050565b6000602082019050818103600083015261230881612100565b9050919050565b6000602082019050818103600083015261232881612123565b9050919050565b6000602082019050818103600083015261234881612146565b9050919050565b6000602082019050818103600083015261236881612169565b9050919050565b600060208201905081810360008301526123888161218c565b9050919050565b600060208201905081810360008301526123a8816121af565b9050919050565b600060208201905081810360008301526123c8816121d2565b9050919050565b60006020820190506123e460008301846121f5565b92915050565b60006020820190506123ff6000830184612204565b92915050565b600060c08201905061241a600083018961222a565b6124276020830188612088565b6124346040830187612239565b6124416060830186612239565b61244e60808301856121f5565b61245b60a08301846121f5565b979650505050505050565b600060208201905061247b6000830184612239565b92915050565b600082825260208201905092915050565b600061249d82612962565b91506124a883612962565b92508261ffff038211156124bf576124be612aff565b5b828201905092915050565b60006124d582612990565b91506124e083612990565b9250827fffffffffffffffffffffffffffffffffffffffffffffffffffffffffffffffff0382111561251557612514612aff565b5b828201905092915050565b600061252b826129aa565b9150612536836129aa565b92508267ffffffffffffffff0382111561255357612552612aff565b5b828201905092915050565b6000612569826129be565b9150612574836129be565b92508260ff0382111561258a57612589612aff565b5b828201905092915050565b60006125a082612958565b91506125ab83612958565b9250826125bb576125ba612b2e565b5b600160000383147f8000000000000000000000000000000000000000000000000000000000000000831416156125f4576125f3612aff565b5b828205905092915050565b600061260a82612990565b915061261583612990565b92508261262557612624612b2e565b5b828204905092915050565b6000808291508390505b600185111561267a5780860481111561265657612655612aff565b5b60018516156126655780820291505b808102905061267385612b8c565b945061263a565b94509492505050565b600061268e82612990565b915061269983612990565b92506126c67fffffffffffffffffffffffffffffffffffffffffffffffffffffffffffffffff84846126ce565b905092915050565b6000826126de576001905061279a565b816126ec576000905061279a565b8160018114612702576002811461270c5761273b565b600191505061279a565b60ff84111561271e5761271d612aff565b5b8360020a91508482111561273557612734612aff565b5b5061279a565b5060208310610133831016604e8410600b84101617156127705782820a90508381111561276b5761276a612aff565b5b61279a565b61277d8484846001612630565b9250905081840481111561279457612793612aff565b5b81810290505b9392505050565b60006127ac82612962565b91506127b783612962565b92508161ffff04831182151516156127d2576127d1612aff565b5b828202905092915050565b60006127e882612990565b91506127f383612990565b9250817fffffffffffffffffffffffffffffffffffffffffffffffffffffffffffffffff048311821515161561282c5761282b612aff565b5b828202905092915050565b600061284282612958565b915061284d83612958565b9250827f80000000000000000000000000000000000000000000000000000000000000000182126000841215161561288857612887612aff565b5b827f7fffffffffffffffffffffffffffffffffffffffffffffffffffffffffffffff0182136000841216156128c0576128bf612aff565b5b828203905092915050565b60006128d682612990565b91506128e183612990565b9250828210156128f4576128f3612aff565b5b828203905092915050565b600061290a826129be565b9150612915836129be565b92508282101561292857612927612aff565b5b828203905092915050565b600061293e82612970565b9050919050565b600081905061295382612dcb565b919050565b6000819050919050565b600061ffff82169050919050565b600073ffffffffffffffffffffffffffffffffffffffff82169050919050565b6000819050919050565b600063ffffffff82169050919050565b600067ffffffffffffffff82169050919050565b600060ff82169050919050565b60006129d682612945565b9050919050565b60006129e88261299a565b915060008214156129fc576129fb612aff565b5b600182039050919050565b6000612a1282612962565b915061ffff821415612a2757612a26612aff565b5b600182019050919050565b6000612a3d82612990565b91507fffffffffffffffffffffffffffffffffffffffffffffffffffffffffffffffff821415612a7057612a6f612aff565b5b600182019050919050565b6000819050919050565b6000612a9082612990565b9150612a9b83612990565b925082612aab57612aaa612b2e565b5b828206905092915050565b6000612ac182612958565b91507f8000000000000000000000000000000000000000000000000000000000000000821415612af457612af3612aff565b5b816000039050919050565b7f4e487b7100000000000000000000000000000000000000000000000000000000600052601160045260246000fd5b7f4e487b7100000000000000000000000000000000000000000000000000000000600052601260045260246000fd5b7f4e487b7100000000000000000000000000000000000000000000000000000000600052602160045260246000fd5b60008160011c9050919050565b7f64732d6d6174682d7375622d756e646572666c6f770000000000000000000000600082015250565b7f4269744d6174683a3a6d6f73745369676e69666963616e744269743a207a657260008201527f6f00000000000000000000000000000000000000000000000000000000000000602082015250565b7f4f776e61626c653a206e6577206f776e657220697320746865207a65726f206160008201527f6464726573730000000000000000000000000000000000000000000000000000602082015250565b7f64732d6d6174682d6164642d6f766572666c6f77646673667766000000000000600082015250565b7f4669786564506f696e743a3a64697675713a206469766973696f6e206279207a60008201527f65726f0000000000000000000000000000000000000000000000000000000000602082015250565b7f4669786564506f696e743a3a656e636f64653a206f766572666c6f7700000000600082015250565b7f4f776e61626c653a2063616c6c6572206973206e6f7420746865206f776e6572600082015250565b7f4669786564506f696e743a3a6469766964653a206f766572666c6f7700000000600082015250565b7f4669786564506f696e743a3a6d756c75713a207570706572206f766572666c6f60008201527f7700000000000000000000000000000000000000000000000000000000000000602082015250565b7f4e6f6e2d656d70747920776f726c640000000000000000000000000000000000600082015250565b60048110612ddc57612ddb612b5d565b5b50565b612de881612933565b8114612df357600080fd5b50565b612dff81612962565b8114612e0a57600080fd5b50565b612e1681612990565b8114612e2157600080fd5b50565b612e2d8161299a565b8114612e3857600080fd5b5056fea2646970667358221220e66da4e8ecaf2570bdd5f0ec7d391e5f01c6648b69e11d36b0036d2f3dd46c2664736f6c63430008030033",
  "immutableReferences": {},
  "source": "// SPDX-License-Identifier: Unlicensed\r\npragma solidity ^0.8.3;\r\nimport \"@openzeppelin/contracts/access/Ownable.sol\";\r\nimport \"./libraries/FixedPoint.sol\"; \r\n\r\ncontract GameWorld is Ownable {\r\n\r\n    enum EntityType { \r\n        TILE,       // q1: TileType     q2: Modifier\r\n        WALL, \r\n        ARMY, \r\n        FARM        // q1: BlockNumber  q2: FarmValue\r\n        }\r\n\r\n    struct Entity {\r\n        uint32 id;\r\n        EntityType entityType;\r\n        uint64 qualifier1_32x32; \r\n        uint64 qualifier2_32x32; \r\n        uint16 locx;\r\n        uint16 locy;\r\n    }\r\n\r\n    mapping (uint32 => Entity) public allEntities;\r\n    uint16 public map_width;\r\n    uint16 public map_height;\r\n\r\n    mapping (uint32 => address) entityToOwner; \r\n    mapping (uint32 => uint64) tokensBurntAtBlock; // Token capped out at 2 ** 64 \r\n    mapping (uint32 => uint64) landValueAddedAtBlock;\r\n\r\n    // Fixed point float numbers , with range [0, 2*8] and resolution of 1/2*8\r\n    uint64 public yieldMin_32x32; \r\n    uint64 public yieldRange_32x32; \r\n    uint64 public globalLandValue_32x32;\r\n\r\n    constructor(uint64 _yieldMin_32x32, uint64 _yieldRange_32x32) {\r\n        yieldMin_32x32 = _yieldMin_32x32;\r\n        yieldRange_32x32 = _yieldRange_32x32; \r\n        globalLandValue_32x32 = 0;\r\n    }\r\n\r\n    modifier onlyOwnerOf(uint32 _entityId, address owner) {\r\n        require(entityToOwner[_entityId] == owner);\r\n        _;\r\n    }\r\n\r\n    modifier isEmpty(uint16 _locx, uint16 _locy, uint8 layer) {\r\n        require(entityToOwner[_locx  + _locy * map_width + layer * map_width * map_height] == address(0));\r\n        _; \r\n    }\r\n\r\n    function _randMod(uint _seed, uint _nonce, uint _mod) internal pure returns(uint) {\r\n        return uint(keccak256(abi.encodePacked(_seed, _nonce))) % _mod; \r\n    }\r\n\r\n    // This function can only be called by whoever deployed the contract \r\n    function populateLand(uint16 _width, uint16 _height, uint _seed) onlyOwner public {\r\n        require(allEntities[0].locx == 0, \"Non-empty world\");\r\n\r\n        map_width = _width;\r\n        map_height = _height; \r\n\r\n        // Declare a local nonce so that the same seed will generate the same map \r\n        uint nonce = 0;\r\n\r\n        for (uint16 y = 0; y < _width; y++) {\r\n            for (uint16 x = 0; x < _height; x++) {\r\n                uint32 index = x + y * map_width;\r\n                // Currently only generates arable lands \r\n                Entity memory newLand = Entity(uint32(index), EntityType.TILE, 0, uint64(FixedPoint.add(yieldMin_32x32, _randMod(_seed, nonce++, yieldRange_32x32), 32, 32, 32)), x, y);\r\n                allEntities[index] = newLand; \r\n                entityToOwner[index] = address(0); // wilderness\r\n\r\n            }\r\n        }\r\n    }\r\n\r\n    // Returns total farm yield at current block number, in the UQ144x112 format. Assumes supply of tokens do not exceed 2**144 - 1 \r\n    function yieldValue(uint16 _locx, uint16 _locy) view public returns(uint) {\r\n        uint32 index = _locx + _locy * map_width + map_height * map_width; \r\n        Entity storage thisFarm = allEntities[index];\r\n        require(thisFarm.entityType == EntityType.FARM);\r\n        uint landValueAtBlock_224x32 = globalLandValue_32x32; \r\n        uint cumulativeYield_224x32 = 0; \r\n        for (uint32 i = uint32(block.number); i > allEntities[index].qualifier1_32x32; i--) {\r\n            cumulativeYield_224x32 = FixedPoint.add(cumulativeYield_224x32, \r\n            FixedPoint.multiply(FixedPoint.divide(thisFarm.qualifier2_32x32, landValueAtBlock_224x32, 32, 32, 224, 32), \r\n            tokensBurntAtBlock[i], 32, 0, 224, 32), \r\n            0, 32, 224); \r\n            landValueAtBlock_224x32 = FixedPoint.sub(landValueAtBlock_224x32,landValueAddedAtBlock[i], 32, 32, 224); \r\n        }\r\n        return cumulativeYield_224x32;\r\n    }\r\n\r\n    // Requires implementation of ERC20 \r\n    function buildFarm(uint16 _locx, uint16 _locy, uint32 tokenStaked) public isEmpty(_locx, _locy, 1) {\r\n        uint32 index = _locx + _locy * map_width + map_height * map_width;\r\n        uint32 blockNumber = uint32(block.number);\r\n        // Check if message sender approved for token to be staked in the smart contract  \r\n        uint64 landValue_32x32 = uint64(FixedPoint.sqrt(uint64(tokenStaked) << 32, 32, 32));\r\n        allEntities[index] = Entity(index, EntityType.FARM, blockNumber, landValue_32x32, _locx, _locy);\r\n        landValueAddedAtBlock[blockNumber] = uint64(FixedPoint.add(landValueAddedAtBlock[blockNumber], landValue_32x32, 32, 32, 32));\r\n        globalLandValue_32x32 = uint64(FixedPoint.add(globalLandValue_32x32, landValue_32x32, 32, 32, 32)); \r\n    }\r\n\r\n    // Requires implementation of ERC20 \r\n    function buildWall(uint16 _locx, uint16 _locy, uint32 tokenStaked) public isEmpty(_locx, _locy, 1) {\r\n        uint32 index = _locx + _locy * map_width + map_height * map_width;\r\n        uint32 blockNumber = uint32(block.number);\r\n        // Check if message sender approved for token to be staked in the smart contract  \r\n        uint64 wallFortification_32x32 = uint64(tokenStaked) << 32;\r\n        allEntities[index] = Entity(index, EntityType.WALL, blockNumber, wallFortification_32x32, _locx, _locy);\r\n        tokensBurntAtBlock[blockNumber] = tokensBurntAtBlock[blockNumber] + wallFortification_32x32;\r\n    }\r\n\r\n}\r\n",
  "sourcePath": "C:/Users/Kuan/Documents/GitHub/ether-empire/contracts/GameWorld.sol",
  "compiler": {
    "name": "solc",
    "version": "0.8.3+commit.8d00100c.Emscripten.clang"
  },
  "schemaVersion": "3.3.4",
  "updatedAt": "2021-05-02T20:59:00.456Z",
  "networkType": "ethereum",
  "devdoc": {
    "kind": "dev",
    "methods": {
      "owner()": {
        "details": "Returns the address of the current owner."
      },
      "renounceOwnership()": {
        "details": "Leaves the contract without owner. It will not be possible to call `onlyOwner` functions anymore. Can only be called by the current owner. NOTE: Renouncing ownership will leave the contract without an owner, thereby removing any functionality that is only available to the owner."
      },
      "transferOwnership(address)": {
        "details": "Transfers ownership of the contract to a new account (`newOwner`). Can only be called by the current owner."
      }
    },
    "version": 1
  },
  "userdoc": {
    "kind": "user",
    "methods": {},
    "version": 1
  }
}