{
  "contractName": "TokenAirDrop",
  "abi": [
    {
      "inputs": [
        {
          "internalType": "contract ERC20",
          "name": "_token",
          "type": "address"
        },
        {
          "internalType": "uint256",
          "name": "_fixedRate",
          "type": "uint256"
        }
      ],
      "stateMutability": "nonpayable",
      "type": "constructor"
    },
    {
      "inputs": [],
      "name": "buy",
      "outputs": [],
      "stateMutability": "payable",
      "type": "function"
    },
    {
      "inputs": [],
      "name": "remainingTokens",
      "outputs": [
        {
          "internalType": "uint256",
          "name": "",
          "type": "uint256"
        }
      ],
      "stateMutability": "view",
      "type": "function"
    }
  ],
  "bytecode": "0x608060405234801561001057600080fd5b50604051610697380380610697833981810160405281019061003291906100eb565b336000806101000a81548173ffffffffffffffffffffffffffffffffffffffff021916908373ffffffffffffffffffffffffffffffffffffffff1602179055508060028190555081600160006101000a81548173ffffffffffffffffffffffffffffffffffffffff021916908373ffffffffffffffffffffffffffffffffffffffff16021790555050506101a3565b6000815190506100d081610175565b92915050565b6000815190506100e58161018c565b92915050565b600080604083850312156100fe57600080fd5b600061010c858286016100c1565b925050602061011d858286016100d6565b9150509250929050565b60006101328261014b565b9050919050565b600061014482610127565b9050919050565b600073ffffffffffffffffffffffffffffffffffffffff82169050919050565b6000819050919050565b61017e81610139565b811461018957600080fd5b50565b6101958161016b565b81146101a057600080fd5b50565b6104e5806101b26000396000f3fe6080604052600436106100295760003560e01c8063a6f2ae3a1461002e578063bf58390314610038575b600080fd5b610036610063565b005b34801561004457600080fd5b5061004d6101ab565b60405161005a9190610388565b60405180910390f35b60008054906101000a900473ffffffffffffffffffffffffffffffffffffffff1673ffffffffffffffffffffffffffffffffffffffff166108fc349081150290604051600060405180830381858888f193505050501580156100c9573d6000803e3d6000fd5b50600160009054906101000a900473ffffffffffffffffffffffffffffffffffffffff1673ffffffffffffffffffffffffffffffffffffffff166323b872dd60008054906101000a900473ffffffffffffffffffffffffffffffffffffffff16336002543461013891906103a3565b6040518463ffffffff1660e01b815260040161015693929190610351565b602060405180830381600087803b15801561017057600080fd5b505af1158015610184573d6000803e3d6000fd5b505050506040513d601f19601f820116820180604052508101906101a891906102a9565b50565b6000600160009054906101000a900473ffffffffffffffffffffffffffffffffffffffff1673ffffffffffffffffffffffffffffffffffffffff1663dd62ed3e60008054906101000a900473ffffffffffffffffffffffffffffffffffffffff16306040518363ffffffff1660e01b815260040161022a929190610328565b60206040518083038186803b15801561024257600080fd5b505afa158015610256573d6000803e3d6000fd5b505050506040513d601f19601f8201168201806040525081019061027a91906102d2565b905090565b60008151905061028e81610481565b92915050565b6000815190506102a381610498565b92915050565b6000602082840312156102bb57600080fd5b60006102c98482850161027f565b91505092915050565b6000602082840312156102e457600080fd5b60006102f284828501610294565b91505092915050565b6103048161041c565b82525050565b610313816103d4565b82525050565b61032281610412565b82525050565b600060408201905061033d60008301856102fb565b61034a602083018461030a565b9392505050565b600060608201905061036660008301866102fb565b610373602083018561030a565b6103806040830184610319565b949350505050565b600060208201905061039d6000830184610319565b92915050565b60006103ae82610412565b91506103b983610412565b9250826103c9576103c8610452565b5b828204905092915050565b60006103df826103f2565b9050919050565b60008115159050919050565b600073ffffffffffffffffffffffffffffffffffffffff82169050919050565b6000819050919050565b60006104278261042e565b9050919050565b600061043982610440565b9050919050565b600061044b826103f2565b9050919050565b7f4e487b7100000000000000000000000000000000000000000000000000000000600052601260045260246000fd5b61048a816103e6565b811461049557600080fd5b50565b6104a181610412565b81146104ac57600080fd5b5056fea2646970667358221220282b8de8e81ff6984d65e971e96bc616118a24c9e264f9cb797ac77a0bdd484a64736f6c63430008030033",
  "immutableReferences": {},
  "source": "// SPDX-License-Identifier: MIT\r\npragma solidity ^0.8.3;\r\nimport \"@openzeppelin/contracts/token/ERC20/ERC20.sol\";\r\n\r\n\r\n// THIS IS NOT INTENDED FOR PRODUCTION USE, ONLY FOR TESTING\r\ncontract TokenAirDrop {\r\n    address payable owner;\r\n    ERC20 token;\r\n    uint fixedRate;\r\n\r\n    constructor(ERC20 _token, uint _fixedRate) {\r\n        owner = payable(msg.sender);\r\n        fixedRate = _fixedRate;\r\n        token = _token; \r\n    }\r\n\r\n    function buy() external payable {\r\n        owner.transfer(msg.value);\r\n        token.transferFrom(owner, msg.sender, msg.value / fixedRate);\r\n    }\r\n\r\n    function remainingTokens() external view returns(uint) {\r\n        return token.allowance(owner, address(this));\r\n    }\r\n}",
  "sourcePath": "C:/Users/Daniel/Desktop/Coding Projects/ether-empire/contracts/TokenAirDrop.sol",
  "compiler": {
    "name": "solc",
    "version": "0.8.3+commit.8d00100c.Emscripten.clang"
  },
  "schemaVersion": "3.3.4",
  "updatedAt": "2021-05-08T21:15:23.519Z",
  "devdoc": {
    "kind": "dev",
    "methods": {},
    "version": 1
  },
  "userdoc": {
    "kind": "user",
    "methods": {},
    "version": 1
  }
}