{
  "contractName": "TokenAirDrop",
  "abi": [
    {
      "inputs": [
        {
          "internalType": "contract ERC20",
          "name": "_token",
          "type": "address"
        },
        {
          "internalType": "uint256",
          "name": "_airdropAmount",
          "type": "uint256"
        }
      ],
      "stateMutability": "nonpayable",
      "type": "constructor"
    },
    {
      "anonymous": false,
      "inputs": [
        {
          "indexed": true,
          "internalType": "address",
          "name": "previousOwner",
          "type": "address"
        },
        {
          "indexed": true,
          "internalType": "address",
          "name": "newOwner",
          "type": "address"
        }
      ],
      "name": "OwnershipTransferred",
      "type": "event"
    },
    {
      "inputs": [],
      "name": "owner",
      "outputs": [
        {
          "internalType": "address",
          "name": "",
          "type": "address"
        }
      ],
      "stateMutability": "view",
      "type": "function",
      "constant": true
    },
    {
      "inputs": [],
      "name": "renounceOwnership",
      "outputs": [],
      "stateMutability": "nonpayable",
      "type": "function"
    },
    {
      "inputs": [
        {
          "internalType": "address",
          "name": "newOwner",
          "type": "address"
        }
      ],
      "name": "transferOwnership",
      "outputs": [],
      "stateMutability": "nonpayable",
      "type": "function"
    },
    {
      "inputs": [
        {
          "internalType": "string",
          "name": "_secret",
          "type": "string"
        }
      ],
      "name": "setSecret",
      "outputs": [],
      "stateMutability": "nonpayable",
      "type": "function"
    },
    {
      "inputs": [
        {
          "internalType": "uint256",
          "name": "_key",
          "type": "uint256"
        },
        {
          "internalType": "string",
          "name": "_identifier",
          "type": "string"
        }
      ],
      "name": "claim",
      "outputs": [],
      "stateMutability": "nonpayable",
      "type": "function"
    },
    {
      "inputs": [],
      "name": "remainingTokens",
      "outputs": [
        {
          "internalType": "uint256",
          "name": "",
          "type": "uint256"
        }
      ],
      "stateMutability": "view",
      "type": "function",
      "constant": true
    }
  ],
  "bytecode": "0x60806040523480156200001157600080fd5b50604051620012f4380380620012f4833981810160405281019062000037919062000175565b6000620000496200013f60201b60201c565b9050806000806101000a81548173ffffffffffffffffffffffffffffffffffffffff021916908373ffffffffffffffffffffffffffffffffffffffff1602179055508073ffffffffffffffffffffffffffffffffffffffff16600073ffffffffffffffffffffffffffffffffffffffff167f8be0079c531659141344cd1fd0a4f28419497f9722a3daafe3b4186f6b6457e060405160405180910390a3508060048190555081600360006101000a81548173ffffffffffffffffffffffffffffffffffffffff021916908373ffffffffffffffffffffffffffffffffffffffff160217905550600060028190555050506200023c565b600033905090565b600081519050620001588162000208565b92915050565b6000815190506200016f8162000222565b92915050565b600080604083850312156200018957600080fd5b6000620001998582860162000147565b9250506020620001ac858286016200015e565b9150509250929050565b6000620001c382620001de565b9050919050565b6000620001d782620001b6565b9050919050565b600073ffffffffffffffffffffffffffffffffffffffff82169050919050565b6000819050919050565b6200021381620001ca565b81146200021f57600080fd5b50565b6200022d81620001fe565b81146200023957600080fd5b50565b6110a8806200024c6000396000f3fe608060405234801561001057600080fd5b50600436106100625760003560e01c8063268b15ed14610067578063715018a6146100835780637ed6c9261461008d5780638da5cb5b146100a9578063bf583903146100c7578063f2fde38b146100e5575b600080fd5b610081600480360381019061007c9190610a74565b610101565b005b61008b6103b9565b005b6100a760048036038101906100a29190610a06565b6104f3565b005b6100b1610585565b6040516100be9190610c88565b60405180910390f35b6100cf6105ae565b6040516100dc9190610d83565b60405180910390f35b6100ff60048036038101906100fa91906109b4565b610669565b005b828282600560405160200161011893929190610c4b565b6040516020818303038152906040528051906020012060001c14610171576040517f08c379a000000000000000000000000000000000000000000000000000000000815260040161016890610d23565b60405180910390fd5b6000805b6002548110156102b657610299600182815481106101bc577f4e487b7100000000000000000000000000000000000000000000000000000000600052603260045260246000fd5b9060005260206000200180546101d190610e64565b80601f01602080910402602001604051908101604052809291908181526020018280546101fd90610e64565b801561024a5780601f1061021f5761010080835404028352916020019161024a565b820191906000526020600020905b81548152906001019060200180831161022d57829003601f168201915b505050505085858080601f016020809104026020016040519081016040528093929190818152602001838380828437600081840152601f19601f82011690508083019250505050505050610812565b156102a357600191505b80806102ae90610e96565b915050610175565b5080156102f8576040517f08c379a00000000000000000000000000000000000000000000000000000000081526004016102ef90610d43565b60405180910390fd5b600360009054906101000a900473ffffffffffffffffffffffffffffffffffffffff1673ffffffffffffffffffffffffffffffffffffffff166323b872dd61033e610585565b336004546040518463ffffffff1660e01b815260040161036093929190610ccc565b602060405180830381600087803b15801561037a57600080fd5b505af115801561038e573d6000803e3d6000fd5b505050506040513d601f19601f820116820180604052508101906103b291906109dd565b5050505050565b6103c161086b565b73ffffffffffffffffffffffffffffffffffffffff166103df610585565b73ffffffffffffffffffffffffffffffffffffffff1614610435576040517f08c379a000000000000000000000000000000000000000000000000000000000815260040161042c90610d63565b60405180910390fd5b600073ffffffffffffffffffffffffffffffffffffffff1660008054906101000a900473ffffffffffffffffffffffffffffffffffffffff1673ffffffffffffffffffffffffffffffffffffffff167f8be0079c531659141344cd1fd0a4f28419497f9722a3daafe3b4186f6b6457e060405160405180910390a360008060006101000a81548173ffffffffffffffffffffffffffffffffffffffff021916908373ffffffffffffffffffffffffffffffffffffffff160217905550565b6104fb61086b565b73ffffffffffffffffffffffffffffffffffffffff16610519610585565b73ffffffffffffffffffffffffffffffffffffffff161461056f576040517f08c379a000000000000000000000000000000000000000000000000000000000815260040161056690610d63565b60405180910390fd5b818160059190610580929190610873565b505050565b60008060009054906101000a900473ffffffffffffffffffffffffffffffffffffffff16905090565b6000600360009054906101000a900473ffffffffffffffffffffffffffffffffffffffff1673ffffffffffffffffffffffffffffffffffffffff1663dd62ed3e6105f6610585565b306040518363ffffffff1660e01b8152600401610614929190610ca3565b60206040518083038186803b15801561062c57600080fd5b505afa158015610640573d6000803e3d6000fd5b505050506040513d601f19601f820116820180604052508101906106649190610a4b565b905090565b61067161086b565b73ffffffffffffffffffffffffffffffffffffffff1661068f610585565b73ffffffffffffffffffffffffffffffffffffffff16146106e5576040517f08c379a00000000000000000000000000000000000000000000000000000000081526004016106dc90610d63565b60405180910390fd5b600073ffffffffffffffffffffffffffffffffffffffff168173ffffffffffffffffffffffffffffffffffffffff161415610755576040517f08c379a000000000000000000000000000000000000000000000000000000000815260040161074c90610d03565b60405180910390fd5b8073ffffffffffffffffffffffffffffffffffffffff1660008054906101000a900473ffffffffffffffffffffffffffffffffffffffff1673ffffffffffffffffffffffffffffffffffffffff167f8be0079c531659141344cd1fd0a4f28419497f9722a3daafe3b4186f6b6457e060405160405180910390a3806000806101000a81548173ffffffffffffffffffffffffffffffffffffffff021916908373ffffffffffffffffffffffffffffffffffffffff16021790555050565b6000816040516020016108259190610c71565b604051602081830303815290604052805190602001208360405160200161084c9190610c71565b6040516020818303038152906040528051906020012014905092915050565b600033905090565b82805461087f90610e64565b90600052602060002090601f0160209004810192826108a157600085556108e8565b82601f106108ba57803560ff19168380011785556108e8565b828001600101855582156108e8579182015b828111156108e75782358255916020019190600101906108cc565b5b5090506108f591906108f9565b5090565b5b808211156109125760008160009055506001016108fa565b5090565b6000813590506109258161102d565b92915050565b60008151905061093a81611044565b92915050565b60008083601f84011261095257600080fd5b8235905067ffffffffffffffff81111561096b57600080fd5b60208301915083600182028301111561098357600080fd5b9250929050565b6000813590506109998161105b565b92915050565b6000815190506109ae8161105b565b92915050565b6000602082840312156109c657600080fd5b60006109d484828501610916565b91505092915050565b6000602082840312156109ef57600080fd5b60006109fd8482850161092b565b91505092915050565b60008060208385031215610a1957600080fd5b600083013567ffffffffffffffff811115610a3357600080fd5b610a3f85828601610940565b92509250509250929050565b600060208284031215610a5d57600080fd5b6000610a6b8482850161099f565b91505092915050565b600080600060408486031215610a8957600080fd5b6000610a978682870161098a565b935050602084013567ffffffffffffffff811115610ab457600080fd5b610ac086828701610940565b92509250509250925092565b610ad581610dda565b82525050565b6000610ae78385610dcf565b9350610af4838584610e22565b82840190509392505050565b6000610b0b82610db3565b610b158185610dcf565b9350610b25818560208601610e31565b80840191505092915050565b60008154610b3e81610e64565b610b488186610dcf565b94506001821660008114610b635760018114610b7457610ba7565b60ff19831686528186019350610ba7565b610b7d85610d9e565b60005b83811015610b9f57815481890152600182019150602081019050610b80565b838801955050505b50505092915050565b6000610bbd602683610dbe565b9150610bc882610f3d565b604082019050919050565b6000610be0601683610dbe565b9150610beb82610f8c565b602082019050919050565b6000610c03602483610dbe565b9150610c0e82610fb5565b604082019050919050565b6000610c26602083610dbe565b9150610c3182611004565b602082019050919050565b610c4581610e18565b82525050565b6000610c58828587610adb565b9150610c648284610b31565b9150819050949350505050565b6000610c7d8284610b00565b915081905092915050565b6000602082019050610c9d6000830184610acc565b92915050565b6000604082019050610cb86000830185610acc565b610cc56020830184610acc565b9392505050565b6000606082019050610ce16000830186610acc565b610cee6020830185610acc565b610cfb6040830184610c3c565b949350505050565b60006020820190508181036000830152610d1c81610bb0565b9050919050565b60006020820190508181036000830152610d3c81610bd3565b9050919050565b60006020820190508181036000830152610d5c81610bf6565b9050919050565b60006020820190508181036000830152610d7c81610c19565b9050919050565b6000602082019050610d986000830184610c3c565b92915050565b60008190508160005260206000209050919050565b600081519050919050565b600082825260208201905092915050565b600081905092915050565b6000610de582610df8565b9050919050565b60008115159050919050565b600073ffffffffffffffffffffffffffffffffffffffff82169050919050565b6000819050919050565b82818337600083830152505050565b60005b83811015610e4f578082015181840152602081019050610e34565b83811115610e5e576000848401525b50505050565b60006002820490506001821680610e7c57607f821691505b60208210811415610e9057610e8f610f0e565b5b50919050565b6000610ea182610e18565b91507fffffffffffffffffffffffffffffffffffffffffffffffffffffffffffffffff821415610ed457610ed3610edf565b5b600182019050919050565b7f4e487b7100000000000000000000000000000000000000000000000000000000600052601160045260246000fd5b7f4e487b7100000000000000000000000000000000000000000000000000000000600052602260045260246000fd5b7f4f776e61626c653a206e6577206f776e657220697320746865207a65726f206160008201527f6464726573730000000000000000000000000000000000000000000000000000602082015250565b7f4b657920646f6573206e6f74206d617463682049442100000000000000000000600082015250565b7f596f7520616c726561647920636c61696d65642074686520746f6b656e73206f60008201527f6e63652100000000000000000000000000000000000000000000000000000000602082015250565b7f4f776e61626c653a2063616c6c6572206973206e6f7420746865206f776e6572600082015250565b61103681610dda565b811461104157600080fd5b50565b61104d81610dec565b811461105857600080fd5b50565b61106481610e18565b811461106f57600080fd5b5056fea26469706673582212206ad5dcbfddfa42b8fa3b532bce876b2a43fe2ae406f810fafa512aac9e8a232364736f6c63430008030033",
  "immutableReferences": {},
  "source": "// SPDX-License-Identifier: MIT\npragma solidity ^0.8.3;\nimport \"@openzeppelin/contracts/token/ERC20/ERC20.sol\";\nimport \"@openzeppelin/contracts/access/Ownable.sol\";\n\n// THIS IS NOT INTENDED FOR PRODUCTION USE, ONLY FOR TESTING\ncontract TokenAirDrop is Ownable {\n    string[] claimed;\n    uint256 claimedCount;\n    ERC20 token;\n    uint256 airdropAmount;\n    string secret;\n\n    constructor(ERC20 _token, uint256 _airdropAmount) {\n        airdropAmount = _airdropAmount;\n        token = _token;\n        claimedCount = 0;\n    }\n\n    function setSecret(string calldata _secret) external onlyOwner {\n        secret = _secret;\n    }\n\n    function _compareStrings(string memory a, string memory b)\n        internal\n        pure\n        returns (bool)\n    {\n        return (keccak256(abi.encodePacked((a))) ==\n            keccak256(abi.encodePacked((b))));\n    }\n\n    function claim(uint256 _key, string calldata _identifier) external {\n        require(\n            uint256(keccak256(abi.encodePacked(_identifier, secret))) == _key,\n            \"Key does not match ID!\"\n        );\n\n        bool hasClaimed = false;\n        for (uint256 i = 0; i < claimedCount; i++) {\n            if (_compareStrings(claimed[i], _identifier)) hasClaimed = true;\n        }\n        require(!hasClaimed, \"You already claimed the tokens once!\");\n\n        token.transferFrom(owner(), msg.sender, airdropAmount);\n    }\n\n    function remainingTokens() external view returns (uint256) {\n        return token.allowance(owner(), address(this));\n    }\n}\n",
  "sourcePath": "/Users/jacky/Personal-Projects/ether-empire/contracts/TokenAirDrop.sol",
  "compiler": {
    "name": "solc",
    "version": "0.8.3+commit.8d00100c.Emscripten.clang"
  },
  "schemaVersion": "3.3.4",
  "updatedAt": "2021-05-12T06:41:18.552Z",
  "networkType": "ethereum",
  "devdoc": {
    "kind": "dev",
    "methods": {
      "owner()": {
        "details": "Returns the address of the current owner."
      },
      "renounceOwnership()": {
        "details": "Leaves the contract without owner. It will not be possible to call `onlyOwner` functions anymore. Can only be called by the current owner. NOTE: Renouncing ownership will leave the contract without an owner, thereby removing any functionality that is only available to the owner."
      },
      "transferOwnership(address)": {
        "details": "Transfers ownership of the contract to a new account (`newOwner`). Can only be called by the current owner."
      }
    },
    "version": 1
  },
  "userdoc": {
    "kind": "user",
    "methods": {},
    "version": 1
  }
}